{
  "_format": "hh-sol-artifact-1",
  "contractName": "TransferHelper",
  "sourceName": "contracts/libs/TransferHelper.sol",
  "abi": [
    {
      "inputs": [
        {
          "internalType": "address",
          "name": "nftaddress",
          "type": "address"
        },
        {
          "internalType": "uint256",
          "name": "tokenId",
          "type": "uint256"
        },
        {
          "internalType": "uint256",
          "name": "_value",
          "type": "uint256"
        }
      ],
      "name": "HelpRoyalties",
      "outputs": [
        {
          "internalType": "address",
          "name": "",
          "type": "address"
        },
        {
          "internalType": "uint256",
          "name": "",
          "type": "uint256"
        }
      ],
      "stateMutability": "view",
      "type": "function"
    }
  ],
  "bytecode": "0x610546610026600b82828239805160001a60731461001957fe5b30600052607381538281f3fe73000000000000000000000000000000000000000030146080604052600436106100355760003560e01c8063f938761c1461003a575b600080fd5b6100906004803603606081101561005057600080fd5b81019080803573ffffffffffffffffffffffffffffffffffffffff16906020019092919080359060200190929190803590602001909291905050506100c3565b604051808373ffffffffffffffffffffffffffffffffffffffff1681526020018281526020019250505060405180910390f35b600080600060608673ffffffffffffffffffffffffffffffffffffffff16868660405160240180838152602001828152602001925050506040516020818303038152906040527f2a55205a000000000000000000000000000000000000000000000000000000007bffffffffffffffffffffffffffffffffffffffffffffffffffffffff19166020820180517bffffffffffffffffffffffffffffffffffffffffffffffffffffffff83818316178352505050506040518082805190602001908083835b602083106101aa5780518252602082019150602081019050602083039250610187565b6001836020036101000a038019825116818451168082178552505050505050905001915050600060405180830381855afa9150503d806000811461020a576040519150601f19603f3d011682016040523d82523d6000602084013e61020f565b606091505b5091509150818015610222575060408151145b156103475760008082806020019051604081101561023f57600080fd5b81019080805190602001909291908051906020019092919050505091509150600073ffffffffffffffffffffffffffffffffffffffff168273ffffffffffffffffffffffffffffffffffffffff161415801561029b5750600081115b80156102cd57506102c960646102bb60328a61035990919063ffffffff16565b6103df90919063ffffffff16565b8111155b156102e15781819550955050505050610351565b61030860646102fa60328a61035990919063ffffffff16565b6103df90919063ffffffff16565b8111156103445781610337606461032960328b61035990919063ffffffff16565b6103df90919063ffffffff16565b9550955050505050610351565b50505b6000809350935050505b935093915050565b60008083141561036c57600090506103d9565b600082840290508284828161037d57fe5b04146103d4576040517f08c379a00000000000000000000000000000000000000000000000000000000081526004018080602001828103825260218152602001806104f06021913960400191505060405180910390fd5b809150505b92915050565b600061042183836040518060400160405280601a81526020017f536166654d6174683a206469766973696f6e206279207a65726f000000000000815250610429565b905092915050565b600080831182906104d5576040517f08c379a00000000000000000000000000000000000000000000000000000000081526004018080602001828103825283818151815260200191508051906020019080838360005b8381101561049a57808201518184015260208101905061047f565b50505050905090810190601f1680156104c75780820380516001836020036101000a031916815260200191505b509250505060405180910390fd5b5060008385816104e157fe5b04905080915050939250505056fe536166654d6174683a206d756c7469706c69636174696f6e206f766572666c6f77a2646970667358221220d36da0f83250d02ee1391398ef1e45e1022f3eef8f046ff7c5635e760daf98f164736f6c634300060c0033",
  "linkReferences": {},
  "deployedLinkReferences": {}
}