{
	"BarterswapRouter.sol": {
		"BarterswapRouterV1": {
			"abi": [
				{
					"inputs": [
						{
							"internalType": "address",
							"name": "_feeToAdmin",
							"type": "address"
						}
					],
					"stateMutability": "nonpayable",
					"type": "constructor"
				},
				{
					"inputs": [
						{
							"internalType": "uint256",
							"name": "amountin",
							"type": "uint256"
						},
						{
							"internalType": "address",
							"name": "_to",
							"type": "address"
						}
					],
					"name": "ethToWeth",
					"outputs": [],
					"stateMutability": "payable",
					"type": "function"
				},
				{
					"inputs": [],
					"name": "feeTo",
					"outputs": [
						{
							"internalType": "address payable",
							"name": "",
							"type": "address"
						}
					],
					"stateMutability": "view",
					"type": "function"
				},
				{
					"inputs": [],
					"name": "feeToAdmin",
					"outputs": [
						{
							"internalType": "address",
							"name": "",
							"type": "address"
						}
					],
					"stateMutability": "view",
					"type": "function"
				},
				{
					"inputs": [],
					"name": "fees",
					"outputs": [
						{
							"internalType": "uint256",
							"name": "",
							"type": "uint256"
						}
					],
					"stateMutability": "view",
					"type": "function"
				},
				{
					"inputs": [
						{
							"internalType": "uint256[]",
							"name": "amountInArr",
							"type": "uint256[]"
						}
					],
					"name": "getAmountInAll",
					"outputs": [
						{
							"internalType": "uint256",
							"name": "",
							"type": "uint256"
						}
					],
					"stateMutability": "pure",
					"type": "function"
				},
				{
					"inputs": [
						{
							"internalType": "address",
							"name": "_routerArr",
							"type": "address"
						}
					],
					"name": "getWeth",
					"outputs": [
						{
							"internalType": "address",
							"name": "WETH",
							"type": "address"
						}
					],
					"stateMutability": "pure",
					"type": "function"
				},
				{
					"inputs": [
						{
							"components": [
								{
									"internalType": "uint256[]",
									"name": "amountInArr",
									"type": "uint256[]"
								},
								{
									"internalType": "uint256[]",
									"name": "amountOutMinArr",
									"type": "uint256[]"
								},
								{
									"internalType": "bytes[]",
									"name": "pathArr",
									"type": "bytes[]"
								},
								{
									"internalType": "address payable",
									"name": "to",
									"type": "address"
								},
								{
									"internalType": "uint256",
									"name": "deadLine",
									"type": "uint256"
								},
								{
									"internalType": "address",
									"name": "inputAddre",
									"type": "address"
								},
								{
									"internalType": "address",
									"name": "outAddre",
									"type": "address"
								},
								{
									"internalType": "uint256[]",
									"name": "routerIndex",
									"type": "uint256[]"
								},
								{
									"internalType": "uint256[]",
									"name": "crvParams",
									"type": "uint256[]"
								},
								{
									"components": [
										{
											"internalType": "bytes32",
											"name": "poolId",
											"type": "bytes32"
										},
										{
											"internalType": "uint256",
											"name": "assetInIndex",
											"type": "uint256"
										},
										{
											"internalType": "uint256",
											"name": "assetOutIndex",
											"type": "uint256"
										},
										{
											"internalType": "uint256",
											"name": "amount",
											"type": "uint256"
										},
										{
											"internalType": "bytes",
											"name": "userData",
											"type": "bytes"
										}
									],
									"internalType": "struct IVault.BatchSwapStep[]",
									"name": "batchSwapSteps",
									"type": "tuple[]"
								},
								{
									"components": [
										{
											"internalType": "address",
											"name": "sender",
											"type": "address"
										},
										{
											"internalType": "bool",
											"name": "fromInternalBalance",
											"type": "bool"
										},
										{
											"internalType": "address payable",
											"name": "recipient",
											"type": "address"
										},
										{
											"internalType": "bool",
											"name": "toInternalBalance",
											"type": "bool"
										}
									],
									"internalType": "struct IVault.FundManagement",
									"name": "fundManaGements",
									"type": "tuple"
								},
								{
									"internalType": "int256[]",
									"name": "limits",
									"type": "int256[]"
								},
								{
									"internalType": "contract IAsset[]",
									"name": "assets",
									"type": "address[]"
								},
								{
									"internalType": "enum IVault.SwapKind",
									"name": "_kind",
									"type": "uint8"
								}
							],
							"internalType": "struct BarterswapRouterV1.AccessParams",
							"name": "params",
							"type": "tuple"
						}
					],
					"name": "multiSwap",
					"outputs": [],
					"stateMutability": "payable",
					"type": "function"
				},
				{
					"inputs": [
						{
							"internalType": "uint256",
							"name": "",
							"type": "uint256"
						}
					],
					"name": "routerAddreAll",
					"outputs": [
						{
							"internalType": "address",
							"name": "",
							"type": "address"
						}
					],
					"stateMutability": "view",
					"type": "function"
				},
				{
					"inputs": [
						{
							"internalType": "address payable",
							"name": "_feeTo",
							"type": "address"
						}
					],
					"name": "setFeeTo",
					"outputs": [
						{
							"internalType": "bool",
							"name": "",
							"type": "bool"
						}
					],
					"stateMutability": "nonpayable",
					"type": "function"
				},
				{
					"inputs": [
						{
							"internalType": "address",
							"name": "_feetoAdmin",
							"type": "address"
						}
					],
					"name": "setFeeToSetter",
					"outputs": [
						{
							"internalType": "bool",
							"name": "",
							"type": "bool"
						}
					],
					"stateMutability": "nonpayable",
					"type": "function"
				},
				{
					"inputs": [
						{
							"internalType": "uint256",
							"name": "_fees",
							"type": "uint256"
						}
					],
					"name": "setFees",
					"outputs": [
						{
							"internalType": "bool",
							"name": "",
							"type": "bool"
						}
					],
					"stateMutability": "nonpayable",
					"type": "function"
				},
				{
					"inputs": [
						{
							"internalType": "uint256",
							"name": "index",
							"type": "uint256"
						},
						{
							"internalType": "address",
							"name": "_routeraddre",
							"type": "address"
						}
					],
					"name": "setRouterAddreAll",
					"outputs": [
						{
							"internalType": "bool",
							"name": "",
							"type": "bool"
						}
					],
					"stateMutability": "nonpayable",
					"type": "function"
				},
				{
					"stateMutability": "payable",
					"type": "receive"
				}
			],
			"devdoc": {
				"kind": "dev",
				"methods": {},
				"version": 1
			},
			"evm": {
				"assembly": "    /* \"BarterswapRouter.sol\":401:6401  contract BarterswapRouterV1  {... */\n  mstore(0x40, 0x80)\n    /* \"BarterswapRouter.sol\":1374:1448  constructor(address _feeToAdmin) {... */\n  callvalue\n  dup1\n  iszero\n  tag_1\n  jumpi\n  0x00\n  dup1\n  revert\ntag_1:\n  pop\n  mload(0x40)\n  sub(codesize, bytecodeSize)\n  dup1\n  bytecodeSize\n  dup4\n  codecopy\n  dup2\n  dup2\n  add\n  0x40\n  mstore\n  dup2\n  add\n  swap1\n  tag_2\n  swap2\n  swap1\n  tag_3\n  jump\t// in\ntag_2:\n    /* \"BarterswapRouter.sol\":1430:1441  _feeToAdmin */\n  dup1\n    /* \"BarterswapRouter.sol\":1417:1427  feeToAdmin */\n  0x01\n  0x00\n    /* \"BarterswapRouter.sol\":1417:1441  feeToAdmin = _feeToAdmin */\n  0x0100\n  exp\n  dup2\n  sload\n  dup2\n  0xffffffffffffffffffffffffffffffffffffffff\n  mul\n  not\n  and\n  swap1\n  dup4\n  0xffffffffffffffffffffffffffffffffffffffff\n  and\n  mul\n  or\n  swap1\n  sstore\n  pop\n    /* \"BarterswapRouter.sol\":1374:1448  constructor(address _feeToAdmin) {... */\n  pop\n    /* \"BarterswapRouter.sol\":401:6401  contract BarterswapRouterV1  {... */\n  jump(tag_6)\n    /* \"#utility.yul\":7:150   */\ntag_8:\n  0x00\n    /* \"#utility.yul\":95:101   */\n  dup2\n    /* \"#utility.yul\":89:102   */\n  mload\n    /* \"#utility.yul\":80:102   */\n  swap1\n  pop\n    /* \"#utility.yul\":111:144   */\n  tag_10\n    /* \"#utility.yul\":138:143   */\n  dup2\n    /* \"#utility.yul\":111:144   */\n  tag_11\n  jump\t// in\ntag_10:\n    /* \"#utility.yul\":70:150   */\n  swap3\n  swap2\n  pop\n  pop\n  jump\t// out\n    /* \"#utility.yul\":156:440   */\ntag_3:\n  0x00\n    /* \"#utility.yul\":275:277   */\n  0x20\n    /* \"#utility.yul\":263:272   */\n  dup3\n    /* \"#utility.yul\":254:261   */\n  dup5\n    /* \"#utility.yul\":250:273   */\n  sub\n    /* \"#utility.yul\":246:278   */\n  slt\n    /* \"#utility.yul\":243:245   */\n  iszero\n  tag_13\n  jumpi\n    /* \"#utility.yul\":291:292   */\n  0x00\n    /* \"#utility.yul\":288:289   */\n  dup1\n    /* \"#utility.yul\":281:293   */\n  revert\n    /* \"#utility.yul\":243:245   */\ntag_13:\n    /* \"#utility.yul\":334:335   */\n  0x00\n    /* \"#utility.yul\":359:423   */\n  tag_14\n    /* \"#utility.yul\":415:422   */\n  dup5\n    /* \"#utility.yul\":406:412   */\n  dup3\n    /* \"#utility.yul\":395:404   */\n  dup6\n    /* \"#utility.yul\":391:413   */\n  add\n    /* \"#utility.yul\":359:423   */\n  tag_8\n  jump\t// in\ntag_14:\n    /* \"#utility.yul\":349:423   */\n  swap2\n  pop\n    /* \"#utility.yul\":305:433   */\n  pop\n    /* \"#utility.yul\":233:440   */\n  swap3\n  swap2\n  pop\n  pop\n  jump\t// out\n    /* \"#utility.yul\":446:542   */\ntag_15:\n  0x00\n    /* \"#utility.yul\":512:536   */\n  tag_17\n    /* \"#utility.yul\":530:535   */\n  dup3\n    /* \"#utility.yul\":512:536   */\n  tag_18\n  jump\t// in\ntag_17:\n    /* \"#utility.yul\":501:536   */\n  swap1\n  pop\n    /* \"#utility.yul\":491:542   */\n  swap2\n  swap1\n  pop\n  jump\t// out\n    /* \"#utility.yul\":548:674   */\ntag_18:\n  0x00\n    /* \"#utility.yul\":625:667   */\n  0xffffffffffffffffffffffffffffffffffffffff\n    /* \"#utility.yul\":618:623   */\n  dup3\n    /* \"#utility.yul\":614:668   */\n  and\n    /* \"#utility.yul\":603:668   */\n  swap1\n  pop\n    /* \"#utility.yul\":593:674   */\n  swap2\n  swap1\n  pop\n  jump\t// out\n    /* \"#utility.yul\":680:802   */\ntag_11:\n    /* \"#utility.yul\":753:777   */\n  tag_21\n    /* \"#utility.yul\":771:776   */\n  dup2\n    /* \"#utility.yul\":753:777   */\n  tag_15\n  jump\t// in\ntag_21:\n    /* \"#utility.yul\":746:751   */\n  dup2\n    /* \"#utility.yul\":743:778   */\n  eq\n    /* \"#utility.yul\":733:735   */\n  tag_22\n  jumpi\n    /* \"#utility.yul\":792:793   */\n  0x00\n    /* \"#utility.yul\":789:790   */\n  dup1\n    /* \"#utility.yul\":782:794   */\n  revert\n    /* \"#utility.yul\":733:735   */\ntag_22:\n    /* \"#utility.yul\":723:802   */\n  pop\n  jump\t// out\n    /* \"BarterswapRouter.sol\":401:6401  contract BarterswapRouterV1  {... */\ntag_6:\n  dataSize(sub_0)\n  dup1\n  dataOffset(sub_0)\n  0x00\n  codecopy\n  0x00\n  return\nstop\n\nsub_0: assembly {\n        /* \"BarterswapRouter.sol\":401:6401  contract BarterswapRouterV1  {... */\n      mstore(0x40, 0x80)\n      jumpi(tag_1, lt(calldatasize, 0x04))\n      shr(0xe0, calldataload(0x00))\n      dup1\n      0x9af1d35a\n      gt\n      tag_15\n      jumpi\n      dup1\n      0x9af1d35a\n      eq\n      tag_9\n      jumpi\n      dup1\n      0xa2e74af6\n      eq\n      tag_10\n      jumpi\n      dup1\n      0xef3858ab\n      eq\n      tag_11\n      jumpi\n      dup1\n      0xf46901ed\n      eq\n      tag_12\n      jumpi\n      dup1\n      0xf654df7a\n      eq\n      tag_13\n      jumpi\n      dup1\n      0xfd07291f\n      eq\n      tag_14\n      jumpi\n      jump(tag_2)\n    tag_15:\n      dup1\n      0x017e7e58\n      eq\n      tag_3\n      jumpi\n      dup1\n      0x239aad0a\n      eq\n      tag_4\n      jumpi\n      dup1\n      0x257b66b0\n      eq\n      tag_5\n      jumpi\n      dup1\n      0x3d18678e\n      eq\n      tag_6\n      jumpi\n      dup1\n      0x8ac051f2\n      eq\n      tag_7\n      jumpi\n      dup1\n      0x8e7fa96a\n      eq\n      tag_8\n      jumpi\n      jump(tag_2)\n    tag_1:\n      jumpi(tag_2, calldatasize)\n      stop\n    tag_2:\n      0x00\n      dup1\n      revert\n        /* \"BarterswapRouter.sol\":469:499  address  payable public  feeTo */\n    tag_3:\n      callvalue\n      dup1\n      iszero\n      tag_18\n      jumpi\n      0x00\n      dup1\n      revert\n    tag_18:\n      pop\n      tag_19\n      tag_20\n      jump\t// in\n    tag_19:\n      mload(0x40)\n      tag_21\n      swap2\n      swap1\n      tag_22\n      jump\t// in\n    tag_21:\n      mload(0x40)\n      dup1\n      swap2\n      sub\n      swap1\n      return\n        /* \"BarterswapRouter.sol\":1460:2887  function multiSwap (AccessParams calldata params) external payable {    ... */\n    tag_4:\n      tag_23\n      0x04\n      dup1\n      calldatasize\n      sub\n      dup2\n      add\n      swap1\n      tag_24\n      swap2\n      swap1\n      tag_25\n      jump\t// in\n    tag_24:\n      tag_26\n      jump\t// in\n    tag_23:\n      stop\n        /* \"BarterswapRouter.sol\":561:610  mapping(uint256 => address) public routerAddreAll */\n    tag_5:\n      callvalue\n      dup1\n      iszero\n      tag_27\n      jumpi\n      0x00\n      dup1\n      revert\n    tag_27:\n      pop\n      tag_28\n      0x04\n      dup1\n      calldatasize\n      sub\n      dup2\n      add\n      swap1\n      tag_29\n      swap2\n      swap1\n      tag_30\n      jump\t// in\n    tag_29:\n      tag_31\n      jump\t// in\n    tag_28:\n      mload(0x40)\n      tag_32\n      swap2\n      swap1\n      tag_33\n      jump\t// in\n    tag_32:\n      mload(0x40)\n      dup1\n      swap2\n      sub\n      swap1\n      return\n        /* \"BarterswapRouter.sol\":5840:6004  function setFees(uint _fees) public onlyOwner returns(bool) {... */\n    tag_6:\n      callvalue\n      dup1\n      iszero\n      tag_34\n      jumpi\n      0x00\n      dup1\n      revert\n    tag_34:\n      pop\n      tag_35\n      0x04\n      dup1\n      calldatasize\n      sub\n      dup2\n      add\n      swap1\n      tag_36\n      swap2\n      swap1\n      tag_30\n      jump\t// in\n    tag_36:\n      tag_37\n      jump\t// in\n    tag_35:\n      mload(0x40)\n      tag_38\n      swap2\n      swap1\n      tag_39\n      jump\t// in\n    tag_38:\n      mload(0x40)\n      dup1\n      swap2\n      sub\n      swap1\n      return\n        /* \"BarterswapRouter.sol\":6260:6396  function getWeth(address _routerArr) public pure returns(address WETH){... */\n    tag_7:\n      callvalue\n      dup1\n      iszero\n      tag_40\n      jumpi\n      0x00\n      dup1\n      revert\n    tag_40:\n      pop\n      tag_41\n      0x04\n      dup1\n      calldatasize\n      sub\n      dup2\n      add\n      swap1\n      tag_42\n      swap2\n      swap1\n      tag_43\n      jump\t// in\n    tag_42:\n      tag_44\n      jump\t// in\n    tag_41:\n      mload(0x40)\n      tag_45\n      swap2\n      swap1\n      tag_33\n      jump\t// in\n    tag_45:\n      mload(0x40)\n      dup1\n      swap2\n      sub\n      swap1\n      return\n        /* \"BarterswapRouter.sol\":506:531  address public feeToAdmin */\n    tag_8:\n      callvalue\n      dup1\n      iszero\n      tag_46\n      jumpi\n      0x00\n      dup1\n      revert\n    tag_46:\n      pop\n      tag_47\n      tag_48\n      jump\t// in\n    tag_47:\n      mload(0x40)\n      tag_49\n      swap2\n      swap1\n      tag_33\n      jump\t// in\n    tag_49:\n      mload(0x40)\n      dup1\n      swap2\n      sub\n      swap1\n      return\n        /* \"BarterswapRouter.sol\":538:554  uint public fees */\n    tag_9:\n      callvalue\n      dup1\n      iszero\n      tag_50\n      jumpi\n      0x00\n      dup1\n      revert\n    tag_50:\n      pop\n      tag_51\n      tag_52\n      jump\t// in\n    tag_51:\n      mload(0x40)\n      tag_53\n      swap2\n      swap1\n      tag_54\n      jump\t// in\n    tag_53:\n      mload(0x40)\n      dup1\n      swap2\n      sub\n      swap1\n      return\n        /* \"BarterswapRouter.sol\":5620:5828  function setFeeToSetter(address _feetoAdmin) public onlyOwner returns(bool) {... */\n    tag_10:\n      callvalue\n      dup1\n      iszero\n      tag_55\n      jumpi\n      0x00\n      dup1\n      revert\n    tag_55:\n      pop\n      tag_56\n      0x04\n      dup1\n      calldatasize\n      sub\n      dup2\n      add\n      swap1\n      tag_57\n      swap2\n      swap1\n      tag_43\n      jump\t// in\n    tag_57:\n      tag_58\n      jump\t// in\n    tag_56:\n      mload(0x40)\n      tag_59\n      swap2\n      swap1\n      tag_39\n      jump\t// in\n    tag_59:\n      mload(0x40)\n      dup1\n      swap2\n      sub\n      swap1\n      return\n        /* \"BarterswapRouter.sol\":5037:5412  function ethToWeth(uint256 amountin, address _to) public payable {... */\n    tag_11:\n      tag_60\n      0x04\n      dup1\n      calldatasize\n      sub\n      dup2\n      add\n      swap1\n      tag_61\n      swap2\n      swap1\n      tag_62\n      jump\t// in\n    tag_61:\n      tag_63\n      jump\t// in\n    tag_60:\n      stop\n        /* \"BarterswapRouter.sol\":5419:5608  function setFeeTo(address payable _feeTo) public onlyOwner returns(bool) {... */\n    tag_12:\n      callvalue\n      dup1\n      iszero\n      tag_64\n      jumpi\n      0x00\n      dup1\n      revert\n    tag_64:\n      pop\n      tag_65\n      0x04\n      dup1\n      calldatasize\n      sub\n      dup2\n      add\n      swap1\n      tag_66\n      swap2\n      swap1\n      tag_67\n      jump\t// in\n    tag_66:\n      tag_68\n      jump\t// in\n    tag_65:\n      mload(0x40)\n      tag_69\n      swap2\n      swap1\n      tag_39\n      jump\t// in\n    tag_69:\n      mload(0x40)\n      dup1\n      swap2\n      sub\n      swap1\n      return\n        /* \"BarterswapRouter.sol\":6016:6253  function setRouterAddreAll(uint256 index ,address _routeraddre) public onlyOwner returns(bool){... */\n    tag_13:\n      callvalue\n      dup1\n      iszero\n      tag_70\n      jumpi\n      0x00\n      dup1\n      revert\n    tag_70:\n      pop\n      tag_71\n      0x04\n      dup1\n      calldatasize\n      sub\n      dup2\n      add\n      swap1\n      tag_72\n      swap2\n      swap1\n      tag_62\n      jump\t// in\n    tag_72:\n      tag_73\n      jump\t// in\n    tag_71:\n      mload(0x40)\n      tag_74\n      swap2\n      swap1\n      tag_39\n      jump\t// in\n    tag_74:\n      mload(0x40)\n      dup1\n      swap2\n      sub\n      swap1\n      return\n        /* \"BarterswapRouter.sol\":4759:5014  function getAmountInAll(uint256[] memory  amountInArr) public pure returns(uint256){... */\n    tag_14:\n      callvalue\n      dup1\n      iszero\n      tag_75\n      jumpi\n      0x00\n      dup1\n      revert\n    tag_75:\n      pop\n      tag_76\n      0x04\n      dup1\n      calldatasize\n      sub\n      dup2\n      add\n      swap1\n      tag_77\n      swap2\n      swap1\n      tag_78\n      jump\t// in\n    tag_77:\n      tag_79\n      jump\t// in\n    tag_76:\n      mload(0x40)\n      tag_80\n      swap2\n      swap1\n      tag_54\n      jump\t// in\n    tag_80:\n      mload(0x40)\n      dup1\n      swap2\n      sub\n      swap1\n      return\n        /* \"BarterswapRouter.sol\":469:499  address  payable public  feeTo */\n    tag_20:\n      0x00\n      dup1\n      sload\n      swap1\n      0x0100\n      exp\n      swap1\n      div\n      0xffffffffffffffffffffffffffffffffffffffff\n      and\n      dup2\n      jump\t// out\n        /* \"BarterswapRouter.sol\":1460:2887  function multiSwap (AccessParams calldata params) external payable {    ... */\n    tag_26:\n        /* \"BarterswapRouter.sol\":1545:1565  uint256 amountInArrs */\n      0x00\n        /* \"BarterswapRouter.sol\":1568:1602  getAmountInAll(params.amountInArr) */\n      tag_82\n        /* \"BarterswapRouter.sol\":1583:1589  params */\n      dup3\n        /* \"BarterswapRouter.sol\":1583:1601  params.amountInArr */\n      dup1\n      0x00\n      add\n      swap1\n      tag_83\n      swap2\n      swap1\n      tag_84\n      jump\t// in\n    tag_83:\n        /* \"BarterswapRouter.sol\":1568:1602  getAmountInAll(params.amountInArr) */\n      dup1\n      dup1\n      0x20\n      mul\n      0x20\n      add\n      mload(0x40)\n      swap1\n      dup2\n      add\n      0x40\n      mstore\n      dup1\n      swap4\n      swap3\n      swap2\n      swap1\n      dup2\n      dup2\n      mstore\n      0x20\n      add\n      dup4\n      dup4\n      0x20\n      mul\n      dup1\n      dup3\n      dup5\n      calldatacopy\n      0x00\n      dup2\n      dup5\n      add\n      mstore\n      not(0x1f)\n      0x1f\n      dup3\n      add\n      and\n      swap1\n      pop\n      dup1\n      dup4\n      add\n      swap3\n      pop\n      pop\n      pop\n      pop\n      pop\n      pop\n      pop\n        /* \"BarterswapRouter.sol\":1568:1582  getAmountInAll */\n      tag_79\n        /* \"BarterswapRouter.sol\":1568:1602  getAmountInAll(params.amountInArr) */\n      jump\t// in\n    tag_82:\n        /* \"BarterswapRouter.sol\":1545:1602  uint256 amountInArrs = getAmountInAll(params.amountInArr) */\n      swap1\n      pop\n        /* \"BarterswapRouter.sol\":1616:1630  uint256 toFees */\n      0x00\n        /* \"BarterswapRouter.sol\":1633:1665  amountInArrs.mul(fees).div(1e18) */\n      tag_85\n        /* \"BarterswapRouter.sol\":1660:1664  1e18 */\n      0x0de0b6b3a7640000\n        /* \"BarterswapRouter.sol\":1633:1655  amountInArrs.mul(fees) */\n      tag_86\n        /* \"BarterswapRouter.sol\":1650:1654  fees */\n      sload(0x02)\n        /* \"BarterswapRouter.sol\":1633:1645  amountInArrs */\n      dup6\n        /* \"BarterswapRouter.sol\":1633:1649  amountInArrs.mul */\n      tag_87\n      swap1\n        /* \"BarterswapRouter.sol\":1633:1655  amountInArrs.mul(fees) */\n      swap2\n      swap1\n      0xffffffff\n      and\n      jump\t// in\n    tag_86:\n        /* \"BarterswapRouter.sol\":1633:1659  amountInArrs.mul(fees).div */\n      tag_88\n      swap1\n        /* \"BarterswapRouter.sol\":1633:1665  amountInArrs.mul(fees).div(1e18) */\n      swap2\n      swap1\n      0xffffffff\n      and\n      jump\t// in\n    tag_85:\n        /* \"BarterswapRouter.sol\":1616:1665  uint256 toFees = amountInArrs.mul(fees).div(1e18) */\n      swap1\n      pop\n        /* \"BarterswapRouter.sol\":1712:1713  0 */\n      0x00\n        /* \"BarterswapRouter.sol\":1683:1714  params.inputAddre == address(0) */\n      0xffffffffffffffffffffffffffffffffffffffff\n      and\n        /* \"BarterswapRouter.sol\":1683:1689  params */\n      dup4\n        /* \"BarterswapRouter.sol\":1683:1700  params.inputAddre */\n      0xa0\n      add\n      0x20\n      dup2\n      add\n      swap1\n      tag_89\n      swap2\n      swap1\n      tag_43\n      jump\t// in\n    tag_89:\n        /* \"BarterswapRouter.sol\":1683:1714  params.inputAddre == address(0) */\n      0xffffffffffffffffffffffffffffffffffffffff\n      and\n      eq\n        /* \"BarterswapRouter.sol\":1680:2088  if(params.inputAddre == address(0)){... */\n      iszero\n      tag_90\n      jumpi\n        /* \"BarterswapRouter.sol\":1767:1773  toFees */\n      dup1\n        /* \"BarterswapRouter.sol\":1754:1766  amountInArrs */\n      dup3\n        /* \"BarterswapRouter.sol\":1754:1773  amountInArrs+toFees */\n      tag_91\n      swap2\n      swap1\n      tag_92\n      jump\t// in\n    tag_91:\n        /* \"BarterswapRouter.sol\":1741:1750  msg.value */\n      callvalue\n        /* \"BarterswapRouter.sol\":1741:1773  msg.value == amountInArrs+toFees */\n      eq\n        /* \"BarterswapRouter.sol\":1733:1791  require(msg.value == amountInArrs+toFees,\"Price is wrong\") */\n      tag_93\n      jumpi\n      mload(0x40)\n      0x08c379a000000000000000000000000000000000000000000000000000000000\n      dup2\n      mstore\n      0x04\n      add\n      tag_94\n      swap1\n      tag_95\n      jump\t// in\n    tag_94:\n      mload(0x40)\n      dup1\n      swap2\n      sub\n      swap1\n      revert\n    tag_93:\n        /* \"BarterswapRouter.sol\":1809:1853  TransferHelper.safeTransferETH(feeTo,toFees) */\n      tag_96\n        /* \"BarterswapRouter.sol\":1840:1845  feeTo */\n      0x00\n      dup1\n      sload\n      swap1\n      0x0100\n      exp\n      swap1\n      div\n      0xffffffffffffffffffffffffffffffffffffffff\n      and\n        /* \"BarterswapRouter.sol\":1846:1852  toFees */\n      dup3\n        /* \"BarterswapRouter.sol\":1809:1839  TransferHelper.safeTransferETH */\n      tag_97\n        /* \"BarterswapRouter.sol\":1809:1853  TransferHelper.safeTransferETH(feeTo,toFees) */\n      jump\t// in\n    tag_96:\n        /* \"BarterswapRouter.sol\":1680:2088  if(params.inputAddre == address(0)){... */\n      jump(tag_98)\n    tag_90:\n        /* \"BarterswapRouter.sol\":1891:1980  TransferHelper.safeTransferFrom(params.inputAddre,msg.sender,address(this),amountInArrs ) */\n      tag_99\n        /* \"BarterswapRouter.sol\":1923:1929  params */\n      dup4\n        /* \"BarterswapRouter.sol\":1923:1940  params.inputAddre */\n      0xa0\n      add\n      0x20\n      dup2\n      add\n      swap1\n      tag_100\n      swap2\n      swap1\n      tag_43\n      jump\t// in\n    tag_100:\n        /* \"BarterswapRouter.sol\":1941:1951  msg.sender */\n      caller\n        /* \"BarterswapRouter.sol\":1960:1964  this */\n      address\n        /* \"BarterswapRouter.sol\":1966:1978  amountInArrs */\n      dup6\n        /* \"BarterswapRouter.sol\":1891:1922  TransferHelper.safeTransferFrom */\n      tag_101\n        /* \"BarterswapRouter.sol\":1891:1980  TransferHelper.safeTransferFrom(params.inputAddre,msg.sender,address(this),amountInArrs ) */\n      jump\t// in\n    tag_99:\n        /* \"BarterswapRouter.sol\":1998:2072  TransferHelper.safeTransferFrom(params.inputAddre,msg.sender,feeTo,toFees) */\n      tag_102\n        /* \"BarterswapRouter.sol\":2030:2036  params */\n      dup4\n        /* \"BarterswapRouter.sol\":2030:2047  params.inputAddre */\n      0xa0\n      add\n      0x20\n      dup2\n      add\n      swap1\n      tag_103\n      swap2\n      swap1\n      tag_43\n      jump\t// in\n    tag_103:\n        /* \"BarterswapRouter.sol\":2048:2058  msg.sender */\n      caller\n        /* \"BarterswapRouter.sol\":2059:2064  feeTo */\n      0x00\n      dup1\n      sload\n      swap1\n      0x0100\n      exp\n      swap1\n      div\n      0xffffffffffffffffffffffffffffffffffffffff\n      and\n        /* \"BarterswapRouter.sol\":2065:2071  toFees */\n      dup5\n        /* \"BarterswapRouter.sol\":1998:2029  TransferHelper.safeTransferFrom */\n      tag_101\n        /* \"BarterswapRouter.sol\":1998:2072  TransferHelper.safeTransferFrom(params.inputAddre,msg.sender,feeTo,toFees) */\n      jump\t// in\n    tag_102:\n        /* \"BarterswapRouter.sol\":1680:2088  if(params.inputAddre == address(0)){... */\n    tag_98:\n        /* \"BarterswapRouter.sol\":2106:2112  uint i */\n      0x00\n        /* \"BarterswapRouter.sol\":2102:2877  for(uint i = 0; i < params.routerIndex.length; i++){... */\n    tag_104:\n        /* \"BarterswapRouter.sol\":2122:2128  params */\n      dup4\n        /* \"BarterswapRouter.sol\":2122:2140  params.routerIndex */\n      dup1\n      0xe0\n      add\n      swap1\n      tag_107\n      swap2\n      swap1\n      tag_84\n      jump\t// in\n    tag_107:\n        /* \"BarterswapRouter.sol\":2122:2147  params.routerIndex.length */\n      swap1\n      pop\n        /* \"BarterswapRouter.sol\":2118:2119  i */\n      dup2\n        /* \"BarterswapRouter.sol\":2118:2147  i < params.routerIndex.length */\n      lt\n        /* \"BarterswapRouter.sol\":2102:2877  for(uint i = 0; i < params.routerIndex.length; i++){... */\n      iszero\n      tag_105\n      jumpi\n        /* \"BarterswapRouter.sol\":2171:2185  address rindex */\n      0x00\n        /* \"BarterswapRouter.sol\":2188:2202  routerAddreAll */\n      0x03\n        /* \"BarterswapRouter.sol\":2188:2225  routerAddreAll[params.routerIndex[i]] */\n      0x00\n        /* \"BarterswapRouter.sol\":2203:2209  params */\n      dup7\n        /* \"BarterswapRouter.sol\":2203:2221  params.routerIndex */\n      dup1\n      0xe0\n      add\n      swap1\n      tag_108\n      swap2\n      swap1\n      tag_84\n      jump\t// in\n    tag_108:\n        /* \"BarterswapRouter.sol\":2222:2223  i */\n      dup6\n        /* \"BarterswapRouter.sol\":2203:2224  params.routerIndex[i] */\n      dup2\n      dup2\n      lt\n      tag_109\n      jumpi\n      mstore(0x00, 0x4e487b7100000000000000000000000000000000000000000000000000000000)\n      mstore(0x04, 0x32)\n      revert(0x00, 0x24)\n    tag_109:\n      swap1\n      pop\n      0x20\n      mul\n      add\n      calldataload\n        /* \"BarterswapRouter.sol\":2188:2225  routerAddreAll[params.routerIndex[i]] */\n      dup2\n      mstore\n      0x20\n      add\n      swap1\n      dup2\n      mstore\n      0x20\n      add\n      0x00\n      keccak256\n      0x00\n      swap1\n      sload\n      swap1\n      0x0100\n      exp\n      swap1\n      div\n      0xffffffffffffffffffffffffffffffffffffffff\n      and\n        /* \"BarterswapRouter.sol\":2171:2225  address rindex = routerAddreAll[params.routerIndex[i]] */\n      swap1\n      pop\n        /* \"BarterswapRouter.sol\":2252:2253  0 */\n      0x00\n        /* \"BarterswapRouter.sol\":2247:2248  i */\n      dup3\n        /* \"BarterswapRouter.sol\":2247:2253  i == 0 */\n      eq\n        /* \"BarterswapRouter.sol\":2247:2285  i == 0 && params.crvParams.length == 4 */\n      dup1\n      iszero\n      tag_110\n      jumpi\n      pop\n        /* \"BarterswapRouter.sol\":2284:2285  4 */\n      0x04\n        /* \"BarterswapRouter.sol\":2257:2263  params */\n      dup6\n        /* \"BarterswapRouter.sol\":2257:2273  params.crvParams */\n      dup1\n      0x0100\n      add\n      swap1\n      tag_111\n      swap2\n      swap1\n      tag_84\n      jump\t// in\n    tag_111:\n        /* \"BarterswapRouter.sol\":2257:2280  params.crvParams.length */\n      swap1\n      pop\n        /* \"BarterswapRouter.sol\":2257:2285  params.crvParams.length == 4 */\n      eq\n        /* \"BarterswapRouter.sol\":2247:2285  i == 0 && params.crvParams.length == 4 */\n    tag_110:\n        /* \"BarterswapRouter.sol\":2243:2859  if (i == 0 && params.crvParams.length == 4){... */\n      iszero\n      tag_112\n      jumpi\n        /* \"BarterswapRouter.sol\":2312:2392  crvSwap(params.inputAddre,rindex,params.to,params.crvParams[2],params.crvParams) */\n      tag_113\n        /* \"BarterswapRouter.sol\":2320:2326  params */\n      dup6\n        /* \"BarterswapRouter.sol\":2320:2337  params.inputAddre */\n      0xa0\n      add\n      0x20\n      dup2\n      add\n      swap1\n      tag_114\n      swap2\n      swap1\n      tag_43\n      jump\t// in\n    tag_114:\n        /* \"BarterswapRouter.sol\":2338:2344  rindex */\n      dup3\n        /* \"BarterswapRouter.sol\":2345:2351  params */\n      dup8\n        /* \"BarterswapRouter.sol\":2345:2354  params.to */\n      0x60\n      add\n      0x20\n      dup2\n      add\n      swap1\n      tag_115\n      swap2\n      swap1\n      tag_67\n      jump\t// in\n    tag_115:\n        /* \"BarterswapRouter.sol\":2355:2361  params */\n      dup9\n        /* \"BarterswapRouter.sol\":2355:2371  params.crvParams */\n      dup1\n      0x0100\n      add\n      swap1\n      tag_116\n      swap2\n      swap1\n      tag_84\n      jump\t// in\n    tag_116:\n        /* \"BarterswapRouter.sol\":2372:2373  2 */\n      0x02\n        /* \"BarterswapRouter.sol\":2355:2374  params.crvParams[2] */\n      dup2\n      dup2\n      lt\n      tag_117\n      jumpi\n      mstore(0x00, 0x4e487b7100000000000000000000000000000000000000000000000000000000)\n      mstore(0x04, 0x32)\n      revert(0x00, 0x24)\n    tag_117:\n      swap1\n      pop\n      0x20\n      mul\n      add\n      calldataload\n        /* \"BarterswapRouter.sol\":2375:2381  params */\n      dup10\n        /* \"BarterswapRouter.sol\":2375:2391  params.crvParams */\n      dup1\n      0x0100\n      add\n      swap1\n      tag_118\n      swap2\n      swap1\n      tag_84\n      jump\t// in\n    tag_118:\n        /* \"BarterswapRouter.sol\":2312:2392  crvSwap(params.inputAddre,rindex,params.to,params.crvParams[2],params.crvParams) */\n      dup1\n      dup1\n      0x20\n      mul\n      0x20\n      add\n      mload(0x40)\n      swap1\n      dup2\n      add\n      0x40\n      mstore\n      dup1\n      swap4\n      swap3\n      swap2\n      swap1\n      dup2\n      dup2\n      mstore\n      0x20\n      add\n      dup4\n      dup4\n      0x20\n      mul\n      dup1\n      dup3\n      dup5\n      calldatacopy\n      0x00\n      dup2\n      dup5\n      add\n      mstore\n      not(0x1f)\n      0x1f\n      dup3\n      add\n      and\n      swap1\n      pop\n      dup1\n      dup4\n      add\n      swap3\n      pop\n      pop\n      pop\n      pop\n      pop\n      pop\n      pop\n        /* \"BarterswapRouter.sol\":2312:2319  crvSwap */\n      tag_119\n        /* \"BarterswapRouter.sol\":2312:2392  crvSwap(params.inputAddre,rindex,params.to,params.crvParams[2],params.crvParams) */\n      jump\t// in\n    tag_113:\n        /* \"BarterswapRouter.sol\":2243:2859  if (i == 0 && params.crvParams.length == 4){... */\n      jump(tag_120)\n    tag_112:\n        /* \"BarterswapRouter.sol\":2424:2425  1 */\n      0x01\n        /* \"BarterswapRouter.sol\":2419:2420  i */\n      dup3\n        /* \"BarterswapRouter.sol\":2419:2425  i == 1 */\n      eq\n        /* \"BarterswapRouter.sol\":2419:2453  i == 1 && params.limits.length > 1 */\n      dup1\n      iszero\n      tag_121\n      jumpi\n      pop\n        /* \"BarterswapRouter.sol\":2452:2453  1 */\n      0x01\n        /* \"BarterswapRouter.sol\":2429:2435  params */\n      dup6\n        /* \"BarterswapRouter.sol\":2429:2442  params.limits */\n      dup1\n      0x01c0\n      add\n      swap1\n      tag_122\n      swap2\n      swap1\n      tag_123\n      jump\t// in\n    tag_122:\n        /* \"BarterswapRouter.sol\":2429:2449  params.limits.length */\n      swap1\n      pop\n        /* \"BarterswapRouter.sol\":2429:2453  params.limits.length > 1 */\n      gt\n        /* \"BarterswapRouter.sol\":2419:2453  i == 1 && params.limits.length > 1 */\n    tag_121:\n        /* \"BarterswapRouter.sol\":2416:2859  if(i == 1 && params.limits.length > 1){... */\n      iszero\n      tag_124\n      jumpi\n        /* \"BarterswapRouter.sol\":2498:2638  balancerSwap(params._kind,params.inputAddre,rindex,params.batchSwapSteps,params.fundManaGements,params.assets,params.limits,params.deadLine) */\n      tag_125\n        /* \"BarterswapRouter.sol\":2511:2517  params */\n      dup6\n        /* \"BarterswapRouter.sol\":2511:2523  params._kind */\n      0x0200\n      add\n      0x20\n      dup2\n      add\n      swap1\n      tag_126\n      swap2\n      swap1\n      tag_127\n      jump\t// in\n    tag_126:\n        /* \"BarterswapRouter.sol\":2524:2530  params */\n      dup7\n        /* \"BarterswapRouter.sol\":2524:2541  params.inputAddre */\n      0xa0\n      add\n      0x20\n      dup2\n      add\n      swap1\n      tag_128\n      swap2\n      swap1\n      tag_43\n      jump\t// in\n    tag_128:\n        /* \"BarterswapRouter.sol\":2542:2548  rindex */\n      dup4\n        /* \"BarterswapRouter.sol\":2549:2555  params */\n      dup9\n        /* \"BarterswapRouter.sol\":2549:2570  params.batchSwapSteps */\n      dup1\n      0x0120\n      add\n      swap1\n      tag_129\n      swap2\n      swap1\n      tag_130\n      jump\t// in\n    tag_129:\n        /* \"BarterswapRouter.sol\":2498:2638  balancerSwap(params._kind,params.inputAddre,rindex,params.batchSwapSteps,params.fundManaGements,params.assets,params.limits,params.deadLine) */\n      swap1\n      tag_131\n      swap2\n      swap1\n      tag_132\n      jump\t// in\n    tag_131:\n        /* \"BarterswapRouter.sol\":2571:2577  params */\n      dup10\n        /* \"BarterswapRouter.sol\":2571:2593  params.fundManaGements */\n      0x0140\n      add\n        /* \"BarterswapRouter.sol\":2498:2638  balancerSwap(params._kind,params.inputAddre,rindex,params.batchSwapSteps,params.fundManaGements,params.assets,params.limits,params.deadLine) */\n      dup1\n      calldatasize\n      sub\n      dup2\n      add\n      swap1\n      tag_133\n      swap2\n      swap1\n      tag_134\n      jump\t// in\n    tag_133:\n        /* \"BarterswapRouter.sol\":2594:2600  params */\n      dup11\n        /* \"BarterswapRouter.sol\":2594:2607  params.assets */\n      dup1\n      0x01e0\n      add\n      swap1\n      tag_135\n      swap2\n      swap1\n      tag_136\n      jump\t// in\n    tag_135:\n        /* \"BarterswapRouter.sol\":2498:2638  balancerSwap(params._kind,params.inputAddre,rindex,params.batchSwapSteps,params.fundManaGements,params.assets,params.limits,params.deadLine) */\n      dup1\n      dup1\n      0x20\n      mul\n      0x20\n      add\n      mload(0x40)\n      swap1\n      dup2\n      add\n      0x40\n      mstore\n      dup1\n      swap4\n      swap3\n      swap2\n      swap1\n      dup2\n      dup2\n      mstore\n      0x20\n      add\n      dup4\n      dup4\n      0x20\n      mul\n      dup1\n      dup3\n      dup5\n      calldatacopy\n      0x00\n      dup2\n      dup5\n      add\n      mstore\n      not(0x1f)\n      0x1f\n      dup3\n      add\n      and\n      swap1\n      pop\n      dup1\n      dup4\n      add\n      swap3\n      pop\n      pop\n      pop\n      pop\n      pop\n      pop\n      pop\n        /* \"BarterswapRouter.sol\":2608:2614  params */\n      dup12\n        /* \"BarterswapRouter.sol\":2608:2621  params.limits */\n      dup1\n      0x01c0\n      add\n      swap1\n      tag_137\n      swap2\n      swap1\n      tag_123\n      jump\t// in\n    tag_137:\n        /* \"BarterswapRouter.sol\":2498:2638  balancerSwap(params._kind,params.inputAddre,rindex,params.batchSwapSteps,params.fundManaGements,params.assets,params.limits,params.deadLine) */\n      dup1\n      dup1\n      0x20\n      mul\n      0x20\n      add\n      mload(0x40)\n      swap1\n      dup2\n      add\n      0x40\n      mstore\n      dup1\n      swap4\n      swap3\n      swap2\n      swap1\n      dup2\n      dup2\n      mstore\n      0x20\n      add\n      dup4\n      dup4\n      0x20\n      mul\n      dup1\n      dup3\n      dup5\n      calldatacopy\n      0x00\n      dup2\n      dup5\n      add\n      mstore\n      not(0x1f)\n      0x1f\n      dup3\n      add\n      and\n      swap1\n      pop\n      dup1\n      dup4\n      add\n      swap3\n      pop\n      pop\n      pop\n      pop\n      pop\n      pop\n      pop\n        /* \"BarterswapRouter.sol\":2622:2628  params */\n      dup13\n        /* \"BarterswapRouter.sol\":2622:2637  params.deadLine */\n      0x80\n      add\n      calldataload\n        /* \"BarterswapRouter.sol\":2498:2510  balancerSwap */\n      tag_138\n        /* \"BarterswapRouter.sol\":2498:2638  balancerSwap(params._kind,params.inputAddre,rindex,params.batchSwapSteps,params.fundManaGements,params.assets,params.limits,params.deadLine) */\n      jump\t// in\n    tag_125:\n        /* \"BarterswapRouter.sol\":2416:2859  if(i == 1 && params.limits.length > 1){... */\n      jump(tag_139)\n    tag_124:\n        /* \"BarterswapRouter.sol\":2691:2836  AmmSeriSwap(rindex,params.amountInArr[i],params.amountOutMinArr[i],params.pathArr[i],params.to,params.deadLine,params.inputAddre,params.outAddre) */\n      tag_140\n        /* \"BarterswapRouter.sol\":2703:2709  rindex */\n      dup2\n        /* \"BarterswapRouter.sol\":2710:2716  params */\n      dup7\n        /* \"BarterswapRouter.sol\":2710:2728  params.amountInArr */\n      dup1\n      0x00\n      add\n      swap1\n      tag_141\n      swap2\n      swap1\n      tag_84\n      jump\t// in\n    tag_141:\n        /* \"BarterswapRouter.sol\":2729:2730  i */\n      dup6\n        /* \"BarterswapRouter.sol\":2710:2731  params.amountInArr[i] */\n      dup2\n      dup2\n      lt\n      tag_142\n      jumpi\n      mstore(0x00, 0x4e487b7100000000000000000000000000000000000000000000000000000000)\n      mstore(0x04, 0x32)\n      revert(0x00, 0x24)\n    tag_142:\n      swap1\n      pop\n      0x20\n      mul\n      add\n      calldataload\n        /* \"BarterswapRouter.sol\":2732:2738  params */\n      dup8\n        /* \"BarterswapRouter.sol\":2732:2754  params.amountOutMinArr */\n      dup1\n      0x20\n      add\n      swap1\n      tag_143\n      swap2\n      swap1\n      tag_84\n      jump\t// in\n    tag_143:\n        /* \"BarterswapRouter.sol\":2755:2756  i */\n      dup7\n        /* \"BarterswapRouter.sol\":2732:2757  params.amountOutMinArr[i] */\n      dup2\n      dup2\n      lt\n      tag_144\n      jumpi\n      mstore(0x00, 0x4e487b7100000000000000000000000000000000000000000000000000000000)\n      mstore(0x04, 0x32)\n      revert(0x00, 0x24)\n    tag_144:\n      swap1\n      pop\n      0x20\n      mul\n      add\n      calldataload\n        /* \"BarterswapRouter.sol\":2758:2764  params */\n      dup9\n        /* \"BarterswapRouter.sol\":2758:2772  params.pathArr */\n      dup1\n      0x40\n      add\n      swap1\n      tag_145\n      swap2\n      swap1\n      tag_146\n      jump\t// in\n    tag_145:\n        /* \"BarterswapRouter.sol\":2773:2774  i */\n      dup8\n        /* \"BarterswapRouter.sol\":2758:2775  params.pathArr[i] */\n      dup2\n      dup2\n      lt\n      tag_147\n      jumpi\n      mstore(0x00, 0x4e487b7100000000000000000000000000000000000000000000000000000000)\n      mstore(0x04, 0x32)\n      revert(0x00, 0x24)\n    tag_147:\n      swap1\n      pop\n      0x20\n      mul\n      dup2\n      add\n      swap1\n      tag_148\n      swap2\n      swap1\n      tag_149\n      jump\t// in\n    tag_148:\n        /* \"BarterswapRouter.sol\":2691:2836  AmmSeriSwap(rindex,params.amountInArr[i],params.amountOutMinArr[i],params.pathArr[i],params.to,params.deadLine,params.inputAddre,params.outAddre) */\n      dup1\n      dup1\n      0x1f\n      add\n      0x20\n      dup1\n      swap2\n      div\n      mul\n      0x20\n      add\n      mload(0x40)\n      swap1\n      dup2\n      add\n      0x40\n      mstore\n      dup1\n      swap4\n      swap3\n      swap2\n      swap1\n      dup2\n      dup2\n      mstore\n      0x20\n      add\n      dup4\n      dup4\n      dup1\n      dup3\n      dup5\n      calldatacopy\n      0x00\n      dup2\n      dup5\n      add\n      mstore\n      not(0x1f)\n      0x1f\n      dup3\n      add\n      and\n      swap1\n      pop\n      dup1\n      dup4\n      add\n      swap3\n      pop\n      pop\n      pop\n      pop\n      pop\n      pop\n      pop\n        /* \"BarterswapRouter.sol\":2776:2782  params */\n      dup10\n        /* \"BarterswapRouter.sol\":2776:2785  params.to */\n      0x60\n      add\n      0x20\n      dup2\n      add\n      swap1\n      tag_150\n      swap2\n      swap1\n      tag_67\n      jump\t// in\n    tag_150:\n        /* \"BarterswapRouter.sol\":2786:2792  params */\n      dup11\n        /* \"BarterswapRouter.sol\":2786:2801  params.deadLine */\n      0x80\n      add\n      calldataload\n        /* \"BarterswapRouter.sol\":2802:2808  params */\n      dup12\n        /* \"BarterswapRouter.sol\":2802:2819  params.inputAddre */\n      0xa0\n      add\n      0x20\n      dup2\n      add\n      swap1\n      tag_151\n      swap2\n      swap1\n      tag_43\n      jump\t// in\n    tag_151:\n        /* \"BarterswapRouter.sol\":2820:2826  params */\n      dup13\n        /* \"BarterswapRouter.sol\":2820:2835  params.outAddre */\n      0xc0\n      add\n      0x20\n      dup2\n      add\n      swap1\n      tag_152\n      swap2\n      swap1\n      tag_43\n      jump\t// in\n    tag_152:\n        /* \"BarterswapRouter.sol\":2691:2702  AmmSeriSwap */\n      tag_153\n        /* \"BarterswapRouter.sol\":2691:2836  AmmSeriSwap(rindex,params.amountInArr[i],params.amountOutMinArr[i],params.pathArr[i],params.to,params.deadLine,params.inputAddre,params.outAddre) */\n      jump\t// in\n    tag_140:\n        /* \"BarterswapRouter.sol\":2416:2859  if(i == 1 && params.limits.length > 1){... */\n    tag_139:\n        /* \"BarterswapRouter.sol\":2243:2859  if (i == 0 && params.crvParams.length == 4){... */\n    tag_120:\n        /* \"BarterswapRouter.sol\":2102:2877  for(uint i = 0; i < params.routerIndex.length; i++){... */\n      pop\n        /* \"BarterswapRouter.sol\":2149:2152  i++ */\n      dup1\n      dup1\n      tag_154\n      swap1\n      tag_155\n      jump\t// in\n    tag_154:\n      swap2\n      pop\n      pop\n        /* \"BarterswapRouter.sol\":2102:2877  for(uint i = 0; i < params.routerIndex.length; i++){... */\n      jump(tag_104)\n    tag_105:\n      pop\n        /* \"BarterswapRouter.sol\":1460:2887  function multiSwap (AccessParams calldata params) external payable {    ... */\n      pop\n      pop\n      pop\n      jump\t// out\n        /* \"BarterswapRouter.sol\":561:610  mapping(uint256 => address) public routerAddreAll */\n    tag_31:\n      mstore(0x20, 0x03)\n      dup1\n      0x00\n      mstore\n      keccak256(0x00, 0x40)\n      0x00\n      swap2\n      pop\n      sload\n      swap1\n      0x0100\n      exp\n      swap1\n      div\n      0xffffffffffffffffffffffffffffffffffffffff\n      and\n      dup2\n      jump\t// out\n        /* \"BarterswapRouter.sol\":5840:6004  function setFees(uint _fees) public onlyOwner returns(bool) {... */\n    tag_37:\n        /* \"BarterswapRouter.sol\":5894:5898  bool */\n      0x00\n        /* \"BarterswapRouter.sol\":1309:1319  feeToAdmin */\n      0x01\n      0x00\n      swap1\n      sload\n      swap1\n      0x0100\n      exp\n      swap1\n      div\n      0xffffffffffffffffffffffffffffffffffffffff\n      and\n        /* \"BarterswapRouter.sol\":1295:1319  msg.sender == feeToAdmin */\n      0xffffffffffffffffffffffffffffffffffffffff\n      and\n        /* \"BarterswapRouter.sol\":1295:1305  msg.sender */\n      caller\n        /* \"BarterswapRouter.sol\":1295:1319  msg.sender == feeToAdmin */\n      0xffffffffffffffffffffffffffffffffffffffff\n      and\n      eq\n        /* \"BarterswapRouter.sol\":1287:1350  require(msg.sender == feeToAdmin,\"BarterswapV2Router: EXPIRED\") */\n      tag_157\n      jumpi\n      mload(0x40)\n      0x08c379a000000000000000000000000000000000000000000000000000000000\n      dup2\n      mstore\n      0x04\n      add\n      tag_158\n      swap1\n      tag_159\n      jump\t// in\n    tag_158:\n      mload(0x40)\n      dup1\n      swap2\n      sub\n      swap1\n      revert\n    tag_157:\n        /* \"BarterswapRouter.sol\":5927:5928  0 */\n      0x00\n        /* \"BarterswapRouter.sol\":5918:5923  _fees */\n      dup3\n        /* \"BarterswapRouter.sol\":5918:5928  _fees != 0 */\n      eq\n      iszero\n        /* \"BarterswapRouter.sol\":5910:5954  require(_fees != 0, 'Barterswap: FORBIDDEN') */\n      tag_161\n      jumpi\n      mload(0x40)\n      0x08c379a000000000000000000000000000000000000000000000000000000000\n      dup2\n      mstore\n      0x04\n      add\n      tag_162\n      swap1\n      tag_163\n      jump\t// in\n    tag_162:\n      mload(0x40)\n      dup1\n      swap2\n      sub\n      swap1\n      revert\n    tag_161:\n        /* \"BarterswapRouter.sol\":5971:5976  _fees */\n      dup2\n        /* \"BarterswapRouter.sol\":5964:5968  fees */\n      0x02\n        /* \"BarterswapRouter.sol\":5964:5976  fees = _fees */\n      dup2\n      swap1\n      sstore\n      pop\n        /* \"BarterswapRouter.sol\":5993:5997  true */\n      0x01\n        /* \"BarterswapRouter.sol\":5986:5997  return true */\n      swap1\n      pop\n        /* \"BarterswapRouter.sol\":5840:6004  function setFees(uint _fees) public onlyOwner returns(bool) {... */\n      swap2\n      swap1\n      pop\n      jump\t// out\n        /* \"BarterswapRouter.sol\":6260:6396  function getWeth(address _routerArr) public pure returns(address WETH){... */\n    tag_44:\n        /* \"BarterswapRouter.sol\":6317:6329  address WETH */\n      0x00\n        /* \"BarterswapRouter.sol\":6370:6380  _routerArr */\n      dup2\n        /* \"BarterswapRouter.sol\":6348:6386  IBarterswapV2Router01(_routerArr).WETH */\n      0xffffffffffffffffffffffffffffffffffffffff\n      and\n      0xad5c4648\n        /* \"BarterswapRouter.sol\":6348:6388  IBarterswapV2Router01(_routerArr).WETH() */\n      mload(0x40)\n      dup2\n      0xffffffff\n      and\n      0xe0\n      shl\n      dup2\n      mstore\n      0x04\n      add\n      0x20\n      mload(0x40)\n      dup1\n      dup4\n      sub\n      dup2\n      dup7\n      dup1\n      extcodesize\n      iszero\n      dup1\n      iszero\n      tag_165\n      jumpi\n      0x00\n      dup1\n      revert\n    tag_165:\n      pop\n      gas\n      staticcall\n      iszero\n      dup1\n      iszero\n      tag_167\n      jumpi\n      returndatasize\n      0x00\n      dup1\n      returndatacopy\n      revert(0x00, returndatasize)\n    tag_167:\n      pop\n      pop\n      pop\n      pop\n      mload(0x40)\n      returndatasize\n      not(0x1f)\n      0x1f\n      dup3\n      add\n      and\n      dup3\n      add\n      dup1\n      0x40\n      mstore\n      pop\n      dup2\n      add\n      swap1\n      tag_168\n      swap2\n      swap1\n      tag_169\n      jump\t// in\n    tag_168:\n        /* \"BarterswapRouter.sol\":6340:6388  WETH =  IBarterswapV2Router01(_routerArr).WETH() */\n      swap1\n      pop\n        /* \"BarterswapRouter.sol\":6260:6396  function getWeth(address _routerArr) public pure returns(address WETH){... */\n      swap2\n      swap1\n      pop\n      jump\t// out\n        /* \"BarterswapRouter.sol\":506:531  address public feeToAdmin */\n    tag_48:\n      0x01\n      0x00\n      swap1\n      sload\n      swap1\n      0x0100\n      exp\n      swap1\n      div\n      0xffffffffffffffffffffffffffffffffffffffff\n      and\n      dup2\n      jump\t// out\n        /* \"BarterswapRouter.sol\":538:554  uint public fees */\n    tag_52:\n      sload(0x02)\n      dup2\n      jump\t// out\n        /* \"BarterswapRouter.sol\":5620:5828  function setFeeToSetter(address _feetoAdmin) public onlyOwner returns(bool) {... */\n    tag_58:\n        /* \"BarterswapRouter.sol\":5690:5694  bool */\n      0x00\n        /* \"BarterswapRouter.sol\":1309:1319  feeToAdmin */\n      0x01\n      0x00\n      swap1\n      sload\n      swap1\n      0x0100\n      exp\n      swap1\n      div\n      0xffffffffffffffffffffffffffffffffffffffff\n      and\n        /* \"BarterswapRouter.sol\":1295:1319  msg.sender == feeToAdmin */\n      0xffffffffffffffffffffffffffffffffffffffff\n      and\n        /* \"BarterswapRouter.sol\":1295:1305  msg.sender */\n      caller\n        /* \"BarterswapRouter.sol\":1295:1319  msg.sender == feeToAdmin */\n      0xffffffffffffffffffffffffffffffffffffffff\n      and\n      eq\n        /* \"BarterswapRouter.sol\":1287:1350  require(msg.sender == feeToAdmin,\"BarterswapV2Router: EXPIRED\") */\n      tag_171\n      jumpi\n      mload(0x40)\n      0x08c379a000000000000000000000000000000000000000000000000000000000\n      dup2\n      mstore\n      0x04\n      add\n      tag_172\n      swap1\n      tag_159\n      jump\t// in\n    tag_172:\n      mload(0x40)\n      dup1\n      swap2\n      sub\n      swap1\n      revert\n    tag_171:\n        /* \"BarterswapRouter.sol\":5738:5739  0 */\n      0x00\n        /* \"BarterswapRouter.sol\":5715:5740  _feetoAdmin != address(0) */\n      0xffffffffffffffffffffffffffffffffffffffff\n      and\n        /* \"BarterswapRouter.sol\":5715:5726  _feetoAdmin */\n      dup3\n        /* \"BarterswapRouter.sol\":5715:5740  _feetoAdmin != address(0) */\n      0xffffffffffffffffffffffffffffffffffffffff\n      and\n      eq\n      iszero\n        /* \"BarterswapRouter.sol\":5707:5766  require(_feetoAdmin != address(0), 'Barterswap: FORBIDDEN') */\n      tag_174\n      jumpi\n      mload(0x40)\n      0x08c379a000000000000000000000000000000000000000000000000000000000\n      dup2\n      mstore\n      0x04\n      add\n      tag_175\n      swap1\n      tag_163\n      jump\t// in\n    tag_175:\n      mload(0x40)\n      dup1\n      swap2\n      sub\n      swap1\n      revert\n    tag_174:\n        /* \"BarterswapRouter.sol\":5789:5800  _feetoAdmin */\n      dup2\n        /* \"BarterswapRouter.sol\":5776:5786  feeToAdmin */\n      0x01\n      0x00\n        /* \"BarterswapRouter.sol\":5776:5800  feeToAdmin = _feetoAdmin */\n      0x0100\n      exp\n      dup2\n      sload\n      dup2\n      0xffffffffffffffffffffffffffffffffffffffff\n      mul\n      not\n      and\n      swap1\n      dup4\n      0xffffffffffffffffffffffffffffffffffffffff\n      and\n      mul\n      or\n      swap1\n      sstore\n      pop\n        /* \"BarterswapRouter.sol\":5817:5821  true */\n      0x01\n        /* \"BarterswapRouter.sol\":5810:5821  return true */\n      swap1\n      pop\n        /* \"BarterswapRouter.sol\":5620:5828  function setFeeToSetter(address _feetoAdmin) public onlyOwner returns(bool) {... */\n      swap2\n      swap1\n      pop\n      jump\t// out\n        /* \"BarterswapRouter.sol\":5037:5412  function ethToWeth(uint256 amountin, address _to) public payable {... */\n    tag_63:\n        /* \"BarterswapRouter.sol\":5116:5130  uint256 toFees */\n      0x00\n        /* \"BarterswapRouter.sol\":5133:5161  amountin.mul(fees).div(1e18) */\n      tag_177\n        /* \"BarterswapRouter.sol\":5156:5160  1e18 */\n      0x0de0b6b3a7640000\n        /* \"BarterswapRouter.sol\":5133:5151  amountin.mul(fees) */\n      tag_178\n        /* \"BarterswapRouter.sol\":5146:5150  fees */\n      sload(0x02)\n        /* \"BarterswapRouter.sol\":5133:5141  amountin */\n      dup7\n        /* \"BarterswapRouter.sol\":5133:5145  amountin.mul */\n      tag_87\n      swap1\n        /* \"BarterswapRouter.sol\":5133:5151  amountin.mul(fees) */\n      swap2\n      swap1\n      0xffffffff\n      and\n      jump\t// in\n    tag_178:\n        /* \"BarterswapRouter.sol\":5133:5155  amountin.mul(fees).div */\n      tag_88\n      swap1\n        /* \"BarterswapRouter.sol\":5133:5161  amountin.mul(fees).div(1e18) */\n      swap2\n      swap1\n      0xffffffff\n      and\n      jump\t// in\n    tag_177:\n        /* \"BarterswapRouter.sol\":5116:5161  uint256 toFees = amountin.mul(fees).div(1e18) */\n      swap1\n      pop\n        /* \"BarterswapRouter.sol\":5207:5213  toFees */\n      dup1\n        /* \"BarterswapRouter.sol\":5196:5204  amountin */\n      dup4\n        /* \"BarterswapRouter.sol\":5196:5213  amountin + toFees */\n      tag_179\n      swap2\n      swap1\n      tag_92\n      jump\t// in\n    tag_179:\n        /* \"BarterswapRouter.sol\":5183:5192  msg.value */\n      callvalue\n        /* \"BarterswapRouter.sol\":5183:5213  msg.value == amountin + toFees */\n      eq\n        /* \"BarterswapRouter.sol\":5175:5231  require(msg.value == amountin + toFees,\"Price is wrong\") */\n      tag_180\n      jumpi\n      mload(0x40)\n      0x08c379a000000000000000000000000000000000000000000000000000000000\n      dup2\n      mstore\n      0x04\n      add\n      tag_181\n      swap1\n      tag_95\n      jump\t// in\n    tag_181:\n      mload(0x40)\n      dup1\n      swap2\n      sub\n      swap1\n      revert\n    tag_180:\n        /* \"BarterswapRouter.sol\":5245:5289  TransferHelper.safeTransferETH(feeTo,toFees) */\n      tag_182\n        /* \"BarterswapRouter.sol\":5276:5281  feeTo */\n      0x00\n      dup1\n      sload\n      swap1\n      0x0100\n      exp\n      swap1\n      div\n      0xffffffffffffffffffffffffffffffffffffffff\n      and\n        /* \"BarterswapRouter.sol\":5282:5288  toFees */\n      dup3\n        /* \"BarterswapRouter.sol\":5245:5275  TransferHelper.safeTransferETH */\n      tag_97\n        /* \"BarterswapRouter.sol\":5245:5289  TransferHelper.safeTransferETH(feeTo,toFees) */\n      jump\t// in\n    tag_182:\n        /* \"BarterswapRouter.sol\":641:683  0x0d500B1d8E8eF31E21C99d1Db9A6444d3ADf1270 */\n      0x0d500b1d8e8ef31e21c99d1db9a6444d3adf1270\n        /* \"BarterswapRouter.sol\":5303:5324  IWETH9(WETHS).deposit */\n      0xffffffffffffffffffffffffffffffffffffffff\n      and\n      0xd0e30db0\n        /* \"BarterswapRouter.sol\":5331:5339  amountin */\n      dup5\n        /* \"BarterswapRouter.sol\":5303:5342  IWETH9(WETHS).deposit{value:amountin}() */\n      mload(0x40)\n      dup3\n      0xffffffff\n      and\n      0xe0\n      shl\n      dup2\n      mstore\n      0x04\n      add\n      0x00\n      mload(0x40)\n      dup1\n      dup4\n      sub\n      dup2\n      dup6\n      dup9\n      dup1\n      extcodesize\n      iszero\n      dup1\n      iszero\n      tag_183\n      jumpi\n      0x00\n      dup1\n      revert\n    tag_183:\n      pop\n      gas\n      call\n      iszero\n      dup1\n      iszero\n      tag_185\n      jumpi\n      returndatasize\n      0x00\n      dup1\n      returndatacopy\n      revert(0x00, returndatasize)\n    tag_185:\n      pop\n      pop\n      pop\n      pop\n      pop\n        /* \"BarterswapRouter.sol\":5358:5405  TransferHelper.safeTransfer(WETHS,_to,amountin) */\n      tag_186\n        /* \"BarterswapRouter.sol\":641:683  0x0d500B1d8E8eF31E21C99d1Db9A6444d3ADf1270 */\n      0x0d500b1d8e8ef31e21c99d1db9a6444d3adf1270\n        /* \"BarterswapRouter.sol\":5392:5395  _to */\n      dup4\n        /* \"BarterswapRouter.sol\":5396:5404  amountin */\n      dup6\n        /* \"BarterswapRouter.sol\":5358:5385  TransferHelper.safeTransfer */\n      tag_187\n        /* \"BarterswapRouter.sol\":5358:5405  TransferHelper.safeTransfer(WETHS,_to,amountin) */\n      jump\t// in\n    tag_186:\n        /* \"BarterswapRouter.sol\":5037:5412  function ethToWeth(uint256 amountin, address _to) public payable {... */\n      pop\n      pop\n      pop\n      jump\t// out\n        /* \"BarterswapRouter.sol\":5419:5608  function setFeeTo(address payable _feeTo) public onlyOwner returns(bool) {... */\n    tag_68:\n        /* \"BarterswapRouter.sol\":5486:5490  bool */\n      0x00\n        /* \"BarterswapRouter.sol\":1309:1319  feeToAdmin */\n      0x01\n      0x00\n      swap1\n      sload\n      swap1\n      0x0100\n      exp\n      swap1\n      div\n      0xffffffffffffffffffffffffffffffffffffffff\n      and\n        /* \"BarterswapRouter.sol\":1295:1319  msg.sender == feeToAdmin */\n      0xffffffffffffffffffffffffffffffffffffffff\n      and\n        /* \"BarterswapRouter.sol\":1295:1305  msg.sender */\n      caller\n        /* \"BarterswapRouter.sol\":1295:1319  msg.sender == feeToAdmin */\n      0xffffffffffffffffffffffffffffffffffffffff\n      and\n      eq\n        /* \"BarterswapRouter.sol\":1287:1350  require(msg.sender == feeToAdmin,\"BarterswapV2Router: EXPIRED\") */\n      tag_189\n      jumpi\n      mload(0x40)\n      0x08c379a000000000000000000000000000000000000000000000000000000000\n      dup2\n      mstore\n      0x04\n      add\n      tag_190\n      swap1\n      tag_159\n      jump\t// in\n    tag_190:\n      mload(0x40)\n      dup1\n      swap2\n      sub\n      swap1\n      revert\n    tag_189:\n        /* \"BarterswapRouter.sol\":5528:5529  0 */\n      0x00\n        /* \"BarterswapRouter.sol\":5510:5530  _feeTo != address(0) */\n      0xffffffffffffffffffffffffffffffffffffffff\n      and\n        /* \"BarterswapRouter.sol\":5510:5516  _feeTo */\n      dup3\n        /* \"BarterswapRouter.sol\":5510:5530  _feeTo != address(0) */\n      0xffffffffffffffffffffffffffffffffffffffff\n      and\n      eq\n      iszero\n        /* \"BarterswapRouter.sol\":5502:5556  require(_feeTo != address(0), 'Barterswap: FORBIDDEN') */\n      tag_192\n      jumpi\n      mload(0x40)\n      0x08c379a000000000000000000000000000000000000000000000000000000000\n      dup2\n      mstore\n      0x04\n      add\n      tag_193\n      swap1\n      tag_163\n      jump\t// in\n    tag_193:\n      mload(0x40)\n      dup1\n      swap2\n      sub\n      swap1\n      revert\n    tag_192:\n        /* \"BarterswapRouter.sol\":5574:5580  _feeTo */\n      dup2\n        /* \"BarterswapRouter.sol\":5566:5571  feeTo */\n      0x00\n      dup1\n        /* \"BarterswapRouter.sol\":5566:5580  feeTo = _feeTo */\n      0x0100\n      exp\n      dup2\n      sload\n      dup2\n      0xffffffffffffffffffffffffffffffffffffffff\n      mul\n      not\n      and\n      swap1\n      dup4\n      0xffffffffffffffffffffffffffffffffffffffff\n      and\n      mul\n      or\n      swap1\n      sstore\n      pop\n        /* \"BarterswapRouter.sol\":5597:5601  true */\n      0x01\n        /* \"BarterswapRouter.sol\":5590:5601  return true */\n      swap1\n      pop\n        /* \"BarterswapRouter.sol\":5419:5608  function setFeeTo(address payable _feeTo) public onlyOwner returns(bool) {... */\n      swap2\n      swap1\n      pop\n      jump\t// out\n        /* \"BarterswapRouter.sol\":6016:6253  function setRouterAddreAll(uint256 index ,address _routeraddre) public onlyOwner returns(bool){... */\n    tag_73:\n        /* \"BarterswapRouter.sol\":6105:6109  bool */\n      0x00\n        /* \"BarterswapRouter.sol\":1309:1319  feeToAdmin */\n      0x01\n      0x00\n      swap1\n      sload\n      swap1\n      0x0100\n      exp\n      swap1\n      div\n      0xffffffffffffffffffffffffffffffffffffffff\n      and\n        /* \"BarterswapRouter.sol\":1295:1319  msg.sender == feeToAdmin */\n      0xffffffffffffffffffffffffffffffffffffffff\n      and\n        /* \"BarterswapRouter.sol\":1295:1305  msg.sender */\n      caller\n        /* \"BarterswapRouter.sol\":1295:1319  msg.sender == feeToAdmin */\n      0xffffffffffffffffffffffffffffffffffffffff\n      and\n      eq\n        /* \"BarterswapRouter.sol\":1287:1350  require(msg.sender == feeToAdmin,\"BarterswapV2Router: EXPIRED\") */\n      tag_195\n      jumpi\n      mload(0x40)\n      0x08c379a000000000000000000000000000000000000000000000000000000000\n      dup2\n      mstore\n      0x04\n      add\n      tag_196\n      swap1\n      tag_159\n      jump\t// in\n    tag_196:\n      mload(0x40)\n      dup1\n      swap2\n      sub\n      swap1\n      revert\n    tag_195:\n        /* \"BarterswapRouter.sol\":6152:6153  0 */\n      0x00\n        /* \"BarterswapRouter.sol\":6128:6154  _routeraddre != address(0) */\n      0xffffffffffffffffffffffffffffffffffffffff\n      and\n        /* \"BarterswapRouter.sol\":6128:6140  _routeraddre */\n      dup3\n        /* \"BarterswapRouter.sol\":6128:6154  _routeraddre != address(0) */\n      0xffffffffffffffffffffffffffffffffffffffff\n      and\n      eq\n      iszero\n        /* \"BarterswapRouter.sol\":6120:6179  require(_routeraddre != address(0),'Barterswap: FORBIDDEN') */\n      tag_198\n      jumpi\n      mload(0x40)\n      0x08c379a000000000000000000000000000000000000000000000000000000000\n      dup2\n      mstore\n      0x04\n      add\n      tag_199\n      swap1\n      tag_163\n      jump\t// in\n    tag_199:\n      mload(0x40)\n      dup1\n      swap2\n      sub\n      swap1\n      revert\n    tag_198:\n        /* \"BarterswapRouter.sol\":6213:6225  _routeraddre */\n      dup2\n        /* \"BarterswapRouter.sol\":6189:6203  routerAddreAll */\n      0x03\n        /* \"BarterswapRouter.sol\":6189:6210  routerAddreAll[index] */\n      0x00\n        /* \"BarterswapRouter.sol\":6204:6209  index */\n      dup6\n        /* \"BarterswapRouter.sol\":6189:6210  routerAddreAll[index] */\n      dup2\n      mstore\n      0x20\n      add\n      swap1\n      dup2\n      mstore\n      0x20\n      add\n      0x00\n      keccak256\n      0x00\n        /* \"BarterswapRouter.sol\":6189:6225  routerAddreAll[index] = _routeraddre */\n      0x0100\n      exp\n      dup2\n      sload\n      dup2\n      0xffffffffffffffffffffffffffffffffffffffff\n      mul\n      not\n      and\n      swap1\n      dup4\n      0xffffffffffffffffffffffffffffffffffffffff\n      and\n      mul\n      or\n      swap1\n      sstore\n      pop\n        /* \"BarterswapRouter.sol\":6242:6246  true */\n      0x01\n        /* \"BarterswapRouter.sol\":6235:6246  return true */\n      swap1\n      pop\n        /* \"BarterswapRouter.sol\":6016:6253  function setRouterAddreAll(uint256 index ,address _routeraddre) public onlyOwner returns(bool){... */\n      swap3\n      swap2\n      pop\n      pop\n      jump\t// out\n        /* \"BarterswapRouter.sol\":4759:5014  function getAmountInAll(uint256[] memory  amountInArr) public pure returns(uint256){... */\n    tag_79:\n        /* \"BarterswapRouter.sol\":4834:4841  uint256 */\n      0x00\n        /* \"BarterswapRouter.sol\":4852:4869  uint amountInArrs */\n      dup1\n        /* \"BarterswapRouter.sol\":4883:4889  uint i */\n      0x00\n        /* \"BarterswapRouter.sol\":4879:4978  for(uint i = 0; i < amountInArr.length; i++){... */\n    tag_201:\n        /* \"BarterswapRouter.sol\":4899:4910  amountInArr */\n      dup4\n        /* \"BarterswapRouter.sol\":4899:4917  amountInArr.length */\n      mload\n        /* \"BarterswapRouter.sol\":4895:4896  i */\n      dup2\n        /* \"BarterswapRouter.sol\":4895:4917  i < amountInArr.length */\n      lt\n        /* \"BarterswapRouter.sol\":4879:4978  for(uint i = 0; i < amountInArr.length; i++){... */\n      iszero\n      tag_202\n      jumpi\n        /* \"BarterswapRouter.sol\":4953:4964  amountInArr */\n      dup4\n        /* \"BarterswapRouter.sol\":4965:4966  i */\n      dup2\n        /* \"BarterswapRouter.sol\":4953:4967  amountInArr[i] */\n      dup2\n      mload\n      dup2\n      lt\n      tag_204\n      jumpi\n      mstore(0x00, 0x4e487b7100000000000000000000000000000000000000000000000000000000)\n      mstore(0x04, 0x32)\n      revert(0x00, 0x24)\n    tag_204:\n      0x20\n      mul\n      0x20\n      add\n      add\n      mload\n        /* \"BarterswapRouter.sol\":4937:4967  amountInArrs += amountInArr[i] */\n      dup3\n      tag_205\n      swap2\n      swap1\n      tag_92\n      jump\t// in\n    tag_205:\n      swap2\n      pop\n        /* \"BarterswapRouter.sol\":4919:4922  i++ */\n      dup1\n      dup1\n      tag_206\n      swap1\n      tag_155\n      jump\t// in\n    tag_206:\n      swap2\n      pop\n      pop\n        /* \"BarterswapRouter.sol\":4879:4978  for(uint i = 0; i < amountInArr.length; i++){... */\n      jump(tag_201)\n    tag_202:\n      pop\n        /* \"BarterswapRouter.sol\":4994:5006  amountInArrs */\n      dup1\n        /* \"BarterswapRouter.sol\":4987:5006  return amountInArrs */\n      swap2\n      pop\n      pop\n        /* \"BarterswapRouter.sol\":4759:5014  function getAmountInAll(uint256[] memory  amountInArr) public pure returns(uint256){... */\n      swap2\n      swap1\n      pop\n      jump\t// out\n        /* \"libs/SafeMath.sol\":1618:2077  function mul(uint256 a, uint256 b) internal pure returns (uint256) {... */\n    tag_87:\n        /* \"libs/SafeMath.sol\":1676:1683  uint256 */\n      0x00\n        /* \"libs/SafeMath.sol\":1922:1923  0 */\n      dup1\n        /* \"libs/SafeMath.sol\":1917:1918  a */\n      dup4\n        /* \"libs/SafeMath.sol\":1917:1923  a == 0 */\n      eq\n        /* \"libs/SafeMath.sol\":1913:1958  if (a == 0) {... */\n      iszero\n      tag_208\n      jumpi\n        /* \"libs/SafeMath.sol\":1946:1947  0 */\n      0x00\n        /* \"libs/SafeMath.sol\":1939:1947  return 0 */\n      swap1\n      pop\n      jump(tag_207)\n        /* \"libs/SafeMath.sol\":1913:1958  if (a == 0) {... */\n    tag_208:\n        /* \"libs/SafeMath.sol\":1968:1977  uint256 c */\n      0x00\n        /* \"libs/SafeMath.sol\":1984:1985  b */\n      dup3\n        /* \"libs/SafeMath.sol\":1980:1981  a */\n      dup5\n        /* \"libs/SafeMath.sol\":1980:1985  a * b */\n      tag_209\n      swap2\n      swap1\n      tag_210\n      jump\t// in\n    tag_209:\n        /* \"libs/SafeMath.sol\":1968:1985  uint256 c = a * b */\n      swap1\n      pop\n        /* \"libs/SafeMath.sol\":2012:2013  b */\n      dup3\n        /* \"libs/SafeMath.sol\":2007:2008  a */\n      dup5\n        /* \"libs/SafeMath.sol\":2003:2004  c */\n      dup3\n        /* \"libs/SafeMath.sol\":2003:2008  c / a */\n      tag_211\n      swap2\n      swap1\n      tag_212\n      jump\t// in\n    tag_211:\n        /* \"libs/SafeMath.sol\":2003:2013  c / a == b */\n      eq\n        /* \"libs/SafeMath.sol\":1995:2051  require(c / a == b, \"SafeMath: multiplication overflow\") */\n      tag_213\n      jumpi\n      mload(0x40)\n      0x08c379a000000000000000000000000000000000000000000000000000000000\n      dup2\n      mstore\n      0x04\n      add\n      tag_214\n      swap1\n      tag_215\n      jump\t// in\n    tag_214:\n      mload(0x40)\n      dup1\n      swap2\n      sub\n      swap1\n      revert\n    tag_213:\n        /* \"libs/SafeMath.sol\":2069:2070  c */\n      dup1\n        /* \"libs/SafeMath.sol\":2062:2070  return c */\n      swap2\n      pop\n      pop\n        /* \"libs/SafeMath.sol\":1618:2077  function mul(uint256 a, uint256 b) internal pure returns (uint256) {... */\n    tag_207:\n      swap3\n      swap2\n      pop\n      pop\n      jump\t// out\n        /* \"libs/SafeMath.sol\":2539:2669  function div(uint256 a, uint256 b) internal pure returns (uint256) {... */\n    tag_88:\n        /* \"libs/SafeMath.sol\":2597:2604  uint256 */\n      0x00\n        /* \"libs/SafeMath.sol\":2623:2662  div(a, b, \"SafeMath: division by zero\") */\n      tag_217\n        /* \"libs/SafeMath.sol\":2627:2628  a */\n      dup4\n        /* \"libs/SafeMath.sol\":2630:2631  b */\n      dup4\n        /* \"libs/SafeMath.sol\":2623:2662  div(a, b, \"SafeMath: division by zero\") */\n      mload(0x40)\n      dup1\n      0x40\n      add\n      0x40\n      mstore\n      dup1\n      0x1a\n      dup2\n      mstore\n      0x20\n      add\n      0x536166654d6174683a206469766973696f6e206279207a65726f000000000000\n      dup2\n      mstore\n      pop\n        /* \"libs/SafeMath.sol\":2623:2626  div */\n      tag_218\n        /* \"libs/SafeMath.sol\":2623:2662  div(a, b, \"SafeMath: division by zero\") */\n      jump\t// in\n    tag_217:\n        /* \"libs/SafeMath.sol\":2616:2662  return div(a, b, \"SafeMath: division by zero\") */\n      swap1\n      pop\n        /* \"libs/SafeMath.sol\":2539:2669  function div(uint256 a, uint256 b) internal pure returns (uint256) {... */\n      swap3\n      swap2\n      pop\n      pop\n      jump\t// out\n        /* \"libs/TransferHelper.sol\":1529:1743  function safeTransferETH(address to, uint256 value) internal {... */\n    tag_97:\n        /* \"libs/TransferHelper.sol\":1601:1613  bool success */\n      0x00\n        /* \"libs/TransferHelper.sol\":1619:1621  to */\n      dup3\n        /* \"libs/TransferHelper.sol\":1619:1626  to.call */\n      0xffffffffffffffffffffffffffffffffffffffff\n      and\n        /* \"libs/TransferHelper.sol\":1634:1639  value */\n      dup3\n        /* \"libs/TransferHelper.sol\":1651:1652  0 */\n      0x00\n        /* \"libs/TransferHelper.sol\":1641:1653  new bytes(0) */\n      0xffffffffffffffff\n      dup2\n      gt\n      iszero\n      tag_220\n      jumpi\n      mstore(0x00, 0x4e487b7100000000000000000000000000000000000000000000000000000000)\n      mstore(0x04, 0x41)\n      revert(0x00, 0x24)\n    tag_220:\n      mload(0x40)\n      swap1\n      dup1\n      dup3\n      mstore\n      dup1\n      0x1f\n      add\n      not(0x1f)\n      and\n      0x20\n      add\n      dup3\n      add\n      0x40\n      mstore\n      dup1\n      iszero\n      tag_221\n      jumpi\n      dup2\n      0x20\n      add\n      0x01\n      dup3\n      mul\n      dup1\n      calldatasize\n      dup4\n      calldatacopy\n      dup1\n      dup3\n      add\n      swap2\n      pop\n      pop\n      swap1\n      pop\n    tag_221:\n      pop\n        /* \"libs/TransferHelper.sol\":1619:1654  to.call{value: value}(new bytes(0)) */\n      mload(0x40)\n      tag_222\n      swap2\n      swap1\n      tag_223\n      jump\t// in\n    tag_222:\n      0x00\n      mload(0x40)\n      dup1\n      dup4\n      sub\n      dup2\n      dup6\n      dup8\n      gas\n      call\n      swap3\n      pop\n      pop\n      pop\n      returndatasize\n      dup1\n      0x00\n      dup2\n      eq\n      tag_226\n      jumpi\n      mload(0x40)\n      swap2\n      pop\n      and(add(returndatasize, 0x3f), not(0x1f))\n      dup3\n      add\n      0x40\n      mstore\n      returndatasize\n      dup3\n      mstore\n      returndatasize\n      0x00\n      0x20\n      dup5\n      add\n      returndatacopy\n      jump(tag_225)\n    tag_226:\n      0x60\n      swap2\n      pop\n    tag_225:\n      pop\n        /* \"libs/TransferHelper.sol\":1600:1654  (bool success, ) = to.call{value: value}(new bytes(0)) */\n      pop\n      swap1\n      pop\n        /* \"libs/TransferHelper.sol\":1672:1679  success */\n      dup1\n        /* \"libs/TransferHelper.sol\":1664:1736  require(success, 'TransferHelper::safeTransferETH: ETH transfer failed') */\n      tag_227\n      jumpi\n      mload(0x40)\n      0x08c379a000000000000000000000000000000000000000000000000000000000\n      dup2\n      mstore\n      0x04\n      add\n      tag_228\n      swap1\n      tag_229\n      jump\t// in\n    tag_228:\n      mload(0x40)\n      dup1\n      swap2\n      sub\n      swap1\n      revert\n    tag_227:\n        /* \"libs/TransferHelper.sol\":1529:1743  function safeTransferETH(address to, uint256 value) internal {... */\n      pop\n      pop\n      pop\n      jump\t// out\n        /* \"libs/TransferHelper.sol\":1033:1519  function safeTransferFrom(... */\n    tag_101:\n        /* \"libs/TransferHelper.sol\":1251:1263  bool success */\n      0x00\n        /* \"libs/TransferHelper.sol\":1265:1282  bytes memory data */\n      dup1\n        /* \"libs/TransferHelper.sol\":1286:1291  token */\n      dup6\n        /* \"libs/TransferHelper.sol\":1286:1296  token.call */\n      0xffffffffffffffffffffffffffffffffffffffff\n      and\n        /* \"libs/TransferHelper.sol\":1320:1330  0x23b872dd */\n      0x23b872dd\n        /* \"libs/TransferHelper.sol\":1332:1336  from */\n      dup7\n        /* \"libs/TransferHelper.sol\":1338:1340  to */\n      dup7\n        /* \"libs/TransferHelper.sol\":1342:1347  value */\n      dup7\n        /* \"libs/TransferHelper.sol\":1297:1348  abi.encodeWithSelector(0x23b872dd, from, to, value) */\n      add(0x24, mload(0x40))\n      tag_231\n      swap4\n      swap3\n      swap2\n      swap1\n      tag_232\n      jump\t// in\n    tag_231:\n      mload(0x40)\n      0x20\n      dup2\n      dup4\n      sub\n      sub\n      dup2\n      mstore\n      swap1\n      0x40\n      mstore\n      swap1\n      0xe0\n      shl\n      0x20\n      dup3\n      add\n      dup1\n      mload\n      0xffffffffffffffffffffffffffffffffffffffffffffffffffffffff\n      dup4\n      dup2\n      dup4\n      and\n      or\n      dup4\n      mstore\n      pop\n      pop\n      pop\n      pop\n        /* \"libs/TransferHelper.sol\":1286:1349  token.call(abi.encodeWithSelector(0x23b872dd, from, to, value)) */\n      mload(0x40)\n      tag_233\n      swap2\n      swap1\n      tag_223\n      jump\t// in\n    tag_233:\n      0x00\n      mload(0x40)\n      dup1\n      dup4\n      sub\n      dup2\n      0x00\n      dup7\n      gas\n      call\n      swap2\n      pop\n      pop\n      returndatasize\n      dup1\n      0x00\n      dup2\n      eq\n      tag_236\n      jumpi\n      mload(0x40)\n      swap2\n      pop\n      and(add(returndatasize, 0x3f), not(0x1f))\n      dup3\n      add\n      0x40\n      mstore\n      returndatasize\n      dup3\n      mstore\n      returndatasize\n      0x00\n      0x20\n      dup5\n      add\n      returndatacopy\n      jump(tag_235)\n    tag_236:\n      0x60\n      swap2\n      pop\n    tag_235:\n      pop\n        /* \"libs/TransferHelper.sol\":1250:1349  (bool success, bytes memory data) = token.call(abi.encodeWithSelector(0x23b872dd, from, to, value)) */\n      swap2\n      pop\n      swap2\n      pop\n        /* \"libs/TransferHelper.sol\":1380:1387  success */\n      dup2\n        /* \"libs/TransferHelper.sol\":1380:1437  success && (data.length == 0 || abi.decode(data, (bool))) */\n      dup1\n      iszero\n      tag_237\n      jumpi\n      pop\n        /* \"libs/TransferHelper.sol\":1407:1408  0 */\n      0x00\n        /* \"libs/TransferHelper.sol\":1392:1396  data */\n      dup2\n        /* \"libs/TransferHelper.sol\":1392:1403  data.length */\n      mload\n        /* \"libs/TransferHelper.sol\":1392:1408  data.length == 0 */\n      eq\n        /* \"libs/TransferHelper.sol\":1392:1436  data.length == 0 || abi.decode(data, (bool)) */\n      dup1\n      tag_238\n      jumpi\n      pop\n        /* \"libs/TransferHelper.sol\":1423:1427  data */\n      dup1\n        /* \"libs/TransferHelper.sol\":1412:1436  abi.decode(data, (bool)) */\n      dup1\n      0x20\n      add\n      swap1\n      mload\n      dup2\n      add\n      swap1\n      tag_239\n      swap2\n      swap1\n      tag_240\n      jump\t// in\n    tag_239:\n        /* \"libs/TransferHelper.sol\":1392:1436  data.length == 0 || abi.decode(data, (bool)) */\n    tag_238:\n        /* \"libs/TransferHelper.sol\":1380:1437  success && (data.length == 0 || abi.decode(data, (bool))) */\n    tag_237:\n        /* \"libs/TransferHelper.sol\":1359:1512  require(... */\n      tag_241\n      jumpi\n      mload(0x40)\n      0x08c379a000000000000000000000000000000000000000000000000000000000\n      dup2\n      mstore\n      0x04\n      add\n      tag_242\n      swap1\n      tag_243\n      jump\t// in\n    tag_242:\n      mload(0x40)\n      dup1\n      swap2\n      sub\n      swap1\n      revert\n    tag_241:\n        /* \"libs/TransferHelper.sol\":1033:1519  function safeTransferFrom(... */\n      pop\n      pop\n      pop\n      pop\n      pop\n      pop\n      jump\t// out\n        /* \"BarterswapRouter.sol\":3639:3951  function crvSwap(address _inputAddre,address _rindex,address _to,uint256 _dx,uint256[] memory parameterList) internal{... */\n    tag_119:\n        /* \"BarterswapRouter.sol\":3773:3784  _inputAddre */\n      dup5\n        /* \"BarterswapRouter.sol\":3766:3793  IERC20(_inputAddre).approve */\n      0xffffffffffffffffffffffffffffffffffffffff\n      and\n      0x095ea7b3\n        /* \"BarterswapRouter.sol\":3794:3801  _rindex */\n      dup6\n        /* \"BarterswapRouter.sol\":3802:3805  _dx */\n      dup5\n        /* \"BarterswapRouter.sol\":3766:3806  IERC20(_inputAddre).approve(_rindex,_dx) */\n      mload(0x40)\n      dup4\n      0xffffffff\n      and\n      0xe0\n      shl\n      dup2\n      mstore\n      0x04\n      add\n      tag_245\n      swap3\n      swap2\n      swap1\n      tag_246\n      jump\t// in\n    tag_245:\n      0x20\n      mload(0x40)\n      dup1\n      dup4\n      sub\n      dup2\n      0x00\n      dup8\n      dup1\n      extcodesize\n      iszero\n      dup1\n      iszero\n      tag_247\n      jumpi\n      0x00\n      dup1\n      revert\n    tag_247:\n      pop\n      gas\n      call\n      iszero\n      dup1\n      iszero\n      tag_249\n      jumpi\n      returndatasize\n      0x00\n      dup1\n      returndatacopy\n      revert(0x00, returndatasize)\n    tag_249:\n      pop\n      pop\n      pop\n      pop\n      mload(0x40)\n      returndatasize\n      not(0x1f)\n      0x1f\n      dup3\n      add\n      and\n      dup3\n      add\n      dup1\n      0x40\n      mstore\n      pop\n      dup2\n      add\n      swap1\n      tag_250\n      swap2\n      swap1\n      tag_240\n      jump\t// in\n    tag_250:\n      pop\n        /* \"BarterswapRouter.sol\":3816:3868  TransferHelper.safeTransfer(_inputAddre,_rindex,_dx) */\n      tag_251\n        /* \"BarterswapRouter.sol\":3844:3855  _inputAddre */\n      dup6\n        /* \"BarterswapRouter.sol\":3856:3863  _rindex */\n      dup6\n        /* \"BarterswapRouter.sol\":3864:3867  _dx */\n      dup5\n        /* \"BarterswapRouter.sol\":3816:3843  TransferHelper.safeTransfer */\n      tag_187\n        /* \"BarterswapRouter.sol\":3816:3868  TransferHelper.safeTransfer(_inputAddre,_rindex,_dx) */\n      jump\t// in\n    tag_251:\n        /* \"BarterswapRouter.sol\":3884:3891  _rindex */\n      dup4\n        /* \"BarterswapRouter.sol\":3878:3904  ISwap(_rindex).filterCurve */\n      0xffffffffffffffffffffffffffffffffffffffff\n      and\n      0x3502eea8\n        /* \"BarterswapRouter.sol\":3905:3908  _to */\n      dup5\n        /* \"BarterswapRouter.sol\":3909:3920  _inputAddre */\n      dup8\n        /* \"BarterswapRouter.sol\":3921:3934  parameterList */\n      dup5\n        /* \"BarterswapRouter.sol\":3878:3935  ISwap(_rindex).filterCurve(_to,_inputAddre,parameterList) */\n      mload(0x40)\n      dup5\n      0xffffffff\n      and\n      0xe0\n      shl\n      dup2\n      mstore\n      0x04\n      add\n      tag_252\n      swap4\n      swap3\n      swap2\n      swap1\n      tag_253\n      jump\t// in\n    tag_252:\n      0x00\n      mload(0x40)\n      dup1\n      dup4\n      sub\n      dup2\n      0x00\n      dup8\n      dup1\n      extcodesize\n      iszero\n      dup1\n      iszero\n      tag_254\n      jumpi\n      0x00\n      dup1\n      revert\n    tag_254:\n      pop\n      gas\n      call\n      iszero\n      dup1\n      iszero\n      tag_256\n      jumpi\n      returndatasize\n      0x00\n      dup1\n      returndatacopy\n      revert(0x00, returndatasize)\n    tag_256:\n      pop\n      pop\n      pop\n      pop\n        /* \"BarterswapRouter.sol\":3639:3951  function crvSwap(address _inputAddre,address _rindex,address _to,uint256 _dx,uint256[] memory parameterList) internal{... */\n      pop\n      pop\n      pop\n      pop\n      pop\n      jump\t// out\n        /* \"BarterswapRouter.sol\":2923:3616  function balancerSwap(IVault.SwapKind _kind, address _inputAddre,address _rindex,IVault.BatchSwapStep[] memory _swaps,IVault.FundManagement memory _funds, IAsset[] memory  _assets, int256[]  memory _limit,uint256 _deadLine) internal{... */\n    tag_138:\n        /* \"BarterswapRouter.sol\":3191:3192  0 */\n      0x00\n        /* \"BarterswapRouter.sol\":3168:3193  _inputAddre == address(0) */\n      0xffffffffffffffffffffffffffffffffffffffff\n      and\n        /* \"BarterswapRouter.sol\":3168:3179  _inputAddre */\n      dup8\n        /* \"BarterswapRouter.sol\":3168:3193  _inputAddre == address(0) */\n      0xffffffffffffffffffffffffffffffffffffffff\n      and\n      eq\n        /* \"BarterswapRouter.sol\":3165:3610  if(_inputAddre == address(0)){... */\n      iszero\n      tag_258\n      jumpi\n        /* \"BarterswapRouter.sol\":3208:3264  TransferHelper.safeTransferETH(_rindex,_swaps[0].amount) */\n      tag_259\n        /* \"BarterswapRouter.sol\":3239:3246  _rindex */\n      dup7\n        /* \"BarterswapRouter.sol\":3247:3253  _swaps */\n      dup7\n        /* \"BarterswapRouter.sol\":3254:3255  0 */\n      0x00\n        /* \"BarterswapRouter.sol\":3247:3256  _swaps[0] */\n      dup2\n      mload\n      dup2\n      lt\n      tag_260\n      jumpi\n      mstore(0x00, 0x4e487b7100000000000000000000000000000000000000000000000000000000)\n      mstore(0x04, 0x32)\n      revert(0x00, 0x24)\n    tag_260:\n      0x20\n      mul\n      0x20\n      add\n      add\n      mload\n        /* \"BarterswapRouter.sol\":3247:3263  _swaps[0].amount */\n      0x60\n      add\n      mload\n        /* \"BarterswapRouter.sol\":3208:3238  TransferHelper.safeTransferETH */\n      tag_97\n        /* \"BarterswapRouter.sol\":3208:3264  TransferHelper.safeTransferETH(_rindex,_swaps[0].amount) */\n      jump\t// in\n    tag_259:\n        /* \"BarterswapRouter.sol\":3284:3291  _rindex */\n      dup6\n        /* \"BarterswapRouter.sol\":3278:3307  ISwap(_rindex).filterBalancer */\n      0xffffffffffffffffffffffffffffffffffffffff\n      and\n      0x1738b50e\n        /* \"BarterswapRouter.sol\":3308:3313  _kind */\n      dup10\n        /* \"BarterswapRouter.sol\":3314:3320  _swaps */\n      dup8\n        /* \"BarterswapRouter.sol\":3321:3327  _funds */\n      dup8\n        /* \"BarterswapRouter.sol\":3328:3335  _assets */\n      dup8\n        /* \"BarterswapRouter.sol\":3336:3342  _limit */\n      dup8\n        /* \"BarterswapRouter.sol\":3343:3352  _deadLine */\n      dup8\n        /* \"BarterswapRouter.sol\":3278:3353  ISwap(_rindex).filterBalancer(_kind,_swaps,_funds,_assets,_limit,_deadLine) */\n      mload(0x40)\n      dup8\n      0xffffffff\n      and\n      0xe0\n      shl\n      dup2\n      mstore\n      0x04\n      add\n      tag_261\n      swap7\n      swap6\n      swap5\n      swap4\n      swap3\n      swap2\n      swap1\n      tag_262\n      jump\t// in\n    tag_261:\n      0x00\n      mload(0x40)\n      dup1\n      dup4\n      sub\n      dup2\n      0x00\n      dup8\n      dup1\n      extcodesize\n      iszero\n      dup1\n      iszero\n      tag_263\n      jumpi\n      0x00\n      dup1\n      revert\n    tag_263:\n      pop\n      gas\n      call\n      iszero\n      dup1\n      iszero\n      tag_265\n      jumpi\n      returndatasize\n      0x00\n      dup1\n      returndatacopy\n      revert(0x00, returndatasize)\n    tag_265:\n      pop\n      pop\n      pop\n      pop\n        /* \"BarterswapRouter.sol\":3165:3610  if(_inputAddre == address(0)){... */\n      jump(tag_266)\n    tag_258:\n        /* \"BarterswapRouter.sol\":3389:3396  _rindex */\n      dup6\n        /* \"BarterswapRouter.sol\":3382:3405  IERC20(_rindex).approve */\n      0xffffffffffffffffffffffffffffffffffffffff\n      and\n      0x095ea7b3\n        /* \"BarterswapRouter.sol\":3406:3413  _rindex */\n      dup8\n        /* \"BarterswapRouter.sol\":3414:3420  _swaps */\n      dup8\n        /* \"BarterswapRouter.sol\":3421:3422  0 */\n      0x00\n        /* \"BarterswapRouter.sol\":3414:3423  _swaps[0] */\n      dup2\n      mload\n      dup2\n      lt\n      tag_267\n      jumpi\n      mstore(0x00, 0x4e487b7100000000000000000000000000000000000000000000000000000000)\n      mstore(0x04, 0x32)\n      revert(0x00, 0x24)\n    tag_267:\n      0x20\n      mul\n      0x20\n      add\n      add\n      mload\n        /* \"BarterswapRouter.sol\":3414:3430  _swaps[0].amount */\n      0x60\n      add\n      mload\n        /* \"BarterswapRouter.sol\":3382:3431  IERC20(_rindex).approve(_rindex,_swaps[0].amount) */\n      mload(0x40)\n      dup4\n      0xffffffff\n      and\n      0xe0\n      shl\n      dup2\n      mstore\n      0x04\n      add\n      tag_268\n      swap3\n      swap2\n      swap1\n      tag_246\n      jump\t// in\n    tag_268:\n      0x20\n      mload(0x40)\n      dup1\n      dup4\n      sub\n      dup2\n      0x00\n      dup8\n      dup1\n      extcodesize\n      iszero\n      dup1\n      iszero\n      tag_269\n      jumpi\n      0x00\n      dup1\n      revert\n    tag_269:\n      pop\n      gas\n      call\n      iszero\n      dup1\n      iszero\n      tag_271\n      jumpi\n      returndatasize\n      0x00\n      dup1\n      returndatacopy\n      revert(0x00, returndatasize)\n    tag_271:\n      pop\n      pop\n      pop\n      pop\n      mload(0x40)\n      returndatasize\n      not(0x1f)\n      0x1f\n      dup3\n      add\n      and\n      dup3\n      add\n      dup1\n      0x40\n      mstore\n      pop\n      dup2\n      add\n      swap1\n      tag_272\n      swap2\n      swap1\n      tag_240\n      jump\t// in\n    tag_272:\n      pop\n        /* \"BarterswapRouter.sol\":3445:3510  TransferHelper.safeTransfer(_inputAddre,_rindex,_swaps[0].amount) */\n      tag_273\n        /* \"BarterswapRouter.sol\":3473:3484  _inputAddre */\n      dup8\n        /* \"BarterswapRouter.sol\":3485:3492  _rindex */\n      dup8\n        /* \"BarterswapRouter.sol\":3493:3499  _swaps */\n      dup8\n        /* \"BarterswapRouter.sol\":3500:3501  0 */\n      0x00\n        /* \"BarterswapRouter.sol\":3493:3502  _swaps[0] */\n      dup2\n      mload\n      dup2\n      lt\n      tag_274\n      jumpi\n      mstore(0x00, 0x4e487b7100000000000000000000000000000000000000000000000000000000)\n      mstore(0x04, 0x32)\n      revert(0x00, 0x24)\n    tag_274:\n      0x20\n      mul\n      0x20\n      add\n      add\n      mload\n        /* \"BarterswapRouter.sol\":3493:3509  _swaps[0].amount */\n      0x60\n      add\n      mload\n        /* \"BarterswapRouter.sol\":3445:3472  TransferHelper.safeTransfer */\n      tag_187\n        /* \"BarterswapRouter.sol\":3445:3510  TransferHelper.safeTransfer(_inputAddre,_rindex,_swaps[0].amount) */\n      jump\t// in\n    tag_273:\n        /* \"BarterswapRouter.sol\":3530:3537  _rindex */\n      dup6\n        /* \"BarterswapRouter.sol\":3524:3553  ISwap(_rindex).filterBalancer */\n      0xffffffffffffffffffffffffffffffffffffffff\n      and\n      0x1738b50e\n        /* \"BarterswapRouter.sol\":3554:3559  _kind */\n      dup10\n        /* \"BarterswapRouter.sol\":3560:3566  _swaps */\n      dup8\n        /* \"BarterswapRouter.sol\":3567:3573  _funds */\n      dup8\n        /* \"BarterswapRouter.sol\":3574:3581  _assets */\n      dup8\n        /* \"BarterswapRouter.sol\":3582:3588  _limit */\n      dup8\n        /* \"BarterswapRouter.sol\":3589:3598  _deadLine */\n      dup8\n        /* \"BarterswapRouter.sol\":3524:3599  ISwap(_rindex).filterBalancer(_kind,_swaps,_funds,_assets,_limit,_deadLine) */\n      mload(0x40)\n      dup8\n      0xffffffff\n      and\n      0xe0\n      shl\n      dup2\n      mstore\n      0x04\n      add\n      tag_275\n      swap7\n      swap6\n      swap5\n      swap4\n      swap3\n      swap2\n      swap1\n      tag_262\n      jump\t// in\n    tag_275:\n      0x00\n      mload(0x40)\n      dup1\n      dup4\n      sub\n      dup2\n      0x00\n      dup8\n      dup1\n      extcodesize\n      iszero\n      dup1\n      iszero\n      tag_276\n      jumpi\n      0x00\n      dup1\n      revert\n    tag_276:\n      pop\n      gas\n      call\n      iszero\n      dup1\n      iszero\n      tag_278\n      jumpi\n      returndatasize\n      0x00\n      dup1\n      returndatacopy\n      revert(0x00, returndatasize)\n    tag_278:\n      pop\n      pop\n      pop\n      pop\n        /* \"BarterswapRouter.sol\":3165:3610  if(_inputAddre == address(0)){... */\n    tag_266:\n        /* \"BarterswapRouter.sol\":2923:3616  function balancerSwap(IVault.SwapKind _kind, address _inputAddre,address _rindex,IVault.BatchSwapStep[] memory _swaps,IVault.FundManagement memory _funds, IAsset[] memory  _assets, int256[]  memory _limit,uint256 _deadLine) internal{... */\n      pop\n      pop\n      pop\n      pop\n      pop\n      pop\n      pop\n      pop\n      jump\t// out\n        /* \"BarterswapRouter.sol\":3974:4729  function AmmSeriSwap(address _rindex,uint256 _amountInArr,uint256 _amountOutMinArr,bytes memory _pathArr,address _to,uint256 _deadLine,address _inputAddre,address _outAddre) internal {... */\n    tag_153:\n        /* \"BarterswapRouter.sol\":4197:4198  0 */\n      0x00\n        /* \"BarterswapRouter.sol\":4174:4199  _inputAddre == address(0) */\n      0xffffffffffffffffffffffffffffffffffffffff\n      and\n        /* \"BarterswapRouter.sol\":4174:4185  _inputAddre */\n      dup3\n        /* \"BarterswapRouter.sol\":4174:4199  _inputAddre == address(0) */\n      0xffffffffffffffffffffffffffffffffffffffff\n      and\n      eq\n        /* \"BarterswapRouter.sol\":4171:4723  if(_inputAddre == address(0)){... */\n      iszero\n      tag_280\n      jumpi\n        /* \"BarterswapRouter.sol\":4222:4274  TransferHelper.safeTransferETH(_rindex,_amountInArr) */\n      tag_281\n        /* \"BarterswapRouter.sol\":4253:4260  _rindex */\n      dup9\n        /* \"BarterswapRouter.sol\":4261:4273  _amountInArr */\n      dup9\n        /* \"BarterswapRouter.sol\":4222:4252  TransferHelper.safeTransferETH */\n      tag_97\n        /* \"BarterswapRouter.sol\":4222:4274  TransferHelper.safeTransferETH(_rindex,_amountInArr) */\n      jump\t// in\n    tag_281:\n        /* \"BarterswapRouter.sol\":4302:4309  _rindex */\n      dup8\n        /* \"BarterswapRouter.sol\":4296:4321  ISwap(_rindex).filterSwap */\n      0xffffffffffffffffffffffffffffffffffffffff\n      and\n      0xb1a271d4\n        /* \"BarterswapRouter.sol\":4322:4334  _amountInArr */\n      dup9\n        /* \"BarterswapRouter.sol\":4335:4351  _amountOutMinArr */\n      dup9\n        /* \"BarterswapRouter.sol\":4352:4360  _pathArr */\n      dup9\n        /* \"BarterswapRouter.sol\":4361:4364  _to */\n      dup9\n        /* \"BarterswapRouter.sol\":4365:4374  _deadLine */\n      dup9\n        /* \"BarterswapRouter.sol\":4375:4386  _inputAddre */\n      dup9\n        /* \"BarterswapRouter.sol\":4387:4396  _outAddre */\n      dup9\n        /* \"BarterswapRouter.sol\":4296:4397  ISwap(_rindex).filterSwap(_amountInArr,_amountOutMinArr,_pathArr,_to,_deadLine,_inputAddre,_outAddre) */\n      mload(0x40)\n      dup9\n      0xffffffff\n      and\n      0xe0\n      shl\n      dup2\n      mstore\n      0x04\n      add\n      tag_282\n      swap8\n      swap7\n      swap6\n      swap5\n      swap4\n      swap3\n      swap2\n      swap1\n      tag_283\n      jump\t// in\n    tag_282:\n      0x00\n      mload(0x40)\n      dup1\n      dup4\n      sub\n      dup2\n      0x00\n      dup8\n      dup1\n      extcodesize\n      iszero\n      dup1\n      iszero\n      tag_284\n      jumpi\n      0x00\n      dup1\n      revert\n    tag_284:\n      pop\n      gas\n      call\n      iszero\n      dup1\n      iszero\n      tag_286\n      jumpi\n      returndatasize\n      0x00\n      dup1\n      returndatacopy\n      revert(0x00, returndatasize)\n    tag_286:\n      pop\n      pop\n      pop\n      pop\n        /* \"BarterswapRouter.sol\":4171:4723  if(_inputAddre == address(0)){... */\n      jump(tag_287)\n    tag_280:\n        /* \"BarterswapRouter.sol\":4455:4462  _rindex */\n      dup8\n        /* \"BarterswapRouter.sol\":4448:4471  IERC20(_rindex).approve */\n      0xffffffffffffffffffffffffffffffffffffffff\n      and\n      0x095ea7b3\n        /* \"BarterswapRouter.sol\":4472:4479  _rindex */\n      dup10\n        /* \"BarterswapRouter.sol\":4480:4492  _amountInArr */\n      dup10\n        /* \"BarterswapRouter.sol\":4448:4493  IERC20(_rindex).approve(_rindex,_amountInArr) */\n      mload(0x40)\n      dup4\n      0xffffffff\n      and\n      0xe0\n      shl\n      dup2\n      mstore\n      0x04\n      add\n      tag_288\n      swap3\n      swap2\n      swap1\n      tag_246\n      jump\t// in\n    tag_288:\n      0x20\n      mload(0x40)\n      dup1\n      dup4\n      sub\n      dup2\n      0x00\n      dup8\n      dup1\n      extcodesize\n      iszero\n      dup1\n      iszero\n      tag_289\n      jumpi\n      0x00\n      dup1\n      revert\n    tag_289:\n      pop\n      gas\n      call\n      iszero\n      dup1\n      iszero\n      tag_291\n      jumpi\n      returndatasize\n      0x00\n      dup1\n      returndatacopy\n      revert(0x00, returndatasize)\n    tag_291:\n      pop\n      pop\n      pop\n      pop\n      mload(0x40)\n      returndatasize\n      not(0x1f)\n      0x1f\n      dup3\n      add\n      and\n      dup3\n      add\n      dup1\n      0x40\n      mstore\n      pop\n      dup2\n      add\n      swap1\n      tag_292\n      swap2\n      swap1\n      tag_240\n      jump\t// in\n    tag_292:\n      pop\n        /* \"BarterswapRouter.sol\":4515:4576  TransferHelper.safeTransfer(_inputAddre,_rindex,_amountInArr) */\n      tag_293\n        /* \"BarterswapRouter.sol\":4543:4554  _inputAddre */\n      dup3\n        /* \"BarterswapRouter.sol\":4555:4562  _rindex */\n      dup10\n        /* \"BarterswapRouter.sol\":4563:4575  _amountInArr */\n      dup10\n        /* \"BarterswapRouter.sol\":4515:4542  TransferHelper.safeTransfer */\n      tag_187\n        /* \"BarterswapRouter.sol\":4515:4576  TransferHelper.safeTransfer(_inputAddre,_rindex,_amountInArr) */\n      jump\t// in\n    tag_293:\n        /* \"BarterswapRouter.sol\":4604:4611  _rindex */\n      dup8\n        /* \"BarterswapRouter.sol\":4598:4623  ISwap(_rindex).filterSwap */\n      0xffffffffffffffffffffffffffffffffffffffff\n      and\n      0xb1a271d4\n        /* \"BarterswapRouter.sol\":4624:4636  _amountInArr */\n      dup9\n        /* \"BarterswapRouter.sol\":4637:4653  _amountOutMinArr */\n      dup9\n        /* \"BarterswapRouter.sol\":4654:4662  _pathArr */\n      dup9\n        /* \"BarterswapRouter.sol\":4663:4666  _to */\n      dup9\n        /* \"BarterswapRouter.sol\":4667:4676  _deadLine */\n      dup9\n        /* \"BarterswapRouter.sol\":4677:4688  _inputAddre */\n      dup9\n        /* \"BarterswapRouter.sol\":4689:4698  _outAddre */\n      dup9\n        /* \"BarterswapRouter.sol\":4598:4699  ISwap(_rindex).filterSwap(_amountInArr,_amountOutMinArr,_pathArr,_to,_deadLine,_inputAddre,_outAddre) */\n      mload(0x40)\n      dup9\n      0xffffffff\n      and\n      0xe0\n      shl\n      dup2\n      mstore\n      0x04\n      add\n      tag_294\n      swap8\n      swap7\n      swap6\n      swap5\n      swap4\n      swap3\n      swap2\n      swap1\n      tag_283\n      jump\t// in\n    tag_294:\n      0x00\n      mload(0x40)\n      dup1\n      dup4\n      sub\n      dup2\n      0x00\n      dup8\n      dup1\n      extcodesize\n      iszero\n      dup1\n      iszero\n      tag_295\n      jumpi\n      0x00\n      dup1\n      revert\n    tag_295:\n      pop\n      gas\n      call\n      iszero\n      dup1\n      iszero\n      tag_297\n      jumpi\n      returndatasize\n      0x00\n      dup1\n      returndatacopy\n      revert(0x00, returndatasize)\n    tag_297:\n      pop\n      pop\n      pop\n      pop\n        /* \"BarterswapRouter.sol\":4171:4723  if(_inputAddre == address(0)){... */\n    tag_287:\n        /* \"BarterswapRouter.sol\":3974:4729  function AmmSeriSwap(address _rindex,uint256 _amountInArr,uint256 _amountOutMinArr,bytes memory _pathArr,address _to,uint256 _deadLine,address _inputAddre,address _outAddre) internal {... */\n      pop\n      pop\n      pop\n      pop\n      pop\n      pop\n      pop\n      pop\n      jump\t// out\n        /* \"libs/TransferHelper.sol\":589:1027  function safeTransfer(... */\n    tag_187:\n        /* \"libs/TransferHelper.sol\":769:781  bool success */\n      0x00\n        /* \"libs/TransferHelper.sol\":783:800  bytes memory data */\n      dup1\n        /* \"libs/TransferHelper.sol\":804:809  token */\n      dup5\n        /* \"libs/TransferHelper.sol\":804:814  token.call */\n      0xffffffffffffffffffffffffffffffffffffffff\n      and\n        /* \"libs/TransferHelper.sol\":838:848  0xa9059cbb */\n      0xa9059cbb\n        /* \"libs/TransferHelper.sol\":850:852  to */\n      dup6\n        /* \"libs/TransferHelper.sol\":854:859  value */\n      dup6\n        /* \"libs/TransferHelper.sol\":815:860  abi.encodeWithSelector(0xa9059cbb, to, value) */\n      add(0x24, mload(0x40))\n      tag_299\n      swap3\n      swap2\n      swap1\n      tag_246\n      jump\t// in\n    tag_299:\n      mload(0x40)\n      0x20\n      dup2\n      dup4\n      sub\n      sub\n      dup2\n      mstore\n      swap1\n      0x40\n      mstore\n      swap1\n      0xe0\n      shl\n      0x20\n      dup3\n      add\n      dup1\n      mload\n      0xffffffffffffffffffffffffffffffffffffffffffffffffffffffff\n      dup4\n      dup2\n      dup4\n      and\n      or\n      dup4\n      mstore\n      pop\n      pop\n      pop\n      pop\n        /* \"libs/TransferHelper.sol\":804:861  token.call(abi.encodeWithSelector(0xa9059cbb, to, value)) */\n      mload(0x40)\n      tag_300\n      swap2\n      swap1\n      tag_223\n      jump\t// in\n    tag_300:\n      0x00\n      mload(0x40)\n      dup1\n      dup4\n      sub\n      dup2\n      0x00\n      dup7\n      gas\n      call\n      swap2\n      pop\n      pop\n      returndatasize\n      dup1\n      0x00\n      dup2\n      eq\n      tag_303\n      jumpi\n      mload(0x40)\n      swap2\n      pop\n      and(add(returndatasize, 0x3f), not(0x1f))\n      dup3\n      add\n      0x40\n      mstore\n      returndatasize\n      dup3\n      mstore\n      returndatasize\n      0x00\n      0x20\n      dup5\n      add\n      returndatacopy\n      jump(tag_302)\n    tag_303:\n      0x60\n      swap2\n      pop\n    tag_302:\n      pop\n        /* \"libs/TransferHelper.sol\":768:861  (bool success, bytes memory data) = token.call(abi.encodeWithSelector(0xa9059cbb, to, value)) */\n      swap2\n      pop\n      swap2\n      pop\n        /* \"libs/TransferHelper.sol\":892:899  success */\n      dup2\n        /* \"libs/TransferHelper.sol\":892:949  success && (data.length == 0 || abi.decode(data, (bool))) */\n      dup1\n      iszero\n      tag_304\n      jumpi\n      pop\n        /* \"libs/TransferHelper.sol\":919:920  0 */\n      0x00\n        /* \"libs/TransferHelper.sol\":904:908  data */\n      dup2\n        /* \"libs/TransferHelper.sol\":904:915  data.length */\n      mload\n        /* \"libs/TransferHelper.sol\":904:920  data.length == 0 */\n      eq\n        /* \"libs/TransferHelper.sol\":904:948  data.length == 0 || abi.decode(data, (bool)) */\n      dup1\n      tag_305\n      jumpi\n      pop\n        /* \"libs/TransferHelper.sol\":935:939  data */\n      dup1\n        /* \"libs/TransferHelper.sol\":924:948  abi.decode(data, (bool)) */\n      dup1\n      0x20\n      add\n      swap1\n      mload\n      dup2\n      add\n      swap1\n      tag_306\n      swap2\n      swap1\n      tag_240\n      jump\t// in\n    tag_306:\n        /* \"libs/TransferHelper.sol\":904:948  data.length == 0 || abi.decode(data, (bool)) */\n    tag_305:\n        /* \"libs/TransferHelper.sol\":892:949  success && (data.length == 0 || abi.decode(data, (bool))) */\n    tag_304:\n        /* \"libs/TransferHelper.sol\":871:1020  require(... */\n      tag_307\n      jumpi\n      mload(0x40)\n      0x08c379a000000000000000000000000000000000000000000000000000000000\n      dup2\n      mstore\n      0x04\n      add\n      tag_308\n      swap1\n      tag_309\n      jump\t// in\n    tag_308:\n      mload(0x40)\n      dup1\n      swap2\n      sub\n      swap1\n      revert\n    tag_307:\n        /* \"libs/TransferHelper.sol\":589:1027  function safeTransfer(... */\n      pop\n      pop\n      pop\n      pop\n      pop\n      jump\t// out\n        /* \"libs/SafeMath.sol\":3151:3423  function div(uint256 a, uint256 b, string memory errorMessage) internal pure returns (uint256) {... */\n    tag_218:\n        /* \"libs/SafeMath.sol\":3237:3244  uint256 */\n      0x00\n        /* \"libs/SafeMath.sol\":3268:3269  0 */\n      dup1\n        /* \"libs/SafeMath.sol\":3264:3265  b */\n      dup4\n        /* \"libs/SafeMath.sol\":3264:3269  b > 0 */\n      gt\n        /* \"libs/SafeMath.sol\":3271:3283  errorMessage */\n      dup3\n        /* \"libs/SafeMath.sol\":3256:3284  require(b > 0, errorMessage) */\n      swap1\n      tag_311\n      jumpi\n      mload(0x40)\n      0x08c379a000000000000000000000000000000000000000000000000000000000\n      dup2\n      mstore\n      0x04\n      add\n      tag_312\n      swap2\n      swap1\n      tag_313\n      jump\t// in\n    tag_312:\n      mload(0x40)\n      dup1\n      swap2\n      sub\n      swap1\n      revert\n    tag_311:\n      pop\n        /* \"libs/SafeMath.sol\":3294:3303  uint256 c */\n      0x00\n        /* \"libs/SafeMath.sol\":3310:3311  b */\n      dup4\n        /* \"libs/SafeMath.sol\":3306:3307  a */\n      dup6\n        /* \"libs/SafeMath.sol\":3306:3311  a / b */\n      tag_314\n      swap2\n      swap1\n      tag_212\n      jump\t// in\n    tag_314:\n        /* \"libs/SafeMath.sol\":3294:3311  uint256 c = a / b */\n      swap1\n      pop\n        /* \"libs/SafeMath.sol\":3415:3416  c */\n      dup1\n        /* \"libs/SafeMath.sol\":3408:3416  return c */\n      swap2\n      pop\n      pop\n        /* \"libs/SafeMath.sol\":3151:3423  function div(uint256 a, uint256 b, string memory errorMessage) internal pure returns (uint256) {... */\n      swap4\n      swap3\n      pop\n      pop\n      pop\n      jump\t// out\n        /* \"#utility.yul\":44:722   */\n    tag_316:\n      0x00\n        /* \"#utility.yul\":196:307   */\n      tag_318\n        /* \"#utility.yul\":211:306   */\n      tag_319\n        /* \"#utility.yul\":299:305   */\n      dup5\n        /* \"#utility.yul\":211:306   */\n      tag_320\n      jump\t// in\n    tag_319:\n        /* \"#utility.yul\":196:307   */\n      tag_321\n      jump\t// in\n    tag_318:\n        /* \"#utility.yul\":187:307   */\n      swap1\n      pop\n        /* \"#utility.yul\":327:332   */\n      dup1\n        /* \"#utility.yul\":355:361   */\n      dup4\n        /* \"#utility.yul\":348:353   */\n      dup3\n        /* \"#utility.yul\":341:362   */\n      mstore\n        /* \"#utility.yul\":381:385   */\n      0x20\n        /* \"#utility.yul\":374:379   */\n      dup3\n        /* \"#utility.yul\":370:386   */\n      add\n        /* \"#utility.yul\":363:386   */\n      swap1\n      pop\n        /* \"#utility.yul\":406:412   */\n      dup3\n        /* \"#utility.yul\":437:438   */\n      0x00\n        /* \"#utility.yul\":422:716   */\n    tag_322:\n        /* \"#utility.yul\":447:453   */\n      dup6\n        /* \"#utility.yul\":444:445   */\n      dup2\n        /* \"#utility.yul\":441:454   */\n      lt\n        /* \"#utility.yul\":422:716   */\n      iszero\n      tag_324\n      jumpi\n        /* \"#utility.yul\":539:542   */\n      dup2\n        /* \"#utility.yul\":526:543   */\n      calldataload\n        /* \"#utility.yul\":518:524   */\n      dup6\n        /* \"#utility.yul\":514:544   */\n      add\n        /* \"#utility.yul\":569:637   */\n      tag_325\n        /* \"#utility.yul\":633:636   */\n      dup9\n        /* \"#utility.yul\":621:631   */\n      dup3\n        /* \"#utility.yul\":569:637   */\n      tag_326\n      jump\t// in\n    tag_325:\n        /* \"#utility.yul\":564:567   */\n      dup5\n        /* \"#utility.yul\":557:638   */\n      mstore\n        /* \"#utility.yul\":667:671   */\n      0x20\n        /* \"#utility.yul\":662:665   */\n      dup5\n        /* \"#utility.yul\":658:672   */\n      add\n        /* \"#utility.yul\":651:672   */\n      swap4\n      pop\n        /* \"#utility.yul\":701:705   */\n      0x20\n        /* \"#utility.yul\":696:699   */\n      dup4\n        /* \"#utility.yul\":692:706   */\n      add\n        /* \"#utility.yul\":685:706   */\n      swap3\n      pop\n        /* \"#utility.yul\":482:716   */\n      pop\n        /* \"#utility.yul\":469:470   */\n      0x01\n        /* \"#utility.yul\":466:467   */\n      dup2\n        /* \"#utility.yul\":462:471   */\n      add\n        /* \"#utility.yul\":457:471   */\n      swap1\n      pop\n        /* \"#utility.yul\":422:716   */\n      jump(tag_322)\n    tag_324:\n        /* \"#utility.yul\":426:440   */\n      pop\n        /* \"#utility.yul\":177:722   */\n      pop\n      pop\n      swap4\n      swap3\n      pop\n      pop\n      pop\n      jump\t// out\n        /* \"#utility.yul\":745:1367   */\n    tag_327:\n      0x00\n        /* \"#utility.yul\":866:946   */\n      tag_329\n        /* \"#utility.yul\":881:945   */\n      tag_330\n        /* \"#utility.yul\":938:944   */\n      dup5\n        /* \"#utility.yul\":881:945   */\n      tag_331\n      jump\t// in\n    tag_330:\n        /* \"#utility.yul\":866:946   */\n      tag_321\n      jump\t// in\n    tag_329:\n        /* \"#utility.yul\":857:946   */\n      swap1\n      pop\n        /* \"#utility.yul\":966:971   */\n      dup1\n        /* \"#utility.yul\":994:1000   */\n      dup4\n        /* \"#utility.yul\":987:992   */\n      dup3\n        /* \"#utility.yul\":980:1001   */\n      mstore\n        /* \"#utility.yul\":1020:1024   */\n      0x20\n        /* \"#utility.yul\":1013:1018   */\n      dup3\n        /* \"#utility.yul\":1009:1025   */\n      add\n        /* \"#utility.yul\":1002:1025   */\n      swap1\n      pop\n        /* \"#utility.yul\":1045:1051   */\n      dup3\n        /* \"#utility.yul\":1095:1098   */\n      dup6\n        /* \"#utility.yul\":1087:1091   */\n      0x20\n        /* \"#utility.yul\":1079:1085   */\n      dup7\n        /* \"#utility.yul\":1075:1092   */\n      mul\n        /* \"#utility.yul\":1070:1073   */\n      dup3\n        /* \"#utility.yul\":1066:1093   */\n      add\n        /* \"#utility.yul\":1063:1099   */\n      gt\n        /* \"#utility.yul\":1060:1062   */\n      iszero\n      tag_332\n      jumpi\n        /* \"#utility.yul\":1112:1113   */\n      0x00\n        /* \"#utility.yul\":1109:1110   */\n      dup1\n        /* \"#utility.yul\":1102:1114   */\n      revert\n        /* \"#utility.yul\":1060:1062   */\n    tag_332:\n        /* \"#utility.yul\":1140:1141   */\n      0x00\n        /* \"#utility.yul\":1125:1361   */\n    tag_333:\n        /* \"#utility.yul\":1150:1156   */\n      dup6\n        /* \"#utility.yul\":1147:1148   */\n      dup2\n        /* \"#utility.yul\":1144:1157   */\n      lt\n        /* \"#utility.yul\":1125:1361   */\n      iszero\n      tag_335\n      jumpi\n        /* \"#utility.yul\":1217:1220   */\n      dup2\n        /* \"#utility.yul\":1245:1282   */\n      tag_336\n        /* \"#utility.yul\":1278:1281   */\n      dup9\n        /* \"#utility.yul\":1266:1276   */\n      dup3\n        /* \"#utility.yul\":1245:1282   */\n      tag_337\n      jump\t// in\n    tag_336:\n        /* \"#utility.yul\":1240:1243   */\n      dup5\n        /* \"#utility.yul\":1233:1283   */\n      mstore\n        /* \"#utility.yul\":1312:1316   */\n      0x20\n        /* \"#utility.yul\":1307:1310   */\n      dup5\n        /* \"#utility.yul\":1303:1317   */\n      add\n        /* \"#utility.yul\":1296:1317   */\n      swap4\n      pop\n        /* \"#utility.yul\":1346:1350   */\n      0x20\n        /* \"#utility.yul\":1341:1344   */\n      dup4\n        /* \"#utility.yul\":1337:1351   */\n      add\n        /* \"#utility.yul\":1330:1351   */\n      swap3\n      pop\n        /* \"#utility.yul\":1185:1361   */\n      pop\n        /* \"#utility.yul\":1172:1173   */\n      0x01\n        /* \"#utility.yul\":1169:1170   */\n      dup2\n        /* \"#utility.yul\":1165:1174   */\n      add\n        /* \"#utility.yul\":1160:1174   */\n      swap1\n      pop\n        /* \"#utility.yul\":1125:1361   */\n      jump(tag_333)\n    tag_335:\n        /* \"#utility.yul\":1129:1143   */\n      pop\n        /* \"#utility.yul\":847:1367   */\n      pop\n      pop\n      swap4\n      swap3\n      pop\n      pop\n      pop\n      jump\t// out\n        /* \"#utility.yul\":1373:1715   */\n    tag_338:\n      0x00\n        /* \"#utility.yul\":1475:1539   */\n      tag_340\n        /* \"#utility.yul\":1490:1538   */\n      tag_341\n        /* \"#utility.yul\":1531:1537   */\n      dup5\n        /* \"#utility.yul\":1490:1538   */\n      tag_342\n      jump\t// in\n    tag_341:\n        /* \"#utility.yul\":1475:1539   */\n      tag_321\n      jump\t// in\n    tag_340:\n        /* \"#utility.yul\":1466:1539   */\n      swap1\n      pop\n        /* \"#utility.yul\":1562:1568   */\n      dup3\n        /* \"#utility.yul\":1555:1560   */\n      dup2\n        /* \"#utility.yul\":1548:1569   */\n      mstore\n        /* \"#utility.yul\":1600:1604   */\n      0x20\n        /* \"#utility.yul\":1593:1598   */\n      dup2\n        /* \"#utility.yul\":1589:1605   */\n      add\n        /* \"#utility.yul\":1638:1641   */\n      dup5\n        /* \"#utility.yul\":1629:1635   */\n      dup5\n        /* \"#utility.yul\":1624:1627   */\n      dup5\n        /* \"#utility.yul\":1620:1636   */\n      add\n        /* \"#utility.yul\":1617:1642   */\n      gt\n        /* \"#utility.yul\":1614:1616   */\n      iszero\n      tag_343\n      jumpi\n        /* \"#utility.yul\":1655:1656   */\n      0x00\n        /* \"#utility.yul\":1652:1653   */\n      dup1\n        /* \"#utility.yul\":1645:1657   */\n      revert\n        /* \"#utility.yul\":1614:1616   */\n    tag_343:\n        /* \"#utility.yul\":1668:1709   */\n      tag_344\n        /* \"#utility.yul\":1702:1708   */\n      dup5\n        /* \"#utility.yul\":1697:1700   */\n      dup3\n        /* \"#utility.yul\":1692:1695   */\n      dup6\n        /* \"#utility.yul\":1668:1709   */\n      tag_345\n      jump\t// in\n    tag_344:\n        /* \"#utility.yul\":1456:1715   */\n      pop\n      swap4\n      swap3\n      pop\n      pop\n      pop\n      jump\t// out\n        /* \"#utility.yul\":1721:1860   */\n    tag_346:\n      0x00\n        /* \"#utility.yul\":1805:1811   */\n      dup2\n        /* \"#utility.yul\":1792:1812   */\n      calldataload\n        /* \"#utility.yul\":1783:1812   */\n      swap1\n      pop\n        /* \"#utility.yul\":1821:1854   */\n      tag_348\n        /* \"#utility.yul\":1848:1853   */\n      dup2\n        /* \"#utility.yul\":1821:1854   */\n      tag_349\n      jump\t// in\n    tag_348:\n        /* \"#utility.yul\":1773:1860   */\n      swap3\n      swap2\n      pop\n      pop\n      jump\t// out\n        /* \"#utility.yul\":1866:2009   */\n    tag_350:\n      0x00\n        /* \"#utility.yul\":1954:1960   */\n      dup2\n        /* \"#utility.yul\":1948:1961   */\n      mload\n        /* \"#utility.yul\":1939:1961   */\n      swap1\n      pop\n        /* \"#utility.yul\":1970:2003   */\n      tag_352\n        /* \"#utility.yul\":1997:2002   */\n      dup2\n        /* \"#utility.yul\":1970:2003   */\n      tag_349\n      jump\t// in\n    tag_352:\n        /* \"#utility.yul\":1929:2009   */\n      swap3\n      swap2\n      pop\n      pop\n      jump\t// out\n        /* \"#utility.yul\":2015:2170   */\n    tag_353:\n      0x00\n        /* \"#utility.yul\":2107:2113   */\n      dup2\n        /* \"#utility.yul\":2094:2114   */\n      calldataload\n        /* \"#utility.yul\":2085:2114   */\n      swap1\n      pop\n        /* \"#utility.yul\":2123:2164   */\n      tag_355\n        /* \"#utility.yul\":2158:2163   */\n      dup2\n        /* \"#utility.yul\":2123:2164   */\n      tag_356\n      jump\t// in\n    tag_355:\n        /* \"#utility.yul\":2075:2170   */\n      swap3\n      swap2\n      pop\n      pop\n      jump\t// out\n        /* \"#utility.yul\":2193:2496   */\n    tag_357:\n      0x00\n        /* \"#utility.yul\":2313:2316   */\n      dup3\n        /* \"#utility.yul\":2306:2310   */\n      0x1f\n        /* \"#utility.yul\":2298:2304   */\n      dup4\n        /* \"#utility.yul\":2294:2311   */\n      add\n        /* \"#utility.yul\":2290:2317   */\n      slt\n        /* \"#utility.yul\":2280:2282   */\n      tag_359\n      jumpi\n        /* \"#utility.yul\":2331:2332   */\n      0x00\n        /* \"#utility.yul\":2328:2329   */\n      dup1\n        /* \"#utility.yul\":2321:2333   */\n      revert\n        /* \"#utility.yul\":2280:2282   */\n    tag_359:\n        /* \"#utility.yul\":2371:2377   */\n      dup2\n        /* \"#utility.yul\":2358:2378   */\n      calldataload\n        /* \"#utility.yul\":2396:2490   */\n      tag_360\n        /* \"#utility.yul\":2486:2489   */\n      dup5\n        /* \"#utility.yul\":2478:2484   */\n      dup3\n        /* \"#utility.yul\":2471:2475   */\n      0x20\n        /* \"#utility.yul\":2463:2469   */\n      dup7\n        /* \"#utility.yul\":2459:2476   */\n      add\n        /* \"#utility.yul\":2396:2490   */\n      tag_327\n      jump\t// in\n    tag_360:\n        /* \"#utility.yul\":2387:2490   */\n      swap2\n      pop\n        /* \"#utility.yul\":2270:2496   */\n      pop\n      swap3\n      swap2\n      pop\n      pop\n      jump\t// out\n        /* \"#utility.yul\":2502:2635   */\n    tag_361:\n      0x00\n        /* \"#utility.yul\":2583:2589   */\n      dup2\n        /* \"#utility.yul\":2570:2590   */\n      calldataload\n        /* \"#utility.yul\":2561:2590   */\n      swap1\n      pop\n        /* \"#utility.yul\":2599:2629   */\n      tag_363\n        /* \"#utility.yul\":2623:2628   */\n      dup2\n        /* \"#utility.yul\":2599:2629   */\n      tag_364\n      jump\t// in\n    tag_363:\n        /* \"#utility.yul\":2551:2635   */\n      swap3\n      swap2\n      pop\n      pop\n      jump\t// out\n        /* \"#utility.yul\":2641:2778   */\n    tag_365:\n      0x00\n        /* \"#utility.yul\":2726:2732   */\n      dup2\n        /* \"#utility.yul\":2720:2733   */\n      mload\n        /* \"#utility.yul\":2711:2733   */\n      swap1\n      pop\n        /* \"#utility.yul\":2742:2772   */\n      tag_367\n        /* \"#utility.yul\":2766:2771   */\n      dup2\n        /* \"#utility.yul\":2742:2772   */\n      tag_364\n      jump\t// in\n    tag_367:\n        /* \"#utility.yul\":2701:2778   */\n      swap3\n      swap2\n      pop\n      pop\n      jump\t// out\n        /* \"#utility.yul\":2784:2923   */\n    tag_368:\n      0x00\n        /* \"#utility.yul\":2868:2874   */\n      dup2\n        /* \"#utility.yul\":2855:2875   */\n      calldataload\n        /* \"#utility.yul\":2846:2875   */\n      swap1\n      pop\n        /* \"#utility.yul\":2884:2917   */\n      tag_370\n        /* \"#utility.yul\":2911:2916   */\n      dup2\n        /* \"#utility.yul\":2884:2917   */\n      tag_371\n      jump\t// in\n    tag_370:\n        /* \"#utility.yul\":2836:2923   */\n      swap3\n      swap2\n      pop\n      pop\n      jump\t// out\n        /* \"#utility.yul\":2942:3213   */\n    tag_372:\n      0x00\n        /* \"#utility.yul\":3046:3049   */\n      dup3\n        /* \"#utility.yul\":3039:3043   */\n      0x1f\n        /* \"#utility.yul\":3031:3037   */\n      dup4\n        /* \"#utility.yul\":3027:3044   */\n      add\n        /* \"#utility.yul\":3023:3050   */\n      slt\n        /* \"#utility.yul\":3013:3015   */\n      tag_374\n      jumpi\n        /* \"#utility.yul\":3064:3065   */\n      0x00\n        /* \"#utility.yul\":3061:3062   */\n      dup1\n        /* \"#utility.yul\":3054:3066   */\n      revert\n        /* \"#utility.yul\":3013:3015   */\n    tag_374:\n        /* \"#utility.yul\":3104:3110   */\n      dup2\n        /* \"#utility.yul\":3091:3111   */\n      calldataload\n        /* \"#utility.yul\":3129:3207   */\n      tag_375\n        /* \"#utility.yul\":3203:3206   */\n      dup5\n        /* \"#utility.yul\":3195:3201   */\n      dup3\n        /* \"#utility.yul\":3188:3192   */\n      0x20\n        /* \"#utility.yul\":3180:3186   */\n      dup7\n        /* \"#utility.yul\":3176:3193   */\n      add\n        /* \"#utility.yul\":3129:3207   */\n      tag_338\n      jump\t// in\n    tag_375:\n        /* \"#utility.yul\":3120:3207   */\n      swap2\n      pop\n        /* \"#utility.yul\":3003:3213   */\n      pop\n      swap3\n      swap2\n      pop\n      pop\n      jump\t// out\n        /* \"#utility.yul\":3219:3384   */\n    tag_376:\n      0x00\n        /* \"#utility.yul\":3316:3322   */\n      dup2\n        /* \"#utility.yul\":3303:3323   */\n      calldataload\n        /* \"#utility.yul\":3294:3323   */\n      swap1\n      pop\n        /* \"#utility.yul\":3332:3378   */\n      tag_378\n        /* \"#utility.yul\":3372:3377   */\n      dup2\n        /* \"#utility.yul\":3332:3378   */\n      tag_379\n      jump\t// in\n    tag_378:\n        /* \"#utility.yul\":3284:3384   */\n      swap3\n      swap2\n      pop\n      pop\n      jump\t// out\n        /* \"#utility.yul\":3436:3604   */\n    tag_380:\n      0x00\n        /* \"#utility.yul\":3553:3556   */\n      0x0220\n        /* \"#utility.yul\":3544:3550   */\n      dup3\n        /* \"#utility.yul\":3539:3542   */\n      dup5\n        /* \"#utility.yul\":3535:3551   */\n      sub\n        /* \"#utility.yul\":3531:3557   */\n      slt\n        /* \"#utility.yul\":3528:3530   */\n      iszero\n      tag_382\n      jumpi\n        /* \"#utility.yul\":3570:3571   */\n      0x00\n        /* \"#utility.yul\":3567:3568   */\n      dup1\n        /* \"#utility.yul\":3560:3572   */\n      revert\n        /* \"#utility.yul\":3528:3530   */\n    tag_382:\n        /* \"#utility.yul\":3592:3598   */\n      dup2\n        /* \"#utility.yul\":3583:3598   */\n      swap1\n      pop\n        /* \"#utility.yul\":3518:3604   */\n      swap3\n      swap2\n      pop\n      pop\n      jump\t// out\n        /* \"#utility.yul\":3645:4768   */\n    tag_326:\n      0x00\n        /* \"#utility.yul\":3769:3773   */\n      0xa0\n        /* \"#utility.yul\":3757:3766   */\n      dup3\n        /* \"#utility.yul\":3752:3755   */\n      dup5\n        /* \"#utility.yul\":3748:3767   */\n      sub\n        /* \"#utility.yul\":3744:3774   */\n      slt\n        /* \"#utility.yul\":3741:3743   */\n      iszero\n      tag_384\n      jumpi\n        /* \"#utility.yul\":3787:3788   */\n      0x00\n        /* \"#utility.yul\":3784:3785   */\n      dup1\n        /* \"#utility.yul\":3777:3789   */\n      revert\n        /* \"#utility.yul\":3741:3743   */\n    tag_384:\n        /* \"#utility.yul\":3809:3829   */\n      tag_385\n        /* \"#utility.yul\":3824:3828   */\n      0xa0\n        /* \"#utility.yul\":3809:3829   */\n      tag_321\n      jump\t// in\n    tag_385:\n        /* \"#utility.yul\":3800:3829   */\n      swap1\n      pop\n        /* \"#utility.yul\":3890:3891   */\n      0x00\n        /* \"#utility.yul\":3930:3979   */\n      tag_386\n        /* \"#utility.yul\":3975:3978   */\n      dup5\n        /* \"#utility.yul\":3966:3972   */\n      dup3\n        /* \"#utility.yul\":3955:3964   */\n      dup6\n        /* \"#utility.yul\":3951:3973   */\n      add\n        /* \"#utility.yul\":3930:3979   */\n      tag_368\n      jump\t// in\n    tag_386:\n        /* \"#utility.yul\":3923:3927   */\n      0x00\n        /* \"#utility.yul\":3916:3921   */\n      dup4\n        /* \"#utility.yul\":3912:3928   */\n      add\n        /* \"#utility.yul\":3905:3980   */\n      mstore\n        /* \"#utility.yul\":3839:3991   */\n      pop\n        /* \"#utility.yul\":4058:4060   */\n      0x20\n        /* \"#utility.yul\":4099:4148   */\n      tag_387\n        /* \"#utility.yul\":4144:4147   */\n      dup5\n        /* \"#utility.yul\":4135:4141   */\n      dup3\n        /* \"#utility.yul\":4124:4133   */\n      dup6\n        /* \"#utility.yul\":4120:4142   */\n      add\n        /* \"#utility.yul\":4099:4148   */\n      tag_337\n      jump\t// in\n    tag_387:\n        /* \"#utility.yul\":4092:4096   */\n      0x20\n        /* \"#utility.yul\":4085:4090   */\n      dup4\n        /* \"#utility.yul\":4081:4097   */\n      add\n        /* \"#utility.yul\":4074:4149   */\n      mstore\n        /* \"#utility.yul\":4001:4160   */\n      pop\n        /* \"#utility.yul\":4228:4230   */\n      0x40\n        /* \"#utility.yul\":4269:4318   */\n      tag_388\n        /* \"#utility.yul\":4314:4317   */\n      dup5\n        /* \"#utility.yul\":4305:4311   */\n      dup3\n        /* \"#utility.yul\":4294:4303   */\n      dup6\n        /* \"#utility.yul\":4290:4312   */\n      add\n        /* \"#utility.yul\":4269:4318   */\n      tag_337\n      jump\t// in\n    tag_388:\n        /* \"#utility.yul\":4262:4266   */\n      0x40\n        /* \"#utility.yul\":4255:4260   */\n      dup4\n        /* \"#utility.yul\":4251:4267   */\n      add\n        /* \"#utility.yul\":4244:4319   */\n      mstore\n        /* \"#utility.yul\":4170:4330   */\n      pop\n        /* \"#utility.yul\":4391:4393   */\n      0x60\n        /* \"#utility.yul\":4432:4481   */\n      tag_389\n        /* \"#utility.yul\":4477:4480   */\n      dup5\n        /* \"#utility.yul\":4468:4474   */\n      dup3\n        /* \"#utility.yul\":4457:4466   */\n      dup6\n        /* \"#utility.yul\":4453:4475   */\n      add\n        /* \"#utility.yul\":4432:4481   */\n      tag_337\n      jump\t// in\n    tag_389:\n        /* \"#utility.yul\":4425:4429   */\n      0x60\n        /* \"#utility.yul\":4418:4423   */\n      dup4\n        /* \"#utility.yul\":4414:4430   */\n      add\n        /* \"#utility.yul\":4407:4482   */\n      mstore\n        /* \"#utility.yul\":4340:4493   */\n      pop\n        /* \"#utility.yul\":4584:4587   */\n      0x80\n        /* \"#utility.yul\":4573:4582   */\n      dup3\n        /* \"#utility.yul\":4569:4588   */\n      add\n        /* \"#utility.yul\":4556:4589   */\n      calldataload\n        /* \"#utility.yul\":4616:4634   */\n      0xffffffffffffffff\n        /* \"#utility.yul\":4608:4614   */\n      dup2\n        /* \"#utility.yul\":4605:4635   */\n      gt\n        /* \"#utility.yul\":4602:4604   */\n      iszero\n      tag_390\n      jumpi\n        /* \"#utility.yul\":4648:4649   */\n      0x00\n        /* \"#utility.yul\":4645:4646   */\n      dup1\n        /* \"#utility.yul\":4638:4650   */\n      revert\n        /* \"#utility.yul\":4602:4604   */\n    tag_390:\n        /* \"#utility.yul\":4691:4749   */\n      tag_391\n        /* \"#utility.yul\":4745:4748   */\n      dup5\n        /* \"#utility.yul\":4736:4742   */\n      dup3\n        /* \"#utility.yul\":4725:4734   */\n      dup6\n        /* \"#utility.yul\":4721:4743   */\n      add\n        /* \"#utility.yul\":4691:4749   */\n      tag_372\n      jump\t// in\n    tag_391:\n        /* \"#utility.yul\":4684:4688   */\n      0x80\n        /* \"#utility.yul\":4677:4682   */\n      dup4\n        /* \"#utility.yul\":4673:4689   */\n      add\n        /* \"#utility.yul\":4666:4750   */\n      mstore\n        /* \"#utility.yul\":4503:4761   */\n      pop\n        /* \"#utility.yul\":3731:4768   */\n      swap3\n      swap2\n      pop\n      pop\n      jump\t// out\n        /* \"#utility.yul\":4810:5682   */\n    tag_392:\n      0x00\n        /* \"#utility.yul\":4935:4939   */\n      0x80\n        /* \"#utility.yul\":4923:4932   */\n      dup3\n        /* \"#utility.yul\":4918:4921   */\n      dup5\n        /* \"#utility.yul\":4914:4933   */\n      sub\n        /* \"#utility.yul\":4910:4940   */\n      slt\n        /* \"#utility.yul\":4907:4909   */\n      iszero\n      tag_394\n      jumpi\n        /* \"#utility.yul\":4953:4954   */\n      0x00\n        /* \"#utility.yul\":4950:4951   */\n      dup1\n        /* \"#utility.yul\":4943:4955   */\n      revert\n        /* \"#utility.yul\":4907:4909   */\n    tag_394:\n        /* \"#utility.yul\":4975:4995   */\n      tag_395\n        /* \"#utility.yul\":4990:4994   */\n      0x80\n        /* \"#utility.yul\":4975:4995   */\n      tag_321\n      jump\t// in\n    tag_395:\n        /* \"#utility.yul\":4966:4995   */\n      swap1\n      pop\n        /* \"#utility.yul\":5056:5057   */\n      0x00\n        /* \"#utility.yul\":5096:5145   */\n      tag_396\n        /* \"#utility.yul\":5141:5144   */\n      dup5\n        /* \"#utility.yul\":5132:5138   */\n      dup3\n        /* \"#utility.yul\":5121:5130   */\n      dup6\n        /* \"#utility.yul\":5117:5139   */\n      add\n        /* \"#utility.yul\":5096:5145   */\n      tag_346\n      jump\t// in\n    tag_396:\n        /* \"#utility.yul\":5089:5093   */\n      0x00\n        /* \"#utility.yul\":5082:5087   */\n      dup4\n        /* \"#utility.yul\":5078:5094   */\n      add\n        /* \"#utility.yul\":5071:5146   */\n      mstore\n        /* \"#utility.yul\":5005:5157   */\n      pop\n        /* \"#utility.yul\":5231:5233   */\n      0x20\n        /* \"#utility.yul\":5272:5318   */\n      tag_397\n        /* \"#utility.yul\":5314:5317   */\n      dup5\n        /* \"#utility.yul\":5305:5311   */\n      dup3\n        /* \"#utility.yul\":5294:5303   */\n      dup6\n        /* \"#utility.yul\":5290:5312   */\n      add\n        /* \"#utility.yul\":5272:5318   */\n      tag_361\n      jump\t// in\n    tag_397:\n        /* \"#utility.yul\":5265:5269   */\n      0x20\n        /* \"#utility.yul\":5258:5263   */\n      dup4\n        /* \"#utility.yul\":5254:5270   */\n      add\n        /* \"#utility.yul\":5247:5319   */\n      mstore\n        /* \"#utility.yul\":5167:5330   */\n      pop\n        /* \"#utility.yul\":5394:5396   */\n      0x40\n        /* \"#utility.yul\":5435:5492   */\n      tag_398\n        /* \"#utility.yul\":5488:5491   */\n      dup5\n        /* \"#utility.yul\":5479:5485   */\n      dup3\n        /* \"#utility.yul\":5468:5477   */\n      dup6\n        /* \"#utility.yul\":5464:5486   */\n      add\n        /* \"#utility.yul\":5435:5492   */\n      tag_353\n      jump\t// in\n    tag_398:\n        /* \"#utility.yul\":5428:5432   */\n      0x40\n        /* \"#utility.yul\":5421:5426   */\n      dup4\n        /* \"#utility.yul\":5417:5433   */\n      add\n        /* \"#utility.yul\":5410:5493   */\n      mstore\n        /* \"#utility.yul\":5340:5504   */\n      pop\n        /* \"#utility.yul\":5576:5578   */\n      0x60\n        /* \"#utility.yul\":5617:5663   */\n      tag_399\n        /* \"#utility.yul\":5659:5662   */\n      dup5\n        /* \"#utility.yul\":5650:5656   */\n      dup3\n        /* \"#utility.yul\":5639:5648   */\n      dup6\n        /* \"#utility.yul\":5635:5657   */\n      add\n        /* \"#utility.yul\":5617:5663   */\n      tag_361\n      jump\t// in\n    tag_399:\n        /* \"#utility.yul\":5610:5614   */\n      0x60\n        /* \"#utility.yul\":5603:5608   */\n      dup4\n        /* \"#utility.yul\":5599:5615   */\n      add\n        /* \"#utility.yul\":5592:5664   */\n      mstore\n        /* \"#utility.yul\":5514:5675   */\n      pop\n        /* \"#utility.yul\":4897:5682   */\n      swap3\n      swap2\n      pop\n      pop\n      jump\t// out\n        /* \"#utility.yul\":5688:5827   */\n    tag_337:\n      0x00\n        /* \"#utility.yul\":5772:5778   */\n      dup2\n        /* \"#utility.yul\":5759:5779   */\n      calldataload\n        /* \"#utility.yul\":5750:5779   */\n      swap1\n      pop\n        /* \"#utility.yul\":5788:5821   */\n      tag_401\n        /* \"#utility.yul\":5815:5820   */\n      dup2\n        /* \"#utility.yul\":5788:5821   */\n      tag_402\n      jump\t// in\n    tag_401:\n        /* \"#utility.yul\":5740:5827   */\n      swap3\n      swap2\n      pop\n      pop\n      jump\t// out\n        /* \"#utility.yul\":5833:6095   */\n    tag_43:\n      0x00\n        /* \"#utility.yul\":5941:5943   */\n      0x20\n        /* \"#utility.yul\":5929:5938   */\n      dup3\n        /* \"#utility.yul\":5920:5927   */\n      dup5\n        /* \"#utility.yul\":5916:5939   */\n      sub\n        /* \"#utility.yul\":5912:5944   */\n      slt\n        /* \"#utility.yul\":5909:5911   */\n      iszero\n      tag_404\n      jumpi\n        /* \"#utility.yul\":5957:5958   */\n      0x00\n        /* \"#utility.yul\":5954:5955   */\n      dup1\n        /* \"#utility.yul\":5947:5959   */\n      revert\n        /* \"#utility.yul\":5909:5911   */\n    tag_404:\n        /* \"#utility.yul\":6000:6001   */\n      0x00\n        /* \"#utility.yul\":6025:6078   */\n      tag_405\n        /* \"#utility.yul\":6070:6077   */\n      dup5\n        /* \"#utility.yul\":6061:6067   */\n      dup3\n        /* \"#utility.yul\":6050:6059   */\n      dup6\n        /* \"#utility.yul\":6046:6068   */\n      add\n        /* \"#utility.yul\":6025:6078   */\n      tag_346\n      jump\t// in\n    tag_405:\n        /* \"#utility.yul\":6015:6078   */\n      swap2\n      pop\n        /* \"#utility.yul\":5971:6088   */\n      pop\n        /* \"#utility.yul\":5899:6095   */\n      swap3\n      swap2\n      pop\n      pop\n      jump\t// out\n        /* \"#utility.yul\":6101:6385   */\n    tag_169:\n      0x00\n        /* \"#utility.yul\":6220:6222   */\n      0x20\n        /* \"#utility.yul\":6208:6217   */\n      dup3\n        /* \"#utility.yul\":6199:6206   */\n      dup5\n        /* \"#utility.yul\":6195:6218   */\n      sub\n        /* \"#utility.yul\":6191:6223   */\n      slt\n        /* \"#utility.yul\":6188:6190   */\n      iszero\n      tag_407\n      jumpi\n        /* \"#utility.yul\":6236:6237   */\n      0x00\n        /* \"#utility.yul\":6233:6234   */\n      dup1\n        /* \"#utility.yul\":6226:6238   */\n      revert\n        /* \"#utility.yul\":6188:6190   */\n    tag_407:\n        /* \"#utility.yul\":6279:6280   */\n      0x00\n        /* \"#utility.yul\":6304:6368   */\n      tag_408\n        /* \"#utility.yul\":6360:6367   */\n      dup5\n        /* \"#utility.yul\":6351:6357   */\n      dup3\n        /* \"#utility.yul\":6340:6349   */\n      dup6\n        /* \"#utility.yul\":6336:6358   */\n      add\n        /* \"#utility.yul\":6304:6368   */\n      tag_350\n      jump\t// in\n    tag_408:\n        /* \"#utility.yul\":6294:6368   */\n      swap2\n      pop\n        /* \"#utility.yul\":6250:6378   */\n      pop\n        /* \"#utility.yul\":6178:6385   */\n      swap3\n      swap2\n      pop\n      pop\n      jump\t// out\n        /* \"#utility.yul\":6391:6669   */\n    tag_67:\n      0x00\n        /* \"#utility.yul\":6507:6509   */\n      0x20\n        /* \"#utility.yul\":6495:6504   */\n      dup3\n        /* \"#utility.yul\":6486:6493   */\n      dup5\n        /* \"#utility.yul\":6482:6505   */\n      sub\n        /* \"#utility.yul\":6478:6510   */\n      slt\n        /* \"#utility.yul\":6475:6477   */\n      iszero\n      tag_410\n      jumpi\n        /* \"#utility.yul\":6523:6524   */\n      0x00\n        /* \"#utility.yul\":6520:6521   */\n      dup1\n        /* \"#utility.yul\":6513:6525   */\n      revert\n        /* \"#utility.yul\":6475:6477   */\n    tag_410:\n        /* \"#utility.yul\":6566:6567   */\n      0x00\n        /* \"#utility.yul\":6591:6652   */\n      tag_411\n        /* \"#utility.yul\":6644:6651   */\n      dup5\n        /* \"#utility.yul\":6635:6641   */\n      dup3\n        /* \"#utility.yul\":6624:6633   */\n      dup6\n        /* \"#utility.yul\":6620:6642   */\n      add\n        /* \"#utility.yul\":6591:6652   */\n      tag_353\n      jump\t// in\n    tag_411:\n        /* \"#utility.yul\":6581:6652   */\n      swap2\n      pop\n        /* \"#utility.yul\":6537:6662   */\n      pop\n        /* \"#utility.yul\":6465:6669   */\n      swap3\n      swap2\n      pop\n      pop\n      jump\t// out\n        /* \"#utility.yul\":6675:7080   */\n    tag_78:\n      0x00\n        /* \"#utility.yul\":6808:6810   */\n      0x20\n        /* \"#utility.yul\":6796:6805   */\n      dup3\n        /* \"#utility.yul\":6787:6794   */\n      dup5\n        /* \"#utility.yul\":6783:6806   */\n      sub\n        /* \"#utility.yul\":6779:6811   */\n      slt\n        /* \"#utility.yul\":6776:6778   */\n      iszero\n      tag_413\n      jumpi\n        /* \"#utility.yul\":6824:6825   */\n      0x00\n        /* \"#utility.yul\":6821:6822   */\n      dup1\n        /* \"#utility.yul\":6814:6826   */\n      revert\n        /* \"#utility.yul\":6776:6778   */\n    tag_413:\n        /* \"#utility.yul\":6895:6896   */\n      0x00\n        /* \"#utility.yul\":6884:6893   */\n      dup3\n        /* \"#utility.yul\":6880:6897   */\n      add\n        /* \"#utility.yul\":6867:6898   */\n      calldataload\n        /* \"#utility.yul\":6925:6943   */\n      0xffffffffffffffff\n        /* \"#utility.yul\":6917:6923   */\n      dup2\n        /* \"#utility.yul\":6914:6944   */\n      gt\n        /* \"#utility.yul\":6911:6913   */\n      iszero\n      tag_414\n      jumpi\n        /* \"#utility.yul\":6957:6958   */\n      0x00\n        /* \"#utility.yul\":6954:6955   */\n      dup1\n        /* \"#utility.yul\":6947:6959   */\n      revert\n        /* \"#utility.yul\":6911:6913   */\n    tag_414:\n        /* \"#utility.yul\":6985:7063   */\n      tag_415\n        /* \"#utility.yul\":7055:7062   */\n      dup5\n        /* \"#utility.yul\":7046:7052   */\n      dup3\n        /* \"#utility.yul\":7035:7044   */\n      dup6\n        /* \"#utility.yul\":7031:7053   */\n      add\n        /* \"#utility.yul\":6985:7063   */\n      tag_357\n      jump\t// in\n    tag_415:\n        /* \"#utility.yul\":6975:7063   */\n      swap2\n      pop\n        /* \"#utility.yul\":6838:7073   */\n      pop\n        /* \"#utility.yul\":6766:7080   */\n      swap3\n      swap2\n      pop\n      pop\n      jump\t// out\n        /* \"#utility.yul\":7086:7364   */\n    tag_240:\n      0x00\n        /* \"#utility.yul\":7202:7204   */\n      0x20\n        /* \"#utility.yul\":7190:7199   */\n      dup3\n        /* \"#utility.yul\":7181:7188   */\n      dup5\n        /* \"#utility.yul\":7177:7200   */\n      sub\n        /* \"#utility.yul\":7173:7205   */\n      slt\n        /* \"#utility.yul\":7170:7172   */\n      iszero\n      tag_417\n      jumpi\n        /* \"#utility.yul\":7218:7219   */\n      0x00\n        /* \"#utility.yul\":7215:7216   */\n      dup1\n        /* \"#utility.yul\":7208:7220   */\n      revert\n        /* \"#utility.yul\":7170:7172   */\n    tag_417:\n        /* \"#utility.yul\":7261:7262   */\n      0x00\n        /* \"#utility.yul\":7286:7347   */\n      tag_418\n        /* \"#utility.yul\":7339:7346   */\n      dup5\n        /* \"#utility.yul\":7330:7336   */\n      dup3\n        /* \"#utility.yul\":7319:7328   */\n      dup6\n        /* \"#utility.yul\":7315:7337   */\n      add\n        /* \"#utility.yul\":7286:7347   */\n      tag_365\n      jump\t// in\n    tag_418:\n        /* \"#utility.yul\":7276:7347   */\n      swap2\n      pop\n        /* \"#utility.yul\":7232:7357   */\n      pop\n        /* \"#utility.yul\":7160:7364   */\n      swap3\n      swap2\n      pop\n      pop\n      jump\t// out\n        /* \"#utility.yul\":7370:7658   */\n    tag_127:\n      0x00\n        /* \"#utility.yul\":7491:7493   */\n      0x20\n        /* \"#utility.yul\":7479:7488   */\n      dup3\n        /* \"#utility.yul\":7470:7477   */\n      dup5\n        /* \"#utility.yul\":7466:7489   */\n      sub\n        /* \"#utility.yul\":7462:7494   */\n      slt\n        /* \"#utility.yul\":7459:7461   */\n      iszero\n      tag_420\n      jumpi\n        /* \"#utility.yul\":7507:7508   */\n      0x00\n        /* \"#utility.yul\":7504:7505   */\n      dup1\n        /* \"#utility.yul\":7497:7509   */\n      revert\n        /* \"#utility.yul\":7459:7461   */\n    tag_420:\n        /* \"#utility.yul\":7550:7551   */\n      0x00\n        /* \"#utility.yul\":7575:7641   */\n      tag_421\n        /* \"#utility.yul\":7633:7640   */\n      dup5\n        /* \"#utility.yul\":7624:7630   */\n      dup3\n        /* \"#utility.yul\":7613:7622   */\n      dup6\n        /* \"#utility.yul\":7609:7631   */\n      add\n        /* \"#utility.yul\":7575:7641   */\n      tag_376\n      jump\t// in\n    tag_421:\n        /* \"#utility.yul\":7565:7641   */\n      swap2\n      pop\n        /* \"#utility.yul\":7521:7651   */\n      pop\n        /* \"#utility.yul\":7449:7658   */\n      swap3\n      swap2\n      pop\n      pop\n      jump\t// out\n        /* \"#utility.yul\":7664:8079   */\n    tag_25:\n      0x00\n        /* \"#utility.yul\":7802:7804   */\n      0x20\n        /* \"#utility.yul\":7790:7799   */\n      dup3\n        /* \"#utility.yul\":7781:7788   */\n      dup5\n        /* \"#utility.yul\":7777:7800   */\n      sub\n        /* \"#utility.yul\":7773:7805   */\n      slt\n        /* \"#utility.yul\":7770:7772   */\n      iszero\n      tag_423\n      jumpi\n        /* \"#utility.yul\":7818:7819   */\n      0x00\n        /* \"#utility.yul\":7815:7816   */\n      dup1\n        /* \"#utility.yul\":7808:7820   */\n      revert\n        /* \"#utility.yul\":7770:7772   */\n    tag_423:\n        /* \"#utility.yul\":7889:7890   */\n      0x00\n        /* \"#utility.yul\":7878:7887   */\n      dup3\n        /* \"#utility.yul\":7874:7891   */\n      add\n        /* \"#utility.yul\":7861:7892   */\n      calldataload\n        /* \"#utility.yul\":7919:7937   */\n      0xffffffffffffffff\n        /* \"#utility.yul\":7911:7917   */\n      dup2\n        /* \"#utility.yul\":7908:7938   */\n      gt\n        /* \"#utility.yul\":7905:7907   */\n      iszero\n      tag_424\n      jumpi\n        /* \"#utility.yul\":7951:7952   */\n      0x00\n        /* \"#utility.yul\":7948:7949   */\n      dup1\n        /* \"#utility.yul\":7941:7953   */\n      revert\n        /* \"#utility.yul\":7905:7907   */\n    tag_424:\n        /* \"#utility.yul\":7979:8062   */\n      tag_425\n        /* \"#utility.yul\":8054:8061   */\n      dup5\n        /* \"#utility.yul\":8045:8051   */\n      dup3\n        /* \"#utility.yul\":8034:8043   */\n      dup6\n        /* \"#utility.yul\":8030:8052   */\n      add\n        /* \"#utility.yul\":7979:8062   */\n      tag_380\n      jump\t// in\n    tag_425:\n        /* \"#utility.yul\":7969:8062   */\n      swap2\n      pop\n        /* \"#utility.yul\":7832:8072   */\n      pop\n        /* \"#utility.yul\":7760:8079   */\n      swap3\n      swap2\n      pop\n      pop\n      jump\t// out\n        /* \"#utility.yul\":8085:8412   */\n    tag_134:\n      0x00\n        /* \"#utility.yul\":8225:8228   */\n      0x80\n        /* \"#utility.yul\":8213:8222   */\n      dup3\n        /* \"#utility.yul\":8204:8211   */\n      dup5\n        /* \"#utility.yul\":8200:8223   */\n      sub\n        /* \"#utility.yul\":8196:8229   */\n      slt\n        /* \"#utility.yul\":8193:8195   */\n      iszero\n      tag_427\n      jumpi\n        /* \"#utility.yul\":8242:8243   */\n      0x00\n        /* \"#utility.yul\":8239:8240   */\n      dup1\n        /* \"#utility.yul\":8232:8244   */\n      revert\n        /* \"#utility.yul\":8193:8195   */\n    tag_427:\n        /* \"#utility.yul\":8285:8286   */\n      0x00\n        /* \"#utility.yul\":8310:8395   */\n      tag_428\n        /* \"#utility.yul\":8387:8394   */\n      dup5\n        /* \"#utility.yul\":8378:8384   */\n      dup3\n        /* \"#utility.yul\":8367:8376   */\n      dup6\n        /* \"#utility.yul\":8363:8385   */\n      add\n        /* \"#utility.yul\":8310:8395   */\n      tag_392\n      jump\t// in\n    tag_428:\n        /* \"#utility.yul\":8300:8395   */\n      swap2\n      pop\n        /* \"#utility.yul\":8256:8405   */\n      pop\n        /* \"#utility.yul\":8183:8412   */\n      swap3\n      swap2\n      pop\n      pop\n      jump\t// out\n        /* \"#utility.yul\":8418:8680   */\n    tag_30:\n      0x00\n        /* \"#utility.yul\":8526:8528   */\n      0x20\n        /* \"#utility.yul\":8514:8523   */\n      dup3\n        /* \"#utility.yul\":8505:8512   */\n      dup5\n        /* \"#utility.yul\":8501:8524   */\n      sub\n        /* \"#utility.yul\":8497:8529   */\n      slt\n        /* \"#utility.yul\":8494:8496   */\n      iszero\n      tag_430\n      jumpi\n        /* \"#utility.yul\":8542:8543   */\n      0x00\n        /* \"#utility.yul\":8539:8540   */\n      dup1\n        /* \"#utility.yul\":8532:8544   */\n      revert\n        /* \"#utility.yul\":8494:8496   */\n    tag_430:\n        /* \"#utility.yul\":8585:8586   */\n      0x00\n        /* \"#utility.yul\":8610:8663   */\n      tag_431\n        /* \"#utility.yul\":8655:8662   */\n      dup5\n        /* \"#utility.yul\":8646:8652   */\n      dup3\n        /* \"#utility.yul\":8635:8644   */\n      dup6\n        /* \"#utility.yul\":8631:8653   */\n      add\n        /* \"#utility.yul\":8610:8663   */\n      tag_337\n      jump\t// in\n    tag_431:\n        /* \"#utility.yul\":8600:8663   */\n      swap2\n      pop\n        /* \"#utility.yul\":8556:8673   */\n      pop\n        /* \"#utility.yul\":8484:8680   */\n      swap3\n      swap2\n      pop\n      pop\n      jump\t// out\n        /* \"#utility.yul\":8686:9093   */\n    tag_62:\n      0x00\n      dup1\n        /* \"#utility.yul\":8811:8813   */\n      0x40\n        /* \"#utility.yul\":8799:8808   */\n      dup4\n        /* \"#utility.yul\":8790:8797   */\n      dup6\n        /* \"#utility.yul\":8786:8809   */\n      sub\n        /* \"#utility.yul\":8782:8814   */\n      slt\n        /* \"#utility.yul\":8779:8781   */\n      iszero\n      tag_433\n      jumpi\n        /* \"#utility.yul\":8827:8828   */\n      0x00\n        /* \"#utility.yul\":8824:8825   */\n      dup1\n        /* \"#utility.yul\":8817:8829   */\n      revert\n        /* \"#utility.yul\":8779:8781   */\n    tag_433:\n        /* \"#utility.yul\":8870:8871   */\n      0x00\n        /* \"#utility.yul\":8895:8948   */\n      tag_434\n        /* \"#utility.yul\":8940:8947   */\n      dup6\n        /* \"#utility.yul\":8931:8937   */\n      dup3\n        /* \"#utility.yul\":8920:8929   */\n      dup7\n        /* \"#utility.yul\":8916:8938   */\n      add\n        /* \"#utility.yul\":8895:8948   */\n      tag_337\n      jump\t// in\n    tag_434:\n        /* \"#utility.yul\":8885:8948   */\n      swap3\n      pop\n        /* \"#utility.yul\":8841:8958   */\n      pop\n        /* \"#utility.yul\":8997:8999   */\n      0x20\n        /* \"#utility.yul\":9023:9076   */\n      tag_435\n        /* \"#utility.yul\":9068:9075   */\n      dup6\n        /* \"#utility.yul\":9059:9065   */\n      dup3\n        /* \"#utility.yul\":9048:9057   */\n      dup7\n        /* \"#utility.yul\":9044:9066   */\n      add\n        /* \"#utility.yul\":9023:9076   */\n      tag_346\n      jump\t// in\n    tag_435:\n        /* \"#utility.yul\":9013:9076   */\n      swap2\n      pop\n        /* \"#utility.yul\":8968:9086   */\n      pop\n        /* \"#utility.yul\":8769:9093   */\n      swap3\n      pop\n      swap3\n      swap1\n      pop\n      jump\t// out\n        /* \"#utility.yul\":9099:9306   */\n    tag_436:\n      0x00\n        /* \"#utility.yul\":9203:9263   */\n      tag_438\n        /* \"#utility.yul\":9259:9262   */\n      dup4\n        /* \"#utility.yul\":9251:9257   */\n      dup4\n        /* \"#utility.yul\":9203:9263   */\n      tag_439\n      jump\t// in\n    tag_438:\n        /* \"#utility.yul\":9295:9299   */\n      0x20\n        /* \"#utility.yul\":9290:9293   */\n      dup4\n        /* \"#utility.yul\":9286:9300   */\n      add\n        /* \"#utility.yul\":9272:9300   */\n      swap1\n      pop\n        /* \"#utility.yul\":9193:9306   */\n      swap3\n      swap2\n      pop\n      pop\n      jump\t// out\n        /* \"#utility.yul\":9312:9487   */\n    tag_440:\n      0x00\n        /* \"#utility.yul\":9400:9444   */\n      tag_442\n        /* \"#utility.yul\":9440:9443   */\n      dup4\n        /* \"#utility.yul\":9432:9438   */\n      dup4\n        /* \"#utility.yul\":9400:9444   */\n      tag_443\n      jump\t// in\n    tag_442:\n        /* \"#utility.yul\":9476:9480   */\n      0x20\n        /* \"#utility.yul\":9471:9474   */\n      dup4\n        /* \"#utility.yul\":9467:9481   */\n      add\n        /* \"#utility.yul\":9453:9481   */\n      swap1\n      pop\n        /* \"#utility.yul\":9390:9487   */\n      swap3\n      swap2\n      pop\n      pop\n      jump\t// out\n        /* \"#utility.yul\":9493:9773   */\n    tag_444:\n      0x00\n        /* \"#utility.yul\":9659:9767   */\n      tag_446\n        /* \"#utility.yul\":9763:9766   */\n      dup4\n        /* \"#utility.yul\":9755:9761   */\n      dup4\n        /* \"#utility.yul\":9659:9767   */\n      tag_447\n      jump\t// in\n    tag_446:\n        /* \"#utility.yul\":9645:9767   */\n      swap1\n      pop\n        /* \"#utility.yul\":9635:9773   */\n      swap3\n      swap2\n      pop\n      pop\n      jump\t// out\n        /* \"#utility.yul\":9779:9958   */\n    tag_448:\n      0x00\n        /* \"#utility.yul\":9869:9915   */\n      tag_450\n        /* \"#utility.yul\":9911:9914   */\n      dup4\n        /* \"#utility.yul\":9903:9909   */\n      dup4\n        /* \"#utility.yul\":9869:9915   */\n      tag_451\n      jump\t// in\n    tag_450:\n        /* \"#utility.yul\":9947:9951   */\n      0x20\n        /* \"#utility.yul\":9942:9945   */\n      dup4\n        /* \"#utility.yul\":9938:9952   */\n      add\n        /* \"#utility.yul\":9924:9952   */\n      swap1\n      pop\n        /* \"#utility.yul\":9859:9958   */\n      swap3\n      swap2\n      pop\n      pop\n      jump\t// out\n        /* \"#utility.yul\":9964:10096   */\n    tag_452:\n        /* \"#utility.yul\":10057:10089   */\n      tag_454\n        /* \"#utility.yul\":10083:10088   */\n      dup2\n        /* \"#utility.yul\":10057:10089   */\n      tag_455\n      jump\t// in\n    tag_454:\n        /* \"#utility.yul\":10052:10055   */\n      dup3\n        /* \"#utility.yul\":10045:10090   */\n      mstore\n        /* \"#utility.yul\":10035:10096   */\n      pop\n      pop\n      jump\t// out\n        /* \"#utility.yul\":10102:10244   */\n    tag_456:\n        /* \"#utility.yul\":10205:10237   */\n      tag_458\n        /* \"#utility.yul\":10231:10236   */\n      dup2\n        /* \"#utility.yul\":10205:10237   */\n      tag_455\n      jump\t// in\n    tag_458:\n        /* \"#utility.yul\":10200:10203   */\n      dup3\n        /* \"#utility.yul\":10193:10238   */\n      mstore\n        /* \"#utility.yul\":10183:10244   */\n      pop\n      pop\n      jump\t// out\n        /* \"#utility.yul\":10250:10358   */\n    tag_459:\n        /* \"#utility.yul\":10327:10351   */\n      tag_461\n        /* \"#utility.yul\":10345:10350   */\n      dup2\n        /* \"#utility.yul\":10327:10351   */\n      tag_462\n      jump\t// in\n    tag_461:\n        /* \"#utility.yul\":10322:10325   */\n      dup3\n        /* \"#utility.yul\":10315:10352   */\n      mstore\n        /* \"#utility.yul\":10305:10358   */\n      pop\n      pop\n      jump\t// out\n        /* \"#utility.yul\":10364:10482   */\n    tag_463:\n        /* \"#utility.yul\":10451:10475   */\n      tag_465\n        /* \"#utility.yul\":10469:10474   */\n      dup2\n        /* \"#utility.yul\":10451:10475   */\n      tag_462\n      jump\t// in\n    tag_465:\n        /* \"#utility.yul\":10446:10449   */\n      dup3\n        /* \"#utility.yul\":10439:10476   */\n      mstore\n        /* \"#utility.yul\":10429:10482   */\n      pop\n      pop\n      jump\t// out\n        /* \"#utility.yul\":10526:11328   */\n    tag_466:\n      0x00\n        /* \"#utility.yul\":10688:10756   */\n      tag_468\n        /* \"#utility.yul\":10750:10755   */\n      dup3\n        /* \"#utility.yul\":10688:10756   */\n      tag_469\n      jump\t// in\n    tag_468:\n        /* \"#utility.yul\":10772:10858   */\n      tag_470\n        /* \"#utility.yul\":10851:10857   */\n      dup2\n        /* \"#utility.yul\":10846:10849   */\n      dup6\n        /* \"#utility.yul\":10772:10858   */\n      tag_471\n      jump\t// in\n    tag_470:\n        /* \"#utility.yul\":10765:10858   */\n      swap4\n      pop\n        /* \"#utility.yul\":10882:10952   */\n      tag_472\n        /* \"#utility.yul\":10946:10951   */\n      dup4\n        /* \"#utility.yul\":10882:10952   */\n      tag_473\n      jump\t// in\n    tag_472:\n        /* \"#utility.yul\":10975:10982   */\n      dup1\n        /* \"#utility.yul\":11006:11007   */\n      0x00\n        /* \"#utility.yul\":10991:11303   */\n    tag_474:\n        /* \"#utility.yul\":11016:11022   */\n      dup4\n        /* \"#utility.yul\":11013:11014   */\n      dup2\n        /* \"#utility.yul\":11010:11023   */\n      lt\n        /* \"#utility.yul\":10991:11303   */\n      iszero\n      tag_476\n      jumpi\n        /* \"#utility.yul\":11092:11098   */\n      dup2\n        /* \"#utility.yul\":11086:11099   */\n      mload\n        /* \"#utility.yul\":11119:11196   */\n      tag_477\n        /* \"#utility.yul\":11192:11195   */\n      dup9\n        /* \"#utility.yul\":11177:11190   */\n      dup3\n        /* \"#utility.yul\":11119:11196   */\n      tag_436\n      jump\t// in\n    tag_477:\n        /* \"#utility.yul\":11112:11196   */\n      swap8\n      pop\n        /* \"#utility.yul\":11219:11293   */\n      tag_478\n        /* \"#utility.yul\":11286:11292   */\n      dup4\n        /* \"#utility.yul\":11219:11293   */\n      tag_479\n      jump\t// in\n    tag_478:\n        /* \"#utility.yul\":11209:11293   */\n      swap3\n      pop\n        /* \"#utility.yul\":11051:11303   */\n      pop\n        /* \"#utility.yul\":11038:11039   */\n      0x01\n        /* \"#utility.yul\":11035:11036   */\n      dup2\n        /* \"#utility.yul\":11031:11040   */\n      add\n        /* \"#utility.yul\":11026:11040   */\n      swap1\n      pop\n        /* \"#utility.yul\":10991:11303   */\n      jump(tag_474)\n    tag_476:\n        /* \"#utility.yul\":10995:11009   */\n      pop\n        /* \"#utility.yul\":11319:11322   */\n      dup6\n        /* \"#utility.yul\":11312:11322   */\n      swap4\n      pop\n        /* \"#utility.yul\":10664:11328   */\n      pop\n      pop\n      pop\n      swap3\n      swap2\n      pop\n      pop\n      jump\t// out\n        /* \"#utility.yul\":11362:12086   */\n    tag_480:\n      0x00\n        /* \"#utility.yul\":11508:11561   */\n      tag_482\n        /* \"#utility.yul\":11555:11560   */\n      dup3\n        /* \"#utility.yul\":11508:11561   */\n      tag_483\n      jump\t// in\n    tag_482:\n        /* \"#utility.yul\":11577:11662   */\n      tag_484\n        /* \"#utility.yul\":11655:11661   */\n      dup2\n        /* \"#utility.yul\":11650:11653   */\n      dup6\n        /* \"#utility.yul\":11577:11662   */\n      tag_485\n      jump\t// in\n    tag_484:\n        /* \"#utility.yul\":11570:11662   */\n      swap4\n      pop\n        /* \"#utility.yul\":11686:11741   */\n      tag_486\n        /* \"#utility.yul\":11735:11740   */\n      dup4\n        /* \"#utility.yul\":11686:11741   */\n      tag_487\n      jump\t// in\n    tag_486:\n        /* \"#utility.yul\":11764:11771   */\n      dup1\n        /* \"#utility.yul\":11795:11796   */\n      0x00\n        /* \"#utility.yul\":11780:12061   */\n    tag_488:\n        /* \"#utility.yul\":11805:11811   */\n      dup4\n        /* \"#utility.yul\":11802:11803   */\n      dup2\n        /* \"#utility.yul\":11799:11812   */\n      lt\n        /* \"#utility.yul\":11780:12061   */\n      iszero\n      tag_490\n      jumpi\n        /* \"#utility.yul\":11881:11887   */\n      dup2\n        /* \"#utility.yul\":11875:11888   */\n      mload\n        /* \"#utility.yul\":11908:11969   */\n      tag_491\n        /* \"#utility.yul\":11965:11968   */\n      dup9\n        /* \"#utility.yul\":11950:11963   */\n      dup3\n        /* \"#utility.yul\":11908:11969   */\n      tag_440\n      jump\t// in\n    tag_491:\n        /* \"#utility.yul\":11901:11969   */\n      swap8\n      pop\n        /* \"#utility.yul\":11992:12051   */\n      tag_492\n        /* \"#utility.yul\":12044:12050   */\n      dup4\n        /* \"#utility.yul\":11992:12051   */\n      tag_493\n      jump\t// in\n    tag_492:\n        /* \"#utility.yul\":11982:12051   */\n      swap3\n      pop\n        /* \"#utility.yul\":11840:12061   */\n      pop\n        /* \"#utility.yul\":11827:11828   */\n      0x01\n        /* \"#utility.yul\":11824:11825   */\n      dup2\n        /* \"#utility.yul\":11820:11829   */\n      add\n        /* \"#utility.yul\":11815:11829   */\n      swap1\n      pop\n        /* \"#utility.yul\":11780:12061   */\n      jump(tag_488)\n    tag_490:\n        /* \"#utility.yul\":11784:11798   */\n      pop\n        /* \"#utility.yul\":12077:12080   */\n      dup6\n        /* \"#utility.yul\":12070:12080   */\n      swap4\n      pop\n        /* \"#utility.yul\":11484:12086   */\n      pop\n      pop\n      pop\n      swap3\n      swap2\n      pop\n      pop\n      jump\t// out\n        /* \"#utility.yul\":12162:13321   */\n    tag_494:\n      0x00\n        /* \"#utility.yul\":12372:12457   */\n      tag_496\n        /* \"#utility.yul\":12451:12456   */\n      dup3\n        /* \"#utility.yul\":12372:12457   */\n      tag_497\n      jump\t// in\n    tag_496:\n        /* \"#utility.yul\":12473:12590   */\n      tag_498\n        /* \"#utility.yul\":12583:12589   */\n      dup2\n        /* \"#utility.yul\":12578:12581   */\n      dup6\n        /* \"#utility.yul\":12473:12590   */\n      tag_499\n      jump\t// in\n    tag_498:\n        /* \"#utility.yul\":12466:12590   */\n      swap4\n      pop\n        /* \"#utility.yul\":12616:12619   */\n      dup4\n        /* \"#utility.yul\":12661:12665   */\n      0x20\n        /* \"#utility.yul\":12653:12659   */\n      dup3\n        /* \"#utility.yul\":12649:12666   */\n      mul\n        /* \"#utility.yul\":12644:12647   */\n      dup6\n        /* \"#utility.yul\":12640:12667   */\n      add\n        /* \"#utility.yul\":12691:12778   */\n      tag_500\n        /* \"#utility.yul\":12772:12777   */\n      dup6\n        /* \"#utility.yul\":12691:12778   */\n      tag_501\n      jump\t// in\n    tag_500:\n        /* \"#utility.yul\":12801:12808   */\n      dup1\n        /* \"#utility.yul\":12832:12833   */\n      0x00\n        /* \"#utility.yul\":12817:13276   */\n    tag_502:\n        /* \"#utility.yul\":12842:12848   */\n      dup6\n        /* \"#utility.yul\":12839:12840   */\n      dup2\n        /* \"#utility.yul\":12836:12849   */\n      lt\n        /* \"#utility.yul\":12817:13276   */\n      iszero\n      tag_504\n      jumpi\n        /* \"#utility.yul\":12913:12922   */\n      dup5\n        /* \"#utility.yul\":12907:12911   */\n      dup5\n        /* \"#utility.yul\":12903:12923   */\n      sub\n        /* \"#utility.yul\":12898:12901   */\n      dup10\n        /* \"#utility.yul\":12891:12924   */\n      mstore\n        /* \"#utility.yul\":12964:12970   */\n      dup2\n        /* \"#utility.yul\":12958:12971   */\n      mload\n        /* \"#utility.yul\":12992:13118   */\n      tag_505\n        /* \"#utility.yul\":13113:13117   */\n      dup6\n        /* \"#utility.yul\":13098:13111   */\n      dup3\n        /* \"#utility.yul\":12992:13118   */\n      tag_444\n      jump\t// in\n    tag_505:\n        /* \"#utility.yul\":12984:13118   */\n      swap5\n      pop\n        /* \"#utility.yul\":13141:13232   */\n      tag_506\n        /* \"#utility.yul\":13225:13231   */\n      dup4\n        /* \"#utility.yul\":13141:13232   */\n      tag_507\n      jump\t// in\n    tag_506:\n        /* \"#utility.yul\":13131:13232   */\n      swap3\n      pop\n        /* \"#utility.yul\":13261:13265   */\n      0x20\n        /* \"#utility.yul\":13256:13259   */\n      dup11\n        /* \"#utility.yul\":13252:13266   */\n      add\n        /* \"#utility.yul\":13245:13266   */\n      swap10\n      pop\n        /* \"#utility.yul\":12877:13276   */\n      pop\n        /* \"#utility.yul\":12864:12865   */\n      0x01\n        /* \"#utility.yul\":12861:12862   */\n      dup2\n        /* \"#utility.yul\":12857:12866   */\n      add\n        /* \"#utility.yul\":12852:12866   */\n      swap1\n      pop\n        /* \"#utility.yul\":12817:13276   */\n      jump(tag_502)\n    tag_504:\n        /* \"#utility.yul\":12821:12835   */\n      pop\n        /* \"#utility.yul\":13292:13296   */\n      dup3\n        /* \"#utility.yul\":13285:13296   */\n      swap8\n      pop\n        /* \"#utility.yul\":13312:13315   */\n      dup8\n        /* \"#utility.yul\":13305:13315   */\n      swap6\n      pop\n        /* \"#utility.yul\":12348:13321   */\n      pop\n      pop\n      pop\n      pop\n      pop\n      swap3\n      swap2\n      pop\n      pop\n      jump\t// out\n        /* \"#utility.yul\":13357:14089   */\n    tag_508:\n      0x00\n        /* \"#utility.yul\":13505:13559   */\n      tag_510\n        /* \"#utility.yul\":13553:13558   */\n      dup3\n        /* \"#utility.yul\":13505:13559   */\n      tag_511\n      jump\t// in\n    tag_510:\n        /* \"#utility.yul\":13575:13661   */\n      tag_512\n        /* \"#utility.yul\":13654:13660   */\n      dup2\n        /* \"#utility.yul\":13649:13652   */\n      dup6\n        /* \"#utility.yul\":13575:13661   */\n      tag_513\n      jump\t// in\n    tag_512:\n        /* \"#utility.yul\":13568:13661   */\n      swap4\n      pop\n        /* \"#utility.yul\":13685:13741   */\n      tag_514\n        /* \"#utility.yul\":13735:13740   */\n      dup4\n        /* \"#utility.yul\":13685:13741   */\n      tag_515\n      jump\t// in\n    tag_514:\n        /* \"#utility.yul\":13764:13771   */\n      dup1\n        /* \"#utility.yul\":13795:13796   */\n      0x00\n        /* \"#utility.yul\":13780:14064   */\n    tag_516:\n        /* \"#utility.yul\":13805:13811   */\n      dup4\n        /* \"#utility.yul\":13802:13803   */\n      dup2\n        /* \"#utility.yul\":13799:13812   */\n      lt\n        /* \"#utility.yul\":13780:14064   */\n      iszero\n      tag_518\n      jumpi\n        /* \"#utility.yul\":13881:13887   */\n      dup2\n        /* \"#utility.yul\":13875:13888   */\n      mload\n        /* \"#utility.yul\":13908:13971   */\n      tag_519\n        /* \"#utility.yul\":13967:13970   */\n      dup9\n        /* \"#utility.yul\":13952:13965   */\n      dup3\n        /* \"#utility.yul\":13908:13971   */\n      tag_448\n      jump\t// in\n    tag_519:\n        /* \"#utility.yul\":13901:13971   */\n      swap8\n      pop\n        /* \"#utility.yul\":13994:14054   */\n      tag_520\n        /* \"#utility.yul\":14047:14053   */\n      dup4\n        /* \"#utility.yul\":13994:14054   */\n      tag_521\n      jump\t// in\n    tag_520:\n        /* \"#utility.yul\":13984:14054   */\n      swap3\n      pop\n        /* \"#utility.yul\":13840:14064   */\n      pop\n        /* \"#utility.yul\":13827:13828   */\n      0x01\n        /* \"#utility.yul\":13824:13825   */\n      dup2\n        /* \"#utility.yul\":13820:13829   */\n      add\n        /* \"#utility.yul\":13815:13829   */\n      swap1\n      pop\n        /* \"#utility.yul\":13780:14064   */\n      jump(tag_516)\n    tag_518:\n        /* \"#utility.yul\":13784:13798   */\n      pop\n        /* \"#utility.yul\":14080:14083   */\n      dup6\n        /* \"#utility.yul\":14073:14083   */\n      swap4\n      pop\n        /* \"#utility.yul\":13481:14089   */\n      pop\n      pop\n      pop\n      swap3\n      swap2\n      pop\n      pop\n      jump\t// out\n        /* \"#utility.yul\":14095:14194   */\n    tag_522:\n        /* \"#utility.yul\":14166:14187   */\n      tag_524\n        /* \"#utility.yul\":14181:14186   */\n      dup2\n        /* \"#utility.yul\":14166:14187   */\n      tag_525\n      jump\t// in\n    tag_524:\n        /* \"#utility.yul\":14161:14164   */\n      dup3\n        /* \"#utility.yul\":14154:14188   */\n      mstore\n        /* \"#utility.yul\":14144:14194   */\n      pop\n      pop\n      jump\t// out\n        /* \"#utility.yul\":14200:14309   */\n    tag_526:\n        /* \"#utility.yul\":14281:14302   */\n      tag_528\n        /* \"#utility.yul\":14296:14301   */\n      dup2\n        /* \"#utility.yul\":14281:14302   */\n      tag_525\n      jump\t// in\n    tag_528:\n        /* \"#utility.yul\":14276:14279   */\n      dup3\n        /* \"#utility.yul\":14269:14303   */\n      mstore\n        /* \"#utility.yul\":14259:14309   */\n      pop\n      pop\n      jump\t// out\n        /* \"#utility.yul\":14315:14423   */\n    tag_529:\n        /* \"#utility.yul\":14392:14416   */\n      tag_531\n        /* \"#utility.yul\":14410:14415   */\n      dup2\n        /* \"#utility.yul\":14392:14416   */\n      tag_532\n      jump\t// in\n    tag_531:\n        /* \"#utility.yul\":14387:14390   */\n      dup3\n        /* \"#utility.yul\":14380:14417   */\n      mstore\n        /* \"#utility.yul\":14370:14423   */\n      pop\n      pop\n      jump\t// out\n        /* \"#utility.yul\":14429:14769   */\n    tag_533:\n      0x00\n        /* \"#utility.yul\":14533:14571   */\n      tag_535\n        /* \"#utility.yul\":14565:14570   */\n      dup3\n        /* \"#utility.yul\":14533:14571   */\n      tag_536\n      jump\t// in\n    tag_535:\n        /* \"#utility.yul\":14587:14647   */\n      tag_537\n        /* \"#utility.yul\":14640:14646   */\n      dup2\n        /* \"#utility.yul\":14635:14638   */\n      dup6\n        /* \"#utility.yul\":14587:14647   */\n      tag_538\n      jump\t// in\n    tag_537:\n        /* \"#utility.yul\":14580:14647   */\n      swap4\n      pop\n        /* \"#utility.yul\":14656:14708   */\n      tag_539\n        /* \"#utility.yul\":14701:14707   */\n      dup2\n        /* \"#utility.yul\":14696:14699   */\n      dup6\n        /* \"#utility.yul\":14689:14693   */\n      0x20\n        /* \"#utility.yul\":14682:14687   */\n      dup7\n        /* \"#utility.yul\":14678:14694   */\n      add\n        /* \"#utility.yul\":14656:14708   */\n      tag_540\n      jump\t// in\n    tag_539:\n        /* \"#utility.yul\":14733:14762   */\n      tag_541\n        /* \"#utility.yul\":14755:14761   */\n      dup2\n        /* \"#utility.yul\":14733:14762   */\n      tag_542\n      jump\t// in\n    tag_541:\n        /* \"#utility.yul\":14728:14731   */\n      dup5\n        /* \"#utility.yul\":14724:14763   */\n      add\n        /* \"#utility.yul\":14717:14763   */\n      swap2\n      pop\n        /* \"#utility.yul\":14509:14769   */\n      pop\n      swap3\n      swap2\n      pop\n      pop\n      jump\t// out\n        /* \"#utility.yul\":14775:15135   */\n    tag_543:\n      0x00\n        /* \"#utility.yul\":14889:14927   */\n      tag_545\n        /* \"#utility.yul\":14921:14926   */\n      dup3\n        /* \"#utility.yul\":14889:14927   */\n      tag_536\n      jump\t// in\n    tag_545:\n        /* \"#utility.yul\":14943:15013   */\n      tag_546\n        /* \"#utility.yul\":15006:15012   */\n      dup2\n        /* \"#utility.yul\":15001:15004   */\n      dup6\n        /* \"#utility.yul\":14943:15013   */\n      tag_547\n      jump\t// in\n    tag_546:\n        /* \"#utility.yul\":14936:15013   */\n      swap4\n      pop\n        /* \"#utility.yul\":15022:15074   */\n      tag_548\n        /* \"#utility.yul\":15067:15073   */\n      dup2\n        /* \"#utility.yul\":15062:15065   */\n      dup6\n        /* \"#utility.yul\":15055:15059   */\n      0x20\n        /* \"#utility.yul\":15048:15053   */\n      dup7\n        /* \"#utility.yul\":15044:15060   */\n      add\n        /* \"#utility.yul\":15022:15074   */\n      tag_540\n      jump\t// in\n    tag_548:\n        /* \"#utility.yul\":15099:15128   */\n      tag_549\n        /* \"#utility.yul\":15121:15127   */\n      dup2\n        /* \"#utility.yul\":15099:15128   */\n      tag_542\n      jump\t// in\n    tag_549:\n        /* \"#utility.yul\":15094:15097   */\n      dup5\n        /* \"#utility.yul\":15090:15129   */\n      add\n        /* \"#utility.yul\":15083:15129   */\n      swap2\n      pop\n        /* \"#utility.yul\":14865:15135   */\n      pop\n      swap3\n      swap2\n      pop\n      pop\n      jump\t// out\n        /* \"#utility.yul\":15141:15514   */\n    tag_550:\n      0x00\n        /* \"#utility.yul\":15273:15311   */\n      tag_552\n        /* \"#utility.yul\":15305:15310   */\n      dup3\n        /* \"#utility.yul\":15273:15311   */\n      tag_536\n      jump\t// in\n    tag_552:\n        /* \"#utility.yul\":15327:15415   */\n      tag_553\n        /* \"#utility.yul\":15408:15414   */\n      dup2\n        /* \"#utility.yul\":15403:15406   */\n      dup6\n        /* \"#utility.yul\":15327:15415   */\n      tag_554\n      jump\t// in\n    tag_553:\n        /* \"#utility.yul\":15320:15415   */\n      swap4\n      pop\n        /* \"#utility.yul\":15424:15476   */\n      tag_555\n        /* \"#utility.yul\":15469:15475   */\n      dup2\n        /* \"#utility.yul\":15464:15467   */\n      dup6\n        /* \"#utility.yul\":15457:15461   */\n      0x20\n        /* \"#utility.yul\":15450:15455   */\n      dup7\n        /* \"#utility.yul\":15446:15462   */\n      add\n        /* \"#utility.yul\":15424:15476   */\n      tag_540\n      jump\t// in\n    tag_555:\n        /* \"#utility.yul\":15501:15507   */\n      dup1\n        /* \"#utility.yul\":15496:15499   */\n      dup5\n        /* \"#utility.yul\":15492:15508   */\n      add\n        /* \"#utility.yul\":15485:15508   */\n      swap2\n      pop\n        /* \"#utility.yul\":15249:15514   */\n      pop\n      swap3\n      swap2\n      pop\n      pop\n      jump\t// out\n        /* \"#utility.yul\":15520:15669   */\n    tag_439:\n        /* \"#utility.yul\":15611:15662   */\n      tag_557\n        /* \"#utility.yul\":15656:15661   */\n      dup2\n        /* \"#utility.yul\":15611:15662   */\n      tag_558\n      jump\t// in\n    tag_557:\n        /* \"#utility.yul\":15606:15609   */\n      dup3\n        /* \"#utility.yul\":15599:15663   */\n      mstore\n        /* \"#utility.yul\":15589:15669   */\n      pop\n      pop\n      jump\t// out\n        /* \"#utility.yul\":15675:15828   */\n    tag_559:\n        /* \"#utility.yul\":15773:15821   */\n      tag_561\n        /* \"#utility.yul\":15815:15820   */\n      dup2\n        /* \"#utility.yul\":15773:15821   */\n      tag_562\n      jump\t// in\n    tag_561:\n        /* \"#utility.yul\":15768:15771   */\n      dup3\n        /* \"#utility.yul\":15761:15822   */\n      mstore\n        /* \"#utility.yul\":15751:15828   */\n      pop\n      pop\n      jump\t// out\n        /* \"#utility.yul\":15834:15939   */\n    tag_443:\n        /* \"#utility.yul\":15909:15932   */\n      tag_564\n        /* \"#utility.yul\":15926:15931   */\n      dup2\n        /* \"#utility.yul\":15909:15932   */\n      tag_565\n      jump\t// in\n    tag_564:\n        /* \"#utility.yul\":15904:15907   */\n      dup3\n        /* \"#utility.yul\":15897:15933   */\n      mstore\n        /* \"#utility.yul\":15887:15939   */\n      pop\n      pop\n      jump\t// out\n        /* \"#utility.yul\":15945:16309   */\n    tag_566:\n      0x00\n        /* \"#utility.yul\":16061:16100   */\n      tag_568\n        /* \"#utility.yul\":16094:16099   */\n      dup3\n        /* \"#utility.yul\":16061:16100   */\n      tag_569\n      jump\t// in\n    tag_568:\n        /* \"#utility.yul\":16116:16187   */\n      tag_570\n        /* \"#utility.yul\":16180:16186   */\n      dup2\n        /* \"#utility.yul\":16175:16178   */\n      dup6\n        /* \"#utility.yul\":16116:16187   */\n      tag_571\n      jump\t// in\n    tag_570:\n        /* \"#utility.yul\":16109:16187   */\n      swap4\n      pop\n        /* \"#utility.yul\":16196:16248   */\n      tag_572\n        /* \"#utility.yul\":16241:16247   */\n      dup2\n        /* \"#utility.yul\":16236:16239   */\n      dup6\n        /* \"#utility.yul\":16229:16233   */\n      0x20\n        /* \"#utility.yul\":16222:16227   */\n      dup7\n        /* \"#utility.yul\":16218:16234   */\n      add\n        /* \"#utility.yul\":16196:16248   */\n      tag_540\n      jump\t// in\n    tag_572:\n        /* \"#utility.yul\":16273:16302   */\n      tag_573\n        /* \"#utility.yul\":16295:16301   */\n      dup2\n        /* \"#utility.yul\":16273:16302   */\n      tag_542\n      jump\t// in\n    tag_573:\n        /* \"#utility.yul\":16268:16271   */\n      dup5\n        /* \"#utility.yul\":16264:16303   */\n      add\n        /* \"#utility.yul\":16257:16303   */\n      swap2\n      pop\n        /* \"#utility.yul\":16037:16309   */\n      pop\n      swap3\n      swap2\n      pop\n      pop\n      jump\t// out\n        /* \"#utility.yul\":16315:16696   */\n    tag_574:\n      0x00\n        /* \"#utility.yul\":16478:16545   */\n      tag_576\n        /* \"#utility.yul\":16542:16544   */\n      0x31\n        /* \"#utility.yul\":16537:16540   */\n      dup4\n        /* \"#utility.yul\":16478:16545   */\n      tag_571\n      jump\t// in\n    tag_576:\n        /* \"#utility.yul\":16471:16545   */\n      swap2\n      pop\n        /* \"#utility.yul\":16575:16609   */\n      0x5472616e7366657248656c7065723a3a7472616e7366657246726f6d3a207472\n        /* \"#utility.yul\":16571:16572   */\n      0x00\n        /* \"#utility.yul\":16566:16569   */\n      dup4\n        /* \"#utility.yul\":16562:16573   */\n      add\n        /* \"#utility.yul\":16555:16610   */\n      mstore\n        /* \"#utility.yul\":16641:16660   */\n      0x616e7366657246726f6d206661696c6564000000000000000000000000000000\n        /* \"#utility.yul\":16636:16638   */\n      0x20\n        /* \"#utility.yul\":16631:16634   */\n      dup4\n        /* \"#utility.yul\":16627:16639   */\n      add\n        /* \"#utility.yul\":16620:16661   */\n      mstore\n        /* \"#utility.yul\":16687:16689   */\n      0x40\n        /* \"#utility.yul\":16682:16685   */\n      dup3\n        /* \"#utility.yul\":16678:16690   */\n      add\n        /* \"#utility.yul\":16671:16690   */\n      swap1\n      pop\n        /* \"#utility.yul\":16461:16696   */\n      swap2\n      swap1\n      pop\n      jump\t// out\n        /* \"#utility.yul\":16702:17086   */\n    tag_577:\n      0x00\n        /* \"#utility.yul\":16865:16932   */\n      tag_579\n        /* \"#utility.yul\":16929:16931   */\n      0x34\n        /* \"#utility.yul\":16924:16927   */\n      dup4\n        /* \"#utility.yul\":16865:16932   */\n      tag_571\n      jump\t// in\n    tag_579:\n        /* \"#utility.yul\":16858:16932   */\n      swap2\n      pop\n        /* \"#utility.yul\":16962:16996   */\n      0x5472616e7366657248656c7065723a3a736166655472616e736665724554483a\n        /* \"#utility.yul\":16958:16959   */\n      0x00\n        /* \"#utility.yul\":16953:16956   */\n      dup4\n        /* \"#utility.yul\":16949:16960   */\n      add\n        /* \"#utility.yul\":16942:16997   */\n      mstore\n        /* \"#utility.yul\":17028:17050   */\n      0x20455448207472616e73666572206661696c6564000000000000000000000000\n        /* \"#utility.yul\":17023:17025   */\n      0x20\n        /* \"#utility.yul\":17018:17021   */\n      dup4\n        /* \"#utility.yul\":17014:17026   */\n      add\n        /* \"#utility.yul\":17007:17051   */\n      mstore\n        /* \"#utility.yul\":17077:17079   */\n      0x40\n        /* \"#utility.yul\":17072:17075   */\n      dup3\n        /* \"#utility.yul\":17068:17080   */\n      add\n        /* \"#utility.yul\":17061:17080   */\n      swap1\n      pop\n        /* \"#utility.yul\":16848:17086   */\n      swap2\n      swap1\n      pop\n      jump\t// out\n        /* \"#utility.yul\":17092:17457   */\n    tag_580:\n      0x00\n        /* \"#utility.yul\":17255:17322   */\n      tag_582\n        /* \"#utility.yul\":17319:17321   */\n      0x21\n        /* \"#utility.yul\":17314:17317   */\n      dup4\n        /* \"#utility.yul\":17255:17322   */\n      tag_571\n      jump\t// in\n    tag_582:\n        /* \"#utility.yul\":17248:17322   */\n      swap2\n      pop\n        /* \"#utility.yul\":17352:17386   */\n      0x536166654d6174683a206d756c7469706c69636174696f6e206f766572666c6f\n        /* \"#utility.yul\":17348:17349   */\n      0x00\n        /* \"#utility.yul\":17343:17346   */\n      dup4\n        /* \"#utility.yul\":17339:17350   */\n      add\n        /* \"#utility.yul\":17332:17387   */\n      mstore\n        /* \"#utility.yul\":17418:17421   */\n      0x7700000000000000000000000000000000000000000000000000000000000000\n        /* \"#utility.yul\":17413:17415   */\n      0x20\n        /* \"#utility.yul\":17408:17411   */\n      dup4\n        /* \"#utility.yul\":17404:17416   */\n      add\n        /* \"#utility.yul\":17397:17422   */\n      mstore\n        /* \"#utility.yul\":17448:17450   */\n      0x40\n        /* \"#utility.yul\":17443:17446   */\n      dup3\n        /* \"#utility.yul\":17439:17451   */\n      add\n        /* \"#utility.yul\":17432:17451   */\n      swap1\n      pop\n        /* \"#utility.yul\":17238:17457   */\n      swap2\n      swap1\n      pop\n      jump\t// out\n        /* \"#utility.yul\":17463:17788   */\n    tag_583:\n      0x00\n        /* \"#utility.yul\":17626:17693   */\n      tag_585\n        /* \"#utility.yul\":17690:17692   */\n      0x1b\n        /* \"#utility.yul\":17685:17688   */\n      dup4\n        /* \"#utility.yul\":17626:17693   */\n      tag_571\n      jump\t// in\n    tag_585:\n        /* \"#utility.yul\":17619:17693   */\n      swap2\n      pop\n        /* \"#utility.yul\":17723:17752   */\n      0x426172746572737761705632526f757465723a20455850495245440000000000\n        /* \"#utility.yul\":17719:17720   */\n      0x00\n        /* \"#utility.yul\":17714:17717   */\n      dup4\n        /* \"#utility.yul\":17710:17721   */\n      add\n        /* \"#utility.yul\":17703:17753   */\n      mstore\n        /* \"#utility.yul\":17779:17781   */\n      0x20\n        /* \"#utility.yul\":17774:17777   */\n      dup3\n        /* \"#utility.yul\":17770:17782   */\n      add\n        /* \"#utility.yul\":17763:17782   */\n      swap1\n      pop\n        /* \"#utility.yul\":17609:17788   */\n      swap2\n      swap1\n      pop\n      jump\t// out\n        /* \"#utility.yul\":17794:18171   */\n    tag_586:\n      0x00\n        /* \"#utility.yul\":17957:18024   */\n      tag_588\n        /* \"#utility.yul\":18021:18023   */\n      0x2d\n        /* \"#utility.yul\":18016:18019   */\n      dup4\n        /* \"#utility.yul\":17957:18024   */\n      tag_571\n      jump\t// in\n    tag_588:\n        /* \"#utility.yul\":17950:18024   */\n      swap2\n      pop\n        /* \"#utility.yul\":18054:18088   */\n      0x5472616e7366657248656c7065723a3a736166655472616e736665723a207472\n        /* \"#utility.yul\":18050:18051   */\n      0x00\n        /* \"#utility.yul\":18045:18048   */\n      dup4\n        /* \"#utility.yul\":18041:18052   */\n      add\n        /* \"#utility.yul\":18034:18089   */\n      mstore\n        /* \"#utility.yul\":18120:18135   */\n      0x616e73666572206661696c656400000000000000000000000000000000000000\n        /* \"#utility.yul\":18115:18117   */\n      0x20\n        /* \"#utility.yul\":18110:18113   */\n      dup4\n        /* \"#utility.yul\":18106:18118   */\n      add\n        /* \"#utility.yul\":18099:18136   */\n      mstore\n        /* \"#utility.yul\":18162:18164   */\n      0x40\n        /* \"#utility.yul\":18157:18160   */\n      dup3\n        /* \"#utility.yul\":18153:18165   */\n      add\n        /* \"#utility.yul\":18146:18165   */\n      swap1\n      pop\n        /* \"#utility.yul\":17940:18171   */\n      swap2\n      swap1\n      pop\n      jump\t// out\n        /* \"#utility.yul\":18177:18496   */\n    tag_589:\n      0x00\n        /* \"#utility.yul\":18340:18407   */\n      tag_591\n        /* \"#utility.yul\":18404:18406   */\n      0x15\n        /* \"#utility.yul\":18399:18402   */\n      dup4\n        /* \"#utility.yul\":18340:18407   */\n      tag_571\n      jump\t// in\n    tag_591:\n        /* \"#utility.yul\":18333:18407   */\n      swap2\n      pop\n        /* \"#utility.yul\":18437:18460   */\n      0x426172746572737761703a20464f5242494444454e0000000000000000000000\n        /* \"#utility.yul\":18433:18434   */\n      0x00\n        /* \"#utility.yul\":18428:18431   */\n      dup4\n        /* \"#utility.yul\":18424:18435   */\n      add\n        /* \"#utility.yul\":18417:18461   */\n      mstore\n        /* \"#utility.yul\":18487:18489   */\n      0x20\n        /* \"#utility.yul\":18482:18485   */\n      dup3\n        /* \"#utility.yul\":18478:18490   */\n      add\n        /* \"#utility.yul\":18471:18490   */\n      swap1\n      pop\n        /* \"#utility.yul\":18323:18496   */\n      swap2\n      swap1\n      pop\n      jump\t// out\n        /* \"#utility.yul\":18502:18814   */\n    tag_592:\n      0x00\n        /* \"#utility.yul\":18665:18732   */\n      tag_594\n        /* \"#utility.yul\":18729:18731   */\n      0x0e\n        /* \"#utility.yul\":18724:18727   */\n      dup4\n        /* \"#utility.yul\":18665:18732   */\n      tag_571\n      jump\t// in\n    tag_594:\n        /* \"#utility.yul\":18658:18732   */\n      swap2\n      pop\n        /* \"#utility.yul\":18762:18778   */\n      0x50726963652069732077726f6e67000000000000000000000000000000000000\n        /* \"#utility.yul\":18758:18759   */\n      0x00\n        /* \"#utility.yul\":18753:18756   */\n      dup4\n        /* \"#utility.yul\":18749:18760   */\n      add\n        /* \"#utility.yul\":18742:18779   */\n      mstore\n        /* \"#utility.yul\":18805:18807   */\n      0x20\n        /* \"#utility.yul\":18800:18803   */\n      dup3\n        /* \"#utility.yul\":18796:18808   */\n      add\n        /* \"#utility.yul\":18789:18808   */\n      swap1\n      pop\n        /* \"#utility.yul\":18648:18814   */\n      swap2\n      swap1\n      pop\n      jump\t// out\n        /* \"#utility.yul\":18886:20039   */\n    tag_447:\n      0x00\n        /* \"#utility.yul\":19043:19047   */\n      0xa0\n        /* \"#utility.yul\":19038:19041   */\n      dup4\n        /* \"#utility.yul\":19034:19048   */\n      add\n        /* \"#utility.yul\":19132:19136   */\n      0x00\n        /* \"#utility.yul\":19125:19130   */\n      dup4\n        /* \"#utility.yul\":19121:19137   */\n      add\n        /* \"#utility.yul\":19115:19138   */\n      mload\n        /* \"#utility.yul\":19151:19214   */\n      tag_596\n        /* \"#utility.yul\":19208:19212   */\n      0x00\n        /* \"#utility.yul\":19203:19206   */\n      dup7\n        /* \"#utility.yul\":19199:19213   */\n      add\n        /* \"#utility.yul\":19185:19197   */\n      dup3\n        /* \"#utility.yul\":19151:19214   */\n      tag_529\n      jump\t// in\n    tag_596:\n        /* \"#utility.yul\":19058:19224   */\n      pop\n        /* \"#utility.yul\":19314:19318   */\n      0x20\n        /* \"#utility.yul\":19307:19312   */\n      dup4\n        /* \"#utility.yul\":19303:19319   */\n      add\n        /* \"#utility.yul\":19297:19320   */\n      mload\n        /* \"#utility.yul\":19333:19396   */\n      tag_597\n        /* \"#utility.yul\":19390:19394   */\n      0x20\n        /* \"#utility.yul\":19385:19388   */\n      dup7\n        /* \"#utility.yul\":19381:19395   */\n      add\n        /* \"#utility.yul\":19367:19379   */\n      dup3\n        /* \"#utility.yul\":19333:19396   */\n      tag_451\n      jump\t// in\n    tag_597:\n        /* \"#utility.yul\":19234:19406   */\n      pop\n        /* \"#utility.yul\":19497:19501   */\n      0x40\n        /* \"#utility.yul\":19490:19495   */\n      dup4\n        /* \"#utility.yul\":19486:19502   */\n      add\n        /* \"#utility.yul\":19480:19503   */\n      mload\n        /* \"#utility.yul\":19516:19579   */\n      tag_598\n        /* \"#utility.yul\":19573:19577   */\n      0x40\n        /* \"#utility.yul\":19568:19571   */\n      dup7\n        /* \"#utility.yul\":19564:19578   */\n      add\n        /* \"#utility.yul\":19550:19562   */\n      dup3\n        /* \"#utility.yul\":19516:19579   */\n      tag_451\n      jump\t// in\n    tag_598:\n        /* \"#utility.yul\":19416:19589   */\n      pop\n        /* \"#utility.yul\":19673:19677   */\n      0x60\n        /* \"#utility.yul\":19666:19671   */\n      dup4\n        /* \"#utility.yul\":19662:19678   */\n      add\n        /* \"#utility.yul\":19656:19679   */\n      mload\n        /* \"#utility.yul\":19692:19755   */\n      tag_599\n        /* \"#utility.yul\":19749:19753   */\n      0x60\n        /* \"#utility.yul\":19744:19747   */\n      dup7\n        /* \"#utility.yul\":19740:19754   */\n      add\n        /* \"#utility.yul\":19726:19738   */\n      dup3\n        /* \"#utility.yul\":19692:19755   */\n      tag_451\n      jump\t// in\n    tag_599:\n        /* \"#utility.yul\":19599:19765   */\n      pop\n        /* \"#utility.yul\":19851:19855   */\n      0x80\n        /* \"#utility.yul\":19844:19849   */\n      dup4\n        /* \"#utility.yul\":19840:19856   */\n      add\n        /* \"#utility.yul\":19834:19857   */\n      mload\n        /* \"#utility.yul\":19904:19907   */\n      dup5\n        /* \"#utility.yul\":19898:19902   */\n      dup3\n        /* \"#utility.yul\":19894:19908   */\n      sub\n        /* \"#utility.yul\":19887:19891   */\n      0x80\n        /* \"#utility.yul\":19882:19885   */\n      dup7\n        /* \"#utility.yul\":19878:19892   */\n      add\n        /* \"#utility.yul\":19871:19909   */\n      mstore\n        /* \"#utility.yul\":19930:20001   */\n      tag_600\n        /* \"#utility.yul\":19996:20000   */\n      dup3\n        /* \"#utility.yul\":19982:19994   */\n      dup3\n        /* \"#utility.yul\":19930:20001   */\n      tag_533\n      jump\t// in\n    tag_600:\n        /* \"#utility.yul\":19922:20001   */\n      swap2\n      pop\n        /* \"#utility.yul\":19775:20012   */\n      pop\n        /* \"#utility.yul\":20029:20033   */\n      dup1\n        /* \"#utility.yul\":20022:20033   */\n      swap2\n      pop\n        /* \"#utility.yul\":19012:20039   */\n      pop\n      swap3\n      swap2\n      pop\n      pop\n      jump\t// out\n        /* \"#utility.yul\":20113:21021   */\n    tag_601:\n        /* \"#utility.yul\":20274:20278   */\n      0x80\n        /* \"#utility.yul\":20269:20272   */\n      dup3\n        /* \"#utility.yul\":20265:20279   */\n      add\n        /* \"#utility.yul\":20363:20367   */\n      0x00\n        /* \"#utility.yul\":20356:20361   */\n      dup3\n        /* \"#utility.yul\":20352:20368   */\n      add\n        /* \"#utility.yul\":20346:20369   */\n      mload\n        /* \"#utility.yul\":20382:20445   */\n      tag_603\n        /* \"#utility.yul\":20439:20443   */\n      0x00\n        /* \"#utility.yul\":20434:20437   */\n      dup6\n        /* \"#utility.yul\":20430:20444   */\n      add\n        /* \"#utility.yul\":20416:20428   */\n      dup3\n        /* \"#utility.yul\":20382:20445   */\n      tag_459\n      jump\t// in\n    tag_603:\n        /* \"#utility.yul\":20289:20455   */\n      pop\n        /* \"#utility.yul\":20552:20556   */\n      0x20\n        /* \"#utility.yul\":20545:20550   */\n      dup3\n        /* \"#utility.yul\":20541:20557   */\n      add\n        /* \"#utility.yul\":20535:20558   */\n      mload\n        /* \"#utility.yul\":20571:20628   */\n      tag_604\n        /* \"#utility.yul\":20622:20626   */\n      0x20\n        /* \"#utility.yul\":20617:20620   */\n      dup6\n        /* \"#utility.yul\":20613:20627   */\n      add\n        /* \"#utility.yul\":20599:20611   */\n      dup3\n        /* \"#utility.yul\":20571:20628   */\n      tag_522\n      jump\t// in\n    tag_604:\n        /* \"#utility.yul\":20465:20638   */\n      pop\n        /* \"#utility.yul\":20725:20729   */\n      0x40\n        /* \"#utility.yul\":20718:20723   */\n      dup3\n        /* \"#utility.yul\":20714:20730   */\n      add\n        /* \"#utility.yul\":20708:20731   */\n      mload\n        /* \"#utility.yul\":20744:20823   */\n      tag_605\n        /* \"#utility.yul\":20817:20821   */\n      0x40\n        /* \"#utility.yul\":20812:20815   */\n      dup6\n        /* \"#utility.yul\":20808:20822   */\n      add\n        /* \"#utility.yul\":20794:20806   */\n      dup3\n        /* \"#utility.yul\":20744:20823   */\n      tag_452\n      jump\t// in\n    tag_605:\n        /* \"#utility.yul\":20648:20833   */\n      pop\n        /* \"#utility.yul\":20928:20932   */\n      0x60\n        /* \"#utility.yul\":20921:20926   */\n      dup3\n        /* \"#utility.yul\":20917:20933   */\n      add\n        /* \"#utility.yul\":20911:20934   */\n      mload\n        /* \"#utility.yul\":20947:21004   */\n      tag_606\n        /* \"#utility.yul\":20998:21002   */\n      0x60\n        /* \"#utility.yul\":20993:20996   */\n      dup6\n        /* \"#utility.yul\":20989:21003   */\n      add\n        /* \"#utility.yul\":20975:20987   */\n      dup3\n        /* \"#utility.yul\":20947:21004   */\n      tag_522\n      jump\t// in\n    tag_606:\n        /* \"#utility.yul\":20843:21014   */\n      pop\n        /* \"#utility.yul\":20243:21021   */\n      pop\n      pop\n      pop\n      jump\t// out\n        /* \"#utility.yul\":21027:21135   */\n    tag_451:\n        /* \"#utility.yul\":21104:21128   */\n      tag_608\n        /* \"#utility.yul\":21122:21127   */\n      dup2\n        /* \"#utility.yul\":21104:21128   */\n      tag_609\n      jump\t// in\n    tag_608:\n        /* \"#utility.yul\":21099:21102   */\n      dup3\n        /* \"#utility.yul\":21092:21129   */\n      mstore\n        /* \"#utility.yul\":21082:21135   */\n      pop\n      pop\n      jump\t// out\n        /* \"#utility.yul\":21141:21259   */\n    tag_610:\n        /* \"#utility.yul\":21228:21252   */\n      tag_612\n        /* \"#utility.yul\":21246:21251   */\n      dup2\n        /* \"#utility.yul\":21228:21252   */\n      tag_609\n      jump\t// in\n    tag_612:\n        /* \"#utility.yul\":21223:21226   */\n      dup3\n        /* \"#utility.yul\":21216:21253   */\n      mstore\n        /* \"#utility.yul\":21206:21259   */\n      pop\n      pop\n      jump\t// out\n        /* \"#utility.yul\":21265:21536   */\n    tag_223:\n      0x00\n        /* \"#utility.yul\":21417:21510   */\n      tag_614\n        /* \"#utility.yul\":21506:21509   */\n      dup3\n        /* \"#utility.yul\":21497:21503   */\n      dup5\n        /* \"#utility.yul\":21417:21510   */\n      tag_550\n      jump\t// in\n    tag_614:\n        /* \"#utility.yul\":21410:21510   */\n      swap2\n      pop\n        /* \"#utility.yul\":21527:21530   */\n      dup2\n        /* \"#utility.yul\":21520:21530   */\n      swap1\n      pop\n        /* \"#utility.yul\":21399:21536   */\n      swap3\n      swap2\n      pop\n      pop\n      jump\t// out\n        /* \"#utility.yul\":21542:21764   */\n    tag_33:\n      0x00\n        /* \"#utility.yul\":21673:21675   */\n      0x20\n        /* \"#utility.yul\":21662:21671   */\n      dup3\n        /* \"#utility.yul\":21658:21676   */\n      add\n        /* \"#utility.yul\":21650:21676   */\n      swap1\n      pop\n        /* \"#utility.yul\":21686:21757   */\n      tag_616\n        /* \"#utility.yul\":21754:21755   */\n      0x00\n        /* \"#utility.yul\":21743:21752   */\n      dup4\n        /* \"#utility.yul\":21739:21756   */\n      add\n        /* \"#utility.yul\":21730:21736   */\n      dup5\n        /* \"#utility.yul\":21686:21757   */\n      tag_463\n      jump\t// in\n    tag_616:\n        /* \"#utility.yul\":21640:21764   */\n      swap3\n      swap2\n      pop\n      pop\n      jump\t// out\n        /* \"#utility.yul\":21770:22024   */\n    tag_22:\n      0x00\n        /* \"#utility.yul\":21917:21919   */\n      0x20\n        /* \"#utility.yul\":21906:21915   */\n      dup3\n        /* \"#utility.yul\":21902:21920   */\n      add\n        /* \"#utility.yul\":21894:21920   */\n      swap1\n      pop\n        /* \"#utility.yul\":21930:22017   */\n      tag_618\n        /* \"#utility.yul\":22014:22015   */\n      0x00\n        /* \"#utility.yul\":22003:22012   */\n      dup4\n        /* \"#utility.yul\":21999:22016   */\n      add\n        /* \"#utility.yul\":21990:21996   */\n      dup5\n        /* \"#utility.yul\":21930:22017   */\n      tag_456\n      jump\t// in\n    tag_618:\n        /* \"#utility.yul\":21884:22024   */\n      swap3\n      swap2\n      pop\n      pop\n      jump\t// out\n        /* \"#utility.yul\":22030:22623   */\n    tag_253:\n      0x00\n        /* \"#utility.yul\":22267:22269   */\n      0x60\n        /* \"#utility.yul\":22256:22265   */\n      dup3\n        /* \"#utility.yul\":22252:22270   */\n      add\n        /* \"#utility.yul\":22244:22270   */\n      swap1\n      pop\n        /* \"#utility.yul\":22280:22351   */\n      tag_620\n        /* \"#utility.yul\":22348:22349   */\n      0x00\n        /* \"#utility.yul\":22337:22346   */\n      dup4\n        /* \"#utility.yul\":22333:22350   */\n      add\n        /* \"#utility.yul\":22324:22330   */\n      dup7\n        /* \"#utility.yul\":22280:22351   */\n      tag_463\n      jump\t// in\n    tag_620:\n        /* \"#utility.yul\":22361:22433   */\n      tag_621\n        /* \"#utility.yul\":22429:22431   */\n      0x20\n        /* \"#utility.yul\":22418:22427   */\n      dup4\n        /* \"#utility.yul\":22414:22432   */\n      add\n        /* \"#utility.yul\":22405:22411   */\n      dup6\n        /* \"#utility.yul\":22361:22433   */\n      tag_463\n      jump\t// in\n    tag_621:\n        /* \"#utility.yul\":22480:22489   */\n      dup2\n        /* \"#utility.yul\":22474:22478   */\n      dup2\n        /* \"#utility.yul\":22470:22490   */\n      sub\n        /* \"#utility.yul\":22465:22467   */\n      0x40\n        /* \"#utility.yul\":22454:22463   */\n      dup4\n        /* \"#utility.yul\":22450:22468   */\n      add\n        /* \"#utility.yul\":22443:22491   */\n      mstore\n        /* \"#utility.yul\":22508:22616   */\n      tag_622\n        /* \"#utility.yul\":22611:22615   */\n      dup2\n        /* \"#utility.yul\":22602:22608   */\n      dup5\n        /* \"#utility.yul\":22508:22616   */\n      tag_508\n      jump\t// in\n    tag_622:\n        /* \"#utility.yul\":22500:22616   */\n      swap1\n      pop\n        /* \"#utility.yul\":22234:22623   */\n      swap5\n      swap4\n      pop\n      pop\n      pop\n      pop\n      jump\t// out\n        /* \"#utility.yul\":22629:23071   */\n    tag_232:\n      0x00\n        /* \"#utility.yul\":22816:22818   */\n      0x60\n        /* \"#utility.yul\":22805:22814   */\n      dup3\n        /* \"#utility.yul\":22801:22819   */\n      add\n        /* \"#utility.yul\":22793:22819   */\n      swap1\n      pop\n        /* \"#utility.yul\":22829:22900   */\n      tag_624\n        /* \"#utility.yul\":22897:22898   */\n      0x00\n        /* \"#utility.yul\":22886:22895   */\n      dup4\n        /* \"#utility.yul\":22882:22899   */\n      add\n        /* \"#utility.yul\":22873:22879   */\n      dup7\n        /* \"#utility.yul\":22829:22900   */\n      tag_463\n      jump\t// in\n    tag_624:\n        /* \"#utility.yul\":22910:22982   */\n      tag_625\n        /* \"#utility.yul\":22978:22980   */\n      0x20\n        /* \"#utility.yul\":22967:22976   */\n      dup4\n        /* \"#utility.yul\":22963:22981   */\n      add\n        /* \"#utility.yul\":22954:22960   */\n      dup6\n        /* \"#utility.yul\":22910:22982   */\n      tag_463\n      jump\t// in\n    tag_625:\n        /* \"#utility.yul\":22992:23064   */\n      tag_626\n        /* \"#utility.yul\":23060:23062   */\n      0x40\n        /* \"#utility.yul\":23049:23058   */\n      dup4\n        /* \"#utility.yul\":23045:23063   */\n      add\n        /* \"#utility.yul\":23036:23042   */\n      dup5\n        /* \"#utility.yul\":22992:23064   */\n      tag_610\n      jump\t// in\n    tag_626:\n        /* \"#utility.yul\":22783:23071   */\n      swap5\n      swap4\n      pop\n      pop\n      pop\n      pop\n      jump\t// out\n        /* \"#utility.yul\":23077:23409   */\n    tag_246:\n      0x00\n        /* \"#utility.yul\":23236:23238   */\n      0x40\n        /* \"#utility.yul\":23225:23234   */\n      dup3\n        /* \"#utility.yul\":23221:23239   */\n      add\n        /* \"#utility.yul\":23213:23239   */\n      swap1\n      pop\n        /* \"#utility.yul\":23249:23320   */\n      tag_628\n        /* \"#utility.yul\":23317:23318   */\n      0x00\n        /* \"#utility.yul\":23306:23315   */\n      dup4\n        /* \"#utility.yul\":23302:23319   */\n      add\n        /* \"#utility.yul\":23293:23299   */\n      dup6\n        /* \"#utility.yul\":23249:23320   */\n      tag_463\n      jump\t// in\n    tag_628:\n        /* \"#utility.yul\":23330:23402   */\n      tag_629\n        /* \"#utility.yul\":23398:23400   */\n      0x20\n        /* \"#utility.yul\":23387:23396   */\n      dup4\n        /* \"#utility.yul\":23383:23401   */\n      add\n        /* \"#utility.yul\":23374:23380   */\n      dup5\n        /* \"#utility.yul\":23330:23402   */\n      tag_610\n      jump\t// in\n    tag_629:\n        /* \"#utility.yul\":23203:23409   */\n      swap4\n      swap3\n      pop\n      pop\n      pop\n      jump\t// out\n        /* \"#utility.yul\":23415:23625   */\n    tag_39:\n      0x00\n        /* \"#utility.yul\":23540:23542   */\n      0x20\n        /* \"#utility.yul\":23529:23538   */\n      dup3\n        /* \"#utility.yul\":23525:23543   */\n      add\n        /* \"#utility.yul\":23517:23543   */\n      swap1\n      pop\n        /* \"#utility.yul\":23553:23618   */\n      tag_631\n        /* \"#utility.yul\":23615:23616   */\n      0x00\n        /* \"#utility.yul\":23604:23613   */\n      dup4\n        /* \"#utility.yul\":23600:23617   */\n      add\n        /* \"#utility.yul\":23591:23597   */\n      dup5\n        /* \"#utility.yul\":23553:23618   */\n      tag_526\n      jump\t// in\n    tag_631:\n        /* \"#utility.yul\":23507:23625   */\n      swap3\n      swap2\n      pop\n      pop\n      jump\t// out\n        /* \"#utility.yul\":23631:25158   */\n    tag_262:\n      0x00\n        /* \"#utility.yul\":24201:24204   */\n      0x0120\n        /* \"#utility.yul\":24190:24199   */\n      dup3\n        /* \"#utility.yul\":24186:24205   */\n      add\n        /* \"#utility.yul\":24178:24205   */\n      swap1\n      pop\n        /* \"#utility.yul\":24215:24297   */\n      tag_633\n        /* \"#utility.yul\":24294:24295   */\n      0x00\n        /* \"#utility.yul\":24283:24292   */\n      dup4\n        /* \"#utility.yul\":24279:24296   */\n      add\n        /* \"#utility.yul\":24270:24276   */\n      dup10\n        /* \"#utility.yul\":24215:24297   */\n      tag_559\n      jump\t// in\n    tag_633:\n        /* \"#utility.yul\":24344:24353   */\n      dup2\n        /* \"#utility.yul\":24338:24342   */\n      dup2\n        /* \"#utility.yul\":24334:24354   */\n      sub\n        /* \"#utility.yul\":24329:24331   */\n      0x20\n        /* \"#utility.yul\":24318:24327   */\n      dup4\n        /* \"#utility.yul\":24314:24332   */\n      add\n        /* \"#utility.yul\":24307:24355   */\n      mstore\n        /* \"#utility.yul\":24372:24542   */\n      tag_634\n        /* \"#utility.yul\":24537:24541   */\n      dup2\n        /* \"#utility.yul\":24528:24534   */\n      dup9\n        /* \"#utility.yul\":24372:24542   */\n      tag_494\n      jump\t// in\n    tag_634:\n        /* \"#utility.yul\":24364:24542   */\n      swap1\n      pop\n        /* \"#utility.yul\":24552:24688   */\n      tag_635\n        /* \"#utility.yul\":24684:24686   */\n      0x40\n        /* \"#utility.yul\":24673:24682   */\n      dup4\n        /* \"#utility.yul\":24669:24687   */\n      add\n        /* \"#utility.yul\":24660:24666   */\n      dup8\n        /* \"#utility.yul\":24552:24688   */\n      tag_601\n      jump\t// in\n    tag_635:\n        /* \"#utility.yul\":24736:24745   */\n      dup2\n        /* \"#utility.yul\":24730:24734   */\n      dup2\n        /* \"#utility.yul\":24726:24746   */\n      sub\n        /* \"#utility.yul\":24720:24723   */\n      0xc0\n        /* \"#utility.yul\":24709:24718   */\n      dup4\n        /* \"#utility.yul\":24705:24724   */\n      add\n        /* \"#utility.yul\":24698:24747   */\n      mstore\n        /* \"#utility.yul\":24764:24886   */\n      tag_636\n        /* \"#utility.yul\":24881:24885   */\n      dup2\n        /* \"#utility.yul\":24872:24878   */\n      dup7\n        /* \"#utility.yul\":24764:24886   */\n      tag_466\n      jump\t// in\n    tag_636:\n        /* \"#utility.yul\":24756:24886   */\n      swap1\n      pop\n        /* \"#utility.yul\":24934:24943   */\n      dup2\n        /* \"#utility.yul\":24928:24932   */\n      dup2\n        /* \"#utility.yul\":24924:24944   */\n      sub\n        /* \"#utility.yul\":24918:24921   */\n      0xe0\n        /* \"#utility.yul\":24907:24916   */\n      dup4\n        /* \"#utility.yul\":24903:24922   */\n      add\n        /* \"#utility.yul\":24896:24945   */\n      mstore\n        /* \"#utility.yul\":24962:25068   */\n      tag_637\n        /* \"#utility.yul\":25063:25067   */\n      dup2\n        /* \"#utility.yul\":25054:25060   */\n      dup6\n        /* \"#utility.yul\":24962:25068   */\n      tag_480\n      jump\t// in\n    tag_637:\n        /* \"#utility.yul\":24954:25068   */\n      swap1\n      pop\n        /* \"#utility.yul\":25078:25151   */\n      tag_638\n        /* \"#utility.yul\":25146:25149   */\n      0x0100\n        /* \"#utility.yul\":25135:25144   */\n      dup4\n        /* \"#utility.yul\":25131:25150   */\n      add\n        /* \"#utility.yul\":25122:25128   */\n      dup5\n        /* \"#utility.yul\":25078:25151   */\n      tag_610\n      jump\t// in\n    tag_638:\n        /* \"#utility.yul\":24168:25158   */\n      swap8\n      swap7\n      pop\n      pop\n      pop\n      pop\n      pop\n      pop\n      pop\n      jump\t// out\n        /* \"#utility.yul\":25164:25477   */\n    tag_313:\n      0x00\n        /* \"#utility.yul\":25315:25317   */\n      0x20\n        /* \"#utility.yul\":25304:25313   */\n      dup3\n        /* \"#utility.yul\":25300:25318   */\n      add\n        /* \"#utility.yul\":25292:25318   */\n      swap1\n      pop\n        /* \"#utility.yul\":25364:25373   */\n      dup2\n        /* \"#utility.yul\":25358:25362   */\n      dup2\n        /* \"#utility.yul\":25354:25374   */\n      sub\n        /* \"#utility.yul\":25350:25351   */\n      0x00\n        /* \"#utility.yul\":25339:25348   */\n      dup4\n        /* \"#utility.yul\":25335:25352   */\n      add\n        /* \"#utility.yul\":25328:25375   */\n      mstore\n        /* \"#utility.yul\":25392:25470   */\n      tag_640\n        /* \"#utility.yul\":25465:25469   */\n      dup2\n        /* \"#utility.yul\":25456:25462   */\n      dup5\n        /* \"#utility.yul\":25392:25470   */\n      tag_566\n      jump\t// in\n    tag_640:\n        /* \"#utility.yul\":25384:25470   */\n      swap1\n      pop\n        /* \"#utility.yul\":25282:25477   */\n      swap3\n      swap2\n      pop\n      pop\n      jump\t// out\n        /* \"#utility.yul\":25483:25902   */\n    tag_243:\n      0x00\n        /* \"#utility.yul\":25687:25689   */\n      0x20\n        /* \"#utility.yul\":25676:25685   */\n      dup3\n        /* \"#utility.yul\":25672:25690   */\n      add\n        /* \"#utility.yul\":25664:25690   */\n      swap1\n      pop\n        /* \"#utility.yul\":25736:25745   */\n      dup2\n        /* \"#utility.yul\":25730:25734   */\n      dup2\n        /* \"#utility.yul\":25726:25746   */\n      sub\n        /* \"#utility.yul\":25722:25723   */\n      0x00\n        /* \"#utility.yul\":25711:25720   */\n      dup4\n        /* \"#utility.yul\":25707:25724   */\n      add\n        /* \"#utility.yul\":25700:25747   */\n      mstore\n        /* \"#utility.yul\":25764:25895   */\n      tag_642\n        /* \"#utility.yul\":25890:25894   */\n      dup2\n        /* \"#utility.yul\":25764:25895   */\n      tag_574\n      jump\t// in\n    tag_642:\n        /* \"#utility.yul\":25756:25895   */\n      swap1\n      pop\n        /* \"#utility.yul\":25654:25902   */\n      swap2\n      swap1\n      pop\n      jump\t// out\n        /* \"#utility.yul\":25908:26327   */\n    tag_229:\n      0x00\n        /* \"#utility.yul\":26112:26114   */\n      0x20\n        /* \"#utility.yul\":26101:26110   */\n      dup3\n        /* \"#utility.yul\":26097:26115   */\n      add\n        /* \"#utility.yul\":26089:26115   */\n      swap1\n      pop\n        /* \"#utility.yul\":26161:26170   */\n      dup2\n        /* \"#utility.yul\":26155:26159   */\n      dup2\n        /* \"#utility.yul\":26151:26171   */\n      sub\n        /* \"#utility.yul\":26147:26148   */\n      0x00\n        /* \"#utility.yul\":26136:26145   */\n      dup4\n        /* \"#utility.yul\":26132:26149   */\n      add\n        /* \"#utility.yul\":26125:26172   */\n      mstore\n        /* \"#utility.yul\":26189:26320   */\n      tag_644\n        /* \"#utility.yul\":26315:26319   */\n      dup2\n        /* \"#utility.yul\":26189:26320   */\n      tag_577\n      jump\t// in\n    tag_644:\n        /* \"#utility.yul\":26181:26320   */\n      swap1\n      pop\n        /* \"#utility.yul\":26079:26327   */\n      swap2\n      swap1\n      pop\n      jump\t// out\n        /* \"#utility.yul\":26333:26752   */\n    tag_215:\n      0x00\n        /* \"#utility.yul\":26537:26539   */\n      0x20\n        /* \"#utility.yul\":26526:26535   */\n      dup3\n        /* \"#utility.yul\":26522:26540   */\n      add\n        /* \"#utility.yul\":26514:26540   */\n      swap1\n      pop\n        /* \"#utility.yul\":26586:26595   */\n      dup2\n        /* \"#utility.yul\":26580:26584   */\n      dup2\n        /* \"#utility.yul\":26576:26596   */\n      sub\n        /* \"#utility.yul\":26572:26573   */\n      0x00\n        /* \"#utility.yul\":26561:26570   */\n      dup4\n        /* \"#utility.yul\":26557:26574   */\n      add\n        /* \"#utility.yul\":26550:26597   */\n      mstore\n        /* \"#utility.yul\":26614:26745   */\n      tag_646\n        /* \"#utility.yul\":26740:26744   */\n      dup2\n        /* \"#utility.yul\":26614:26745   */\n      tag_580\n      jump\t// in\n    tag_646:\n        /* \"#utility.yul\":26606:26745   */\n      swap1\n      pop\n        /* \"#utility.yul\":26504:26752   */\n      swap2\n      swap1\n      pop\n      jump\t// out\n        /* \"#utility.yul\":26758:27177   */\n    tag_159:\n      0x00\n        /* \"#utility.yul\":26962:26964   */\n      0x20\n        /* \"#utility.yul\":26951:26960   */\n      dup3\n        /* \"#utility.yul\":26947:26965   */\n      add\n        /* \"#utility.yul\":26939:26965   */\n      swap1\n      pop\n        /* \"#utility.yul\":27011:27020   */\n      dup2\n        /* \"#utility.yul\":27005:27009   */\n      dup2\n        /* \"#utility.yul\":27001:27021   */\n      sub\n        /* \"#utility.yul\":26997:26998   */\n      0x00\n        /* \"#utility.yul\":26986:26995   */\n      dup4\n        /* \"#utility.yul\":26982:26999   */\n      add\n        /* \"#utility.yul\":26975:27022   */\n      mstore\n        /* \"#utility.yul\":27039:27170   */\n      tag_648\n        /* \"#utility.yul\":27165:27169   */\n      dup2\n        /* \"#utility.yul\":27039:27170   */\n      tag_583\n      jump\t// in\n    tag_648:\n        /* \"#utility.yul\":27031:27170   */\n      swap1\n      pop\n        /* \"#utility.yul\":26929:27177   */\n      swap2\n      swap1\n      pop\n      jump\t// out\n        /* \"#utility.yul\":27183:27602   */\n    tag_309:\n      0x00\n        /* \"#utility.yul\":27387:27389   */\n      0x20\n        /* \"#utility.yul\":27376:27385   */\n      dup3\n        /* \"#utility.yul\":27372:27390   */\n      add\n        /* \"#utility.yul\":27364:27390   */\n      swap1\n      pop\n        /* \"#utility.yul\":27436:27445   */\n      dup2\n        /* \"#utility.yul\":27430:27434   */\n      dup2\n        /* \"#utility.yul\":27426:27446   */\n      sub\n        /* \"#utility.yul\":27422:27423   */\n      0x00\n        /* \"#utility.yul\":27411:27420   */\n      dup4\n        /* \"#utility.yul\":27407:27424   */\n      add\n        /* \"#utility.yul\":27400:27447   */\n      mstore\n        /* \"#utility.yul\":27464:27595   */\n      tag_650\n        /* \"#utility.yul\":27590:27594   */\n      dup2\n        /* \"#utility.yul\":27464:27595   */\n      tag_586\n      jump\t// in\n    tag_650:\n        /* \"#utility.yul\":27456:27595   */\n      swap1\n      pop\n        /* \"#utility.yul\":27354:27602   */\n      swap2\n      swap1\n      pop\n      jump\t// out\n        /* \"#utility.yul\":27608:28027   */\n    tag_163:\n      0x00\n        /* \"#utility.yul\":27812:27814   */\n      0x20\n        /* \"#utility.yul\":27801:27810   */\n      dup3\n        /* \"#utility.yul\":27797:27815   */\n      add\n        /* \"#utility.yul\":27789:27815   */\n      swap1\n      pop\n        /* \"#utility.yul\":27861:27870   */\n      dup2\n        /* \"#utility.yul\":27855:27859   */\n      dup2\n        /* \"#utility.yul\":27851:27871   */\n      sub\n        /* \"#utility.yul\":27847:27848   */\n      0x00\n        /* \"#utility.yul\":27836:27845   */\n      dup4\n        /* \"#utility.yul\":27832:27849   */\n      add\n        /* \"#utility.yul\":27825:27872   */\n      mstore\n        /* \"#utility.yul\":27889:28020   */\n      tag_652\n        /* \"#utility.yul\":28015:28019   */\n      dup2\n        /* \"#utility.yul\":27889:28020   */\n      tag_589\n      jump\t// in\n    tag_652:\n        /* \"#utility.yul\":27881:28020   */\n      swap1\n      pop\n        /* \"#utility.yul\":27779:28027   */\n      swap2\n      swap1\n      pop\n      jump\t// out\n        /* \"#utility.yul\":28033:28452   */\n    tag_95:\n      0x00\n        /* \"#utility.yul\":28237:28239   */\n      0x20\n        /* \"#utility.yul\":28226:28235   */\n      dup3\n        /* \"#utility.yul\":28222:28240   */\n      add\n        /* \"#utility.yul\":28214:28240   */\n      swap1\n      pop\n        /* \"#utility.yul\":28286:28295   */\n      dup2\n        /* \"#utility.yul\":28280:28284   */\n      dup2\n        /* \"#utility.yul\":28276:28296   */\n      sub\n        /* \"#utility.yul\":28272:28273   */\n      0x00\n        /* \"#utility.yul\":28261:28270   */\n      dup4\n        /* \"#utility.yul\":28257:28274   */\n      add\n        /* \"#utility.yul\":28250:28297   */\n      mstore\n        /* \"#utility.yul\":28314:28445   */\n      tag_654\n        /* \"#utility.yul\":28440:28444   */\n      dup2\n        /* \"#utility.yul\":28314:28445   */\n      tag_592\n      jump\t// in\n    tag_654:\n        /* \"#utility.yul\":28306:28445   */\n      swap1\n      pop\n        /* \"#utility.yul\":28204:28452   */\n      swap2\n      swap1\n      pop\n      jump\t// out\n        /* \"#utility.yul\":28458:28680   */\n    tag_54:\n      0x00\n        /* \"#utility.yul\":28589:28591   */\n      0x20\n        /* \"#utility.yul\":28578:28587   */\n      dup3\n        /* \"#utility.yul\":28574:28592   */\n      add\n        /* \"#utility.yul\":28566:28592   */\n      swap1\n      pop\n        /* \"#utility.yul\":28602:28673   */\n      tag_656\n        /* \"#utility.yul\":28670:28671   */\n      0x00\n        /* \"#utility.yul\":28659:28668   */\n      dup4\n        /* \"#utility.yul\":28655:28672   */\n      add\n        /* \"#utility.yul\":28646:28652   */\n      dup5\n        /* \"#utility.yul\":28602:28673   */\n      tag_610\n      jump\t// in\n    tag_656:\n        /* \"#utility.yul\":28556:28680   */\n      swap3\n      swap2\n      pop\n      pop\n      jump\t// out\n        /* \"#utility.yul\":28686:29659   */\n    tag_283:\n      0x00\n        /* \"#utility.yul\":29003:29006   */\n      0xe0\n        /* \"#utility.yul\":28992:29001   */\n      dup3\n        /* \"#utility.yul\":28988:29007   */\n      add\n        /* \"#utility.yul\":28980:29007   */\n      swap1\n      pop\n        /* \"#utility.yul\":29017:29088   */\n      tag_658\n        /* \"#utility.yul\":29085:29086   */\n      0x00\n        /* \"#utility.yul\":29074:29083   */\n      dup4\n        /* \"#utility.yul\":29070:29087   */\n      add\n        /* \"#utility.yul\":29061:29067   */\n      dup11\n        /* \"#utility.yul\":29017:29088   */\n      tag_610\n      jump\t// in\n    tag_658:\n        /* \"#utility.yul\":29098:29170   */\n      tag_659\n        /* \"#utility.yul\":29166:29168   */\n      0x20\n        /* \"#utility.yul\":29155:29164   */\n      dup4\n        /* \"#utility.yul\":29151:29169   */\n      add\n        /* \"#utility.yul\":29142:29148   */\n      dup10\n        /* \"#utility.yul\":29098:29170   */\n      tag_610\n      jump\t// in\n    tag_659:\n        /* \"#utility.yul\":29217:29226   */\n      dup2\n        /* \"#utility.yul\":29211:29215   */\n      dup2\n        /* \"#utility.yul\":29207:29227   */\n      sub\n        /* \"#utility.yul\":29202:29204   */\n      0x40\n        /* \"#utility.yul\":29191:29200   */\n      dup4\n        /* \"#utility.yul\":29187:29205   */\n      add\n        /* \"#utility.yul\":29180:29228   */\n      mstore\n        /* \"#utility.yul\":29245:29321   */\n      tag_660\n        /* \"#utility.yul\":29316:29320   */\n      dup2\n        /* \"#utility.yul\":29307:29313   */\n      dup9\n        /* \"#utility.yul\":29245:29321   */\n      tag_543\n      jump\t// in\n    tag_660:\n        /* \"#utility.yul\":29237:29321   */\n      swap1\n      pop\n        /* \"#utility.yul\":29331:29403   */\n      tag_661\n        /* \"#utility.yul\":29399:29401   */\n      0x60\n        /* \"#utility.yul\":29388:29397   */\n      dup4\n        /* \"#utility.yul\":29384:29402   */\n      add\n        /* \"#utility.yul\":29375:29381   */\n      dup8\n        /* \"#utility.yul\":29331:29403   */\n      tag_463\n      jump\t// in\n    tag_661:\n        /* \"#utility.yul\":29413:29486   */\n      tag_662\n        /* \"#utility.yul\":29481:29484   */\n      0x80\n        /* \"#utility.yul\":29470:29479   */\n      dup4\n        /* \"#utility.yul\":29466:29485   */\n      add\n        /* \"#utility.yul\":29457:29463   */\n      dup7\n        /* \"#utility.yul\":29413:29486   */\n      tag_610\n      jump\t// in\n    tag_662:\n        /* \"#utility.yul\":29496:29569   */\n      tag_663\n        /* \"#utility.yul\":29564:29567   */\n      0xa0\n        /* \"#utility.yul\":29553:29562   */\n      dup4\n        /* \"#utility.yul\":29549:29568   */\n      add\n        /* \"#utility.yul\":29540:29546   */\n      dup6\n        /* \"#utility.yul\":29496:29569   */\n      tag_463\n      jump\t// in\n    tag_663:\n        /* \"#utility.yul\":29579:29652   */\n      tag_664\n        /* \"#utility.yul\":29647:29650   */\n      0xc0\n        /* \"#utility.yul\":29636:29645   */\n      dup4\n        /* \"#utility.yul\":29632:29651   */\n      add\n        /* \"#utility.yul\":29623:29629   */\n      dup5\n        /* \"#utility.yul\":29579:29652   */\n      tag_463\n      jump\t// in\n    tag_664:\n        /* \"#utility.yul\":28970:29659   */\n      swap9\n      swap8\n      pop\n      pop\n      pop\n      pop\n      pop\n      pop\n      pop\n      pop\n      jump\t// out\n        /* \"#utility.yul\":29665:30215   */\n    tag_146:\n      0x00\n      dup1\n        /* \"#utility.yul\":29831:29842   */\n      dup4\n        /* \"#utility.yul\":29818:29843   */\n      calldataload\n        /* \"#utility.yul\":29931:29932   */\n      0x01\n        /* \"#utility.yul\":29925:29929   */\n      0x20\n        /* \"#utility.yul\":29921:29933   */\n      sub\n        /* \"#utility.yul\":29910:29918   */\n      dup5\n        /* \"#utility.yul\":29894:29908   */\n      calldatasize\n        /* \"#utility.yul\":29890:29919   */\n      sub\n        /* \"#utility.yul\":29886:29934   */\n      sub\n        /* \"#utility.yul\":29866:29884   */\n      dup2\n        /* \"#utility.yul\":29862:29935   */\n      slt\n        /* \"#utility.yul\":29852:29854   */\n      tag_666\n      jumpi\n        /* \"#utility.yul\":29949:29950   */\n      0x00\n        /* \"#utility.yul\":29946:29947   */\n      dup1\n        /* \"#utility.yul\":29939:29951   */\n      revert\n        /* \"#utility.yul\":29852:29854   */\n    tag_666:\n        /* \"#utility.yul\":29984:30002   */\n      dup1\n        /* \"#utility.yul\":29974:29982   */\n      dup5\n        /* \"#utility.yul\":29970:30003   */\n      add\n        /* \"#utility.yul\":29962:30003   */\n      swap3\n      pop\n        /* \"#utility.yul\":30036:30040   */\n      dup3\n        /* \"#utility.yul\":30023:30041   */\n      calldataload\n        /* \"#utility.yul\":30013:30041   */\n      swap2\n      pop\n        /* \"#utility.yul\":30064:30082   */\n      0xffffffffffffffff\n        /* \"#utility.yul\":30056:30062   */\n      dup3\n        /* \"#utility.yul\":30053:30083   */\n      gt\n        /* \"#utility.yul\":30050:30052   */\n      iszero\n      tag_667\n      jumpi\n        /* \"#utility.yul\":30096:30097   */\n      0x00\n        /* \"#utility.yul\":30093:30094   */\n      dup1\n        /* \"#utility.yul\":30086:30098   */\n      revert\n        /* \"#utility.yul\":30050:30052   */\n    tag_667:\n        /* \"#utility.yul\":30127:30129   */\n      0x20\n        /* \"#utility.yul\":30121:30125   */\n      dup4\n        /* \"#utility.yul\":30117:30130   */\n      add\n        /* \"#utility.yul\":30109:30130   */\n      swap3\n      pop\n        /* \"#utility.yul\":30184:30188   */\n      0x20\n        /* \"#utility.yul\":30176:30182   */\n      dup3\n        /* \"#utility.yul\":30172:30189   */\n      mul\n        /* \"#utility.yul\":30156:30170   */\n      calldatasize\n        /* \"#utility.yul\":30152:30190   */\n      sub\n        /* \"#utility.yul\":30146:30150   */\n      dup4\n        /* \"#utility.yul\":30142:30191   */\n      sgt\n        /* \"#utility.yul\":30139:30141   */\n      iszero\n      tag_668\n      jumpi\n        /* \"#utility.yul\":30204:30205   */\n      0x00\n        /* \"#utility.yul\":30201:30202   */\n      dup1\n        /* \"#utility.yul\":30194:30206   */\n      revert\n        /* \"#utility.yul\":30139:30141   */\n    tag_668:\n        /* \"#utility.yul\":29782:30215   */\n      pop\n      swap3\n      pop\n      swap3\n      swap1\n      pop\n      jump\t// out\n        /* \"#utility.yul\":30221:30774   */\n    tag_136:\n      0x00\n      dup1\n        /* \"#utility.yul\":30390:30401   */\n      dup4\n        /* \"#utility.yul\":30377:30402   */\n      calldataload\n        /* \"#utility.yul\":30490:30491   */\n      0x01\n        /* \"#utility.yul\":30484:30488   */\n      0x20\n        /* \"#utility.yul\":30480:30492   */\n      sub\n        /* \"#utility.yul\":30469:30477   */\n      dup5\n        /* \"#utility.yul\":30453:30467   */\n      calldatasize\n        /* \"#utility.yul\":30449:30478   */\n      sub\n        /* \"#utility.yul\":30445:30493   */\n      sub\n        /* \"#utility.yul\":30425:30443   */\n      dup2\n        /* \"#utility.yul\":30421:30494   */\n      slt\n        /* \"#utility.yul\":30411:30413   */\n      tag_670\n      jumpi\n        /* \"#utility.yul\":30508:30509   */\n      0x00\n        /* \"#utility.yul\":30505:30506   */\n      dup1\n        /* \"#utility.yul\":30498:30510   */\n      revert\n        /* \"#utility.yul\":30411:30413   */\n    tag_670:\n        /* \"#utility.yul\":30543:30561   */\n      dup1\n        /* \"#utility.yul\":30533:30541   */\n      dup5\n        /* \"#utility.yul\":30529:30562   */\n      add\n        /* \"#utility.yul\":30521:30562   */\n      swap3\n      pop\n        /* \"#utility.yul\":30595:30599   */\n      dup3\n        /* \"#utility.yul\":30582:30600   */\n      calldataload\n        /* \"#utility.yul\":30572:30600   */\n      swap2\n      pop\n        /* \"#utility.yul\":30623:30641   */\n      0xffffffffffffffff\n        /* \"#utility.yul\":30615:30621   */\n      dup3\n        /* \"#utility.yul\":30612:30642   */\n      gt\n        /* \"#utility.yul\":30609:30611   */\n      iszero\n      tag_671\n      jumpi\n        /* \"#utility.yul\":30655:30656   */\n      0x00\n        /* \"#utility.yul\":30652:30653   */\n      dup1\n        /* \"#utility.yul\":30645:30657   */\n      revert\n        /* \"#utility.yul\":30609:30611   */\n    tag_671:\n        /* \"#utility.yul\":30686:30688   */\n      0x20\n        /* \"#utility.yul\":30680:30684   */\n      dup4\n        /* \"#utility.yul\":30676:30689   */\n      add\n        /* \"#utility.yul\":30668:30689   */\n      swap3\n      pop\n        /* \"#utility.yul\":30743:30747   */\n      0x20\n        /* \"#utility.yul\":30735:30741   */\n      dup3\n        /* \"#utility.yul\":30731:30748   */\n      mul\n        /* \"#utility.yul\":30715:30729   */\n      calldatasize\n        /* \"#utility.yul\":30711:30749   */\n      sub\n        /* \"#utility.yul\":30705:30709   */\n      dup4\n        /* \"#utility.yul\":30701:30750   */\n      sgt\n        /* \"#utility.yul\":30698:30700   */\n      iszero\n      tag_672\n      jumpi\n        /* \"#utility.yul\":30763:30764   */\n      0x00\n        /* \"#utility.yul\":30760:30761   */\n      dup1\n        /* \"#utility.yul\":30753:30765   */\n      revert\n        /* \"#utility.yul\":30698:30700   */\n    tag_672:\n        /* \"#utility.yul\":30341:30774   */\n      pop\n      swap3\n      pop\n      swap3\n      swap1\n      pop\n      jump\t// out\n        /* \"#utility.yul\":30780:31318   */\n    tag_123:\n      0x00\n      dup1\n        /* \"#utility.yul\":30934:30945   */\n      dup4\n        /* \"#utility.yul\":30921:30946   */\n      calldataload\n        /* \"#utility.yul\":31034:31035   */\n      0x01\n        /* \"#utility.yul\":31028:31032   */\n      0x20\n        /* \"#utility.yul\":31024:31036   */\n      sub\n        /* \"#utility.yul\":31013:31021   */\n      dup5\n        /* \"#utility.yul\":30997:31011   */\n      calldatasize\n        /* \"#utility.yul\":30993:31022   */\n      sub\n        /* \"#utility.yul\":30989:31037   */\n      sub\n        /* \"#utility.yul\":30969:30987   */\n      dup2\n        /* \"#utility.yul\":30965:31038   */\n      slt\n        /* \"#utility.yul\":30955:30957   */\n      tag_674\n      jumpi\n        /* \"#utility.yul\":31052:31053   */\n      0x00\n        /* \"#utility.yul\":31049:31050   */\n      dup1\n        /* \"#utility.yul\":31042:31054   */\n      revert\n        /* \"#utility.yul\":30955:30957   */\n    tag_674:\n        /* \"#utility.yul\":31087:31105   */\n      dup1\n        /* \"#utility.yul\":31077:31085   */\n      dup5\n        /* \"#utility.yul\":31073:31106   */\n      add\n        /* \"#utility.yul\":31065:31106   */\n      swap3\n      pop\n        /* \"#utility.yul\":31139:31143   */\n      dup3\n        /* \"#utility.yul\":31126:31144   */\n      calldataload\n        /* \"#utility.yul\":31116:31144   */\n      swap2\n      pop\n        /* \"#utility.yul\":31167:31185   */\n      0xffffffffffffffff\n        /* \"#utility.yul\":31159:31165   */\n      dup3\n        /* \"#utility.yul\":31156:31186   */\n      gt\n        /* \"#utility.yul\":31153:31155   */\n      iszero\n      tag_675\n      jumpi\n        /* \"#utility.yul\":31199:31200   */\n      0x00\n        /* \"#utility.yul\":31196:31197   */\n      dup1\n        /* \"#utility.yul\":31189:31201   */\n      revert\n        /* \"#utility.yul\":31153:31155   */\n    tag_675:\n        /* \"#utility.yul\":31230:31232   */\n      0x20\n        /* \"#utility.yul\":31224:31228   */\n      dup4\n        /* \"#utility.yul\":31220:31233   */\n      add\n        /* \"#utility.yul\":31212:31233   */\n      swap3\n      pop\n        /* \"#utility.yul\":31287:31291   */\n      0x20\n        /* \"#utility.yul\":31279:31285   */\n      dup3\n        /* \"#utility.yul\":31275:31292   */\n      mul\n        /* \"#utility.yul\":31259:31273   */\n      calldatasize\n        /* \"#utility.yul\":31255:31293   */\n      sub\n        /* \"#utility.yul\":31249:31253   */\n      dup4\n        /* \"#utility.yul\":31245:31294   */\n      sgt\n        /* \"#utility.yul\":31242:31244   */\n      iszero\n      tag_676\n      jumpi\n        /* \"#utility.yul\":31307:31308   */\n      0x00\n        /* \"#utility.yul\":31304:31305   */\n      dup1\n        /* \"#utility.yul\":31297:31309   */\n      revert\n        /* \"#utility.yul\":31242:31244   */\n    tag_676:\n        /* \"#utility.yul\":30885:31318   */\n      pop\n      swap3\n      pop\n      swap3\n      swap1\n      pop\n      jump\t// out\n        /* \"#utility.yul\":31324:31896   */\n    tag_130:\n      0x00\n      dup1\n        /* \"#utility.yul\":31512:31523   */\n      dup4\n        /* \"#utility.yul\":31499:31524   */\n      calldataload\n        /* \"#utility.yul\":31612:31613   */\n      0x01\n        /* \"#utility.yul\":31606:31610   */\n      0x20\n        /* \"#utility.yul\":31602:31614   */\n      sub\n        /* \"#utility.yul\":31591:31599   */\n      dup5\n        /* \"#utility.yul\":31575:31589   */\n      calldatasize\n        /* \"#utility.yul\":31571:31600   */\n      sub\n        /* \"#utility.yul\":31567:31615   */\n      sub\n        /* \"#utility.yul\":31547:31565   */\n      dup2\n        /* \"#utility.yul\":31543:31616   */\n      slt\n        /* \"#utility.yul\":31533:31535   */\n      tag_678\n      jumpi\n        /* \"#utility.yul\":31630:31631   */\n      0x00\n        /* \"#utility.yul\":31627:31628   */\n      dup1\n        /* \"#utility.yul\":31620:31632   */\n      revert\n        /* \"#utility.yul\":31533:31535   */\n    tag_678:\n        /* \"#utility.yul\":31665:31683   */\n      dup1\n        /* \"#utility.yul\":31655:31663   */\n      dup5\n        /* \"#utility.yul\":31651:31684   */\n      add\n        /* \"#utility.yul\":31643:31684   */\n      swap3\n      pop\n        /* \"#utility.yul\":31717:31721   */\n      dup3\n        /* \"#utility.yul\":31704:31722   */\n      calldataload\n        /* \"#utility.yul\":31694:31722   */\n      swap2\n      pop\n        /* \"#utility.yul\":31745:31763   */\n      0xffffffffffffffff\n        /* \"#utility.yul\":31737:31743   */\n      dup3\n        /* \"#utility.yul\":31734:31764   */\n      gt\n        /* \"#utility.yul\":31731:31733   */\n      iszero\n      tag_679\n      jumpi\n        /* \"#utility.yul\":31777:31778   */\n      0x00\n        /* \"#utility.yul\":31774:31775   */\n      dup1\n        /* \"#utility.yul\":31767:31779   */\n      revert\n        /* \"#utility.yul\":31731:31733   */\n    tag_679:\n        /* \"#utility.yul\":31808:31810   */\n      0x20\n        /* \"#utility.yul\":31802:31806   */\n      dup4\n        /* \"#utility.yul\":31798:31811   */\n      add\n        /* \"#utility.yul\":31790:31811   */\n      swap3\n      pop\n        /* \"#utility.yul\":31865:31869   */\n      0x20\n        /* \"#utility.yul\":31857:31863   */\n      dup3\n        /* \"#utility.yul\":31853:31870   */\n      mul\n        /* \"#utility.yul\":31837:31851   */\n      calldatasize\n        /* \"#utility.yul\":31833:31871   */\n      sub\n        /* \"#utility.yul\":31827:31831   */\n      dup4\n        /* \"#utility.yul\":31823:31872   */\n      sgt\n        /* \"#utility.yul\":31820:31822   */\n      iszero\n      tag_680\n      jumpi\n        /* \"#utility.yul\":31885:31886   */\n      0x00\n        /* \"#utility.yul\":31882:31883   */\n      dup1\n        /* \"#utility.yul\":31875:31887   */\n      revert\n        /* \"#utility.yul\":31820:31822   */\n    tag_680:\n        /* \"#utility.yul\":31463:31896   */\n      pop\n      swap3\n      pop\n      swap3\n      swap1\n      pop\n      jump\t// out\n        /* \"#utility.yul\":31902:32441   */\n    tag_84:\n      0x00\n      dup1\n        /* \"#utility.yul\":32057:32068   */\n      dup4\n        /* \"#utility.yul\":32044:32069   */\n      calldataload\n        /* \"#utility.yul\":32157:32158   */\n      0x01\n        /* \"#utility.yul\":32151:32155   */\n      0x20\n        /* \"#utility.yul\":32147:32159   */\n      sub\n        /* \"#utility.yul\":32136:32144   */\n      dup5\n        /* \"#utility.yul\":32120:32134   */\n      calldatasize\n        /* \"#utility.yul\":32116:32145   */\n      sub\n        /* \"#utility.yul\":32112:32160   */\n      sub\n        /* \"#utility.yul\":32092:32110   */\n      dup2\n        /* \"#utility.yul\":32088:32161   */\n      slt\n        /* \"#utility.yul\":32078:32080   */\n      tag_682\n      jumpi\n        /* \"#utility.yul\":32175:32176   */\n      0x00\n        /* \"#utility.yul\":32172:32173   */\n      dup1\n        /* \"#utility.yul\":32165:32177   */\n      revert\n        /* \"#utility.yul\":32078:32080   */\n    tag_682:\n        /* \"#utility.yul\":32210:32228   */\n      dup1\n        /* \"#utility.yul\":32200:32208   */\n      dup5\n        /* \"#utility.yul\":32196:32229   */\n      add\n        /* \"#utility.yul\":32188:32229   */\n      swap3\n      pop\n        /* \"#utility.yul\":32262:32266   */\n      dup3\n        /* \"#utility.yul\":32249:32267   */\n      calldataload\n        /* \"#utility.yul\":32239:32267   */\n      swap2\n      pop\n        /* \"#utility.yul\":32290:32308   */\n      0xffffffffffffffff\n        /* \"#utility.yul\":32282:32288   */\n      dup3\n        /* \"#utility.yul\":32279:32309   */\n      gt\n        /* \"#utility.yul\":32276:32278   */\n      iszero\n      tag_683\n      jumpi\n        /* \"#utility.yul\":32322:32323   */\n      0x00\n        /* \"#utility.yul\":32319:32320   */\n      dup1\n        /* \"#utility.yul\":32312:32324   */\n      revert\n        /* \"#utility.yul\":32276:32278   */\n    tag_683:\n        /* \"#utility.yul\":32353:32355   */\n      0x20\n        /* \"#utility.yul\":32347:32351   */\n      dup4\n        /* \"#utility.yul\":32343:32356   */\n      add\n        /* \"#utility.yul\":32335:32356   */\n      swap3\n      pop\n        /* \"#utility.yul\":32410:32414   */\n      0x20\n        /* \"#utility.yul\":32402:32408   */\n      dup3\n        /* \"#utility.yul\":32398:32415   */\n      mul\n        /* \"#utility.yul\":32382:32396   */\n      calldatasize\n        /* \"#utility.yul\":32378:32416   */\n      sub\n        /* \"#utility.yul\":32372:32376   */\n      dup4\n        /* \"#utility.yul\":32368:32417   */\n      sgt\n        /* \"#utility.yul\":32365:32367   */\n      iszero\n      tag_684\n      jumpi\n        /* \"#utility.yul\":32430:32431   */\n      0x00\n        /* \"#utility.yul\":32427:32428   */\n      dup1\n        /* \"#utility.yul\":32420:32432   */\n      revert\n        /* \"#utility.yul\":32365:32367   */\n    tag_684:\n        /* \"#utility.yul\":32008:32441   */\n      pop\n      swap3\n      pop\n      swap3\n      swap1\n      pop\n      jump\t// out\n        /* \"#utility.yul\":32447:32970   */\n    tag_149:\n      0x00\n      dup1\n        /* \"#utility.yul\":32586:32597   */\n      dup4\n        /* \"#utility.yul\":32573:32598   */\n      calldataload\n        /* \"#utility.yul\":32686:32687   */\n      0x01\n        /* \"#utility.yul\":32680:32684   */\n      0x20\n        /* \"#utility.yul\":32676:32688   */\n      sub\n        /* \"#utility.yul\":32665:32673   */\n      dup5\n        /* \"#utility.yul\":32649:32663   */\n      calldatasize\n        /* \"#utility.yul\":32645:32674   */\n      sub\n        /* \"#utility.yul\":32641:32689   */\n      sub\n        /* \"#utility.yul\":32621:32639   */\n      dup2\n        /* \"#utility.yul\":32617:32690   */\n      slt\n        /* \"#utility.yul\":32607:32609   */\n      tag_686\n      jumpi\n        /* \"#utility.yul\":32704:32705   */\n      0x00\n        /* \"#utility.yul\":32701:32702   */\n      dup1\n        /* \"#utility.yul\":32694:32706   */\n      revert\n        /* \"#utility.yul\":32607:32609   */\n    tag_686:\n        /* \"#utility.yul\":32739:32757   */\n      dup1\n        /* \"#utility.yul\":32729:32737   */\n      dup5\n        /* \"#utility.yul\":32725:32758   */\n      add\n        /* \"#utility.yul\":32717:32758   */\n      swap3\n      pop\n        /* \"#utility.yul\":32791:32795   */\n      dup3\n        /* \"#utility.yul\":32778:32796   */\n      calldataload\n        /* \"#utility.yul\":32768:32796   */\n      swap2\n      pop\n        /* \"#utility.yul\":32819:32837   */\n      0xffffffffffffffff\n        /* \"#utility.yul\":32811:32817   */\n      dup3\n        /* \"#utility.yul\":32808:32838   */\n      gt\n        /* \"#utility.yul\":32805:32807   */\n      iszero\n      tag_687\n      jumpi\n        /* \"#utility.yul\":32851:32852   */\n      0x00\n        /* \"#utility.yul\":32848:32849   */\n      dup1\n        /* \"#utility.yul\":32841:32853   */\n      revert\n        /* \"#utility.yul\":32805:32807   */\n    tag_687:\n        /* \"#utility.yul\":32882:32884   */\n      0x20\n        /* \"#utility.yul\":32876:32880   */\n      dup4\n        /* \"#utility.yul\":32872:32885   */\n      add\n        /* \"#utility.yul\":32864:32885   */\n      swap3\n      pop\n        /* \"#utility.yul\":32939:32943   */\n      0x01\n        /* \"#utility.yul\":32931:32937   */\n      dup3\n        /* \"#utility.yul\":32927:32944   */\n      mul\n        /* \"#utility.yul\":32911:32925   */\n      calldatasize\n        /* \"#utility.yul\":32907:32945   */\n      sub\n        /* \"#utility.yul\":32901:32905   */\n      dup4\n        /* \"#utility.yul\":32897:32946   */\n      sgt\n        /* \"#utility.yul\":32894:32896   */\n      iszero\n      tag_688\n      jumpi\n        /* \"#utility.yul\":32959:32960   */\n      0x00\n        /* \"#utility.yul\":32956:32957   */\n      dup1\n        /* \"#utility.yul\":32949:32961   */\n      revert\n        /* \"#utility.yul\":32894:32896   */\n    tag_688:\n        /* \"#utility.yul\":32537:32970   */\n      pop\n      swap3\n      pop\n      swap3\n      swap1\n      pop\n      jump\t// out\n        /* \"#utility.yul\":32976:33259   */\n    tag_321:\n      0x00\n        /* \"#utility.yul\":33042:33044   */\n      0x40\n        /* \"#utility.yul\":33036:33045   */\n      mload\n        /* \"#utility.yul\":33026:33045   */\n      swap1\n      pop\n        /* \"#utility.yul\":33084:33088   */\n      dup2\n        /* \"#utility.yul\":33076:33082   */\n      dup2\n        /* \"#utility.yul\":33072:33089   */\n      add\n        /* \"#utility.yul\":33191:33197   */\n      dup2\n        /* \"#utility.yul\":33179:33189   */\n      dup2\n        /* \"#utility.yul\":33176:33198   */\n      lt\n        /* \"#utility.yul\":33155:33173   */\n      0xffffffffffffffff\n        /* \"#utility.yul\":33143:33153   */\n      dup3\n        /* \"#utility.yul\":33140:33174   */\n      gt\n        /* \"#utility.yul\":33137:33199   */\n      or\n        /* \"#utility.yul\":33134:33136   */\n      iszero\n      tag_690\n      jumpi\n        /* \"#utility.yul\":33202:33220   */\n      tag_691\n      tag_692\n      jump\t// in\n    tag_691:\n        /* \"#utility.yul\":33134:33136   */\n    tag_690:\n        /* \"#utility.yul\":33242:33252   */\n      dup1\n        /* \"#utility.yul\":33238:33240   */\n      0x40\n        /* \"#utility.yul\":33231:33253   */\n      mstore\n        /* \"#utility.yul\":33016:33259   */\n      pop\n      swap2\n      swap1\n      pop\n      jump\t// out\n        /* \"#utility.yul\":33265:33607   */\n    tag_320:\n      0x00\n        /* \"#utility.yul\":33463:33481   */\n      0xffffffffffffffff\n        /* \"#utility.yul\":33455:33461   */\n      dup3\n        /* \"#utility.yul\":33452:33482   */\n      gt\n        /* \"#utility.yul\":33449:33451   */\n      iszero\n      tag_694\n      jumpi\n        /* \"#utility.yul\":33485:33503   */\n      tag_695\n      tag_692\n      jump\t// in\n    tag_695:\n        /* \"#utility.yul\":33449:33451   */\n    tag_694:\n        /* \"#utility.yul\":33535:33539   */\n      0x20\n        /* \"#utility.yul\":33527:33533   */\n      dup3\n        /* \"#utility.yul\":33523:33540   */\n      mul\n        /* \"#utility.yul\":33515:33540   */\n      swap1\n      pop\n        /* \"#utility.yul\":33595:33599   */\n      0x20\n        /* \"#utility.yul\":33589:33593   */\n      dup2\n        /* \"#utility.yul\":33585:33600   */\n      add\n        /* \"#utility.yul\":33577:33600   */\n      swap1\n      pop\n        /* \"#utility.yul\":33378:33607   */\n      swap2\n      swap1\n      pop\n      jump\t// out\n        /* \"#utility.yul\":33613:33924   */\n    tag_331:\n      0x00\n        /* \"#utility.yul\":33780:33798   */\n      0xffffffffffffffff\n        /* \"#utility.yul\":33772:33778   */\n      dup3\n        /* \"#utility.yul\":33769:33799   */\n      gt\n        /* \"#utility.yul\":33766:33768   */\n      iszero\n      tag_697\n      jumpi\n        /* \"#utility.yul\":33802:33820   */\n      tag_698\n      tag_692\n      jump\t// in\n    tag_698:\n        /* \"#utility.yul\":33766:33768   */\n    tag_697:\n        /* \"#utility.yul\":33852:33856   */\n      0x20\n        /* \"#utility.yul\":33844:33850   */\n      dup3\n        /* \"#utility.yul\":33840:33857   */\n      mul\n        /* \"#utility.yul\":33832:33857   */\n      swap1\n      pop\n        /* \"#utility.yul\":33912:33916   */\n      0x20\n        /* \"#utility.yul\":33906:33910   */\n      dup2\n        /* \"#utility.yul\":33902:33917   */\n      add\n        /* \"#utility.yul\":33894:33917   */\n      swap1\n      pop\n        /* \"#utility.yul\":33695:33924   */\n      swap2\n      swap1\n      pop\n      jump\t// out\n        /* \"#utility.yul\":33930:34261   */\n    tag_342:\n      0x00\n        /* \"#utility.yul\":34081:34099   */\n      0xffffffffffffffff\n        /* \"#utility.yul\":34073:34079   */\n      dup3\n        /* \"#utility.yul\":34070:34100   */\n      gt\n        /* \"#utility.yul\":34067:34069   */\n      iszero\n      tag_700\n      jumpi\n        /* \"#utility.yul\":34103:34121   */\n      tag_701\n      tag_692\n      jump\t// in\n    tag_701:\n        /* \"#utility.yul\":34067:34069   */\n    tag_700:\n        /* \"#utility.yul\":34188:34192   */\n      0x1f\n        /* \"#utility.yul\":34184:34193   */\n      not\n        /* \"#utility.yul\":34177:34181   */\n      0x1f\n        /* \"#utility.yul\":34169:34175   */\n      dup4\n        /* \"#utility.yul\":34165:34182   */\n      add\n        /* \"#utility.yul\":34161:34194   */\n      and\n        /* \"#utility.yul\":34153:34194   */\n      swap1\n      pop\n        /* \"#utility.yul\":34249:34253   */\n      0x20\n        /* \"#utility.yul\":34243:34247   */\n      dup2\n        /* \"#utility.yul\":34239:34254   */\n      add\n        /* \"#utility.yul\":34231:34254   */\n      swap1\n      pop\n        /* \"#utility.yul\":33996:34261   */\n      swap2\n      swap1\n      pop\n      jump\t// out\n        /* \"#utility.yul\":34267:34413   */\n    tag_473:\n      0x00\n        /* \"#utility.yul\":34371:34374   */\n      dup2\n        /* \"#utility.yul\":34363:34374   */\n      swap1\n      pop\n        /* \"#utility.yul\":34401:34405   */\n      0x20\n        /* \"#utility.yul\":34396:34399   */\n      dup3\n        /* \"#utility.yul\":34392:34406   */\n      add\n        /* \"#utility.yul\":34384:34406   */\n      swap1\n      pop\n        /* \"#utility.yul\":34353:34413   */\n      swap2\n      swap1\n      pop\n      jump\t// out\n        /* \"#utility.yul\":34419:34550   */\n    tag_487:\n      0x00\n        /* \"#utility.yul\":34508:34511   */\n      dup2\n        /* \"#utility.yul\":34500:34511   */\n      swap1\n      pop\n        /* \"#utility.yul\":34538:34542   */\n      0x20\n        /* \"#utility.yul\":34533:34536   */\n      dup3\n        /* \"#utility.yul\":34529:34543   */\n      add\n        /* \"#utility.yul\":34521:34543   */\n      swap1\n      pop\n        /* \"#utility.yul\":34490:34550   */\n      swap2\n      swap1\n      pop\n      jump\t// out\n        /* \"#utility.yul\":34556:34719   */\n    tag_501:\n      0x00\n        /* \"#utility.yul\":34677:34680   */\n      dup2\n        /* \"#utility.yul\":34669:34680   */\n      swap1\n      pop\n        /* \"#utility.yul\":34707:34711   */\n      0x20\n        /* \"#utility.yul\":34702:34705   */\n      dup3\n        /* \"#utility.yul\":34698:34712   */\n      add\n        /* \"#utility.yul\":34690:34712   */\n      swap1\n      pop\n        /* \"#utility.yul\":34659:34719   */\n      swap2\n      swap1\n      pop\n      jump\t// out\n        /* \"#utility.yul\":34725:34857   */\n    tag_515:\n      0x00\n        /* \"#utility.yul\":34815:34818   */\n      dup2\n        /* \"#utility.yul\":34807:34818   */\n      swap1\n      pop\n        /* \"#utility.yul\":34845:34849   */\n      0x20\n        /* \"#utility.yul\":34840:34843   */\n      dup3\n        /* \"#utility.yul\":34836:34850   */\n      add\n        /* \"#utility.yul\":34828:34850   */\n      swap1\n      pop\n        /* \"#utility.yul\":34797:34857   */\n      swap2\n      swap1\n      pop\n      jump\t// out\n        /* \"#utility.yul\":34863:34991   */\n    tag_469:\n      0x00\n        /* \"#utility.yul\":34978:34983   */\n      dup2\n        /* \"#utility.yul\":34972:34984   */\n      mload\n        /* \"#utility.yul\":34962:34984   */\n      swap1\n      pop\n        /* \"#utility.yul\":34951:34991   */\n      swap2\n      swap1\n      pop\n      jump\t// out\n        /* \"#utility.yul\":34997:35110   */\n    tag_483:\n      0x00\n        /* \"#utility.yul\":35097:35102   */\n      dup2\n        /* \"#utility.yul\":35091:35103   */\n      mload\n        /* \"#utility.yul\":35081:35103   */\n      swap1\n      pop\n        /* \"#utility.yul\":35070:35110   */\n      swap2\n      swap1\n      pop\n      jump\t// out\n        /* \"#utility.yul\":35116:35261   */\n    tag_497:\n      0x00\n        /* \"#utility.yul\":35248:35253   */\n      dup2\n        /* \"#utility.yul\":35242:35254   */\n      mload\n        /* \"#utility.yul\":35232:35254   */\n      swap1\n      pop\n        /* \"#utility.yul\":35221:35261   */\n      swap2\n      swap1\n      pop\n      jump\t// out\n        /* \"#utility.yul\":35267:35381   */\n    tag_511:\n      0x00\n        /* \"#utility.yul\":35368:35373   */\n      dup2\n        /* \"#utility.yul\":35362:35374   */\n      mload\n        /* \"#utility.yul\":35352:35374   */\n      swap1\n      pop\n        /* \"#utility.yul\":35341:35381   */\n      swap2\n      swap1\n      pop\n      jump\t// out\n        /* \"#utility.yul\":35387:35485   */\n    tag_536:\n      0x00\n        /* \"#utility.yul\":35472:35477   */\n      dup2\n        /* \"#utility.yul\":35466:35478   */\n      mload\n        /* \"#utility.yul\":35456:35478   */\n      swap1\n      pop\n        /* \"#utility.yul\":35445:35485   */\n      swap2\n      swap1\n      pop\n      jump\t// out\n        /* \"#utility.yul\":35491:35590   */\n    tag_569:\n      0x00\n        /* \"#utility.yul\":35577:35582   */\n      dup2\n        /* \"#utility.yul\":35571:35583   */\n      mload\n        /* \"#utility.yul\":35561:35583   */\n      swap1\n      pop\n        /* \"#utility.yul\":35550:35590   */\n      swap2\n      swap1\n      pop\n      jump\t// out\n        /* \"#utility.yul\":35596:35723   */\n    tag_479:\n      0x00\n        /* \"#utility.yul\":35712:35716   */\n      0x20\n        /* \"#utility.yul\":35707:35710   */\n      dup3\n        /* \"#utility.yul\":35703:35717   */\n      add\n        /* \"#utility.yul\":35695:35717   */\n      swap1\n      pop\n        /* \"#utility.yul\":35685:35723   */\n      swap2\n      swap1\n      pop\n      jump\t// out\n        /* \"#utility.yul\":35729:35841   */\n    tag_493:\n      0x00\n        /* \"#utility.yul\":35830:35834   */\n      0x20\n        /* \"#utility.yul\":35825:35828   */\n      dup3\n        /* \"#utility.yul\":35821:35835   */\n      add\n        /* \"#utility.yul\":35813:35835   */\n      swap1\n      pop\n        /* \"#utility.yul\":35803:35841   */\n      swap2\n      swap1\n      pop\n      jump\t// out\n        /* \"#utility.yul\":35847:35991   */\n    tag_507:\n      0x00\n        /* \"#utility.yul\":35980:35984   */\n      0x20\n        /* \"#utility.yul\":35975:35978   */\n      dup3\n        /* \"#utility.yul\":35971:35985   */\n      add\n        /* \"#utility.yul\":35963:35985   */\n      swap1\n      pop\n        /* \"#utility.yul\":35953:35991   */\n      swap2\n      swap1\n      pop\n      jump\t// out\n        /* \"#utility.yul\":35997:36110   */\n    tag_521:\n      0x00\n        /* \"#utility.yul\":36099:36103   */\n      0x20\n        /* \"#utility.yul\":36094:36097   */\n      dup3\n        /* \"#utility.yul\":36090:36104   */\n      add\n        /* \"#utility.yul\":36082:36104   */\n      swap1\n      pop\n        /* \"#utility.yul\":36072:36110   */\n      swap2\n      swap1\n      pop\n      jump\t// out\n        /* \"#utility.yul\":36116:36300   */\n    tag_471:\n      0x00\n        /* \"#utility.yul\":36249:36255   */\n      dup3\n        /* \"#utility.yul\":36244:36247   */\n      dup3\n        /* \"#utility.yul\":36237:36256   */\n      mstore\n        /* \"#utility.yul\":36289:36293   */\n      0x20\n        /* \"#utility.yul\":36284:36287   */\n      dup3\n        /* \"#utility.yul\":36280:36294   */\n      add\n        /* \"#utility.yul\":36265:36294   */\n      swap1\n      pop\n        /* \"#utility.yul\":36227:36300   */\n      swap3\n      swap2\n      pop\n      pop\n      jump\t// out\n        /* \"#utility.yul\":36306:36489   */\n    tag_485:\n      0x00\n        /* \"#utility.yul\":36438:36444   */\n      dup3\n        /* \"#utility.yul\":36433:36436   */\n      dup3\n        /* \"#utility.yul\":36426:36445   */\n      mstore\n        /* \"#utility.yul\":36478:36482   */\n      0x20\n        /* \"#utility.yul\":36473:36476   */\n      dup3\n        /* \"#utility.yul\":36469:36483   */\n      add\n        /* \"#utility.yul\":36454:36483   */\n      swap1\n      pop\n        /* \"#utility.yul\":36416:36489   */\n      swap3\n      swap2\n      pop\n      pop\n      jump\t// out\n        /* \"#utility.yul\":36495:36710   */\n    tag_499:\n      0x00\n        /* \"#utility.yul\":36659:36665   */\n      dup3\n        /* \"#utility.yul\":36654:36657   */\n      dup3\n        /* \"#utility.yul\":36647:36666   */\n      mstore\n        /* \"#utility.yul\":36699:36703   */\n      0x20\n        /* \"#utility.yul\":36694:36697   */\n      dup3\n        /* \"#utility.yul\":36690:36704   */\n      add\n        /* \"#utility.yul\":36675:36704   */\n      swap1\n      pop\n        /* \"#utility.yul\":36637:36710   */\n      swap3\n      swap2\n      pop\n      pop\n      jump\t// out\n        /* \"#utility.yul\":36716:36900   */\n    tag_513:\n      0x00\n        /* \"#utility.yul\":36849:36855   */\n      dup3\n        /* \"#utility.yul\":36844:36847   */\n      dup3\n        /* \"#utility.yul\":36837:36856   */\n      mstore\n        /* \"#utility.yul\":36889:36893   */\n      0x20\n        /* \"#utility.yul\":36884:36887   */\n      dup3\n        /* \"#utility.yul\":36880:36894   */\n      add\n        /* \"#utility.yul\":36865:36894   */\n      swap1\n      pop\n        /* \"#utility.yul\":36827:36900   */\n      swap3\n      swap2\n      pop\n      pop\n      jump\t// out\n        /* \"#utility.yul\":36906:37064   */\n    tag_538:\n      0x00\n        /* \"#utility.yul\":37013:37019   */\n      dup3\n        /* \"#utility.yul\":37008:37011   */\n      dup3\n        /* \"#utility.yul\":37001:37020   */\n      mstore\n        /* \"#utility.yul\":37053:37057   */\n      0x20\n        /* \"#utility.yul\":37048:37051   */\n      dup3\n        /* \"#utility.yul\":37044:37058   */\n      add\n        /* \"#utility.yul\":37029:37058   */\n      swap1\n      pop\n        /* \"#utility.yul\":36991:37064   */\n      swap3\n      swap2\n      pop\n      pop\n      jump\t// out\n        /* \"#utility.yul\":37070:37238   */\n    tag_547:\n      0x00\n        /* \"#utility.yul\":37187:37193   */\n      dup3\n        /* \"#utility.yul\":37182:37185   */\n      dup3\n        /* \"#utility.yul\":37175:37194   */\n      mstore\n        /* \"#utility.yul\":37227:37231   */\n      0x20\n        /* \"#utility.yul\":37222:37225   */\n      dup3\n        /* \"#utility.yul\":37218:37232   */\n      add\n        /* \"#utility.yul\":37203:37232   */\n      swap1\n      pop\n        /* \"#utility.yul\":37165:37238   */\n      swap3\n      swap2\n      pop\n      pop\n      jump\t// out\n        /* \"#utility.yul\":37244:37391   */\n    tag_554:\n      0x00\n        /* \"#utility.yul\":37382:37385   */\n      dup2\n        /* \"#utility.yul\":37367:37385   */\n      swap1\n      pop\n        /* \"#utility.yul\":37357:37391   */\n      swap3\n      swap2\n      pop\n      pop\n      jump\t// out\n        /* \"#utility.yul\":37397:37566   */\n    tag_571:\n      0x00\n        /* \"#utility.yul\":37515:37521   */\n      dup3\n        /* \"#utility.yul\":37510:37513   */\n      dup3\n        /* \"#utility.yul\":37503:37522   */\n      mstore\n        /* \"#utility.yul\":37555:37559   */\n      0x20\n        /* \"#utility.yul\":37550:37553   */\n      dup3\n        /* \"#utility.yul\":37546:37560   */\n      add\n        /* \"#utility.yul\":37531:37560   */\n      swap1\n      pop\n        /* \"#utility.yul\":37493:37566   */\n      swap3\n      swap2\n      pop\n      pop\n      jump\t// out\n        /* \"#utility.yul\":37572:37877   */\n    tag_92:\n      0x00\n        /* \"#utility.yul\":37631:37651   */\n      tag_725\n        /* \"#utility.yul\":37649:37650   */\n      dup3\n        /* \"#utility.yul\":37631:37651   */\n      tag_609\n      jump\t// in\n    tag_725:\n        /* \"#utility.yul\":37626:37651   */\n      swap2\n      pop\n        /* \"#utility.yul\":37665:37685   */\n      tag_726\n        /* \"#utility.yul\":37683:37684   */\n      dup4\n        /* \"#utility.yul\":37665:37685   */\n      tag_609\n      jump\t// in\n    tag_726:\n        /* \"#utility.yul\":37660:37685   */\n      swap3\n      pop\n        /* \"#utility.yul\":37819:37820   */\n      dup3\n        /* \"#utility.yul\":37751:37817   */\n      0xffffffffffffffffffffffffffffffffffffffffffffffffffffffffffffffff\n        /* \"#utility.yul\":37747:37821   */\n      sub\n        /* \"#utility.yul\":37744:37745   */\n      dup3\n        /* \"#utility.yul\":37741:37822   */\n      gt\n        /* \"#utility.yul\":37738:37740   */\n      iszero\n      tag_727\n      jumpi\n        /* \"#utility.yul\":37825:37843   */\n      tag_728\n      tag_729\n      jump\t// in\n    tag_728:\n        /* \"#utility.yul\":37738:37740   */\n    tag_727:\n        /* \"#utility.yul\":37869:37870   */\n      dup3\n        /* \"#utility.yul\":37866:37867   */\n      dup3\n        /* \"#utility.yul\":37862:37871   */\n      add\n        /* \"#utility.yul\":37855:37871   */\n      swap1\n      pop\n        /* \"#utility.yul\":37616:37877   */\n      swap3\n      swap2\n      pop\n      pop\n      jump\t// out\n        /* \"#utility.yul\":37883:38068   */\n    tag_212:\n      0x00\n        /* \"#utility.yul\":37940:37960   */\n      tag_731\n        /* \"#utility.yul\":37958:37959   */\n      dup3\n        /* \"#utility.yul\":37940:37960   */\n      tag_609\n      jump\t// in\n    tag_731:\n        /* \"#utility.yul\":37935:37960   */\n      swap2\n      pop\n        /* \"#utility.yul\":37974:37994   */\n      tag_732\n        /* \"#utility.yul\":37992:37993   */\n      dup4\n        /* \"#utility.yul\":37974:37994   */\n      tag_609\n      jump\t// in\n    tag_732:\n        /* \"#utility.yul\":37969:37994   */\n      swap3\n      pop\n        /* \"#utility.yul\":38013:38014   */\n      dup3\n        /* \"#utility.yul\":38003:38005   */\n      tag_733\n      jumpi\n        /* \"#utility.yul\":38018:38036   */\n      tag_734\n      tag_735\n      jump\t// in\n    tag_734:\n        /* \"#utility.yul\":38003:38005   */\n    tag_733:\n        /* \"#utility.yul\":38060:38061   */\n      dup3\n        /* \"#utility.yul\":38057:38058   */\n      dup3\n        /* \"#utility.yul\":38053:38062   */\n      div\n        /* \"#utility.yul\":38048:38062   */\n      swap1\n      pop\n        /* \"#utility.yul\":37925:38068   */\n      swap3\n      swap2\n      pop\n      pop\n      jump\t// out\n        /* \"#utility.yul\":38074:38422   */\n    tag_210:\n      0x00\n        /* \"#utility.yul\":38137:38157   */\n      tag_737\n        /* \"#utility.yul\":38155:38156   */\n      dup3\n        /* \"#utility.yul\":38137:38157   */\n      tag_609\n      jump\t// in\n    tag_737:\n        /* \"#utility.yul\":38132:38157   */\n      swap2\n      pop\n        /* \"#utility.yul\":38171:38191   */\n      tag_738\n        /* \"#utility.yul\":38189:38190   */\n      dup4\n        /* \"#utility.yul\":38171:38191   */\n      tag_609\n      jump\t// in\n    tag_738:\n        /* \"#utility.yul\":38166:38191   */\n      swap3\n      pop\n        /* \"#utility.yul\":38359:38360   */\n      dup2\n        /* \"#utility.yul\":38291:38357   */\n      0xffffffffffffffffffffffffffffffffffffffffffffffffffffffffffffffff\n        /* \"#utility.yul\":38287:38361   */\n      div\n        /* \"#utility.yul\":38284:38285   */\n      dup4\n        /* \"#utility.yul\":38281:38362   */\n      gt\n        /* \"#utility.yul\":38276:38277   */\n      dup3\n        /* \"#utility.yul\":38269:38278   */\n      iszero\n        /* \"#utility.yul\":38262:38279   */\n      iszero\n        /* \"#utility.yul\":38258:38363   */\n      and\n        /* \"#utility.yul\":38255:38257   */\n      iszero\n      tag_739\n      jumpi\n        /* \"#utility.yul\":38366:38384   */\n      tag_740\n      tag_729\n      jump\t// in\n    tag_740:\n        /* \"#utility.yul\":38255:38257   */\n    tag_739:\n        /* \"#utility.yul\":38414:38415   */\n      dup3\n        /* \"#utility.yul\":38411:38412   */\n      dup3\n        /* \"#utility.yul\":38407:38416   */\n      mul\n        /* \"#utility.yul\":38396:38416   */\n      swap1\n      pop\n        /* \"#utility.yul\":38122:38422   */\n      swap3\n      swap2\n      pop\n      pop\n      jump\t// out\n        /* \"#utility.yul\":38428:38524   */\n    tag_462:\n      0x00\n        /* \"#utility.yul\":38494:38518   */\n      tag_742\n        /* \"#utility.yul\":38512:38517   */\n      dup3\n        /* \"#utility.yul\":38494:38518   */\n      tag_743\n      jump\t// in\n    tag_742:\n        /* \"#utility.yul\":38483:38518   */\n      swap1\n      pop\n        /* \"#utility.yul\":38473:38524   */\n      swap2\n      swap1\n      pop\n      jump\t// out\n        /* \"#utility.yul\":38530:38634   */\n    tag_455:\n      0x00\n        /* \"#utility.yul\":38604:38628   */\n      tag_745\n        /* \"#utility.yul\":38622:38627   */\n      dup3\n        /* \"#utility.yul\":38604:38628   */\n      tag_743\n      jump\t// in\n    tag_745:\n        /* \"#utility.yul\":38593:38628   */\n      swap1\n      pop\n        /* \"#utility.yul\":38583:38634   */\n      swap2\n      swap1\n      pop\n      jump\t// out\n        /* \"#utility.yul\":38640:38730   */\n    tag_525:\n      0x00\n        /* \"#utility.yul\":38717:38722   */\n      dup2\n        /* \"#utility.yul\":38710:38723   */\n      iszero\n        /* \"#utility.yul\":38703:38724   */\n      iszero\n        /* \"#utility.yul\":38692:38724   */\n      swap1\n      pop\n        /* \"#utility.yul\":38682:38730   */\n      swap2\n      swap1\n      pop\n      jump\t// out\n        /* \"#utility.yul\":38736:38813   */\n    tag_532:\n      0x00\n        /* \"#utility.yul\":38802:38807   */\n      dup2\n        /* \"#utility.yul\":38791:38807   */\n      swap1\n      pop\n        /* \"#utility.yul\":38781:38813   */\n      swap2\n      swap1\n      pop\n      jump\t// out\n        /* \"#utility.yul\":38819:38956   */\n    tag_748:\n      0x00\n        /* \"#utility.yul\":38898:38903   */\n      dup2\n        /* \"#utility.yul\":38887:38903   */\n      swap1\n      pop\n        /* \"#utility.yul\":38904:38950   */\n      tag_750\n        /* \"#utility.yul\":38944:38949   */\n      dup3\n        /* \"#utility.yul\":38904:38950   */\n      tag_751\n      jump\t// in\n    tag_750:\n        /* \"#utility.yul\":38877:38956   */\n      swap2\n      swap1\n      pop\n      jump\t// out\n        /* \"#utility.yul\":38962:39038   */\n    tag_565:\n      0x00\n        /* \"#utility.yul\":39027:39032   */\n      dup2\n        /* \"#utility.yul\":39016:39032   */\n      swap1\n      pop\n        /* \"#utility.yul\":39006:39038   */\n      swap2\n      swap1\n      pop\n      jump\t// out\n        /* \"#utility.yul\":39044:39170   */\n    tag_743:\n      0x00\n        /* \"#utility.yul\":39121:39163   */\n      0xffffffffffffffffffffffffffffffffffffffff\n        /* \"#utility.yul\":39114:39119   */\n      dup3\n        /* \"#utility.yul\":39110:39164   */\n      and\n        /* \"#utility.yul\":39099:39164   */\n      swap1\n      pop\n        /* \"#utility.yul\":39089:39170   */\n      swap2\n      swap1\n      pop\n      jump\t// out\n        /* \"#utility.yul\":39176:39253   */\n    tag_609:\n      0x00\n        /* \"#utility.yul\":39242:39247   */\n      dup2\n        /* \"#utility.yul\":39231:39247   */\n      swap1\n      pop\n        /* \"#utility.yul\":39221:39253   */\n      swap2\n      swap1\n      pop\n      jump\t// out\n        /* \"#utility.yul\":39259:39668   */\n    tag_132:\n      0x00\n        /* \"#utility.yul\":39537:39661   */\n      tag_756\n        /* \"#utility.yul\":39646:39660   */\n      calldatasize\n        /* \"#utility.yul\":39638:39644   */\n      dup5\n        /* \"#utility.yul\":39631:39636   */\n      dup5\n        /* \"#utility.yul\":39537:39661   */\n      tag_316\n      jump\t// in\n    tag_756:\n        /* \"#utility.yul\":39515:39661   */\n      swap1\n      pop\n        /* \"#utility.yul\":39449:39668   */\n      swap3\n      swap2\n      pop\n      pop\n      jump\t// out\n        /* \"#utility.yul\":39674:39828   */\n    tag_558:\n      0x00\n        /* \"#utility.yul\":39771:39822   */\n      tag_758\n        /* \"#utility.yul\":39816:39821   */\n      dup3\n        /* \"#utility.yul\":39771:39822   */\n      tag_759\n      jump\t// in\n    tag_758:\n        /* \"#utility.yul\":39758:39822   */\n      swap1\n      pop\n        /* \"#utility.yul\":39748:39828   */\n      swap2\n      swap1\n      pop\n      jump\t// out\n        /* \"#utility.yul\":39834:39961   */\n    tag_759:\n      0x00\n        /* \"#utility.yul\":39931:39955   */\n      tag_761\n        /* \"#utility.yul\":39949:39954   */\n      dup3\n        /* \"#utility.yul\":39931:39955   */\n      tag_743\n      jump\t// in\n    tag_761:\n        /* \"#utility.yul\":39918:39955   */\n      swap1\n      pop\n        /* \"#utility.yul\":39908:39961   */\n      swap2\n      swap1\n      pop\n      jump\t// out\n        /* \"#utility.yul\":39967:40104   */\n    tag_562:\n      0x00\n        /* \"#utility.yul\":40061:40098   */\n      tag_763\n        /* \"#utility.yul\":40092:40097   */\n      dup3\n        /* \"#utility.yul\":40061:40098   */\n      tag_748\n      jump\t// in\n    tag_763:\n        /* \"#utility.yul\":40048:40098   */\n      swap1\n      pop\n        /* \"#utility.yul\":40038:40104   */\n      swap2\n      swap1\n      pop\n      jump\t// out\n        /* \"#utility.yul\":40110:40264   */\n    tag_345:\n        /* \"#utility.yul\":40194:40200   */\n      dup3\n        /* \"#utility.yul\":40189:40192   */\n      dup2\n        /* \"#utility.yul\":40184:40187   */\n      dup4\n        /* \"#utility.yul\":40171:40201   */\n      calldatacopy\n        /* \"#utility.yul\":40256:40257   */\n      0x00\n        /* \"#utility.yul\":40247:40253   */\n      dup4\n        /* \"#utility.yul\":40242:40245   */\n      dup4\n        /* \"#utility.yul\":40238:40254   */\n      add\n        /* \"#utility.yul\":40231:40258   */\n      mstore\n        /* \"#utility.yul\":40161:40264   */\n      pop\n      pop\n      pop\n      jump\t// out\n        /* \"#utility.yul\":40270:40577   */\n    tag_540:\n        /* \"#utility.yul\":40338:40339   */\n      0x00\n        /* \"#utility.yul\":40348:40461   */\n    tag_766:\n        /* \"#utility.yul\":40362:40368   */\n      dup4\n        /* \"#utility.yul\":40359:40360   */\n      dup2\n        /* \"#utility.yul\":40356:40369   */\n      lt\n        /* \"#utility.yul\":40348:40461   */\n      iszero\n      tag_768\n      jumpi\n        /* \"#utility.yul\":40447:40448   */\n      dup1\n        /* \"#utility.yul\":40442:40445   */\n      dup3\n        /* \"#utility.yul\":40438:40449   */\n      add\n        /* \"#utility.yul\":40432:40450   */\n      mload\n        /* \"#utility.yul\":40428:40429   */\n      dup2\n        /* \"#utility.yul\":40423:40426   */\n      dup5\n        /* \"#utility.yul\":40419:40430   */\n      add\n        /* \"#utility.yul\":40412:40451   */\n      mstore\n        /* \"#utility.yul\":40384:40386   */\n      0x20\n        /* \"#utility.yul\":40381:40382   */\n      dup2\n        /* \"#utility.yul\":40377:40387   */\n      add\n        /* \"#utility.yul\":40372:40387   */\n      swap1\n      pop\n        /* \"#utility.yul\":40348:40461   */\n      jump(tag_766)\n    tag_768:\n        /* \"#utility.yul\":40479:40485   */\n      dup4\n        /* \"#utility.yul\":40476:40477   */\n      dup2\n        /* \"#utility.yul\":40473:40486   */\n      gt\n        /* \"#utility.yul\":40470:40472   */\n      iszero\n      tag_769\n      jumpi\n        /* \"#utility.yul\":40559:40560   */\n      0x00\n        /* \"#utility.yul\":40550:40556   */\n      dup5\n        /* \"#utility.yul\":40545:40548   */\n      dup5\n        /* \"#utility.yul\":40541:40557   */\n      add\n        /* \"#utility.yul\":40534:40561   */\n      mstore\n        /* \"#utility.yul\":40470:40472   */\n    tag_769:\n        /* \"#utility.yul\":40319:40577   */\n      pop\n      pop\n      pop\n      pop\n      jump\t// out\n        /* \"#utility.yul\":40583:40816   */\n    tag_155:\n      0x00\n        /* \"#utility.yul\":40645:40669   */\n      tag_771\n        /* \"#utility.yul\":40663:40668   */\n      dup3\n        /* \"#utility.yul\":40645:40669   */\n      tag_609\n      jump\t// in\n    tag_771:\n        /* \"#utility.yul\":40636:40669   */\n      swap2\n      pop\n        /* \"#utility.yul\":40691:40757   */\n      0xffffffffffffffffffffffffffffffffffffffffffffffffffffffffffffffff\n        /* \"#utility.yul\":40684:40689   */\n      dup3\n        /* \"#utility.yul\":40681:40758   */\n      eq\n        /* \"#utility.yul\":40678:40680   */\n      iszero\n      tag_772\n      jumpi\n        /* \"#utility.yul\":40761:40779   */\n      tag_773\n      tag_729\n      jump\t// in\n    tag_773:\n        /* \"#utility.yul\":40678:40680   */\n    tag_772:\n        /* \"#utility.yul\":40808:40809   */\n      0x01\n        /* \"#utility.yul\":40801:40806   */\n      dup3\n        /* \"#utility.yul\":40797:40810   */\n      add\n        /* \"#utility.yul\":40790:40810   */\n      swap1\n      pop\n        /* \"#utility.yul\":40626:40816   */\n      swap2\n      swap1\n      pop\n      jump\t// out\n        /* \"#utility.yul\":40822:41002   */\n    tag_729:\n        /* \"#utility.yul\":40870:40947   */\n      0x4e487b7100000000000000000000000000000000000000000000000000000000\n        /* \"#utility.yul\":40867:40868   */\n      0x00\n        /* \"#utility.yul\":40860:40948   */\n      mstore\n        /* \"#utility.yul\":40967:40971   */\n      0x11\n        /* \"#utility.yul\":40964:40965   */\n      0x04\n        /* \"#utility.yul\":40957:40972   */\n      mstore\n        /* \"#utility.yul\":40991:40995   */\n      0x24\n        /* \"#utility.yul\":40988:40989   */\n      0x00\n        /* \"#utility.yul\":40981:40996   */\n      revert\n        /* \"#utility.yul\":41008:41188   */\n    tag_735:\n        /* \"#utility.yul\":41056:41133   */\n      0x4e487b7100000000000000000000000000000000000000000000000000000000\n        /* \"#utility.yul\":41053:41054   */\n      0x00\n        /* \"#utility.yul\":41046:41134   */\n      mstore\n        /* \"#utility.yul\":41153:41157   */\n      0x12\n        /* \"#utility.yul\":41150:41151   */\n      0x04\n        /* \"#utility.yul\":41143:41158   */\n      mstore\n        /* \"#utility.yul\":41177:41181   */\n      0x24\n        /* \"#utility.yul\":41174:41175   */\n      0x00\n        /* \"#utility.yul\":41167:41182   */\n      revert\n        /* \"#utility.yul\":41194:41374   */\n    tag_776:\n        /* \"#utility.yul\":41242:41319   */\n      0x4e487b7100000000000000000000000000000000000000000000000000000000\n        /* \"#utility.yul\":41239:41240   */\n      0x00\n        /* \"#utility.yul\":41232:41320   */\n      mstore\n        /* \"#utility.yul\":41339:41343   */\n      0x21\n        /* \"#utility.yul\":41336:41337   */\n      0x04\n        /* \"#utility.yul\":41329:41344   */\n      mstore\n        /* \"#utility.yul\":41363:41367   */\n      0x24\n        /* \"#utility.yul\":41360:41361   */\n      0x00\n        /* \"#utility.yul\":41353:41368   */\n      revert\n        /* \"#utility.yul\":41380:41560   */\n    tag_692:\n        /* \"#utility.yul\":41428:41505   */\n      0x4e487b7100000000000000000000000000000000000000000000000000000000\n        /* \"#utility.yul\":41425:41426   */\n      0x00\n        /* \"#utility.yul\":41418:41506   */\n      mstore\n        /* \"#utility.yul\":41525:41529   */\n      0x41\n        /* \"#utility.yul\":41522:41523   */\n      0x04\n        /* \"#utility.yul\":41515:41530   */\n      mstore\n        /* \"#utility.yul\":41549:41553   */\n      0x24\n        /* \"#utility.yul\":41546:41547   */\n      0x00\n        /* \"#utility.yul\":41539:41554   */\n      revert\n        /* \"#utility.yul\":41566:41668   */\n    tag_542:\n      0x00\n        /* \"#utility.yul\":41658:41660   */\n      0x1f\n        /* \"#utility.yul\":41654:41661   */\n      not\n        /* \"#utility.yul\":41649:41651   */\n      0x1f\n        /* \"#utility.yul\":41642:41647   */\n      dup4\n        /* \"#utility.yul\":41638:41652   */\n      add\n        /* \"#utility.yul\":41634:41662   */\n      and\n        /* \"#utility.yul\":41624:41662   */\n      swap1\n      pop\n        /* \"#utility.yul\":41614:41668   */\n      swap2\n      swap1\n      pop\n      jump\t// out\n        /* \"#utility.yul\":41674:41792   */\n    tag_751:\n        /* \"#utility.yul\":41760:41761   */\n      0x02\n        /* \"#utility.yul\":41753:41758   */\n      dup2\n        /* \"#utility.yul\":41750:41762   */\n      lt\n        /* \"#utility.yul\":41740:41742   */\n      tag_781\n      jumpi\n        /* \"#utility.yul\":41766:41784   */\n      tag_782\n      tag_776\n      jump\t// in\n    tag_782:\n        /* \"#utility.yul\":41740:41742   */\n    tag_781:\n        /* \"#utility.yul\":41730:41792   */\n      pop\n      jump\t// out\n        /* \"#utility.yul\":41798:41920   */\n    tag_349:\n        /* \"#utility.yul\":41871:41895   */\n      tag_784\n        /* \"#utility.yul\":41889:41894   */\n      dup2\n        /* \"#utility.yul\":41871:41895   */\n      tag_462\n      jump\t// in\n    tag_784:\n        /* \"#utility.yul\":41864:41869   */\n      dup2\n        /* \"#utility.yul\":41861:41896   */\n      eq\n        /* \"#utility.yul\":41851:41853   */\n      tag_785\n      jumpi\n        /* \"#utility.yul\":41910:41911   */\n      0x00\n        /* \"#utility.yul\":41907:41908   */\n      dup1\n        /* \"#utility.yul\":41900:41912   */\n      revert\n        /* \"#utility.yul\":41851:41853   */\n    tag_785:\n        /* \"#utility.yul\":41841:41920   */\n      pop\n      jump\t// out\n        /* \"#utility.yul\":41926:42064   */\n    tag_356:\n        /* \"#utility.yul\":42007:42039   */\n      tag_787\n        /* \"#utility.yul\":42033:42038   */\n      dup2\n        /* \"#utility.yul\":42007:42039   */\n      tag_455\n      jump\t// in\n    tag_787:\n        /* \"#utility.yul\":42000:42005   */\n      dup2\n        /* \"#utility.yul\":41997:42040   */\n      eq\n        /* \"#utility.yul\":41987:41989   */\n      tag_788\n      jumpi\n        /* \"#utility.yul\":42054:42055   */\n      0x00\n        /* \"#utility.yul\":42051:42052   */\n      dup1\n        /* \"#utility.yul\":42044:42056   */\n      revert\n        /* \"#utility.yul\":41987:41989   */\n    tag_788:\n        /* \"#utility.yul\":41977:42064   */\n      pop\n      jump\t// out\n        /* \"#utility.yul\":42070:42186   */\n    tag_364:\n        /* \"#utility.yul\":42140:42161   */\n      tag_790\n        /* \"#utility.yul\":42155:42160   */\n      dup2\n        /* \"#utility.yul\":42140:42161   */\n      tag_525\n      jump\t// in\n    tag_790:\n        /* \"#utility.yul\":42133:42138   */\n      dup2\n        /* \"#utility.yul\":42130:42162   */\n      eq\n        /* \"#utility.yul\":42120:42122   */\n      tag_791\n      jumpi\n        /* \"#utility.yul\":42176:42177   */\n      0x00\n        /* \"#utility.yul\":42173:42174   */\n      dup1\n        /* \"#utility.yul\":42166:42178   */\n      revert\n        /* \"#utility.yul\":42120:42122   */\n    tag_791:\n        /* \"#utility.yul\":42110:42186   */\n      pop\n      jump\t// out\n        /* \"#utility.yul\":42192:42314   */\n    tag_371:\n        /* \"#utility.yul\":42265:42289   */\n      tag_793\n        /* \"#utility.yul\":42283:42288   */\n      dup2\n        /* \"#utility.yul\":42265:42289   */\n      tag_532\n      jump\t// in\n    tag_793:\n        /* \"#utility.yul\":42258:42263   */\n      dup2\n        /* \"#utility.yul\":42255:42290   */\n      eq\n        /* \"#utility.yul\":42245:42247   */\n      tag_794\n      jumpi\n        /* \"#utility.yul\":42304:42305   */\n      0x00\n        /* \"#utility.yul\":42301:42302   */\n      dup1\n        /* \"#utility.yul\":42294:42306   */\n      revert\n        /* \"#utility.yul\":42245:42247   */\n    tag_794:\n        /* \"#utility.yul\":42235:42314   */\n      pop\n      jump\t// out\n        /* \"#utility.yul\":42320:42432   */\n    tag_379:\n        /* \"#utility.yul\":42406:42407   */\n      0x02\n        /* \"#utility.yul\":42399:42404   */\n      dup2\n        /* \"#utility.yul\":42396:42408   */\n      lt\n        /* \"#utility.yul\":42386:42388   */\n      tag_796\n      jumpi\n        /* \"#utility.yul\":42422:42423   */\n      0x00\n        /* \"#utility.yul\":42419:42420   */\n      dup1\n        /* \"#utility.yul\":42412:42424   */\n      revert\n        /* \"#utility.yul\":42386:42388   */\n    tag_796:\n        /* \"#utility.yul\":42376:42432   */\n      pop\n      jump\t// out\n        /* \"#utility.yul\":42438:42560   */\n    tag_402:\n        /* \"#utility.yul\":42511:42535   */\n      tag_798\n        /* \"#utility.yul\":42529:42534   */\n      dup2\n        /* \"#utility.yul\":42511:42535   */\n      tag_609\n      jump\t// in\n    tag_798:\n        /* \"#utility.yul\":42504:42509   */\n      dup2\n        /* \"#utility.yul\":42501:42536   */\n      eq\n        /* \"#utility.yul\":42491:42493   */\n      tag_799\n      jumpi\n        /* \"#utility.yul\":42550:42551   */\n      0x00\n        /* \"#utility.yul\":42547:42548   */\n      dup1\n        /* \"#utility.yul\":42540:42552   */\n      revert\n        /* \"#utility.yul\":42491:42493   */\n    tag_799:\n        /* \"#utility.yul\":42481:42560   */\n      pop\n      jump\t// out\n\n    auxdata: 0xa2646970667358221220a549b58b89159834cfedc8c81afbbb14db13da9de507e6aa715c9d7e64d6438e64736f6c63430008000033\n}\n",
				"bytecode": {
					"linkReferences": {},
					"object": "60806040523480156200001157600080fd5b50604051620032c7380380620032c7833981810160405281019062000037919062000096565b80600160006101000a81548173ffffffffffffffffffffffffffffffffffffffff021916908373ffffffffffffffffffffffffffffffffffffffff1602179055505062000110565b6000815190506200009081620000f6565b92915050565b600060208284031215620000a957600080fd5b6000620000b9848285016200007f565b91505092915050565b6000620000cf82620000d6565b9050919050565b600073ffffffffffffffffffffffffffffffffffffffff82169050919050565b6200010181620000c2565b81146200010d57600080fd5b50565b6131a780620001206000396000f3fe6080604052600436106100ab5760003560e01c80639af1d35a116100645780639af1d35a146101e0578063a2e74af61461020b578063ef3858ab14610248578063f46901ed14610264578063f654df7a146102a1578063fd07291f146102de576100b2565b8063017e7e58146100b7578063239aad0a146100e2578063257b66b0146100fe5780633d18678e1461013b5780638ac051f2146101785780638e7fa96a146101b5576100b2565b366100b257005b600080fd5b3480156100c357600080fd5b506100cc61031b565b6040516100d991906126fb565b60405180910390f35b6100fc60048036038101906100f79190611f5c565b61033f565b005b34801561010a57600080fd5b5061012560048036038101906101209190611fc6565b61095a565b60405161013291906126e0565b60405180910390f35b34801561014757600080fd5b50610162600480360381019061015d9190611fc6565b61098d565b60405161016f91906127b4565b60405180910390f35b34801561018457600080fd5b5061019f600480360381019061019a9190611e4e565b610a73565b6040516101ac91906126e0565b60405180910390f35b3480156101c157600080fd5b506101ca610afa565b6040516101d791906126e0565b60405180910390f35b3480156101ec57600080fd5b506101f5610b20565b6040516102029190612949565b60405180910390f35b34801561021757600080fd5b50610232600480360381019061022d9190611e4e565b610b26565b60405161023f91906127b4565b60405180910390f35b610262600480360381019061025d9190611fef565b610c72565b005b34801561027057600080fd5b5061028b60048036038101906102869190611ea0565b610db5565b60405161029891906127b4565b60405180910390f35b3480156102ad57600080fd5b506102c860048036038101906102c39190611fef565b610f00565b6040516102d591906127b4565b60405180910390f35b3480156102ea57600080fd5b5061030560048036038101906103009190611ec9565b61105e565b6040516103129190612949565b60405180910390f35b60008054906101000a900473ffffffffffffffffffffffffffffffffffffffff1681565b60006103998280600001906103549190612b36565b80806020026020016040519081016040528093929190818152602001838360200280828437600081840152601f19601f8201169050808301925050505050505061105e565b905060006103cc670de0b6b3a76400006103be600254856110d890919063ffffffff16565b61115390919063ffffffff16565b9050600073ffffffffffffffffffffffffffffffffffffffff168360a00160208101906103f99190611e4e565b73ffffffffffffffffffffffffffffffffffffffff1614156104915780826104219190612dd5565b3414610462576040517f08c379a000000000000000000000000000000000000000000000000000000000815260040161045990612929565b60405180910390fd5b61048c60008054906101000a900473ffffffffffffffffffffffffffffffffffffffff168261119d565b6104ee565b6104af8360a00160208101906104a79190611e4e565b3330856112c3565b6104ed8360a00160208101906104c59190611e4e565b3360008054906101000a900473ffffffffffffffffffffffffffffffffffffffff16846112c3565b5b60005b838060e001906105019190612b36565b905081101561095457600060036000868060e001906105209190612b36565b85818110610557577f4e487b7100000000000000000000000000000000000000000000000000000000600052603260045260246000fd5b90506020020135815260200190815260200160002060009054906101000a900473ffffffffffffffffffffffffffffffffffffffff1690506000821480156105b157506004858061010001906105ad9190612b36565b9050145b1561068b576106868560a00160208101906105cc9190611e4e565b828760600160208101906105e09190611ea0565b888061010001906105f19190612b36565b6002818110610629577f4e487b7100000000000000000000000000000000000000000000000000000000600052603260045260246000fd5b90506020020135898061010001906106419190612b36565b80806020026020016040519081016040528093929190818152602001838360200280828437600081840152601f19601f820116905080830192505050505050506113fc565b610940565b6001821480156106ad5750600185806101c001906106a99190612a88565b9050115b156107bf576107ba856102000160208101906106c99190611f33565b8660a00160208101906106dc9190611e4e565b83888061012001906106ee9190612adf565b906106f99190612f37565b896101400180360381019061070e9190611f9d565b8a806101e0019061071f9190612a31565b80806020026020016040519081016040528093929190818152602001838360200280828437600081840152601f19601f820116905080830192505050505050508b806101c001906107709190612a88565b80806020026020016040519081016040528093929190818152602001838360200280828437600081840152601f19601f820116905080830192505050505050508c6080013561150b565b61093f565b61093e818680600001906107d39190612b36565b8581811061080a577f4e487b7100000000000000000000000000000000000000000000000000000000600052603260045260246000fd5b905060200201358780602001906108219190612b36565b86818110610858577f4e487b7100000000000000000000000000000000000000000000000000000000600052603260045260246000fd5b9050602002013588806040019061086f91906129da565b878181106108a6577f4e487b7100000000000000000000000000000000000000000000000000000000600052603260045260246000fd5b90506020028101906108b89190612b8d565b8080601f016020809104026020016040519081016040528093929190818152602001838380828437600081840152601f19601f8201169050808301925050505050505089606001602081019061090e9190611ea0565b8a608001358b60a00160208101906109269190611e4e565b8c60c00160208101906109399190611e4e565b6117ac565b5b5b50808061094c90612fc4565b9150506104f1565b50505050565b60036020528060005260406000206000915054906101000a900473ffffffffffffffffffffffffffffffffffffffff1681565b6000600160009054906101000a900473ffffffffffffffffffffffffffffffffffffffff1673ffffffffffffffffffffffffffffffffffffffff163373ffffffffffffffffffffffffffffffffffffffff1614610a1f576040517f08c379a0000000000000000000000000000000000000000000000000000000008152600401610a16906128c9565b60405180910390fd5b6000821415610a63576040517f08c379a0000000000000000000000000000000000000000000000000000000008152600401610a5a90612909565b60405180910390fd5b8160028190555060019050919050565b60008173ffffffffffffffffffffffffffffffffffffffff1663ad5c46486040518163ffffffff1660e01b815260040160206040518083038186803b158015610abb57600080fd5b505afa158015610acf573d6000803e3d6000fd5b505050506040513d601f19601f82011682018060405250810190610af39190611e77565b9050919050565b600160009054906101000a900473ffffffffffffffffffffffffffffffffffffffff1681565b60025481565b6000600160009054906101000a900473ffffffffffffffffffffffffffffffffffffffff1673ffffffffffffffffffffffffffffffffffffffff163373ffffffffffffffffffffffffffffffffffffffff1614610bb8576040517f08c379a0000000000000000000000000000000000000000000000000000000008152600401610baf906128c9565b60405180910390fd5b600073ffffffffffffffffffffffffffffffffffffffff168273ffffffffffffffffffffffffffffffffffffffff161415610c28576040517f08c379a0000000000000000000000000000000000000000000000000000000008152600401610c1f90612909565b60405180910390fd5b81600160006101000a81548173ffffffffffffffffffffffffffffffffffffffff021916908373ffffffffffffffffffffffffffffffffffffffff16021790555060019050919050565b6000610ca3670de0b6b3a7640000610c95600254866110d890919063ffffffff16565b61115390919063ffffffff16565b90508083610cb19190612dd5565b3414610cf2576040517f08c379a0000000000000000000000000000000000000000000000000000000008152600401610ce990612929565b60405180910390fd5b610d1c60008054906101000a900473ffffffffffffffffffffffffffffffffffffffff168261119d565b730d500b1d8e8ef31e21c99d1db9a6444d3adf127073ffffffffffffffffffffffffffffffffffffffff1663d0e30db0846040518263ffffffff1660e01b81526004016000604051808303818588803b158015610d7857600080fd5b505af1158015610d8c573d6000803e3d6000fd5b5050505050610db0730d500b1d8e8ef31e21c99d1db9a6444d3adf12708385611982565b505050565b6000600160009054906101000a900473ffffffffffffffffffffffffffffffffffffffff1673ffffffffffffffffffffffffffffffffffffffff163373ffffffffffffffffffffffffffffffffffffffff1614610e47576040517f08c379a0000000000000000000000000000000000000000000000000000000008152600401610e3e906128c9565b60405180910390fd5b600073ffffffffffffffffffffffffffffffffffffffff168273ffffffffffffffffffffffffffffffffffffffff161415610eb7576040517f08c379a0000000000000000000000000000000000000000000000000000000008152600401610eae90612909565b60405180910390fd5b816000806101000a81548173ffffffffffffffffffffffffffffffffffffffff021916908373ffffffffffffffffffffffffffffffffffffffff16021790555060019050919050565b6000600160009054906101000a900473ffffffffffffffffffffffffffffffffffffffff1673ffffffffffffffffffffffffffffffffffffffff163373ffffffffffffffffffffffffffffffffffffffff1614610f92576040517f08c379a0000000000000000000000000000000000000000000000000000000008152600401610f89906128c9565b60405180910390fd5b600073ffffffffffffffffffffffffffffffffffffffff168273ffffffffffffffffffffffffffffffffffffffff161415611002576040517f08c379a0000000000000000000000000000000000000000000000000000000008152600401610ff990612909565b60405180910390fd5b816003600085815260200190815260200160002060006101000a81548173ffffffffffffffffffffffffffffffffffffffff021916908373ffffffffffffffffffffffffffffffffffffffff1602179055506001905092915050565b60008060005b83518110156110ce578381815181106110a6577f4e487b7100000000000000000000000000000000000000000000000000000000600052603260045260246000fd5b6020026020010151826110b99190612dd5565b915080806110c690612fc4565b915050611064565b5080915050919050565b6000808314156110eb576000905061114d565b600082846110f99190612e5c565b90508284826111089190612e2b565b14611148576040517f08c379a000000000000000000000000000000000000000000000000000000000815260040161113f906128a9565b60405180910390fd5b809150505b92915050565b600061119583836040518060400160405280601a81526020017f536166654d6174683a206469766973696f6e206279207a65726f000000000000815250611ab8565b905092915050565b60008273ffffffffffffffffffffffffffffffffffffffff1682600067ffffffffffffffff8111156111f8577f4e487b7100000000000000000000000000000000000000000000000000000000600052604160045260246000fd5b6040519080825280601f01601f19166020018201604052801561122a5781602001600182028036833780820191505090505b5060405161123891906126c9565b60006040518083038185875af1925050503d8060008114611275576040519150601f19603f3d011682016040523d82523d6000602084013e61127a565b606091505b50509050806112be576040517f08c379a00000000000000000000000000000000000000000000000000000000081526004016112b590612889565b60405180910390fd5b505050565b6000808573ffffffffffffffffffffffffffffffffffffffff166323b872dd8686866040516024016112f793929190612754565b6040516020818303038152906040529060e01b6020820180517bffffffffffffffffffffffffffffffffffffffffffffffffffffffff838183161783525050505060405161134591906126c9565b6000604051808303816000865af19150503d8060008114611382576040519150601f19603f3d011682016040523d82523d6000602084013e611387565b606091505b50915091508180156113b557506000815114806113b45750808060200190518101906113b39190611f0a565b5b5b6113f4576040517f08c379a00000000000000000000000000000000000000000000000000000000081526004016113eb90612869565b60405180910390fd5b505050505050565b8473ffffffffffffffffffffffffffffffffffffffff1663095ea7b385846040518363ffffffff1660e01b815260040161143792919061278b565b602060405180830381600087803b15801561145157600080fd5b505af1158015611465573d6000803e3d6000fd5b505050506040513d601f19601f820116820180604052508101906114899190611f0a565b50611495858584611982565b8373ffffffffffffffffffffffffffffffffffffffff16633502eea88487846040518463ffffffff1660e01b81526004016114d293929190612716565b600060405180830381600087803b1580156114ec57600080fd5b505af1158015611500573d6000803e3d6000fd5b505050505050505050565b600073ffffffffffffffffffffffffffffffffffffffff168773ffffffffffffffffffffffffffffffffffffffff1614156116095761158f868660008151811061157e577f4e487b7100000000000000000000000000000000000000000000000000000000600052603260045260246000fd5b60200260200101516060015161119d565b8573ffffffffffffffffffffffffffffffffffffffff16631738b50e8987878787876040518763ffffffff1660e01b81526004016115d2969594939291906127cf565b600060405180830381600087803b1580156115ec57600080fd5b505af1158015611600573d6000803e3d6000fd5b505050506117a2565b8573ffffffffffffffffffffffffffffffffffffffff1663095ea7b38787600081518110611660577f4e487b7100000000000000000000000000000000000000000000000000000000600052603260045260246000fd5b6020026020010151606001516040518363ffffffff1660e01b815260040161168992919061278b565b602060405180830381600087803b1580156116a357600080fd5b505af11580156116b7573d6000803e3d6000fd5b505050506040513d601f19601f820116820180604052508101906116db9190611f0a565b5061172c87878760008151811061171b577f4e487b7100000000000000000000000000000000000000000000000000000000600052603260045260246000fd5b602002602001015160600151611982565b8573ffffffffffffffffffffffffffffffffffffffff16631738b50e8987878787876040518763ffffffff1660e01b815260040161176f969594939291906127cf565b600060405180830381600087803b15801561178957600080fd5b505af115801561179d573d6000803e3d6000fd5b505050505b5050505050505050565b600073ffffffffffffffffffffffffffffffffffffffff168273ffffffffffffffffffffffffffffffffffffffff161415611867576117eb888861119d565b8773ffffffffffffffffffffffffffffffffffffffff1663b1a271d4888888888888886040518863ffffffff1660e01b81526004016118309796959493929190612964565b600060405180830381600087803b15801561184a57600080fd5b505af115801561185e573d6000803e3d6000fd5b50505050611978565b8773ffffffffffffffffffffffffffffffffffffffff1663095ea7b389896040518363ffffffff1660e01b81526004016118a292919061278b565b602060405180830381600087803b1580156118bc57600080fd5b505af11580156118d0573d6000803e3d6000fd5b505050506040513d601f19601f820116820180604052508101906118f49190611f0a565b50611900828989611982565b8773ffffffffffffffffffffffffffffffffffffffff1663b1a271d4888888888888886040518863ffffffff1660e01b81526004016119459796959493929190612964565b600060405180830381600087803b15801561195f57600080fd5b505af1158015611973573d6000803e3d6000fd5b505050505b5050505050505050565b6000808473ffffffffffffffffffffffffffffffffffffffff1663a9059cbb85856040516024016119b492919061278b565b6040516020818303038152906040529060e01b6020820180517bffffffffffffffffffffffffffffffffffffffffffffffffffffffff8381831617835250505050604051611a0291906126c9565b6000604051808303816000865af19150503d8060008114611a3f576040519150601f19603f3d011682016040523d82523d6000602084013e611a44565b606091505b5091509150818015611a725750600081511480611a71575080806020019051810190611a709190611f0a565b5b5b611ab1576040517f08c379a0000000000000000000000000000000000000000000000000000000008152600401611aa8906128e9565b60405180910390fd5b5050505050565b60008083118290611aff576040517f08c379a0000000000000000000000000000000000000000000000000000000008152600401611af69190612847565b60405180910390fd5b5060008385611b0e9190612e2b565b9050809150509392505050565b6000611b2e611b2984612c15565b612be4565b9050808382526020820190508260005b85811015611b6e5781358501611b548882611d25565b845260208401935060208301925050600181019050611b3e565b5050509392505050565b6000611b8b611b8684612c41565b612be4565b90508083825260208201905082856020860282011115611baa57600080fd5b60005b85811015611bda5781611bc08882611e39565b845260208401935060208301925050600181019050611bad565b5050509392505050565b6000611bf7611bf284612c6d565b612be4565b905082815260208101848484011115611c0f57600080fd5b611c1a848285612f82565b509392505050565b600081359050611c31816130ee565b92915050565b600081519050611c46816130ee565b92915050565b600081359050611c5b81613105565b92915050565b600082601f830112611c7257600080fd5b8135611c82848260208601611b78565b91505092915050565b600081359050611c9a8161311c565b92915050565b600081519050611caf8161311c565b92915050565b600081359050611cc481613133565b92915050565b600082601f830112611cdb57600080fd5b8135611ceb848260208601611be4565b91505092915050565b600081359050611d038161314a565b92915050565b60006102208284031215611d1c57600080fd5b81905092915050565b600060a08284031215611d3757600080fd5b611d4160a0612be4565b90506000611d5184828501611cb5565b6000830152506020611d6584828501611e39565b6020830152506040611d7984828501611e39565b6040830152506060611d8d84828501611e39565b606083015250608082013567ffffffffffffffff811115611dad57600080fd5b611db984828501611cca565b60808301525092915050565b600060808284031215611dd757600080fd5b611de16080612be4565b90506000611df184828501611c22565b6000830152506020611e0584828501611c8b565b6020830152506040611e1984828501611c4c565b6040830152506060611e2d84828501611c8b565b60608301525092915050565b600081359050611e488161315a565b92915050565b600060208284031215611e6057600080fd5b6000611e6e84828501611c22565b91505092915050565b600060208284031215611e8957600080fd5b6000611e9784828501611c37565b91505092915050565b600060208284031215611eb257600080fd5b6000611ec084828501611c4c565b91505092915050565b600060208284031215611edb57600080fd5b600082013567ffffffffffffffff811115611ef557600080fd5b611f0184828501611c61565b91505092915050565b600060208284031215611f1c57600080fd5b6000611f2a84828501611ca0565b91505092915050565b600060208284031215611f4557600080fd5b6000611f5384828501611cf4565b91505092915050565b600060208284031215611f6e57600080fd5b600082013567ffffffffffffffff811115611f8857600080fd5b611f9484828501611d09565b91505092915050565b600060808284031215611faf57600080fd5b6000611fbd84828501611dc5565b91505092915050565b600060208284031215611fd857600080fd5b6000611fe684828501611e39565b91505092915050565b6000806040838503121561200257600080fd5b600061201085828601611e39565b925050602061202185828601611c22565b9150509250929050565b60006120378383612322565b60208301905092915050565b600061204f8383612340565b60208301905092915050565b600061206783836125e0565b905092915050565b600061207b83836126ab565b60208301905092915050565b61209081612ec8565b82525050565b61209f81612ec8565b82525050565b6120ae81612eb6565b82525050565b6120bd81612eb6565b82525050565b60006120ce82612cdd565b6120d88185612d53565b93506120e383612c9d565b8060005b838110156121145781516120fb888261202b565b975061210683612d1f565b9250506001810190506120e7565b5085935050505092915050565b600061212c82612ce8565b6121368185612d64565b935061214183612cad565b8060005b838110156121725781516121598882612043565b975061216483612d2c565b925050600181019050612145565b5085935050505092915050565b600061218a82612cf3565b6121948185612d75565b9350836020820285016121a685612cbd565b8060005b858110156121e257848403895281516121c3858261205b565b94506121ce83612d39565b925060208a019950506001810190506121aa565b50829750879550505050505092915050565b60006121ff82612cfe565b6122098185612d86565b935061221483612ccd565b8060005b8381101561224557815161222c888261206f565b975061223783612d46565b925050600181019050612218565b5085935050505092915050565b61225b81612eda565b82525050565b61226a81612eda565b82525050565b61227981612ee6565b82525050565b600061228a82612d09565b6122948185612d97565b93506122a4818560208601612f91565b6122ad816130c9565b840191505092915050565b60006122c382612d09565b6122cd8185612da8565b93506122dd818560208601612f91565b6122e6816130c9565b840191505092915050565b60006122fc82612d09565b6123068185612db9565b9350612316818560208601612f91565b80840191505092915050565b61232b81612f4c565b82525050565b61233a81612f70565b82525050565b61234981612f03565b82525050565b600061235a82612d14565b6123648185612dc4565b9350612374818560208601612f91565b61237d816130c9565b840191505092915050565b6000612395603183612dc4565b91507f5472616e7366657248656c7065723a3a7472616e7366657246726f6d3a20747260008301527f616e7366657246726f6d206661696c65640000000000000000000000000000006020830152604082019050919050565b60006123fb603483612dc4565b91507f5472616e7366657248656c7065723a3a736166655472616e736665724554483a60008301527f20455448207472616e73666572206661696c65640000000000000000000000006020830152604082019050919050565b6000612461602183612dc4565b91507f536166654d6174683a206d756c7469706c69636174696f6e206f766572666c6f60008301527f77000000000000000000000000000000000000000000000000000000000000006020830152604082019050919050565b60006124c7601b83612dc4565b91507f426172746572737761705632526f757465723a204558504952454400000000006000830152602082019050919050565b6000612507602d83612dc4565b91507f5472616e7366657248656c7065723a3a736166655472616e736665723a20747260008301527f616e73666572206661696c6564000000000000000000000000000000000000006020830152604082019050919050565b600061256d601583612dc4565b91507f426172746572737761703a20464f5242494444454e00000000000000000000006000830152602082019050919050565b60006125ad600e83612dc4565b91507f50726963652069732077726f6e670000000000000000000000000000000000006000830152602082019050919050565b600060a0830160008301516125f86000860182612270565b50602083015161260b60208601826126ab565b50604083015161261e60408601826126ab565b50606083015161263160608601826126ab565b5060808301518482036080860152612649828261227f565b9150508091505092915050565b60808201600082015161266c60008501826120a5565b50602082015161267f6020850182612252565b5060408201516126926040850182612087565b5060608201516126a56060850182612252565b50505050565b6126b481612f2d565b82525050565b6126c381612f2d565b82525050565b60006126d582846122f1565b915081905092915050565b60006020820190506126f560008301846120b4565b92915050565b60006020820190506127106000830184612096565b92915050565b600060608201905061272b60008301866120b4565b61273860208301856120b4565b818103604083015261274a81846121f4565b9050949350505050565b600060608201905061276960008301866120b4565b61277660208301856120b4565b61278360408301846126ba565b949350505050565b60006040820190506127a060008301856120b4565b6127ad60208301846126ba565b9392505050565b60006020820190506127c96000830184612261565b92915050565b6000610120820190506127e56000830189612331565b81810360208301526127f7818861217f565b90506128066040830187612656565b81810360c083015261281881866120c3565b905081810360e083015261282c8185612121565b905061283c6101008301846126ba565b979650505050505050565b60006020820190508181036000830152612861818461234f565b905092915050565b6000602082019050818103600083015261288281612388565b9050919050565b600060208201905081810360008301526128a2816123ee565b9050919050565b600060208201905081810360008301526128c281612454565b9050919050565b600060208201905081810360008301526128e2816124ba565b9050919050565b60006020820190508181036000830152612902816124fa565b9050919050565b6000602082019050818103600083015261292281612560565b9050919050565b60006020820190508181036000830152612942816125a0565b9050919050565b600060208201905061295e60008301846126ba565b92915050565b600060e082019050612979600083018a6126ba565b61298660208301896126ba565b818103604083015261299881886122b8565b90506129a760608301876120b4565b6129b460808301866126ba565b6129c160a08301856120b4565b6129ce60c08301846120b4565b98975050505050505050565b600080833560016020038436030381126129f357600080fd5b80840192508235915067ffffffffffffffff821115612a1157600080fd5b602083019250602082023603831315612a2957600080fd5b509250929050565b60008083356001602003843603038112612a4a57600080fd5b80840192508235915067ffffffffffffffff821115612a6857600080fd5b602083019250602082023603831315612a8057600080fd5b509250929050565b60008083356001602003843603038112612aa157600080fd5b80840192508235915067ffffffffffffffff821115612abf57600080fd5b602083019250602082023603831315612ad757600080fd5b509250929050565b60008083356001602003843603038112612af857600080fd5b80840192508235915067ffffffffffffffff821115612b1657600080fd5b602083019250602082023603831315612b2e57600080fd5b509250929050565b60008083356001602003843603038112612b4f57600080fd5b80840192508235915067ffffffffffffffff821115612b6d57600080fd5b602083019250602082023603831315612b8557600080fd5b509250929050565b60008083356001602003843603038112612ba657600080fd5b80840192508235915067ffffffffffffffff821115612bc457600080fd5b602083019250600182023603831315612bdc57600080fd5b509250929050565b6000604051905081810181811067ffffffffffffffff82111715612c0b57612c0a61309a565b5b8060405250919050565b600067ffffffffffffffff821115612c3057612c2f61309a565b5b602082029050602081019050919050565b600067ffffffffffffffff821115612c5c57612c5b61309a565b5b602082029050602081019050919050565b600067ffffffffffffffff821115612c8857612c8761309a565b5b601f19601f8301169050602081019050919050565b6000819050602082019050919050565b6000819050602082019050919050565b6000819050602082019050919050565b6000819050602082019050919050565b600081519050919050565b600081519050919050565b600081519050919050565b600081519050919050565b600081519050919050565b600081519050919050565b6000602082019050919050565b6000602082019050919050565b6000602082019050919050565b6000602082019050919050565b600082825260208201905092915050565b600082825260208201905092915050565b600082825260208201905092915050565b600082825260208201905092915050565b600082825260208201905092915050565b600082825260208201905092915050565b600081905092915050565b600082825260208201905092915050565b6000612de082612f2d565b9150612deb83612f2d565b9250827fffffffffffffffffffffffffffffffffffffffffffffffffffffffffffffffff03821115612e2057612e1f61300d565b5b828201905092915050565b6000612e3682612f2d565b9150612e4183612f2d565b925082612e5157612e5061303c565b5b828204905092915050565b6000612e6782612f2d565b9150612e7283612f2d565b9250817fffffffffffffffffffffffffffffffffffffffffffffffffffffffffffffffff0483118215151615612eab57612eaa61300d565b5b828202905092915050565b6000612ec182612f0d565b9050919050565b6000612ed382612f0d565b9050919050565b60008115159050919050565b6000819050919050565b6000819050612efe826130da565b919050565b6000819050919050565b600073ffffffffffffffffffffffffffffffffffffffff82169050919050565b6000819050919050565b6000612f44368484611b1b565b905092915050565b6000612f5782612f5e565b9050919050565b6000612f6982612f0d565b9050919050565b6000612f7b82612ef0565b9050919050565b82818337600083830152505050565b60005b83811015612faf578082015181840152602081019050612f94565b83811115612fbe576000848401525b50505050565b6000612fcf82612f2d565b91507fffffffffffffffffffffffffffffffffffffffffffffffffffffffffffffffff8214156130025761300161300d565b5b600182019050919050565b7f4e487b7100000000000000000000000000000000000000000000000000000000600052601160045260246000fd5b7f4e487b7100000000000000000000000000000000000000000000000000000000600052601260045260246000fd5b7f4e487b7100000000000000000000000000000000000000000000000000000000600052602160045260246000fd5b7f4e487b7100000000000000000000000000000000000000000000000000000000600052604160045260246000fd5b6000601f19601f8301169050919050565b600281106130eb576130ea61306b565b5b50565b6130f781612eb6565b811461310257600080fd5b50565b61310e81612ec8565b811461311957600080fd5b50565b61312581612eda565b811461313057600080fd5b50565b61313c81612ee6565b811461314757600080fd5b50565b6002811061315757600080fd5b50565b61316381612f2d565b811461316e57600080fd5b5056fea2646970667358221220a549b58b89159834cfedc8c81afbbb14db13da9de507e6aa715c9d7e64d6438e64736f6c63430008000033",
					"opcodes": "PUSH1 0x80 PUSH1 0x40 MSTORE CALLVALUE DUP1 ISZERO PUSH3 0x11 JUMPI PUSH1 0x0 DUP1 REVERT JUMPDEST POP PUSH1 0x40 MLOAD PUSH3 0x32C7 CODESIZE SUB DUP1 PUSH3 0x32C7 DUP4 CODECOPY DUP2 DUP2 ADD PUSH1 0x40 MSTORE DUP2 ADD SWAP1 PUSH3 0x37 SWAP2 SWAP1 PUSH3 0x96 JUMP JUMPDEST DUP1 PUSH1 0x1 PUSH1 0x0 PUSH2 0x100 EXP DUP2 SLOAD DUP2 PUSH20 0xFFFFFFFFFFFFFFFFFFFFFFFFFFFFFFFFFFFFFFFF MUL NOT AND SWAP1 DUP4 PUSH20 0xFFFFFFFFFFFFFFFFFFFFFFFFFFFFFFFFFFFFFFFF AND MUL OR SWAP1 SSTORE POP POP PUSH3 0x110 JUMP JUMPDEST PUSH1 0x0 DUP2 MLOAD SWAP1 POP PUSH3 0x90 DUP2 PUSH3 0xF6 JUMP JUMPDEST SWAP3 SWAP2 POP POP JUMP JUMPDEST PUSH1 0x0 PUSH1 0x20 DUP3 DUP5 SUB SLT ISZERO PUSH3 0xA9 JUMPI PUSH1 0x0 DUP1 REVERT JUMPDEST PUSH1 0x0 PUSH3 0xB9 DUP5 DUP3 DUP6 ADD PUSH3 0x7F JUMP JUMPDEST SWAP2 POP POP SWAP3 SWAP2 POP POP JUMP JUMPDEST PUSH1 0x0 PUSH3 0xCF DUP3 PUSH3 0xD6 JUMP JUMPDEST SWAP1 POP SWAP2 SWAP1 POP JUMP JUMPDEST PUSH1 0x0 PUSH20 0xFFFFFFFFFFFFFFFFFFFFFFFFFFFFFFFFFFFFFFFF DUP3 AND SWAP1 POP SWAP2 SWAP1 POP JUMP JUMPDEST PUSH3 0x101 DUP2 PUSH3 0xC2 JUMP JUMPDEST DUP2 EQ PUSH3 0x10D JUMPI PUSH1 0x0 DUP1 REVERT JUMPDEST POP JUMP JUMPDEST PUSH2 0x31A7 DUP1 PUSH3 0x120 PUSH1 0x0 CODECOPY PUSH1 0x0 RETURN INVALID PUSH1 0x80 PUSH1 0x40 MSTORE PUSH1 0x4 CALLDATASIZE LT PUSH2 0xAB JUMPI PUSH1 0x0 CALLDATALOAD PUSH1 0xE0 SHR DUP1 PUSH4 0x9AF1D35A GT PUSH2 0x64 JUMPI DUP1 PUSH4 0x9AF1D35A EQ PUSH2 0x1E0 JUMPI DUP1 PUSH4 0xA2E74AF6 EQ PUSH2 0x20B JUMPI DUP1 PUSH4 0xEF3858AB EQ PUSH2 0x248 JUMPI DUP1 PUSH4 0xF46901ED EQ PUSH2 0x264 JUMPI DUP1 PUSH4 0xF654DF7A EQ PUSH2 0x2A1 JUMPI DUP1 PUSH4 0xFD07291F EQ PUSH2 0x2DE JUMPI PUSH2 0xB2 JUMP JUMPDEST DUP1 PUSH4 0x17E7E58 EQ PUSH2 0xB7 JUMPI DUP1 PUSH4 0x239AAD0A EQ PUSH2 0xE2 JUMPI DUP1 PUSH4 0x257B66B0 EQ PUSH2 0xFE JUMPI DUP1 PUSH4 0x3D18678E EQ PUSH2 0x13B JUMPI DUP1 PUSH4 0x8AC051F2 EQ PUSH2 0x178 JUMPI DUP1 PUSH4 0x8E7FA96A EQ PUSH2 0x1B5 JUMPI PUSH2 0xB2 JUMP JUMPDEST CALLDATASIZE PUSH2 0xB2 JUMPI STOP JUMPDEST PUSH1 0x0 DUP1 REVERT JUMPDEST CALLVALUE DUP1 ISZERO PUSH2 0xC3 JUMPI PUSH1 0x0 DUP1 REVERT JUMPDEST POP PUSH2 0xCC PUSH2 0x31B JUMP JUMPDEST PUSH1 0x40 MLOAD PUSH2 0xD9 SWAP2 SWAP1 PUSH2 0x26FB JUMP JUMPDEST PUSH1 0x40 MLOAD DUP1 SWAP2 SUB SWAP1 RETURN JUMPDEST PUSH2 0xFC PUSH1 0x4 DUP1 CALLDATASIZE SUB DUP2 ADD SWAP1 PUSH2 0xF7 SWAP2 SWAP1 PUSH2 0x1F5C JUMP JUMPDEST PUSH2 0x33F JUMP JUMPDEST STOP JUMPDEST CALLVALUE DUP1 ISZERO PUSH2 0x10A JUMPI PUSH1 0x0 DUP1 REVERT JUMPDEST POP PUSH2 0x125 PUSH1 0x4 DUP1 CALLDATASIZE SUB DUP2 ADD SWAP1 PUSH2 0x120 SWAP2 SWAP1 PUSH2 0x1FC6 JUMP JUMPDEST PUSH2 0x95A JUMP JUMPDEST PUSH1 0x40 MLOAD PUSH2 0x132 SWAP2 SWAP1 PUSH2 0x26E0 JUMP JUMPDEST PUSH1 0x40 MLOAD DUP1 SWAP2 SUB SWAP1 RETURN JUMPDEST CALLVALUE DUP1 ISZERO PUSH2 0x147 JUMPI PUSH1 0x0 DUP1 REVERT JUMPDEST POP PUSH2 0x162 PUSH1 0x4 DUP1 CALLDATASIZE SUB DUP2 ADD SWAP1 PUSH2 0x15D SWAP2 SWAP1 PUSH2 0x1FC6 JUMP JUMPDEST PUSH2 0x98D JUMP JUMPDEST PUSH1 0x40 MLOAD PUSH2 0x16F SWAP2 SWAP1 PUSH2 0x27B4 JUMP JUMPDEST PUSH1 0x40 MLOAD DUP1 SWAP2 SUB SWAP1 RETURN JUMPDEST CALLVALUE DUP1 ISZERO PUSH2 0x184 JUMPI PUSH1 0x0 DUP1 REVERT JUMPDEST POP PUSH2 0x19F PUSH1 0x4 DUP1 CALLDATASIZE SUB DUP2 ADD SWAP1 PUSH2 0x19A SWAP2 SWAP1 PUSH2 0x1E4E JUMP JUMPDEST PUSH2 0xA73 JUMP JUMPDEST PUSH1 0x40 MLOAD PUSH2 0x1AC SWAP2 SWAP1 PUSH2 0x26E0 JUMP JUMPDEST PUSH1 0x40 MLOAD DUP1 SWAP2 SUB SWAP1 RETURN JUMPDEST CALLVALUE DUP1 ISZERO PUSH2 0x1C1 JUMPI PUSH1 0x0 DUP1 REVERT JUMPDEST POP PUSH2 0x1CA PUSH2 0xAFA JUMP JUMPDEST PUSH1 0x40 MLOAD PUSH2 0x1D7 SWAP2 SWAP1 PUSH2 0x26E0 JUMP JUMPDEST PUSH1 0x40 MLOAD DUP1 SWAP2 SUB SWAP1 RETURN JUMPDEST CALLVALUE DUP1 ISZERO PUSH2 0x1EC JUMPI PUSH1 0x0 DUP1 REVERT JUMPDEST POP PUSH2 0x1F5 PUSH2 0xB20 JUMP JUMPDEST PUSH1 0x40 MLOAD PUSH2 0x202 SWAP2 SWAP1 PUSH2 0x2949 JUMP JUMPDEST PUSH1 0x40 MLOAD DUP1 SWAP2 SUB SWAP1 RETURN JUMPDEST CALLVALUE DUP1 ISZERO PUSH2 0x217 JUMPI PUSH1 0x0 DUP1 REVERT JUMPDEST POP PUSH2 0x232 PUSH1 0x4 DUP1 CALLDATASIZE SUB DUP2 ADD SWAP1 PUSH2 0x22D SWAP2 SWAP1 PUSH2 0x1E4E JUMP JUMPDEST PUSH2 0xB26 JUMP JUMPDEST PUSH1 0x40 MLOAD PUSH2 0x23F SWAP2 SWAP1 PUSH2 0x27B4 JUMP JUMPDEST PUSH1 0x40 MLOAD DUP1 SWAP2 SUB SWAP1 RETURN JUMPDEST PUSH2 0x262 PUSH1 0x4 DUP1 CALLDATASIZE SUB DUP2 ADD SWAP1 PUSH2 0x25D SWAP2 SWAP1 PUSH2 0x1FEF JUMP JUMPDEST PUSH2 0xC72 JUMP JUMPDEST STOP JUMPDEST CALLVALUE DUP1 ISZERO PUSH2 0x270 JUMPI PUSH1 0x0 DUP1 REVERT JUMPDEST POP PUSH2 0x28B PUSH1 0x4 DUP1 CALLDATASIZE SUB DUP2 ADD SWAP1 PUSH2 0x286 SWAP2 SWAP1 PUSH2 0x1EA0 JUMP JUMPDEST PUSH2 0xDB5 JUMP JUMPDEST PUSH1 0x40 MLOAD PUSH2 0x298 SWAP2 SWAP1 PUSH2 0x27B4 JUMP JUMPDEST PUSH1 0x40 MLOAD DUP1 SWAP2 SUB SWAP1 RETURN JUMPDEST CALLVALUE DUP1 ISZERO PUSH2 0x2AD JUMPI PUSH1 0x0 DUP1 REVERT JUMPDEST POP PUSH2 0x2C8 PUSH1 0x4 DUP1 CALLDATASIZE SUB DUP2 ADD SWAP1 PUSH2 0x2C3 SWAP2 SWAP1 PUSH2 0x1FEF JUMP JUMPDEST PUSH2 0xF00 JUMP JUMPDEST PUSH1 0x40 MLOAD PUSH2 0x2D5 SWAP2 SWAP1 PUSH2 0x27B4 JUMP JUMPDEST PUSH1 0x40 MLOAD DUP1 SWAP2 SUB SWAP1 RETURN JUMPDEST CALLVALUE DUP1 ISZERO PUSH2 0x2EA JUMPI PUSH1 0x0 DUP1 REVERT JUMPDEST POP PUSH2 0x305 PUSH1 0x4 DUP1 CALLDATASIZE SUB DUP2 ADD SWAP1 PUSH2 0x300 SWAP2 SWAP1 PUSH2 0x1EC9 JUMP JUMPDEST PUSH2 0x105E JUMP JUMPDEST PUSH1 0x40 MLOAD PUSH2 0x312 SWAP2 SWAP1 PUSH2 0x2949 JUMP JUMPDEST PUSH1 0x40 MLOAD DUP1 SWAP2 SUB SWAP1 RETURN JUMPDEST PUSH1 0x0 DUP1 SLOAD SWAP1 PUSH2 0x100 EXP SWAP1 DIV PUSH20 0xFFFFFFFFFFFFFFFFFFFFFFFFFFFFFFFFFFFFFFFF AND DUP2 JUMP JUMPDEST PUSH1 0x0 PUSH2 0x399 DUP3 DUP1 PUSH1 0x0 ADD SWAP1 PUSH2 0x354 SWAP2 SWAP1 PUSH2 0x2B36 JUMP JUMPDEST DUP1 DUP1 PUSH1 0x20 MUL PUSH1 0x20 ADD PUSH1 0x40 MLOAD SWAP1 DUP2 ADD PUSH1 0x40 MSTORE DUP1 SWAP4 SWAP3 SWAP2 SWAP1 DUP2 DUP2 MSTORE PUSH1 0x20 ADD DUP4 DUP4 PUSH1 0x20 MUL DUP1 DUP3 DUP5 CALLDATACOPY PUSH1 0x0 DUP2 DUP5 ADD MSTORE PUSH1 0x1F NOT PUSH1 0x1F DUP3 ADD AND SWAP1 POP DUP1 DUP4 ADD SWAP3 POP POP POP POP POP POP POP PUSH2 0x105E JUMP JUMPDEST SWAP1 POP PUSH1 0x0 PUSH2 0x3CC PUSH8 0xDE0B6B3A7640000 PUSH2 0x3BE PUSH1 0x2 SLOAD DUP6 PUSH2 0x10D8 SWAP1 SWAP2 SWAP1 PUSH4 0xFFFFFFFF AND JUMP JUMPDEST PUSH2 0x1153 SWAP1 SWAP2 SWAP1 PUSH4 0xFFFFFFFF AND JUMP JUMPDEST SWAP1 POP PUSH1 0x0 PUSH20 0xFFFFFFFFFFFFFFFFFFFFFFFFFFFFFFFFFFFFFFFF AND DUP4 PUSH1 0xA0 ADD PUSH1 0x20 DUP2 ADD SWAP1 PUSH2 0x3F9 SWAP2 SWAP1 PUSH2 0x1E4E JUMP JUMPDEST PUSH20 0xFFFFFFFFFFFFFFFFFFFFFFFFFFFFFFFFFFFFFFFF AND EQ ISZERO PUSH2 0x491 JUMPI DUP1 DUP3 PUSH2 0x421 SWAP2 SWAP1 PUSH2 0x2DD5 JUMP JUMPDEST CALLVALUE EQ PUSH2 0x462 JUMPI PUSH1 0x40 MLOAD PUSH32 0x8C379A000000000000000000000000000000000000000000000000000000000 DUP2 MSTORE PUSH1 0x4 ADD PUSH2 0x459 SWAP1 PUSH2 0x2929 JUMP JUMPDEST PUSH1 0x40 MLOAD DUP1 SWAP2 SUB SWAP1 REVERT JUMPDEST PUSH2 0x48C PUSH1 0x0 DUP1 SLOAD SWAP1 PUSH2 0x100 EXP SWAP1 DIV PUSH20 0xFFFFFFFFFFFFFFFFFFFFFFFFFFFFFFFFFFFFFFFF AND DUP3 PUSH2 0x119D JUMP JUMPDEST PUSH2 0x4EE JUMP JUMPDEST PUSH2 0x4AF DUP4 PUSH1 0xA0 ADD PUSH1 0x20 DUP2 ADD SWAP1 PUSH2 0x4A7 SWAP2 SWAP1 PUSH2 0x1E4E JUMP JUMPDEST CALLER ADDRESS DUP6 PUSH2 0x12C3 JUMP JUMPDEST PUSH2 0x4ED DUP4 PUSH1 0xA0 ADD PUSH1 0x20 DUP2 ADD SWAP1 PUSH2 0x4C5 SWAP2 SWAP1 PUSH2 0x1E4E JUMP JUMPDEST CALLER PUSH1 0x0 DUP1 SLOAD SWAP1 PUSH2 0x100 EXP SWAP1 DIV PUSH20 0xFFFFFFFFFFFFFFFFFFFFFFFFFFFFFFFFFFFFFFFF AND DUP5 PUSH2 0x12C3 JUMP JUMPDEST JUMPDEST PUSH1 0x0 JUMPDEST DUP4 DUP1 PUSH1 0xE0 ADD SWAP1 PUSH2 0x501 SWAP2 SWAP1 PUSH2 0x2B36 JUMP JUMPDEST SWAP1 POP DUP2 LT ISZERO PUSH2 0x954 JUMPI PUSH1 0x0 PUSH1 0x3 PUSH1 0x0 DUP7 DUP1 PUSH1 0xE0 ADD SWAP1 PUSH2 0x520 SWAP2 SWAP1 PUSH2 0x2B36 JUMP JUMPDEST DUP6 DUP2 DUP2 LT PUSH2 0x557 JUMPI PUSH32 0x4E487B7100000000000000000000000000000000000000000000000000000000 PUSH1 0x0 MSTORE PUSH1 0x32 PUSH1 0x4 MSTORE PUSH1 0x24 PUSH1 0x0 REVERT JUMPDEST SWAP1 POP PUSH1 0x20 MUL ADD CALLDATALOAD DUP2 MSTORE PUSH1 0x20 ADD SWAP1 DUP2 MSTORE PUSH1 0x20 ADD PUSH1 0x0 KECCAK256 PUSH1 0x0 SWAP1 SLOAD SWAP1 PUSH2 0x100 EXP SWAP1 DIV PUSH20 0xFFFFFFFFFFFFFFFFFFFFFFFFFFFFFFFFFFFFFFFF AND SWAP1 POP PUSH1 0x0 DUP3 EQ DUP1 ISZERO PUSH2 0x5B1 JUMPI POP PUSH1 0x4 DUP6 DUP1 PUSH2 0x100 ADD SWAP1 PUSH2 0x5AD SWAP2 SWAP1 PUSH2 0x2B36 JUMP JUMPDEST SWAP1 POP EQ JUMPDEST ISZERO PUSH2 0x68B JUMPI PUSH2 0x686 DUP6 PUSH1 0xA0 ADD PUSH1 0x20 DUP2 ADD SWAP1 PUSH2 0x5CC SWAP2 SWAP1 PUSH2 0x1E4E JUMP JUMPDEST DUP3 DUP8 PUSH1 0x60 ADD PUSH1 0x20 DUP2 ADD SWAP1 PUSH2 0x5E0 SWAP2 SWAP1 PUSH2 0x1EA0 JUMP JUMPDEST DUP9 DUP1 PUSH2 0x100 ADD SWAP1 PUSH2 0x5F1 SWAP2 SWAP1 PUSH2 0x2B36 JUMP JUMPDEST PUSH1 0x2 DUP2 DUP2 LT PUSH2 0x629 JUMPI PUSH32 0x4E487B7100000000000000000000000000000000000000000000000000000000 PUSH1 0x0 MSTORE PUSH1 0x32 PUSH1 0x4 MSTORE PUSH1 0x24 PUSH1 0x0 REVERT JUMPDEST SWAP1 POP PUSH1 0x20 MUL ADD CALLDATALOAD DUP10 DUP1 PUSH2 0x100 ADD SWAP1 PUSH2 0x641 SWAP2 SWAP1 PUSH2 0x2B36 JUMP JUMPDEST DUP1 DUP1 PUSH1 0x20 MUL PUSH1 0x20 ADD PUSH1 0x40 MLOAD SWAP1 DUP2 ADD PUSH1 0x40 MSTORE DUP1 SWAP4 SWAP3 SWAP2 SWAP1 DUP2 DUP2 MSTORE PUSH1 0x20 ADD DUP4 DUP4 PUSH1 0x20 MUL DUP1 DUP3 DUP5 CALLDATACOPY PUSH1 0x0 DUP2 DUP5 ADD MSTORE PUSH1 0x1F NOT PUSH1 0x1F DUP3 ADD AND SWAP1 POP DUP1 DUP4 ADD SWAP3 POP POP POP POP POP POP POP PUSH2 0x13FC JUMP JUMPDEST PUSH2 0x940 JUMP JUMPDEST PUSH1 0x1 DUP3 EQ DUP1 ISZERO PUSH2 0x6AD JUMPI POP PUSH1 0x1 DUP6 DUP1 PUSH2 0x1C0 ADD SWAP1 PUSH2 0x6A9 SWAP2 SWAP1 PUSH2 0x2A88 JUMP JUMPDEST SWAP1 POP GT JUMPDEST ISZERO PUSH2 0x7BF JUMPI PUSH2 0x7BA DUP6 PUSH2 0x200 ADD PUSH1 0x20 DUP2 ADD SWAP1 PUSH2 0x6C9 SWAP2 SWAP1 PUSH2 0x1F33 JUMP JUMPDEST DUP7 PUSH1 0xA0 ADD PUSH1 0x20 DUP2 ADD SWAP1 PUSH2 0x6DC SWAP2 SWAP1 PUSH2 0x1E4E JUMP JUMPDEST DUP4 DUP9 DUP1 PUSH2 0x120 ADD SWAP1 PUSH2 0x6EE SWAP2 SWAP1 PUSH2 0x2ADF JUMP JUMPDEST SWAP1 PUSH2 0x6F9 SWAP2 SWAP1 PUSH2 0x2F37 JUMP JUMPDEST DUP10 PUSH2 0x140 ADD DUP1 CALLDATASIZE SUB DUP2 ADD SWAP1 PUSH2 0x70E SWAP2 SWAP1 PUSH2 0x1F9D JUMP JUMPDEST DUP11 DUP1 PUSH2 0x1E0 ADD SWAP1 PUSH2 0x71F SWAP2 SWAP1 PUSH2 0x2A31 JUMP JUMPDEST DUP1 DUP1 PUSH1 0x20 MUL PUSH1 0x20 ADD PUSH1 0x40 MLOAD SWAP1 DUP2 ADD PUSH1 0x40 MSTORE DUP1 SWAP4 SWAP3 SWAP2 SWAP1 DUP2 DUP2 MSTORE PUSH1 0x20 ADD DUP4 DUP4 PUSH1 0x20 MUL DUP1 DUP3 DUP5 CALLDATACOPY PUSH1 0x0 DUP2 DUP5 ADD MSTORE PUSH1 0x1F NOT PUSH1 0x1F DUP3 ADD AND SWAP1 POP DUP1 DUP4 ADD SWAP3 POP POP POP POP POP POP POP DUP12 DUP1 PUSH2 0x1C0 ADD SWAP1 PUSH2 0x770 SWAP2 SWAP1 PUSH2 0x2A88 JUMP JUMPDEST DUP1 DUP1 PUSH1 0x20 MUL PUSH1 0x20 ADD PUSH1 0x40 MLOAD SWAP1 DUP2 ADD PUSH1 0x40 MSTORE DUP1 SWAP4 SWAP3 SWAP2 SWAP1 DUP2 DUP2 MSTORE PUSH1 0x20 ADD DUP4 DUP4 PUSH1 0x20 MUL DUP1 DUP3 DUP5 CALLDATACOPY PUSH1 0x0 DUP2 DUP5 ADD MSTORE PUSH1 0x1F NOT PUSH1 0x1F DUP3 ADD AND SWAP1 POP DUP1 DUP4 ADD SWAP3 POP POP POP POP POP POP POP DUP13 PUSH1 0x80 ADD CALLDATALOAD PUSH2 0x150B JUMP JUMPDEST PUSH2 0x93F JUMP JUMPDEST PUSH2 0x93E DUP2 DUP7 DUP1 PUSH1 0x0 ADD SWAP1 PUSH2 0x7D3 SWAP2 SWAP1 PUSH2 0x2B36 JUMP JUMPDEST DUP6 DUP2 DUP2 LT PUSH2 0x80A JUMPI PUSH32 0x4E487B7100000000000000000000000000000000000000000000000000000000 PUSH1 0x0 MSTORE PUSH1 0x32 PUSH1 0x4 MSTORE PUSH1 0x24 PUSH1 0x0 REVERT JUMPDEST SWAP1 POP PUSH1 0x20 MUL ADD CALLDATALOAD DUP8 DUP1 PUSH1 0x20 ADD SWAP1 PUSH2 0x821 SWAP2 SWAP1 PUSH2 0x2B36 JUMP JUMPDEST DUP7 DUP2 DUP2 LT PUSH2 0x858 JUMPI PUSH32 0x4E487B7100000000000000000000000000000000000000000000000000000000 PUSH1 0x0 MSTORE PUSH1 0x32 PUSH1 0x4 MSTORE PUSH1 0x24 PUSH1 0x0 REVERT JUMPDEST SWAP1 POP PUSH1 0x20 MUL ADD CALLDATALOAD DUP9 DUP1 PUSH1 0x40 ADD SWAP1 PUSH2 0x86F SWAP2 SWAP1 PUSH2 0x29DA JUMP JUMPDEST DUP8 DUP2 DUP2 LT PUSH2 0x8A6 JUMPI PUSH32 0x4E487B7100000000000000000000000000000000000000000000000000000000 PUSH1 0x0 MSTORE PUSH1 0x32 PUSH1 0x4 MSTORE PUSH1 0x24 PUSH1 0x0 REVERT JUMPDEST SWAP1 POP PUSH1 0x20 MUL DUP2 ADD SWAP1 PUSH2 0x8B8 SWAP2 SWAP1 PUSH2 0x2B8D JUMP JUMPDEST DUP1 DUP1 PUSH1 0x1F ADD PUSH1 0x20 DUP1 SWAP2 DIV MUL PUSH1 0x20 ADD PUSH1 0x40 MLOAD SWAP1 DUP2 ADD PUSH1 0x40 MSTORE DUP1 SWAP4 SWAP3 SWAP2 SWAP1 DUP2 DUP2 MSTORE PUSH1 0x20 ADD DUP4 DUP4 DUP1 DUP3 DUP5 CALLDATACOPY PUSH1 0x0 DUP2 DUP5 ADD MSTORE PUSH1 0x1F NOT PUSH1 0x1F DUP3 ADD AND SWAP1 POP DUP1 DUP4 ADD SWAP3 POP POP POP POP POP POP POP DUP10 PUSH1 0x60 ADD PUSH1 0x20 DUP2 ADD SWAP1 PUSH2 0x90E SWAP2 SWAP1 PUSH2 0x1EA0 JUMP JUMPDEST DUP11 PUSH1 0x80 ADD CALLDATALOAD DUP12 PUSH1 0xA0 ADD PUSH1 0x20 DUP2 ADD SWAP1 PUSH2 0x926 SWAP2 SWAP1 PUSH2 0x1E4E JUMP JUMPDEST DUP13 PUSH1 0xC0 ADD PUSH1 0x20 DUP2 ADD SWAP1 PUSH2 0x939 SWAP2 SWAP1 PUSH2 0x1E4E JUMP JUMPDEST PUSH2 0x17AC JUMP JUMPDEST JUMPDEST JUMPDEST POP DUP1 DUP1 PUSH2 0x94C SWAP1 PUSH2 0x2FC4 JUMP JUMPDEST SWAP2 POP POP PUSH2 0x4F1 JUMP JUMPDEST POP POP POP POP JUMP JUMPDEST PUSH1 0x3 PUSH1 0x20 MSTORE DUP1 PUSH1 0x0 MSTORE PUSH1 0x40 PUSH1 0x0 KECCAK256 PUSH1 0x0 SWAP2 POP SLOAD SWAP1 PUSH2 0x100 EXP SWAP1 DIV PUSH20 0xFFFFFFFFFFFFFFFFFFFFFFFFFFFFFFFFFFFFFFFF AND DUP2 JUMP JUMPDEST PUSH1 0x0 PUSH1 0x1 PUSH1 0x0 SWAP1 SLOAD SWAP1 PUSH2 0x100 EXP SWAP1 DIV PUSH20 0xFFFFFFFFFFFFFFFFFFFFFFFFFFFFFFFFFFFFFFFF AND PUSH20 0xFFFFFFFFFFFFFFFFFFFFFFFFFFFFFFFFFFFFFFFF AND CALLER PUSH20 0xFFFFFFFFFFFFFFFFFFFFFFFFFFFFFFFFFFFFFFFF AND EQ PUSH2 0xA1F JUMPI PUSH1 0x40 MLOAD PUSH32 0x8C379A000000000000000000000000000000000000000000000000000000000 DUP2 MSTORE PUSH1 0x4 ADD PUSH2 0xA16 SWAP1 PUSH2 0x28C9 JUMP JUMPDEST PUSH1 0x40 MLOAD DUP1 SWAP2 SUB SWAP1 REVERT JUMPDEST PUSH1 0x0 DUP3 EQ ISZERO PUSH2 0xA63 JUMPI PUSH1 0x40 MLOAD PUSH32 0x8C379A000000000000000000000000000000000000000000000000000000000 DUP2 MSTORE PUSH1 0x4 ADD PUSH2 0xA5A SWAP1 PUSH2 0x2909 JUMP JUMPDEST PUSH1 0x40 MLOAD DUP1 SWAP2 SUB SWAP1 REVERT JUMPDEST DUP2 PUSH1 0x2 DUP2 SWAP1 SSTORE POP PUSH1 0x1 SWAP1 POP SWAP2 SWAP1 POP JUMP JUMPDEST PUSH1 0x0 DUP2 PUSH20 0xFFFFFFFFFFFFFFFFFFFFFFFFFFFFFFFFFFFFFFFF AND PUSH4 0xAD5C4648 PUSH1 0x40 MLOAD DUP2 PUSH4 0xFFFFFFFF AND PUSH1 0xE0 SHL DUP2 MSTORE PUSH1 0x4 ADD PUSH1 0x20 PUSH1 0x40 MLOAD DUP1 DUP4 SUB DUP2 DUP7 DUP1 EXTCODESIZE ISZERO DUP1 ISZERO PUSH2 0xABB JUMPI PUSH1 0x0 DUP1 REVERT JUMPDEST POP GAS STATICCALL ISZERO DUP1 ISZERO PUSH2 0xACF JUMPI RETURNDATASIZE PUSH1 0x0 DUP1 RETURNDATACOPY RETURNDATASIZE PUSH1 0x0 REVERT JUMPDEST POP POP POP POP PUSH1 0x40 MLOAD RETURNDATASIZE PUSH1 0x1F NOT PUSH1 0x1F DUP3 ADD AND DUP3 ADD DUP1 PUSH1 0x40 MSTORE POP DUP2 ADD SWAP1 PUSH2 0xAF3 SWAP2 SWAP1 PUSH2 0x1E77 JUMP JUMPDEST SWAP1 POP SWAP2 SWAP1 POP JUMP JUMPDEST PUSH1 0x1 PUSH1 0x0 SWAP1 SLOAD SWAP1 PUSH2 0x100 EXP SWAP1 DIV PUSH20 0xFFFFFFFFFFFFFFFFFFFFFFFFFFFFFFFFFFFFFFFF AND DUP2 JUMP JUMPDEST PUSH1 0x2 SLOAD DUP2 JUMP JUMPDEST PUSH1 0x0 PUSH1 0x1 PUSH1 0x0 SWAP1 SLOAD SWAP1 PUSH2 0x100 EXP SWAP1 DIV PUSH20 0xFFFFFFFFFFFFFFFFFFFFFFFFFFFFFFFFFFFFFFFF AND PUSH20 0xFFFFFFFFFFFFFFFFFFFFFFFFFFFFFFFFFFFFFFFF AND CALLER PUSH20 0xFFFFFFFFFFFFFFFFFFFFFFFFFFFFFFFFFFFFFFFF AND EQ PUSH2 0xBB8 JUMPI PUSH1 0x40 MLOAD PUSH32 0x8C379A000000000000000000000000000000000000000000000000000000000 DUP2 MSTORE PUSH1 0x4 ADD PUSH2 0xBAF SWAP1 PUSH2 0x28C9 JUMP JUMPDEST PUSH1 0x40 MLOAD DUP1 SWAP2 SUB SWAP1 REVERT JUMPDEST PUSH1 0x0 PUSH20 0xFFFFFFFFFFFFFFFFFFFFFFFFFFFFFFFFFFFFFFFF AND DUP3 PUSH20 0xFFFFFFFFFFFFFFFFFFFFFFFFFFFFFFFFFFFFFFFF AND EQ ISZERO PUSH2 0xC28 JUMPI PUSH1 0x40 MLOAD PUSH32 0x8C379A000000000000000000000000000000000000000000000000000000000 DUP2 MSTORE PUSH1 0x4 ADD PUSH2 0xC1F SWAP1 PUSH2 0x2909 JUMP JUMPDEST PUSH1 0x40 MLOAD DUP1 SWAP2 SUB SWAP1 REVERT JUMPDEST DUP2 PUSH1 0x1 PUSH1 0x0 PUSH2 0x100 EXP DUP2 SLOAD DUP2 PUSH20 0xFFFFFFFFFFFFFFFFFFFFFFFFFFFFFFFFFFFFFFFF MUL NOT AND SWAP1 DUP4 PUSH20 0xFFFFFFFFFFFFFFFFFFFFFFFFFFFFFFFFFFFFFFFF AND MUL OR SWAP1 SSTORE POP PUSH1 0x1 SWAP1 POP SWAP2 SWAP1 POP JUMP JUMPDEST PUSH1 0x0 PUSH2 0xCA3 PUSH8 0xDE0B6B3A7640000 PUSH2 0xC95 PUSH1 0x2 SLOAD DUP7 PUSH2 0x10D8 SWAP1 SWAP2 SWAP1 PUSH4 0xFFFFFFFF AND JUMP JUMPDEST PUSH2 0x1153 SWAP1 SWAP2 SWAP1 PUSH4 0xFFFFFFFF AND JUMP JUMPDEST SWAP1 POP DUP1 DUP4 PUSH2 0xCB1 SWAP2 SWAP1 PUSH2 0x2DD5 JUMP JUMPDEST CALLVALUE EQ PUSH2 0xCF2 JUMPI PUSH1 0x40 MLOAD PUSH32 0x8C379A000000000000000000000000000000000000000000000000000000000 DUP2 MSTORE PUSH1 0x4 ADD PUSH2 0xCE9 SWAP1 PUSH2 0x2929 JUMP JUMPDEST PUSH1 0x40 MLOAD DUP1 SWAP2 SUB SWAP1 REVERT JUMPDEST PUSH2 0xD1C PUSH1 0x0 DUP1 SLOAD SWAP1 PUSH2 0x100 EXP SWAP1 DIV PUSH20 0xFFFFFFFFFFFFFFFFFFFFFFFFFFFFFFFFFFFFFFFF AND DUP3 PUSH2 0x119D JUMP JUMPDEST PUSH20 0xD500B1D8E8EF31E21C99D1DB9A6444D3ADF1270 PUSH20 0xFFFFFFFFFFFFFFFFFFFFFFFFFFFFFFFFFFFFFFFF AND PUSH4 0xD0E30DB0 DUP5 PUSH1 0x40 MLOAD DUP3 PUSH4 0xFFFFFFFF AND PUSH1 0xE0 SHL DUP2 MSTORE PUSH1 0x4 ADD PUSH1 0x0 PUSH1 0x40 MLOAD DUP1 DUP4 SUB DUP2 DUP6 DUP9 DUP1 EXTCODESIZE ISZERO DUP1 ISZERO PUSH2 0xD78 JUMPI PUSH1 0x0 DUP1 REVERT JUMPDEST POP GAS CALL ISZERO DUP1 ISZERO PUSH2 0xD8C JUMPI RETURNDATASIZE PUSH1 0x0 DUP1 RETURNDATACOPY RETURNDATASIZE PUSH1 0x0 REVERT JUMPDEST POP POP POP POP POP PUSH2 0xDB0 PUSH20 0xD500B1D8E8EF31E21C99D1DB9A6444D3ADF1270 DUP4 DUP6 PUSH2 0x1982 JUMP JUMPDEST POP POP POP JUMP JUMPDEST PUSH1 0x0 PUSH1 0x1 PUSH1 0x0 SWAP1 SLOAD SWAP1 PUSH2 0x100 EXP SWAP1 DIV PUSH20 0xFFFFFFFFFFFFFFFFFFFFFFFFFFFFFFFFFFFFFFFF AND PUSH20 0xFFFFFFFFFFFFFFFFFFFFFFFFFFFFFFFFFFFFFFFF AND CALLER PUSH20 0xFFFFFFFFFFFFFFFFFFFFFFFFFFFFFFFFFFFFFFFF AND EQ PUSH2 0xE47 JUMPI PUSH1 0x40 MLOAD PUSH32 0x8C379A000000000000000000000000000000000000000000000000000000000 DUP2 MSTORE PUSH1 0x4 ADD PUSH2 0xE3E SWAP1 PUSH2 0x28C9 JUMP JUMPDEST PUSH1 0x40 MLOAD DUP1 SWAP2 SUB SWAP1 REVERT JUMPDEST PUSH1 0x0 PUSH20 0xFFFFFFFFFFFFFFFFFFFFFFFFFFFFFFFFFFFFFFFF AND DUP3 PUSH20 0xFFFFFFFFFFFFFFFFFFFFFFFFFFFFFFFFFFFFFFFF AND EQ ISZERO PUSH2 0xEB7 JUMPI PUSH1 0x40 MLOAD PUSH32 0x8C379A000000000000000000000000000000000000000000000000000000000 DUP2 MSTORE PUSH1 0x4 ADD PUSH2 0xEAE SWAP1 PUSH2 0x2909 JUMP JUMPDEST PUSH1 0x40 MLOAD DUP1 SWAP2 SUB SWAP1 REVERT JUMPDEST DUP2 PUSH1 0x0 DUP1 PUSH2 0x100 EXP DUP2 SLOAD DUP2 PUSH20 0xFFFFFFFFFFFFFFFFFFFFFFFFFFFFFFFFFFFFFFFF MUL NOT AND SWAP1 DUP4 PUSH20 0xFFFFFFFFFFFFFFFFFFFFFFFFFFFFFFFFFFFFFFFF AND MUL OR SWAP1 SSTORE POP PUSH1 0x1 SWAP1 POP SWAP2 SWAP1 POP JUMP JUMPDEST PUSH1 0x0 PUSH1 0x1 PUSH1 0x0 SWAP1 SLOAD SWAP1 PUSH2 0x100 EXP SWAP1 DIV PUSH20 0xFFFFFFFFFFFFFFFFFFFFFFFFFFFFFFFFFFFFFFFF AND PUSH20 0xFFFFFFFFFFFFFFFFFFFFFFFFFFFFFFFFFFFFFFFF AND CALLER PUSH20 0xFFFFFFFFFFFFFFFFFFFFFFFFFFFFFFFFFFFFFFFF AND EQ PUSH2 0xF92 JUMPI PUSH1 0x40 MLOAD PUSH32 0x8C379A000000000000000000000000000000000000000000000000000000000 DUP2 MSTORE PUSH1 0x4 ADD PUSH2 0xF89 SWAP1 PUSH2 0x28C9 JUMP JUMPDEST PUSH1 0x40 MLOAD DUP1 SWAP2 SUB SWAP1 REVERT JUMPDEST PUSH1 0x0 PUSH20 0xFFFFFFFFFFFFFFFFFFFFFFFFFFFFFFFFFFFFFFFF AND DUP3 PUSH20 0xFFFFFFFFFFFFFFFFFFFFFFFFFFFFFFFFFFFFFFFF AND EQ ISZERO PUSH2 0x1002 JUMPI PUSH1 0x40 MLOAD PUSH32 0x8C379A000000000000000000000000000000000000000000000000000000000 DUP2 MSTORE PUSH1 0x4 ADD PUSH2 0xFF9 SWAP1 PUSH2 0x2909 JUMP JUMPDEST PUSH1 0x40 MLOAD DUP1 SWAP2 SUB SWAP1 REVERT JUMPDEST DUP2 PUSH1 0x3 PUSH1 0x0 DUP6 DUP2 MSTORE PUSH1 0x20 ADD SWAP1 DUP2 MSTORE PUSH1 0x20 ADD PUSH1 0x0 KECCAK256 PUSH1 0x0 PUSH2 0x100 EXP DUP2 SLOAD DUP2 PUSH20 0xFFFFFFFFFFFFFFFFFFFFFFFFFFFFFFFFFFFFFFFF MUL NOT AND SWAP1 DUP4 PUSH20 0xFFFFFFFFFFFFFFFFFFFFFFFFFFFFFFFFFFFFFFFF AND MUL OR SWAP1 SSTORE POP PUSH1 0x1 SWAP1 POP SWAP3 SWAP2 POP POP JUMP JUMPDEST PUSH1 0x0 DUP1 PUSH1 0x0 JUMPDEST DUP4 MLOAD DUP2 LT ISZERO PUSH2 0x10CE JUMPI DUP4 DUP2 DUP2 MLOAD DUP2 LT PUSH2 0x10A6 JUMPI PUSH32 0x4E487B7100000000000000000000000000000000000000000000000000000000 PUSH1 0x0 MSTORE PUSH1 0x32 PUSH1 0x4 MSTORE PUSH1 0x24 PUSH1 0x0 REVERT JUMPDEST PUSH1 0x20 MUL PUSH1 0x20 ADD ADD MLOAD DUP3 PUSH2 0x10B9 SWAP2 SWAP1 PUSH2 0x2DD5 JUMP JUMPDEST SWAP2 POP DUP1 DUP1 PUSH2 0x10C6 SWAP1 PUSH2 0x2FC4 JUMP JUMPDEST SWAP2 POP POP PUSH2 0x1064 JUMP JUMPDEST POP DUP1 SWAP2 POP POP SWAP2 SWAP1 POP JUMP JUMPDEST PUSH1 0x0 DUP1 DUP4 EQ ISZERO PUSH2 0x10EB JUMPI PUSH1 0x0 SWAP1 POP PUSH2 0x114D JUMP JUMPDEST PUSH1 0x0 DUP3 DUP5 PUSH2 0x10F9 SWAP2 SWAP1 PUSH2 0x2E5C JUMP JUMPDEST SWAP1 POP DUP3 DUP5 DUP3 PUSH2 0x1108 SWAP2 SWAP1 PUSH2 0x2E2B JUMP JUMPDEST EQ PUSH2 0x1148 JUMPI PUSH1 0x40 MLOAD PUSH32 0x8C379A000000000000000000000000000000000000000000000000000000000 DUP2 MSTORE PUSH1 0x4 ADD PUSH2 0x113F SWAP1 PUSH2 0x28A9 JUMP JUMPDEST PUSH1 0x40 MLOAD DUP1 SWAP2 SUB SWAP1 REVERT JUMPDEST DUP1 SWAP2 POP POP JUMPDEST SWAP3 SWAP2 POP POP JUMP JUMPDEST PUSH1 0x0 PUSH2 0x1195 DUP4 DUP4 PUSH1 0x40 MLOAD DUP1 PUSH1 0x40 ADD PUSH1 0x40 MSTORE DUP1 PUSH1 0x1A DUP2 MSTORE PUSH1 0x20 ADD PUSH32 0x536166654D6174683A206469766973696F6E206279207A65726F000000000000 DUP2 MSTORE POP PUSH2 0x1AB8 JUMP JUMPDEST SWAP1 POP SWAP3 SWAP2 POP POP JUMP JUMPDEST PUSH1 0x0 DUP3 PUSH20 0xFFFFFFFFFFFFFFFFFFFFFFFFFFFFFFFFFFFFFFFF AND DUP3 PUSH1 0x0 PUSH8 0xFFFFFFFFFFFFFFFF DUP2 GT ISZERO PUSH2 0x11F8 JUMPI PUSH32 0x4E487B7100000000000000000000000000000000000000000000000000000000 PUSH1 0x0 MSTORE PUSH1 0x41 PUSH1 0x4 MSTORE PUSH1 0x24 PUSH1 0x0 REVERT JUMPDEST PUSH1 0x40 MLOAD SWAP1 DUP1 DUP3 MSTORE DUP1 PUSH1 0x1F ADD PUSH1 0x1F NOT AND PUSH1 0x20 ADD DUP3 ADD PUSH1 0x40 MSTORE DUP1 ISZERO PUSH2 0x122A JUMPI DUP2 PUSH1 0x20 ADD PUSH1 0x1 DUP3 MUL DUP1 CALLDATASIZE DUP4 CALLDATACOPY DUP1 DUP3 ADD SWAP2 POP POP SWAP1 POP JUMPDEST POP PUSH1 0x40 MLOAD PUSH2 0x1238 SWAP2 SWAP1 PUSH2 0x26C9 JUMP JUMPDEST PUSH1 0x0 PUSH1 0x40 MLOAD DUP1 DUP4 SUB DUP2 DUP6 DUP8 GAS CALL SWAP3 POP POP POP RETURNDATASIZE DUP1 PUSH1 0x0 DUP2 EQ PUSH2 0x1275 JUMPI PUSH1 0x40 MLOAD SWAP2 POP PUSH1 0x1F NOT PUSH1 0x3F RETURNDATASIZE ADD AND DUP3 ADD PUSH1 0x40 MSTORE RETURNDATASIZE DUP3 MSTORE RETURNDATASIZE PUSH1 0x0 PUSH1 0x20 DUP5 ADD RETURNDATACOPY PUSH2 0x127A JUMP JUMPDEST PUSH1 0x60 SWAP2 POP JUMPDEST POP POP SWAP1 POP DUP1 PUSH2 0x12BE JUMPI PUSH1 0x40 MLOAD PUSH32 0x8C379A000000000000000000000000000000000000000000000000000000000 DUP2 MSTORE PUSH1 0x4 ADD PUSH2 0x12B5 SWAP1 PUSH2 0x2889 JUMP JUMPDEST PUSH1 0x40 MLOAD DUP1 SWAP2 SUB SWAP1 REVERT JUMPDEST POP POP POP JUMP JUMPDEST PUSH1 0x0 DUP1 DUP6 PUSH20 0xFFFFFFFFFFFFFFFFFFFFFFFFFFFFFFFFFFFFFFFF AND PUSH4 0x23B872DD DUP7 DUP7 DUP7 PUSH1 0x40 MLOAD PUSH1 0x24 ADD PUSH2 0x12F7 SWAP4 SWAP3 SWAP2 SWAP1 PUSH2 0x2754 JUMP JUMPDEST PUSH1 0x40 MLOAD PUSH1 0x20 DUP2 DUP4 SUB SUB DUP2 MSTORE SWAP1 PUSH1 0x40 MSTORE SWAP1 PUSH1 0xE0 SHL PUSH1 0x20 DUP3 ADD DUP1 MLOAD PUSH28 0xFFFFFFFFFFFFFFFFFFFFFFFFFFFFFFFFFFFFFFFFFFFFFFFFFFFFFFFF DUP4 DUP2 DUP4 AND OR DUP4 MSTORE POP POP POP POP PUSH1 0x40 MLOAD PUSH2 0x1345 SWAP2 SWAP1 PUSH2 0x26C9 JUMP JUMPDEST PUSH1 0x0 PUSH1 0x40 MLOAD DUP1 DUP4 SUB DUP2 PUSH1 0x0 DUP7 GAS CALL SWAP2 POP POP RETURNDATASIZE DUP1 PUSH1 0x0 DUP2 EQ PUSH2 0x1382 JUMPI PUSH1 0x40 MLOAD SWAP2 POP PUSH1 0x1F NOT PUSH1 0x3F RETURNDATASIZE ADD AND DUP3 ADD PUSH1 0x40 MSTORE RETURNDATASIZE DUP3 MSTORE RETURNDATASIZE PUSH1 0x0 PUSH1 0x20 DUP5 ADD RETURNDATACOPY PUSH2 0x1387 JUMP JUMPDEST PUSH1 0x60 SWAP2 POP JUMPDEST POP SWAP2 POP SWAP2 POP DUP2 DUP1 ISZERO PUSH2 0x13B5 JUMPI POP PUSH1 0x0 DUP2 MLOAD EQ DUP1 PUSH2 0x13B4 JUMPI POP DUP1 DUP1 PUSH1 0x20 ADD SWAP1 MLOAD DUP2 ADD SWAP1 PUSH2 0x13B3 SWAP2 SWAP1 PUSH2 0x1F0A JUMP JUMPDEST JUMPDEST JUMPDEST PUSH2 0x13F4 JUMPI PUSH1 0x40 MLOAD PUSH32 0x8C379A000000000000000000000000000000000000000000000000000000000 DUP2 MSTORE PUSH1 0x4 ADD PUSH2 0x13EB SWAP1 PUSH2 0x2869 JUMP JUMPDEST PUSH1 0x40 MLOAD DUP1 SWAP2 SUB SWAP1 REVERT JUMPDEST POP POP POP POP POP POP JUMP JUMPDEST DUP5 PUSH20 0xFFFFFFFFFFFFFFFFFFFFFFFFFFFFFFFFFFFFFFFF AND PUSH4 0x95EA7B3 DUP6 DUP5 PUSH1 0x40 MLOAD DUP4 PUSH4 0xFFFFFFFF AND PUSH1 0xE0 SHL DUP2 MSTORE PUSH1 0x4 ADD PUSH2 0x1437 SWAP3 SWAP2 SWAP1 PUSH2 0x278B JUMP JUMPDEST PUSH1 0x20 PUSH1 0x40 MLOAD DUP1 DUP4 SUB DUP2 PUSH1 0x0 DUP8 DUP1 EXTCODESIZE ISZERO DUP1 ISZERO PUSH2 0x1451 JUMPI PUSH1 0x0 DUP1 REVERT JUMPDEST POP GAS CALL ISZERO DUP1 ISZERO PUSH2 0x1465 JUMPI RETURNDATASIZE PUSH1 0x0 DUP1 RETURNDATACOPY RETURNDATASIZE PUSH1 0x0 REVERT JUMPDEST POP POP POP POP PUSH1 0x40 MLOAD RETURNDATASIZE PUSH1 0x1F NOT PUSH1 0x1F DUP3 ADD AND DUP3 ADD DUP1 PUSH1 0x40 MSTORE POP DUP2 ADD SWAP1 PUSH2 0x1489 SWAP2 SWAP1 PUSH2 0x1F0A JUMP JUMPDEST POP PUSH2 0x1495 DUP6 DUP6 DUP5 PUSH2 0x1982 JUMP JUMPDEST DUP4 PUSH20 0xFFFFFFFFFFFFFFFFFFFFFFFFFFFFFFFFFFFFFFFF AND PUSH4 0x3502EEA8 DUP5 DUP8 DUP5 PUSH1 0x40 MLOAD DUP5 PUSH4 0xFFFFFFFF AND PUSH1 0xE0 SHL DUP2 MSTORE PUSH1 0x4 ADD PUSH2 0x14D2 SWAP4 SWAP3 SWAP2 SWAP1 PUSH2 0x2716 JUMP JUMPDEST PUSH1 0x0 PUSH1 0x40 MLOAD DUP1 DUP4 SUB DUP2 PUSH1 0x0 DUP8 DUP1 EXTCODESIZE ISZERO DUP1 ISZERO PUSH2 0x14EC JUMPI PUSH1 0x0 DUP1 REVERT JUMPDEST POP GAS CALL ISZERO DUP1 ISZERO PUSH2 0x1500 JUMPI RETURNDATASIZE PUSH1 0x0 DUP1 RETURNDATACOPY RETURNDATASIZE PUSH1 0x0 REVERT JUMPDEST POP POP POP POP POP POP POP POP POP JUMP JUMPDEST PUSH1 0x0 PUSH20 0xFFFFFFFFFFFFFFFFFFFFFFFFFFFFFFFFFFFFFFFF AND DUP8 PUSH20 0xFFFFFFFFFFFFFFFFFFFFFFFFFFFFFFFFFFFFFFFF AND EQ ISZERO PUSH2 0x1609 JUMPI PUSH2 0x158F DUP7 DUP7 PUSH1 0x0 DUP2 MLOAD DUP2 LT PUSH2 0x157E JUMPI PUSH32 0x4E487B7100000000000000000000000000000000000000000000000000000000 PUSH1 0x0 MSTORE PUSH1 0x32 PUSH1 0x4 MSTORE PUSH1 0x24 PUSH1 0x0 REVERT JUMPDEST PUSH1 0x20 MUL PUSH1 0x20 ADD ADD MLOAD PUSH1 0x60 ADD MLOAD PUSH2 0x119D JUMP JUMPDEST DUP6 PUSH20 0xFFFFFFFFFFFFFFFFFFFFFFFFFFFFFFFFFFFFFFFF AND PUSH4 0x1738B50E DUP10 DUP8 DUP8 DUP8 DUP8 DUP8 PUSH1 0x40 MLOAD DUP8 PUSH4 0xFFFFFFFF AND PUSH1 0xE0 SHL DUP2 MSTORE PUSH1 0x4 ADD PUSH2 0x15D2 SWAP7 SWAP6 SWAP5 SWAP4 SWAP3 SWAP2 SWAP1 PUSH2 0x27CF JUMP JUMPDEST PUSH1 0x0 PUSH1 0x40 MLOAD DUP1 DUP4 SUB DUP2 PUSH1 0x0 DUP8 DUP1 EXTCODESIZE ISZERO DUP1 ISZERO PUSH2 0x15EC JUMPI PUSH1 0x0 DUP1 REVERT JUMPDEST POP GAS CALL ISZERO DUP1 ISZERO PUSH2 0x1600 JUMPI RETURNDATASIZE PUSH1 0x0 DUP1 RETURNDATACOPY RETURNDATASIZE PUSH1 0x0 REVERT JUMPDEST POP POP POP POP PUSH2 0x17A2 JUMP JUMPDEST DUP6 PUSH20 0xFFFFFFFFFFFFFFFFFFFFFFFFFFFFFFFFFFFFFFFF AND PUSH4 0x95EA7B3 DUP8 DUP8 PUSH1 0x0 DUP2 MLOAD DUP2 LT PUSH2 0x1660 JUMPI PUSH32 0x4E487B7100000000000000000000000000000000000000000000000000000000 PUSH1 0x0 MSTORE PUSH1 0x32 PUSH1 0x4 MSTORE PUSH1 0x24 PUSH1 0x0 REVERT JUMPDEST PUSH1 0x20 MUL PUSH1 0x20 ADD ADD MLOAD PUSH1 0x60 ADD MLOAD PUSH1 0x40 MLOAD DUP4 PUSH4 0xFFFFFFFF AND PUSH1 0xE0 SHL DUP2 MSTORE PUSH1 0x4 ADD PUSH2 0x1689 SWAP3 SWAP2 SWAP1 PUSH2 0x278B JUMP JUMPDEST PUSH1 0x20 PUSH1 0x40 MLOAD DUP1 DUP4 SUB DUP2 PUSH1 0x0 DUP8 DUP1 EXTCODESIZE ISZERO DUP1 ISZERO PUSH2 0x16A3 JUMPI PUSH1 0x0 DUP1 REVERT JUMPDEST POP GAS CALL ISZERO DUP1 ISZERO PUSH2 0x16B7 JUMPI RETURNDATASIZE PUSH1 0x0 DUP1 RETURNDATACOPY RETURNDATASIZE PUSH1 0x0 REVERT JUMPDEST POP POP POP POP PUSH1 0x40 MLOAD RETURNDATASIZE PUSH1 0x1F NOT PUSH1 0x1F DUP3 ADD AND DUP3 ADD DUP1 PUSH1 0x40 MSTORE POP DUP2 ADD SWAP1 PUSH2 0x16DB SWAP2 SWAP1 PUSH2 0x1F0A JUMP JUMPDEST POP PUSH2 0x172C DUP8 DUP8 DUP8 PUSH1 0x0 DUP2 MLOAD DUP2 LT PUSH2 0x171B JUMPI PUSH32 0x4E487B7100000000000000000000000000000000000000000000000000000000 PUSH1 0x0 MSTORE PUSH1 0x32 PUSH1 0x4 MSTORE PUSH1 0x24 PUSH1 0x0 REVERT JUMPDEST PUSH1 0x20 MUL PUSH1 0x20 ADD ADD MLOAD PUSH1 0x60 ADD MLOAD PUSH2 0x1982 JUMP JUMPDEST DUP6 PUSH20 0xFFFFFFFFFFFFFFFFFFFFFFFFFFFFFFFFFFFFFFFF AND PUSH4 0x1738B50E DUP10 DUP8 DUP8 DUP8 DUP8 DUP8 PUSH1 0x40 MLOAD DUP8 PUSH4 0xFFFFFFFF AND PUSH1 0xE0 SHL DUP2 MSTORE PUSH1 0x4 ADD PUSH2 0x176F SWAP7 SWAP6 SWAP5 SWAP4 SWAP3 SWAP2 SWAP1 PUSH2 0x27CF JUMP JUMPDEST PUSH1 0x0 PUSH1 0x40 MLOAD DUP1 DUP4 SUB DUP2 PUSH1 0x0 DUP8 DUP1 EXTCODESIZE ISZERO DUP1 ISZERO PUSH2 0x1789 JUMPI PUSH1 0x0 DUP1 REVERT JUMPDEST POP GAS CALL ISZERO DUP1 ISZERO PUSH2 0x179D JUMPI RETURNDATASIZE PUSH1 0x0 DUP1 RETURNDATACOPY RETURNDATASIZE PUSH1 0x0 REVERT JUMPDEST POP POP POP POP JUMPDEST POP POP POP POP POP POP POP POP JUMP JUMPDEST PUSH1 0x0 PUSH20 0xFFFFFFFFFFFFFFFFFFFFFFFFFFFFFFFFFFFFFFFF AND DUP3 PUSH20 0xFFFFFFFFFFFFFFFFFFFFFFFFFFFFFFFFFFFFFFFF AND EQ ISZERO PUSH2 0x1867 JUMPI PUSH2 0x17EB DUP9 DUP9 PUSH2 0x119D JUMP JUMPDEST DUP8 PUSH20 0xFFFFFFFFFFFFFFFFFFFFFFFFFFFFFFFFFFFFFFFF AND PUSH4 0xB1A271D4 DUP9 DUP9 DUP9 DUP9 DUP9 DUP9 DUP9 PUSH1 0x40 MLOAD DUP9 PUSH4 0xFFFFFFFF AND PUSH1 0xE0 SHL DUP2 MSTORE PUSH1 0x4 ADD PUSH2 0x1830 SWAP8 SWAP7 SWAP6 SWAP5 SWAP4 SWAP3 SWAP2 SWAP1 PUSH2 0x2964 JUMP JUMPDEST PUSH1 0x0 PUSH1 0x40 MLOAD DUP1 DUP4 SUB DUP2 PUSH1 0x0 DUP8 DUP1 EXTCODESIZE ISZERO DUP1 ISZERO PUSH2 0x184A JUMPI PUSH1 0x0 DUP1 REVERT JUMPDEST POP GAS CALL ISZERO DUP1 ISZERO PUSH2 0x185E JUMPI RETURNDATASIZE PUSH1 0x0 DUP1 RETURNDATACOPY RETURNDATASIZE PUSH1 0x0 REVERT JUMPDEST POP POP POP POP PUSH2 0x1978 JUMP JUMPDEST DUP8 PUSH20 0xFFFFFFFFFFFFFFFFFFFFFFFFFFFFFFFFFFFFFFFF AND PUSH4 0x95EA7B3 DUP10 DUP10 PUSH1 0x40 MLOAD DUP4 PUSH4 0xFFFFFFFF AND PUSH1 0xE0 SHL DUP2 MSTORE PUSH1 0x4 ADD PUSH2 0x18A2 SWAP3 SWAP2 SWAP1 PUSH2 0x278B JUMP JUMPDEST PUSH1 0x20 PUSH1 0x40 MLOAD DUP1 DUP4 SUB DUP2 PUSH1 0x0 DUP8 DUP1 EXTCODESIZE ISZERO DUP1 ISZERO PUSH2 0x18BC JUMPI PUSH1 0x0 DUP1 REVERT JUMPDEST POP GAS CALL ISZERO DUP1 ISZERO PUSH2 0x18D0 JUMPI RETURNDATASIZE PUSH1 0x0 DUP1 RETURNDATACOPY RETURNDATASIZE PUSH1 0x0 REVERT JUMPDEST POP POP POP POP PUSH1 0x40 MLOAD RETURNDATASIZE PUSH1 0x1F NOT PUSH1 0x1F DUP3 ADD AND DUP3 ADD DUP1 PUSH1 0x40 MSTORE POP DUP2 ADD SWAP1 PUSH2 0x18F4 SWAP2 SWAP1 PUSH2 0x1F0A JUMP JUMPDEST POP PUSH2 0x1900 DUP3 DUP10 DUP10 PUSH2 0x1982 JUMP JUMPDEST DUP8 PUSH20 0xFFFFFFFFFFFFFFFFFFFFFFFFFFFFFFFFFFFFFFFF AND PUSH4 0xB1A271D4 DUP9 DUP9 DUP9 DUP9 DUP9 DUP9 DUP9 PUSH1 0x40 MLOAD DUP9 PUSH4 0xFFFFFFFF AND PUSH1 0xE0 SHL DUP2 MSTORE PUSH1 0x4 ADD PUSH2 0x1945 SWAP8 SWAP7 SWAP6 SWAP5 SWAP4 SWAP3 SWAP2 SWAP1 PUSH2 0x2964 JUMP JUMPDEST PUSH1 0x0 PUSH1 0x40 MLOAD DUP1 DUP4 SUB DUP2 PUSH1 0x0 DUP8 DUP1 EXTCODESIZE ISZERO DUP1 ISZERO PUSH2 0x195F JUMPI PUSH1 0x0 DUP1 REVERT JUMPDEST POP GAS CALL ISZERO DUP1 ISZERO PUSH2 0x1973 JUMPI RETURNDATASIZE PUSH1 0x0 DUP1 RETURNDATACOPY RETURNDATASIZE PUSH1 0x0 REVERT JUMPDEST POP POP POP POP JUMPDEST POP POP POP POP POP POP POP POP JUMP JUMPDEST PUSH1 0x0 DUP1 DUP5 PUSH20 0xFFFFFFFFFFFFFFFFFFFFFFFFFFFFFFFFFFFFFFFF AND PUSH4 0xA9059CBB DUP6 DUP6 PUSH1 0x40 MLOAD PUSH1 0x24 ADD PUSH2 0x19B4 SWAP3 SWAP2 SWAP1 PUSH2 0x278B JUMP JUMPDEST PUSH1 0x40 MLOAD PUSH1 0x20 DUP2 DUP4 SUB SUB DUP2 MSTORE SWAP1 PUSH1 0x40 MSTORE SWAP1 PUSH1 0xE0 SHL PUSH1 0x20 DUP3 ADD DUP1 MLOAD PUSH28 0xFFFFFFFFFFFFFFFFFFFFFFFFFFFFFFFFFFFFFFFFFFFFFFFFFFFFFFFF DUP4 DUP2 DUP4 AND OR DUP4 MSTORE POP POP POP POP PUSH1 0x40 MLOAD PUSH2 0x1A02 SWAP2 SWAP1 PUSH2 0x26C9 JUMP JUMPDEST PUSH1 0x0 PUSH1 0x40 MLOAD DUP1 DUP4 SUB DUP2 PUSH1 0x0 DUP7 GAS CALL SWAP2 POP POP RETURNDATASIZE DUP1 PUSH1 0x0 DUP2 EQ PUSH2 0x1A3F JUMPI PUSH1 0x40 MLOAD SWAP2 POP PUSH1 0x1F NOT PUSH1 0x3F RETURNDATASIZE ADD AND DUP3 ADD PUSH1 0x40 MSTORE RETURNDATASIZE DUP3 MSTORE RETURNDATASIZE PUSH1 0x0 PUSH1 0x20 DUP5 ADD RETURNDATACOPY PUSH2 0x1A44 JUMP JUMPDEST PUSH1 0x60 SWAP2 POP JUMPDEST POP SWAP2 POP SWAP2 POP DUP2 DUP1 ISZERO PUSH2 0x1A72 JUMPI POP PUSH1 0x0 DUP2 MLOAD EQ DUP1 PUSH2 0x1A71 JUMPI POP DUP1 DUP1 PUSH1 0x20 ADD SWAP1 MLOAD DUP2 ADD SWAP1 PUSH2 0x1A70 SWAP2 SWAP1 PUSH2 0x1F0A JUMP JUMPDEST JUMPDEST JUMPDEST PUSH2 0x1AB1 JUMPI PUSH1 0x40 MLOAD PUSH32 0x8C379A000000000000000000000000000000000000000000000000000000000 DUP2 MSTORE PUSH1 0x4 ADD PUSH2 0x1AA8 SWAP1 PUSH2 0x28E9 JUMP JUMPDEST PUSH1 0x40 MLOAD DUP1 SWAP2 SUB SWAP1 REVERT JUMPDEST POP POP POP POP POP JUMP JUMPDEST PUSH1 0x0 DUP1 DUP4 GT DUP3 SWAP1 PUSH2 0x1AFF JUMPI PUSH1 0x40 MLOAD PUSH32 0x8C379A000000000000000000000000000000000000000000000000000000000 DUP2 MSTORE PUSH1 0x4 ADD PUSH2 0x1AF6 SWAP2 SWAP1 PUSH2 0x2847 JUMP JUMPDEST PUSH1 0x40 MLOAD DUP1 SWAP2 SUB SWAP1 REVERT JUMPDEST POP PUSH1 0x0 DUP4 DUP6 PUSH2 0x1B0E SWAP2 SWAP1 PUSH2 0x2E2B JUMP JUMPDEST SWAP1 POP DUP1 SWAP2 POP POP SWAP4 SWAP3 POP POP POP JUMP JUMPDEST PUSH1 0x0 PUSH2 0x1B2E PUSH2 0x1B29 DUP5 PUSH2 0x2C15 JUMP JUMPDEST PUSH2 0x2BE4 JUMP JUMPDEST SWAP1 POP DUP1 DUP4 DUP3 MSTORE PUSH1 0x20 DUP3 ADD SWAP1 POP DUP3 PUSH1 0x0 JUMPDEST DUP6 DUP2 LT ISZERO PUSH2 0x1B6E JUMPI DUP2 CALLDATALOAD DUP6 ADD PUSH2 0x1B54 DUP9 DUP3 PUSH2 0x1D25 JUMP JUMPDEST DUP5 MSTORE PUSH1 0x20 DUP5 ADD SWAP4 POP PUSH1 0x20 DUP4 ADD SWAP3 POP POP PUSH1 0x1 DUP2 ADD SWAP1 POP PUSH2 0x1B3E JUMP JUMPDEST POP POP POP SWAP4 SWAP3 POP POP POP JUMP JUMPDEST PUSH1 0x0 PUSH2 0x1B8B PUSH2 0x1B86 DUP5 PUSH2 0x2C41 JUMP JUMPDEST PUSH2 0x2BE4 JUMP JUMPDEST SWAP1 POP DUP1 DUP4 DUP3 MSTORE PUSH1 0x20 DUP3 ADD SWAP1 POP DUP3 DUP6 PUSH1 0x20 DUP7 MUL DUP3 ADD GT ISZERO PUSH2 0x1BAA JUMPI PUSH1 0x0 DUP1 REVERT JUMPDEST PUSH1 0x0 JUMPDEST DUP6 DUP2 LT ISZERO PUSH2 0x1BDA JUMPI DUP2 PUSH2 0x1BC0 DUP9 DUP3 PUSH2 0x1E39 JUMP JUMPDEST DUP5 MSTORE PUSH1 0x20 DUP5 ADD SWAP4 POP PUSH1 0x20 DUP4 ADD SWAP3 POP POP PUSH1 0x1 DUP2 ADD SWAP1 POP PUSH2 0x1BAD JUMP JUMPDEST POP POP POP SWAP4 SWAP3 POP POP POP JUMP JUMPDEST PUSH1 0x0 PUSH2 0x1BF7 PUSH2 0x1BF2 DUP5 PUSH2 0x2C6D JUMP JUMPDEST PUSH2 0x2BE4 JUMP JUMPDEST SWAP1 POP DUP3 DUP2 MSTORE PUSH1 0x20 DUP2 ADD DUP5 DUP5 DUP5 ADD GT ISZERO PUSH2 0x1C0F JUMPI PUSH1 0x0 DUP1 REVERT JUMPDEST PUSH2 0x1C1A DUP5 DUP3 DUP6 PUSH2 0x2F82 JUMP JUMPDEST POP SWAP4 SWAP3 POP POP POP JUMP JUMPDEST PUSH1 0x0 DUP2 CALLDATALOAD SWAP1 POP PUSH2 0x1C31 DUP2 PUSH2 0x30EE JUMP JUMPDEST SWAP3 SWAP2 POP POP JUMP JUMPDEST PUSH1 0x0 DUP2 MLOAD SWAP1 POP PUSH2 0x1C46 DUP2 PUSH2 0x30EE JUMP JUMPDEST SWAP3 SWAP2 POP POP JUMP JUMPDEST PUSH1 0x0 DUP2 CALLDATALOAD SWAP1 POP PUSH2 0x1C5B DUP2 PUSH2 0x3105 JUMP JUMPDEST SWAP3 SWAP2 POP POP JUMP JUMPDEST PUSH1 0x0 DUP3 PUSH1 0x1F DUP4 ADD SLT PUSH2 0x1C72 JUMPI PUSH1 0x0 DUP1 REVERT JUMPDEST DUP2 CALLDATALOAD PUSH2 0x1C82 DUP5 DUP3 PUSH1 0x20 DUP7 ADD PUSH2 0x1B78 JUMP JUMPDEST SWAP2 POP POP SWAP3 SWAP2 POP POP JUMP JUMPDEST PUSH1 0x0 DUP2 CALLDATALOAD SWAP1 POP PUSH2 0x1C9A DUP2 PUSH2 0x311C JUMP JUMPDEST SWAP3 SWAP2 POP POP JUMP JUMPDEST PUSH1 0x0 DUP2 MLOAD SWAP1 POP PUSH2 0x1CAF DUP2 PUSH2 0x311C JUMP JUMPDEST SWAP3 SWAP2 POP POP JUMP JUMPDEST PUSH1 0x0 DUP2 CALLDATALOAD SWAP1 POP PUSH2 0x1CC4 DUP2 PUSH2 0x3133 JUMP JUMPDEST SWAP3 SWAP2 POP POP JUMP JUMPDEST PUSH1 0x0 DUP3 PUSH1 0x1F DUP4 ADD SLT PUSH2 0x1CDB JUMPI PUSH1 0x0 DUP1 REVERT JUMPDEST DUP2 CALLDATALOAD PUSH2 0x1CEB DUP5 DUP3 PUSH1 0x20 DUP7 ADD PUSH2 0x1BE4 JUMP JUMPDEST SWAP2 POP POP SWAP3 SWAP2 POP POP JUMP JUMPDEST PUSH1 0x0 DUP2 CALLDATALOAD SWAP1 POP PUSH2 0x1D03 DUP2 PUSH2 0x314A JUMP JUMPDEST SWAP3 SWAP2 POP POP JUMP JUMPDEST PUSH1 0x0 PUSH2 0x220 DUP3 DUP5 SUB SLT ISZERO PUSH2 0x1D1C JUMPI PUSH1 0x0 DUP1 REVERT JUMPDEST DUP2 SWAP1 POP SWAP3 SWAP2 POP POP JUMP JUMPDEST PUSH1 0x0 PUSH1 0xA0 DUP3 DUP5 SUB SLT ISZERO PUSH2 0x1D37 JUMPI PUSH1 0x0 DUP1 REVERT JUMPDEST PUSH2 0x1D41 PUSH1 0xA0 PUSH2 0x2BE4 JUMP JUMPDEST SWAP1 POP PUSH1 0x0 PUSH2 0x1D51 DUP5 DUP3 DUP6 ADD PUSH2 0x1CB5 JUMP JUMPDEST PUSH1 0x0 DUP4 ADD MSTORE POP PUSH1 0x20 PUSH2 0x1D65 DUP5 DUP3 DUP6 ADD PUSH2 0x1E39 JUMP JUMPDEST PUSH1 0x20 DUP4 ADD MSTORE POP PUSH1 0x40 PUSH2 0x1D79 DUP5 DUP3 DUP6 ADD PUSH2 0x1E39 JUMP JUMPDEST PUSH1 0x40 DUP4 ADD MSTORE POP PUSH1 0x60 PUSH2 0x1D8D DUP5 DUP3 DUP6 ADD PUSH2 0x1E39 JUMP JUMPDEST PUSH1 0x60 DUP4 ADD MSTORE POP PUSH1 0x80 DUP3 ADD CALLDATALOAD PUSH8 0xFFFFFFFFFFFFFFFF DUP2 GT ISZERO PUSH2 0x1DAD JUMPI PUSH1 0x0 DUP1 REVERT JUMPDEST PUSH2 0x1DB9 DUP5 DUP3 DUP6 ADD PUSH2 0x1CCA JUMP JUMPDEST PUSH1 0x80 DUP4 ADD MSTORE POP SWAP3 SWAP2 POP POP JUMP JUMPDEST PUSH1 0x0 PUSH1 0x80 DUP3 DUP5 SUB SLT ISZERO PUSH2 0x1DD7 JUMPI PUSH1 0x0 DUP1 REVERT JUMPDEST PUSH2 0x1DE1 PUSH1 0x80 PUSH2 0x2BE4 JUMP JUMPDEST SWAP1 POP PUSH1 0x0 PUSH2 0x1DF1 DUP5 DUP3 DUP6 ADD PUSH2 0x1C22 JUMP JUMPDEST PUSH1 0x0 DUP4 ADD MSTORE POP PUSH1 0x20 PUSH2 0x1E05 DUP5 DUP3 DUP6 ADD PUSH2 0x1C8B JUMP JUMPDEST PUSH1 0x20 DUP4 ADD MSTORE POP PUSH1 0x40 PUSH2 0x1E19 DUP5 DUP3 DUP6 ADD PUSH2 0x1C4C JUMP JUMPDEST PUSH1 0x40 DUP4 ADD MSTORE POP PUSH1 0x60 PUSH2 0x1E2D DUP5 DUP3 DUP6 ADD PUSH2 0x1C8B JUMP JUMPDEST PUSH1 0x60 DUP4 ADD MSTORE POP SWAP3 SWAP2 POP POP JUMP JUMPDEST PUSH1 0x0 DUP2 CALLDATALOAD SWAP1 POP PUSH2 0x1E48 DUP2 PUSH2 0x315A JUMP JUMPDEST SWAP3 SWAP2 POP POP JUMP JUMPDEST PUSH1 0x0 PUSH1 0x20 DUP3 DUP5 SUB SLT ISZERO PUSH2 0x1E60 JUMPI PUSH1 0x0 DUP1 REVERT JUMPDEST PUSH1 0x0 PUSH2 0x1E6E DUP5 DUP3 DUP6 ADD PUSH2 0x1C22 JUMP JUMPDEST SWAP2 POP POP SWAP3 SWAP2 POP POP JUMP JUMPDEST PUSH1 0x0 PUSH1 0x20 DUP3 DUP5 SUB SLT ISZERO PUSH2 0x1E89 JUMPI PUSH1 0x0 DUP1 REVERT JUMPDEST PUSH1 0x0 PUSH2 0x1E97 DUP5 DUP3 DUP6 ADD PUSH2 0x1C37 JUMP JUMPDEST SWAP2 POP POP SWAP3 SWAP2 POP POP JUMP JUMPDEST PUSH1 0x0 PUSH1 0x20 DUP3 DUP5 SUB SLT ISZERO PUSH2 0x1EB2 JUMPI PUSH1 0x0 DUP1 REVERT JUMPDEST PUSH1 0x0 PUSH2 0x1EC0 DUP5 DUP3 DUP6 ADD PUSH2 0x1C4C JUMP JUMPDEST SWAP2 POP POP SWAP3 SWAP2 POP POP JUMP JUMPDEST PUSH1 0x0 PUSH1 0x20 DUP3 DUP5 SUB SLT ISZERO PUSH2 0x1EDB JUMPI PUSH1 0x0 DUP1 REVERT JUMPDEST PUSH1 0x0 DUP3 ADD CALLDATALOAD PUSH8 0xFFFFFFFFFFFFFFFF DUP2 GT ISZERO PUSH2 0x1EF5 JUMPI PUSH1 0x0 DUP1 REVERT JUMPDEST PUSH2 0x1F01 DUP5 DUP3 DUP6 ADD PUSH2 0x1C61 JUMP JUMPDEST SWAP2 POP POP SWAP3 SWAP2 POP POP JUMP JUMPDEST PUSH1 0x0 PUSH1 0x20 DUP3 DUP5 SUB SLT ISZERO PUSH2 0x1F1C JUMPI PUSH1 0x0 DUP1 REVERT JUMPDEST PUSH1 0x0 PUSH2 0x1F2A DUP5 DUP3 DUP6 ADD PUSH2 0x1CA0 JUMP JUMPDEST SWAP2 POP POP SWAP3 SWAP2 POP POP JUMP JUMPDEST PUSH1 0x0 PUSH1 0x20 DUP3 DUP5 SUB SLT ISZERO PUSH2 0x1F45 JUMPI PUSH1 0x0 DUP1 REVERT JUMPDEST PUSH1 0x0 PUSH2 0x1F53 DUP5 DUP3 DUP6 ADD PUSH2 0x1CF4 JUMP JUMPDEST SWAP2 POP POP SWAP3 SWAP2 POP POP JUMP JUMPDEST PUSH1 0x0 PUSH1 0x20 DUP3 DUP5 SUB SLT ISZERO PUSH2 0x1F6E JUMPI PUSH1 0x0 DUP1 REVERT JUMPDEST PUSH1 0x0 DUP3 ADD CALLDATALOAD PUSH8 0xFFFFFFFFFFFFFFFF DUP2 GT ISZERO PUSH2 0x1F88 JUMPI PUSH1 0x0 DUP1 REVERT JUMPDEST PUSH2 0x1F94 DUP5 DUP3 DUP6 ADD PUSH2 0x1D09 JUMP JUMPDEST SWAP2 POP POP SWAP3 SWAP2 POP POP JUMP JUMPDEST PUSH1 0x0 PUSH1 0x80 DUP3 DUP5 SUB SLT ISZERO PUSH2 0x1FAF JUMPI PUSH1 0x0 DUP1 REVERT JUMPDEST PUSH1 0x0 PUSH2 0x1FBD DUP5 DUP3 DUP6 ADD PUSH2 0x1DC5 JUMP JUMPDEST SWAP2 POP POP SWAP3 SWAP2 POP POP JUMP JUMPDEST PUSH1 0x0 PUSH1 0x20 DUP3 DUP5 SUB SLT ISZERO PUSH2 0x1FD8 JUMPI PUSH1 0x0 DUP1 REVERT JUMPDEST PUSH1 0x0 PUSH2 0x1FE6 DUP5 DUP3 DUP6 ADD PUSH2 0x1E39 JUMP JUMPDEST SWAP2 POP POP SWAP3 SWAP2 POP POP JUMP JUMPDEST PUSH1 0x0 DUP1 PUSH1 0x40 DUP4 DUP6 SUB SLT ISZERO PUSH2 0x2002 JUMPI PUSH1 0x0 DUP1 REVERT JUMPDEST PUSH1 0x0 PUSH2 0x2010 DUP6 DUP3 DUP7 ADD PUSH2 0x1E39 JUMP JUMPDEST SWAP3 POP POP PUSH1 0x20 PUSH2 0x2021 DUP6 DUP3 DUP7 ADD PUSH2 0x1C22 JUMP JUMPDEST SWAP2 POP POP SWAP3 POP SWAP3 SWAP1 POP JUMP JUMPDEST PUSH1 0x0 PUSH2 0x2037 DUP4 DUP4 PUSH2 0x2322 JUMP JUMPDEST PUSH1 0x20 DUP4 ADD SWAP1 POP SWAP3 SWAP2 POP POP JUMP JUMPDEST PUSH1 0x0 PUSH2 0x204F DUP4 DUP4 PUSH2 0x2340 JUMP JUMPDEST PUSH1 0x20 DUP4 ADD SWAP1 POP SWAP3 SWAP2 POP POP JUMP JUMPDEST PUSH1 0x0 PUSH2 0x2067 DUP4 DUP4 PUSH2 0x25E0 JUMP JUMPDEST SWAP1 POP SWAP3 SWAP2 POP POP JUMP JUMPDEST PUSH1 0x0 PUSH2 0x207B DUP4 DUP4 PUSH2 0x26AB JUMP JUMPDEST PUSH1 0x20 DUP4 ADD SWAP1 POP SWAP3 SWAP2 POP POP JUMP JUMPDEST PUSH2 0x2090 DUP2 PUSH2 0x2EC8 JUMP JUMPDEST DUP3 MSTORE POP POP JUMP JUMPDEST PUSH2 0x209F DUP2 PUSH2 0x2EC8 JUMP JUMPDEST DUP3 MSTORE POP POP JUMP JUMPDEST PUSH2 0x20AE DUP2 PUSH2 0x2EB6 JUMP JUMPDEST DUP3 MSTORE POP POP JUMP JUMPDEST PUSH2 0x20BD DUP2 PUSH2 0x2EB6 JUMP JUMPDEST DUP3 MSTORE POP POP JUMP JUMPDEST PUSH1 0x0 PUSH2 0x20CE DUP3 PUSH2 0x2CDD JUMP JUMPDEST PUSH2 0x20D8 DUP2 DUP6 PUSH2 0x2D53 JUMP JUMPDEST SWAP4 POP PUSH2 0x20E3 DUP4 PUSH2 0x2C9D JUMP JUMPDEST DUP1 PUSH1 0x0 JUMPDEST DUP4 DUP2 LT ISZERO PUSH2 0x2114 JUMPI DUP2 MLOAD PUSH2 0x20FB DUP9 DUP3 PUSH2 0x202B JUMP JUMPDEST SWAP8 POP PUSH2 0x2106 DUP4 PUSH2 0x2D1F JUMP JUMPDEST SWAP3 POP POP PUSH1 0x1 DUP2 ADD SWAP1 POP PUSH2 0x20E7 JUMP JUMPDEST POP DUP6 SWAP4 POP POP POP POP SWAP3 SWAP2 POP POP JUMP JUMPDEST PUSH1 0x0 PUSH2 0x212C DUP3 PUSH2 0x2CE8 JUMP JUMPDEST PUSH2 0x2136 DUP2 DUP6 PUSH2 0x2D64 JUMP JUMPDEST SWAP4 POP PUSH2 0x2141 DUP4 PUSH2 0x2CAD JUMP JUMPDEST DUP1 PUSH1 0x0 JUMPDEST DUP4 DUP2 LT ISZERO PUSH2 0x2172 JUMPI DUP2 MLOAD PUSH2 0x2159 DUP9 DUP3 PUSH2 0x2043 JUMP JUMPDEST SWAP8 POP PUSH2 0x2164 DUP4 PUSH2 0x2D2C JUMP JUMPDEST SWAP3 POP POP PUSH1 0x1 DUP2 ADD SWAP1 POP PUSH2 0x2145 JUMP JUMPDEST POP DUP6 SWAP4 POP POP POP POP SWAP3 SWAP2 POP POP JUMP JUMPDEST PUSH1 0x0 PUSH2 0x218A DUP3 PUSH2 0x2CF3 JUMP JUMPDEST PUSH2 0x2194 DUP2 DUP6 PUSH2 0x2D75 JUMP JUMPDEST SWAP4 POP DUP4 PUSH1 0x20 DUP3 MUL DUP6 ADD PUSH2 0x21A6 DUP6 PUSH2 0x2CBD JUMP JUMPDEST DUP1 PUSH1 0x0 JUMPDEST DUP6 DUP2 LT ISZERO PUSH2 0x21E2 JUMPI DUP5 DUP5 SUB DUP10 MSTORE DUP2 MLOAD PUSH2 0x21C3 DUP6 DUP3 PUSH2 0x205B JUMP JUMPDEST SWAP5 POP PUSH2 0x21CE DUP4 PUSH2 0x2D39 JUMP JUMPDEST SWAP3 POP PUSH1 0x20 DUP11 ADD SWAP10 POP POP PUSH1 0x1 DUP2 ADD SWAP1 POP PUSH2 0x21AA JUMP JUMPDEST POP DUP3 SWAP8 POP DUP8 SWAP6 POP POP POP POP POP POP SWAP3 SWAP2 POP POP JUMP JUMPDEST PUSH1 0x0 PUSH2 0x21FF DUP3 PUSH2 0x2CFE JUMP JUMPDEST PUSH2 0x2209 DUP2 DUP6 PUSH2 0x2D86 JUMP JUMPDEST SWAP4 POP PUSH2 0x2214 DUP4 PUSH2 0x2CCD JUMP JUMPDEST DUP1 PUSH1 0x0 JUMPDEST DUP4 DUP2 LT ISZERO PUSH2 0x2245 JUMPI DUP2 MLOAD PUSH2 0x222C DUP9 DUP3 PUSH2 0x206F JUMP JUMPDEST SWAP8 POP PUSH2 0x2237 DUP4 PUSH2 0x2D46 JUMP JUMPDEST SWAP3 POP POP PUSH1 0x1 DUP2 ADD SWAP1 POP PUSH2 0x2218 JUMP JUMPDEST POP DUP6 SWAP4 POP POP POP POP SWAP3 SWAP2 POP POP JUMP JUMPDEST PUSH2 0x225B DUP2 PUSH2 0x2EDA JUMP JUMPDEST DUP3 MSTORE POP POP JUMP JUMPDEST PUSH2 0x226A DUP2 PUSH2 0x2EDA JUMP JUMPDEST DUP3 MSTORE POP POP JUMP JUMPDEST PUSH2 0x2279 DUP2 PUSH2 0x2EE6 JUMP JUMPDEST DUP3 MSTORE POP POP JUMP JUMPDEST PUSH1 0x0 PUSH2 0x228A DUP3 PUSH2 0x2D09 JUMP JUMPDEST PUSH2 0x2294 DUP2 DUP6 PUSH2 0x2D97 JUMP JUMPDEST SWAP4 POP PUSH2 0x22A4 DUP2 DUP6 PUSH1 0x20 DUP7 ADD PUSH2 0x2F91 JUMP JUMPDEST PUSH2 0x22AD DUP2 PUSH2 0x30C9 JUMP JUMPDEST DUP5 ADD SWAP2 POP POP SWAP3 SWAP2 POP POP JUMP JUMPDEST PUSH1 0x0 PUSH2 0x22C3 DUP3 PUSH2 0x2D09 JUMP JUMPDEST PUSH2 0x22CD DUP2 DUP6 PUSH2 0x2DA8 JUMP JUMPDEST SWAP4 POP PUSH2 0x22DD DUP2 DUP6 PUSH1 0x20 DUP7 ADD PUSH2 0x2F91 JUMP JUMPDEST PUSH2 0x22E6 DUP2 PUSH2 0x30C9 JUMP JUMPDEST DUP5 ADD SWAP2 POP POP SWAP3 SWAP2 POP POP JUMP JUMPDEST PUSH1 0x0 PUSH2 0x22FC DUP3 PUSH2 0x2D09 JUMP JUMPDEST PUSH2 0x2306 DUP2 DUP6 PUSH2 0x2DB9 JUMP JUMPDEST SWAP4 POP PUSH2 0x2316 DUP2 DUP6 PUSH1 0x20 DUP7 ADD PUSH2 0x2F91 JUMP JUMPDEST DUP1 DUP5 ADD SWAP2 POP POP SWAP3 SWAP2 POP POP JUMP JUMPDEST PUSH2 0x232B DUP2 PUSH2 0x2F4C JUMP JUMPDEST DUP3 MSTORE POP POP JUMP JUMPDEST PUSH2 0x233A DUP2 PUSH2 0x2F70 JUMP JUMPDEST DUP3 MSTORE POP POP JUMP JUMPDEST PUSH2 0x2349 DUP2 PUSH2 0x2F03 JUMP JUMPDEST DUP3 MSTORE POP POP JUMP JUMPDEST PUSH1 0x0 PUSH2 0x235A DUP3 PUSH2 0x2D14 JUMP JUMPDEST PUSH2 0x2364 DUP2 DUP6 PUSH2 0x2DC4 JUMP JUMPDEST SWAP4 POP PUSH2 0x2374 DUP2 DUP6 PUSH1 0x20 DUP7 ADD PUSH2 0x2F91 JUMP JUMPDEST PUSH2 0x237D DUP2 PUSH2 0x30C9 JUMP JUMPDEST DUP5 ADD SWAP2 POP POP SWAP3 SWAP2 POP POP JUMP JUMPDEST PUSH1 0x0 PUSH2 0x2395 PUSH1 0x31 DUP4 PUSH2 0x2DC4 JUMP JUMPDEST SWAP2 POP PUSH32 0x5472616E7366657248656C7065723A3A7472616E7366657246726F6D3A207472 PUSH1 0x0 DUP4 ADD MSTORE PUSH32 0x616E7366657246726F6D206661696C6564000000000000000000000000000000 PUSH1 0x20 DUP4 ADD MSTORE PUSH1 0x40 DUP3 ADD SWAP1 POP SWAP2 SWAP1 POP JUMP JUMPDEST PUSH1 0x0 PUSH2 0x23FB PUSH1 0x34 DUP4 PUSH2 0x2DC4 JUMP JUMPDEST SWAP2 POP PUSH32 0x5472616E7366657248656C7065723A3A736166655472616E736665724554483A PUSH1 0x0 DUP4 ADD MSTORE PUSH32 0x20455448207472616E73666572206661696C6564000000000000000000000000 PUSH1 0x20 DUP4 ADD MSTORE PUSH1 0x40 DUP3 ADD SWAP1 POP SWAP2 SWAP1 POP JUMP JUMPDEST PUSH1 0x0 PUSH2 0x2461 PUSH1 0x21 DUP4 PUSH2 0x2DC4 JUMP JUMPDEST SWAP2 POP PUSH32 0x536166654D6174683A206D756C7469706C69636174696F6E206F766572666C6F PUSH1 0x0 DUP4 ADD MSTORE PUSH32 0x7700000000000000000000000000000000000000000000000000000000000000 PUSH1 0x20 DUP4 ADD MSTORE PUSH1 0x40 DUP3 ADD SWAP1 POP SWAP2 SWAP1 POP JUMP JUMPDEST PUSH1 0x0 PUSH2 0x24C7 PUSH1 0x1B DUP4 PUSH2 0x2DC4 JUMP JUMPDEST SWAP2 POP PUSH32 0x426172746572737761705632526F757465723A20455850495245440000000000 PUSH1 0x0 DUP4 ADD MSTORE PUSH1 0x20 DUP3 ADD SWAP1 POP SWAP2 SWAP1 POP JUMP JUMPDEST PUSH1 0x0 PUSH2 0x2507 PUSH1 0x2D DUP4 PUSH2 0x2DC4 JUMP JUMPDEST SWAP2 POP PUSH32 0x5472616E7366657248656C7065723A3A736166655472616E736665723A207472 PUSH1 0x0 DUP4 ADD MSTORE PUSH32 0x616E73666572206661696C656400000000000000000000000000000000000000 PUSH1 0x20 DUP4 ADD MSTORE PUSH1 0x40 DUP3 ADD SWAP1 POP SWAP2 SWAP1 POP JUMP JUMPDEST PUSH1 0x0 PUSH2 0x256D PUSH1 0x15 DUP4 PUSH2 0x2DC4 JUMP JUMPDEST SWAP2 POP PUSH32 0x426172746572737761703A20464F5242494444454E0000000000000000000000 PUSH1 0x0 DUP4 ADD MSTORE PUSH1 0x20 DUP3 ADD SWAP1 POP SWAP2 SWAP1 POP JUMP JUMPDEST PUSH1 0x0 PUSH2 0x25AD PUSH1 0xE DUP4 PUSH2 0x2DC4 JUMP JUMPDEST SWAP2 POP PUSH32 0x50726963652069732077726F6E67000000000000000000000000000000000000 PUSH1 0x0 DUP4 ADD MSTORE PUSH1 0x20 DUP3 ADD SWAP1 POP SWAP2 SWAP1 POP JUMP JUMPDEST PUSH1 0x0 PUSH1 0xA0 DUP4 ADD PUSH1 0x0 DUP4 ADD MLOAD PUSH2 0x25F8 PUSH1 0x0 DUP7 ADD DUP3 PUSH2 0x2270 JUMP JUMPDEST POP PUSH1 0x20 DUP4 ADD MLOAD PUSH2 0x260B PUSH1 0x20 DUP7 ADD DUP3 PUSH2 0x26AB JUMP JUMPDEST POP PUSH1 0x40 DUP4 ADD MLOAD PUSH2 0x261E PUSH1 0x40 DUP7 ADD DUP3 PUSH2 0x26AB JUMP JUMPDEST POP PUSH1 0x60 DUP4 ADD MLOAD PUSH2 0x2631 PUSH1 0x60 DUP7 ADD DUP3 PUSH2 0x26AB JUMP JUMPDEST POP PUSH1 0x80 DUP4 ADD MLOAD DUP5 DUP3 SUB PUSH1 0x80 DUP7 ADD MSTORE PUSH2 0x2649 DUP3 DUP3 PUSH2 0x227F JUMP JUMPDEST SWAP2 POP POP DUP1 SWAP2 POP POP SWAP3 SWAP2 POP POP JUMP JUMPDEST PUSH1 0x80 DUP3 ADD PUSH1 0x0 DUP3 ADD MLOAD PUSH2 0x266C PUSH1 0x0 DUP6 ADD DUP3 PUSH2 0x20A5 JUMP JUMPDEST POP PUSH1 0x20 DUP3 ADD MLOAD PUSH2 0x267F PUSH1 0x20 DUP6 ADD DUP3 PUSH2 0x2252 JUMP JUMPDEST POP PUSH1 0x40 DUP3 ADD MLOAD PUSH2 0x2692 PUSH1 0x40 DUP6 ADD DUP3 PUSH2 0x2087 JUMP JUMPDEST POP PUSH1 0x60 DUP3 ADD MLOAD PUSH2 0x26A5 PUSH1 0x60 DUP6 ADD DUP3 PUSH2 0x2252 JUMP JUMPDEST POP POP POP POP JUMP JUMPDEST PUSH2 0x26B4 DUP2 PUSH2 0x2F2D JUMP JUMPDEST DUP3 MSTORE POP POP JUMP JUMPDEST PUSH2 0x26C3 DUP2 PUSH2 0x2F2D JUMP JUMPDEST DUP3 MSTORE POP POP JUMP JUMPDEST PUSH1 0x0 PUSH2 0x26D5 DUP3 DUP5 PUSH2 0x22F1 JUMP JUMPDEST SWAP2 POP DUP2 SWAP1 POP SWAP3 SWAP2 POP POP JUMP JUMPDEST PUSH1 0x0 PUSH1 0x20 DUP3 ADD SWAP1 POP PUSH2 0x26F5 PUSH1 0x0 DUP4 ADD DUP5 PUSH2 0x20B4 JUMP JUMPDEST SWAP3 SWAP2 POP POP JUMP JUMPDEST PUSH1 0x0 PUSH1 0x20 DUP3 ADD SWAP1 POP PUSH2 0x2710 PUSH1 0x0 DUP4 ADD DUP5 PUSH2 0x2096 JUMP JUMPDEST SWAP3 SWAP2 POP POP JUMP JUMPDEST PUSH1 0x0 PUSH1 0x60 DUP3 ADD SWAP1 POP PUSH2 0x272B PUSH1 0x0 DUP4 ADD DUP7 PUSH2 0x20B4 JUMP JUMPDEST PUSH2 0x2738 PUSH1 0x20 DUP4 ADD DUP6 PUSH2 0x20B4 JUMP JUMPDEST DUP2 DUP2 SUB PUSH1 0x40 DUP4 ADD MSTORE PUSH2 0x274A DUP2 DUP5 PUSH2 0x21F4 JUMP JUMPDEST SWAP1 POP SWAP5 SWAP4 POP POP POP POP JUMP JUMPDEST PUSH1 0x0 PUSH1 0x60 DUP3 ADD SWAP1 POP PUSH2 0x2769 PUSH1 0x0 DUP4 ADD DUP7 PUSH2 0x20B4 JUMP JUMPDEST PUSH2 0x2776 PUSH1 0x20 DUP4 ADD DUP6 PUSH2 0x20B4 JUMP JUMPDEST PUSH2 0x2783 PUSH1 0x40 DUP4 ADD DUP5 PUSH2 0x26BA JUMP JUMPDEST SWAP5 SWAP4 POP POP POP POP JUMP JUMPDEST PUSH1 0x0 PUSH1 0x40 DUP3 ADD SWAP1 POP PUSH2 0x27A0 PUSH1 0x0 DUP4 ADD DUP6 PUSH2 0x20B4 JUMP JUMPDEST PUSH2 0x27AD PUSH1 0x20 DUP4 ADD DUP5 PUSH2 0x26BA JUMP JUMPDEST SWAP4 SWAP3 POP POP POP JUMP JUMPDEST PUSH1 0x0 PUSH1 0x20 DUP3 ADD SWAP1 POP PUSH2 0x27C9 PUSH1 0x0 DUP4 ADD DUP5 PUSH2 0x2261 JUMP JUMPDEST SWAP3 SWAP2 POP POP JUMP JUMPDEST PUSH1 0x0 PUSH2 0x120 DUP3 ADD SWAP1 POP PUSH2 0x27E5 PUSH1 0x0 DUP4 ADD DUP10 PUSH2 0x2331 JUMP JUMPDEST DUP2 DUP2 SUB PUSH1 0x20 DUP4 ADD MSTORE PUSH2 0x27F7 DUP2 DUP9 PUSH2 0x217F JUMP JUMPDEST SWAP1 POP PUSH2 0x2806 PUSH1 0x40 DUP4 ADD DUP8 PUSH2 0x2656 JUMP JUMPDEST DUP2 DUP2 SUB PUSH1 0xC0 DUP4 ADD MSTORE PUSH2 0x2818 DUP2 DUP7 PUSH2 0x20C3 JUMP JUMPDEST SWAP1 POP DUP2 DUP2 SUB PUSH1 0xE0 DUP4 ADD MSTORE PUSH2 0x282C DUP2 DUP6 PUSH2 0x2121 JUMP JUMPDEST SWAP1 POP PUSH2 0x283C PUSH2 0x100 DUP4 ADD DUP5 PUSH2 0x26BA JUMP JUMPDEST SWAP8 SWAP7 POP POP POP POP POP POP POP JUMP JUMPDEST PUSH1 0x0 PUSH1 0x20 DUP3 ADD SWAP1 POP DUP2 DUP2 SUB PUSH1 0x0 DUP4 ADD MSTORE PUSH2 0x2861 DUP2 DUP5 PUSH2 0x234F JUMP JUMPDEST SWAP1 POP SWAP3 SWAP2 POP POP JUMP JUMPDEST PUSH1 0x0 PUSH1 0x20 DUP3 ADD SWAP1 POP DUP2 DUP2 SUB PUSH1 0x0 DUP4 ADD MSTORE PUSH2 0x2882 DUP2 PUSH2 0x2388 JUMP JUMPDEST SWAP1 POP SWAP2 SWAP1 POP JUMP JUMPDEST PUSH1 0x0 PUSH1 0x20 DUP3 ADD SWAP1 POP DUP2 DUP2 SUB PUSH1 0x0 DUP4 ADD MSTORE PUSH2 0x28A2 DUP2 PUSH2 0x23EE JUMP JUMPDEST SWAP1 POP SWAP2 SWAP1 POP JUMP JUMPDEST PUSH1 0x0 PUSH1 0x20 DUP3 ADD SWAP1 POP DUP2 DUP2 SUB PUSH1 0x0 DUP4 ADD MSTORE PUSH2 0x28C2 DUP2 PUSH2 0x2454 JUMP JUMPDEST SWAP1 POP SWAP2 SWAP1 POP JUMP JUMPDEST PUSH1 0x0 PUSH1 0x20 DUP3 ADD SWAP1 POP DUP2 DUP2 SUB PUSH1 0x0 DUP4 ADD MSTORE PUSH2 0x28E2 DUP2 PUSH2 0x24BA JUMP JUMPDEST SWAP1 POP SWAP2 SWAP1 POP JUMP JUMPDEST PUSH1 0x0 PUSH1 0x20 DUP3 ADD SWAP1 POP DUP2 DUP2 SUB PUSH1 0x0 DUP4 ADD MSTORE PUSH2 0x2902 DUP2 PUSH2 0x24FA JUMP JUMPDEST SWAP1 POP SWAP2 SWAP1 POP JUMP JUMPDEST PUSH1 0x0 PUSH1 0x20 DUP3 ADD SWAP1 POP DUP2 DUP2 SUB PUSH1 0x0 DUP4 ADD MSTORE PUSH2 0x2922 DUP2 PUSH2 0x2560 JUMP JUMPDEST SWAP1 POP SWAP2 SWAP1 POP JUMP JUMPDEST PUSH1 0x0 PUSH1 0x20 DUP3 ADD SWAP1 POP DUP2 DUP2 SUB PUSH1 0x0 DUP4 ADD MSTORE PUSH2 0x2942 DUP2 PUSH2 0x25A0 JUMP JUMPDEST SWAP1 POP SWAP2 SWAP1 POP JUMP JUMPDEST PUSH1 0x0 PUSH1 0x20 DUP3 ADD SWAP1 POP PUSH2 0x295E PUSH1 0x0 DUP4 ADD DUP5 PUSH2 0x26BA JUMP JUMPDEST SWAP3 SWAP2 POP POP JUMP JUMPDEST PUSH1 0x0 PUSH1 0xE0 DUP3 ADD SWAP1 POP PUSH2 0x2979 PUSH1 0x0 DUP4 ADD DUP11 PUSH2 0x26BA JUMP JUMPDEST PUSH2 0x2986 PUSH1 0x20 DUP4 ADD DUP10 PUSH2 0x26BA JUMP JUMPDEST DUP2 DUP2 SUB PUSH1 0x40 DUP4 ADD MSTORE PUSH2 0x2998 DUP2 DUP9 PUSH2 0x22B8 JUMP JUMPDEST SWAP1 POP PUSH2 0x29A7 PUSH1 0x60 DUP4 ADD DUP8 PUSH2 0x20B4 JUMP JUMPDEST PUSH2 0x29B4 PUSH1 0x80 DUP4 ADD DUP7 PUSH2 0x26BA JUMP JUMPDEST PUSH2 0x29C1 PUSH1 0xA0 DUP4 ADD DUP6 PUSH2 0x20B4 JUMP JUMPDEST PUSH2 0x29CE PUSH1 0xC0 DUP4 ADD DUP5 PUSH2 0x20B4 JUMP JUMPDEST SWAP9 SWAP8 POP POP POP POP POP POP POP POP JUMP JUMPDEST PUSH1 0x0 DUP1 DUP4 CALLDATALOAD PUSH1 0x1 PUSH1 0x20 SUB DUP5 CALLDATASIZE SUB SUB DUP2 SLT PUSH2 0x29F3 JUMPI PUSH1 0x0 DUP1 REVERT JUMPDEST DUP1 DUP5 ADD SWAP3 POP DUP3 CALLDATALOAD SWAP2 POP PUSH8 0xFFFFFFFFFFFFFFFF DUP3 GT ISZERO PUSH2 0x2A11 JUMPI PUSH1 0x0 DUP1 REVERT JUMPDEST PUSH1 0x20 DUP4 ADD SWAP3 POP PUSH1 0x20 DUP3 MUL CALLDATASIZE SUB DUP4 SGT ISZERO PUSH2 0x2A29 JUMPI PUSH1 0x0 DUP1 REVERT JUMPDEST POP SWAP3 POP SWAP3 SWAP1 POP JUMP JUMPDEST PUSH1 0x0 DUP1 DUP4 CALLDATALOAD PUSH1 0x1 PUSH1 0x20 SUB DUP5 CALLDATASIZE SUB SUB DUP2 SLT PUSH2 0x2A4A JUMPI PUSH1 0x0 DUP1 REVERT JUMPDEST DUP1 DUP5 ADD SWAP3 POP DUP3 CALLDATALOAD SWAP2 POP PUSH8 0xFFFFFFFFFFFFFFFF DUP3 GT ISZERO PUSH2 0x2A68 JUMPI PUSH1 0x0 DUP1 REVERT JUMPDEST PUSH1 0x20 DUP4 ADD SWAP3 POP PUSH1 0x20 DUP3 MUL CALLDATASIZE SUB DUP4 SGT ISZERO PUSH2 0x2A80 JUMPI PUSH1 0x0 DUP1 REVERT JUMPDEST POP SWAP3 POP SWAP3 SWAP1 POP JUMP JUMPDEST PUSH1 0x0 DUP1 DUP4 CALLDATALOAD PUSH1 0x1 PUSH1 0x20 SUB DUP5 CALLDATASIZE SUB SUB DUP2 SLT PUSH2 0x2AA1 JUMPI PUSH1 0x0 DUP1 REVERT JUMPDEST DUP1 DUP5 ADD SWAP3 POP DUP3 CALLDATALOAD SWAP2 POP PUSH8 0xFFFFFFFFFFFFFFFF DUP3 GT ISZERO PUSH2 0x2ABF JUMPI PUSH1 0x0 DUP1 REVERT JUMPDEST PUSH1 0x20 DUP4 ADD SWAP3 POP PUSH1 0x20 DUP3 MUL CALLDATASIZE SUB DUP4 SGT ISZERO PUSH2 0x2AD7 JUMPI PUSH1 0x0 DUP1 REVERT JUMPDEST POP SWAP3 POP SWAP3 SWAP1 POP JUMP JUMPDEST PUSH1 0x0 DUP1 DUP4 CALLDATALOAD PUSH1 0x1 PUSH1 0x20 SUB DUP5 CALLDATASIZE SUB SUB DUP2 SLT PUSH2 0x2AF8 JUMPI PUSH1 0x0 DUP1 REVERT JUMPDEST DUP1 DUP5 ADD SWAP3 POP DUP3 CALLDATALOAD SWAP2 POP PUSH8 0xFFFFFFFFFFFFFFFF DUP3 GT ISZERO PUSH2 0x2B16 JUMPI PUSH1 0x0 DUP1 REVERT JUMPDEST PUSH1 0x20 DUP4 ADD SWAP3 POP PUSH1 0x20 DUP3 MUL CALLDATASIZE SUB DUP4 SGT ISZERO PUSH2 0x2B2E JUMPI PUSH1 0x0 DUP1 REVERT JUMPDEST POP SWAP3 POP SWAP3 SWAP1 POP JUMP JUMPDEST PUSH1 0x0 DUP1 DUP4 CALLDATALOAD PUSH1 0x1 PUSH1 0x20 SUB DUP5 CALLDATASIZE SUB SUB DUP2 SLT PUSH2 0x2B4F JUMPI PUSH1 0x0 DUP1 REVERT JUMPDEST DUP1 DUP5 ADD SWAP3 POP DUP3 CALLDATALOAD SWAP2 POP PUSH8 0xFFFFFFFFFFFFFFFF DUP3 GT ISZERO PUSH2 0x2B6D JUMPI PUSH1 0x0 DUP1 REVERT JUMPDEST PUSH1 0x20 DUP4 ADD SWAP3 POP PUSH1 0x20 DUP3 MUL CALLDATASIZE SUB DUP4 SGT ISZERO PUSH2 0x2B85 JUMPI PUSH1 0x0 DUP1 REVERT JUMPDEST POP SWAP3 POP SWAP3 SWAP1 POP JUMP JUMPDEST PUSH1 0x0 DUP1 DUP4 CALLDATALOAD PUSH1 0x1 PUSH1 0x20 SUB DUP5 CALLDATASIZE SUB SUB DUP2 SLT PUSH2 0x2BA6 JUMPI PUSH1 0x0 DUP1 REVERT JUMPDEST DUP1 DUP5 ADD SWAP3 POP DUP3 CALLDATALOAD SWAP2 POP PUSH8 0xFFFFFFFFFFFFFFFF DUP3 GT ISZERO PUSH2 0x2BC4 JUMPI PUSH1 0x0 DUP1 REVERT JUMPDEST PUSH1 0x20 DUP4 ADD SWAP3 POP PUSH1 0x1 DUP3 MUL CALLDATASIZE SUB DUP4 SGT ISZERO PUSH2 0x2BDC JUMPI PUSH1 0x0 DUP1 REVERT JUMPDEST POP SWAP3 POP SWAP3 SWAP1 POP JUMP JUMPDEST PUSH1 0x0 PUSH1 0x40 MLOAD SWAP1 POP DUP2 DUP2 ADD DUP2 DUP2 LT PUSH8 0xFFFFFFFFFFFFFFFF DUP3 GT OR ISZERO PUSH2 0x2C0B JUMPI PUSH2 0x2C0A PUSH2 0x309A JUMP JUMPDEST JUMPDEST DUP1 PUSH1 0x40 MSTORE POP SWAP2 SWAP1 POP JUMP JUMPDEST PUSH1 0x0 PUSH8 0xFFFFFFFFFFFFFFFF DUP3 GT ISZERO PUSH2 0x2C30 JUMPI PUSH2 0x2C2F PUSH2 0x309A JUMP JUMPDEST JUMPDEST PUSH1 0x20 DUP3 MUL SWAP1 POP PUSH1 0x20 DUP2 ADD SWAP1 POP SWAP2 SWAP1 POP JUMP JUMPDEST PUSH1 0x0 PUSH8 0xFFFFFFFFFFFFFFFF DUP3 GT ISZERO PUSH2 0x2C5C JUMPI PUSH2 0x2C5B PUSH2 0x309A JUMP JUMPDEST JUMPDEST PUSH1 0x20 DUP3 MUL SWAP1 POP PUSH1 0x20 DUP2 ADD SWAP1 POP SWAP2 SWAP1 POP JUMP JUMPDEST PUSH1 0x0 PUSH8 0xFFFFFFFFFFFFFFFF DUP3 GT ISZERO PUSH2 0x2C88 JUMPI PUSH2 0x2C87 PUSH2 0x309A JUMP JUMPDEST JUMPDEST PUSH1 0x1F NOT PUSH1 0x1F DUP4 ADD AND SWAP1 POP PUSH1 0x20 DUP2 ADD SWAP1 POP SWAP2 SWAP1 POP JUMP JUMPDEST PUSH1 0x0 DUP2 SWAP1 POP PUSH1 0x20 DUP3 ADD SWAP1 POP SWAP2 SWAP1 POP JUMP JUMPDEST PUSH1 0x0 DUP2 SWAP1 POP PUSH1 0x20 DUP3 ADD SWAP1 POP SWAP2 SWAP1 POP JUMP JUMPDEST PUSH1 0x0 DUP2 SWAP1 POP PUSH1 0x20 DUP3 ADD SWAP1 POP SWAP2 SWAP1 POP JUMP JUMPDEST PUSH1 0x0 DUP2 SWAP1 POP PUSH1 0x20 DUP3 ADD SWAP1 POP SWAP2 SWAP1 POP JUMP JUMPDEST PUSH1 0x0 DUP2 MLOAD SWAP1 POP SWAP2 SWAP1 POP JUMP JUMPDEST PUSH1 0x0 DUP2 MLOAD SWAP1 POP SWAP2 SWAP1 POP JUMP JUMPDEST PUSH1 0x0 DUP2 MLOAD SWAP1 POP SWAP2 SWAP1 POP JUMP JUMPDEST PUSH1 0x0 DUP2 MLOAD SWAP1 POP SWAP2 SWAP1 POP JUMP JUMPDEST PUSH1 0x0 DUP2 MLOAD SWAP1 POP SWAP2 SWAP1 POP JUMP JUMPDEST PUSH1 0x0 DUP2 MLOAD SWAP1 POP SWAP2 SWAP1 POP JUMP JUMPDEST PUSH1 0x0 PUSH1 0x20 DUP3 ADD SWAP1 POP SWAP2 SWAP1 POP JUMP JUMPDEST PUSH1 0x0 PUSH1 0x20 DUP3 ADD SWAP1 POP SWAP2 SWAP1 POP JUMP JUMPDEST PUSH1 0x0 PUSH1 0x20 DUP3 ADD SWAP1 POP SWAP2 SWAP1 POP JUMP JUMPDEST PUSH1 0x0 PUSH1 0x20 DUP3 ADD SWAP1 POP SWAP2 SWAP1 POP JUMP JUMPDEST PUSH1 0x0 DUP3 DUP3 MSTORE PUSH1 0x20 DUP3 ADD SWAP1 POP SWAP3 SWAP2 POP POP JUMP JUMPDEST PUSH1 0x0 DUP3 DUP3 MSTORE PUSH1 0x20 DUP3 ADD SWAP1 POP SWAP3 SWAP2 POP POP JUMP JUMPDEST PUSH1 0x0 DUP3 DUP3 MSTORE PUSH1 0x20 DUP3 ADD SWAP1 POP SWAP3 SWAP2 POP POP JUMP JUMPDEST PUSH1 0x0 DUP3 DUP3 MSTORE PUSH1 0x20 DUP3 ADD SWAP1 POP SWAP3 SWAP2 POP POP JUMP JUMPDEST PUSH1 0x0 DUP3 DUP3 MSTORE PUSH1 0x20 DUP3 ADD SWAP1 POP SWAP3 SWAP2 POP POP JUMP JUMPDEST PUSH1 0x0 DUP3 DUP3 MSTORE PUSH1 0x20 DUP3 ADD SWAP1 POP SWAP3 SWAP2 POP POP JUMP JUMPDEST PUSH1 0x0 DUP2 SWAP1 POP SWAP3 SWAP2 POP POP JUMP JUMPDEST PUSH1 0x0 DUP3 DUP3 MSTORE PUSH1 0x20 DUP3 ADD SWAP1 POP SWAP3 SWAP2 POP POP JUMP JUMPDEST PUSH1 0x0 PUSH2 0x2DE0 DUP3 PUSH2 0x2F2D JUMP JUMPDEST SWAP2 POP PUSH2 0x2DEB DUP4 PUSH2 0x2F2D JUMP JUMPDEST SWAP3 POP DUP3 PUSH32 0xFFFFFFFFFFFFFFFFFFFFFFFFFFFFFFFFFFFFFFFFFFFFFFFFFFFFFFFFFFFFFFFF SUB DUP3 GT ISZERO PUSH2 0x2E20 JUMPI PUSH2 0x2E1F PUSH2 0x300D JUMP JUMPDEST JUMPDEST DUP3 DUP3 ADD SWAP1 POP SWAP3 SWAP2 POP POP JUMP JUMPDEST PUSH1 0x0 PUSH2 0x2E36 DUP3 PUSH2 0x2F2D JUMP JUMPDEST SWAP2 POP PUSH2 0x2E41 DUP4 PUSH2 0x2F2D JUMP JUMPDEST SWAP3 POP DUP3 PUSH2 0x2E51 JUMPI PUSH2 0x2E50 PUSH2 0x303C JUMP JUMPDEST JUMPDEST DUP3 DUP3 DIV SWAP1 POP SWAP3 SWAP2 POP POP JUMP JUMPDEST PUSH1 0x0 PUSH2 0x2E67 DUP3 PUSH2 0x2F2D JUMP JUMPDEST SWAP2 POP PUSH2 0x2E72 DUP4 PUSH2 0x2F2D JUMP JUMPDEST SWAP3 POP DUP2 PUSH32 0xFFFFFFFFFFFFFFFFFFFFFFFFFFFFFFFFFFFFFFFFFFFFFFFFFFFFFFFFFFFFFFFF DIV DUP4 GT DUP3 ISZERO ISZERO AND ISZERO PUSH2 0x2EAB JUMPI PUSH2 0x2EAA PUSH2 0x300D JUMP JUMPDEST JUMPDEST DUP3 DUP3 MUL SWAP1 POP SWAP3 SWAP2 POP POP JUMP JUMPDEST PUSH1 0x0 PUSH2 0x2EC1 DUP3 PUSH2 0x2F0D JUMP JUMPDEST SWAP1 POP SWAP2 SWAP1 POP JUMP JUMPDEST PUSH1 0x0 PUSH2 0x2ED3 DUP3 PUSH2 0x2F0D JUMP JUMPDEST SWAP1 POP SWAP2 SWAP1 POP JUMP JUMPDEST PUSH1 0x0 DUP2 ISZERO ISZERO SWAP1 POP SWAP2 SWAP1 POP JUMP JUMPDEST PUSH1 0x0 DUP2 SWAP1 POP SWAP2 SWAP1 POP JUMP JUMPDEST PUSH1 0x0 DUP2 SWAP1 POP PUSH2 0x2EFE DUP3 PUSH2 0x30DA JUMP JUMPDEST SWAP2 SWAP1 POP JUMP JUMPDEST PUSH1 0x0 DUP2 SWAP1 POP SWAP2 SWAP1 POP JUMP JUMPDEST PUSH1 0x0 PUSH20 0xFFFFFFFFFFFFFFFFFFFFFFFFFFFFFFFFFFFFFFFF DUP3 AND SWAP1 POP SWAP2 SWAP1 POP JUMP JUMPDEST PUSH1 0x0 DUP2 SWAP1 POP SWAP2 SWAP1 POP JUMP JUMPDEST PUSH1 0x0 PUSH2 0x2F44 CALLDATASIZE DUP5 DUP5 PUSH2 0x1B1B JUMP JUMPDEST SWAP1 POP SWAP3 SWAP2 POP POP JUMP JUMPDEST PUSH1 0x0 PUSH2 0x2F57 DUP3 PUSH2 0x2F5E JUMP JUMPDEST SWAP1 POP SWAP2 SWAP1 POP JUMP JUMPDEST PUSH1 0x0 PUSH2 0x2F69 DUP3 PUSH2 0x2F0D JUMP JUMPDEST SWAP1 POP SWAP2 SWAP1 POP JUMP JUMPDEST PUSH1 0x0 PUSH2 0x2F7B DUP3 PUSH2 0x2EF0 JUMP JUMPDEST SWAP1 POP SWAP2 SWAP1 POP JUMP JUMPDEST DUP3 DUP2 DUP4 CALLDATACOPY PUSH1 0x0 DUP4 DUP4 ADD MSTORE POP POP POP JUMP JUMPDEST PUSH1 0x0 JUMPDEST DUP4 DUP2 LT ISZERO PUSH2 0x2FAF JUMPI DUP1 DUP3 ADD MLOAD DUP2 DUP5 ADD MSTORE PUSH1 0x20 DUP2 ADD SWAP1 POP PUSH2 0x2F94 JUMP JUMPDEST DUP4 DUP2 GT ISZERO PUSH2 0x2FBE JUMPI PUSH1 0x0 DUP5 DUP5 ADD MSTORE JUMPDEST POP POP POP POP JUMP JUMPDEST PUSH1 0x0 PUSH2 0x2FCF DUP3 PUSH2 0x2F2D JUMP JUMPDEST SWAP2 POP PUSH32 0xFFFFFFFFFFFFFFFFFFFFFFFFFFFFFFFFFFFFFFFFFFFFFFFFFFFFFFFFFFFFFFFF DUP3 EQ ISZERO PUSH2 0x3002 JUMPI PUSH2 0x3001 PUSH2 0x300D JUMP JUMPDEST JUMPDEST PUSH1 0x1 DUP3 ADD SWAP1 POP SWAP2 SWAP1 POP JUMP JUMPDEST PUSH32 0x4E487B7100000000000000000000000000000000000000000000000000000000 PUSH1 0x0 MSTORE PUSH1 0x11 PUSH1 0x4 MSTORE PUSH1 0x24 PUSH1 0x0 REVERT JUMPDEST PUSH32 0x4E487B7100000000000000000000000000000000000000000000000000000000 PUSH1 0x0 MSTORE PUSH1 0x12 PUSH1 0x4 MSTORE PUSH1 0x24 PUSH1 0x0 REVERT JUMPDEST PUSH32 0x4E487B7100000000000000000000000000000000000000000000000000000000 PUSH1 0x0 MSTORE PUSH1 0x21 PUSH1 0x4 MSTORE PUSH1 0x24 PUSH1 0x0 REVERT JUMPDEST PUSH32 0x4E487B7100000000000000000000000000000000000000000000000000000000 PUSH1 0x0 MSTORE PUSH1 0x41 PUSH1 0x4 MSTORE PUSH1 0x24 PUSH1 0x0 REVERT JUMPDEST PUSH1 0x0 PUSH1 0x1F NOT PUSH1 0x1F DUP4 ADD AND SWAP1 POP SWAP2 SWAP1 POP JUMP JUMPDEST PUSH1 0x2 DUP2 LT PUSH2 0x30EB JUMPI PUSH2 0x30EA PUSH2 0x306B JUMP JUMPDEST JUMPDEST POP JUMP JUMPDEST PUSH2 0x30F7 DUP2 PUSH2 0x2EB6 JUMP JUMPDEST DUP2 EQ PUSH2 0x3102 JUMPI PUSH1 0x0 DUP1 REVERT JUMPDEST POP JUMP JUMPDEST PUSH2 0x310E DUP2 PUSH2 0x2EC8 JUMP JUMPDEST DUP2 EQ PUSH2 0x3119 JUMPI PUSH1 0x0 DUP1 REVERT JUMPDEST POP JUMP JUMPDEST PUSH2 0x3125 DUP2 PUSH2 0x2EDA JUMP JUMPDEST DUP2 EQ PUSH2 0x3130 JUMPI PUSH1 0x0 DUP1 REVERT JUMPDEST POP JUMP JUMPDEST PUSH2 0x313C DUP2 PUSH2 0x2EE6 JUMP JUMPDEST DUP2 EQ PUSH2 0x3147 JUMPI PUSH1 0x0 DUP1 REVERT JUMPDEST POP JUMP JUMPDEST PUSH1 0x2 DUP2 LT PUSH2 0x3157 JUMPI PUSH1 0x0 DUP1 REVERT JUMPDEST POP JUMP JUMPDEST PUSH2 0x3163 DUP2 PUSH2 0x2F2D JUMP JUMPDEST DUP2 EQ PUSH2 0x316E JUMPI PUSH1 0x0 DUP1 REVERT JUMPDEST POP JUMP INVALID LOG2 PUSH5 0x6970667358 0x22 SLT KECCAK256 0xA5 0x49 0xB5 DUP12 DUP10 ISZERO SWAP9 CALLVALUE 0xCF 0xED 0xC8 0xC8 BYTE 0xFB 0xBB EQ 0xDB SGT 0xDA SWAP14 0xE5 SMOD 0xE6 0xAA PUSH18 0x5C9D7E64D6438E64736F6C63430008000033 "
				},
				"gasEstimates": {
					"creation": {
						"codeDepositCost": "2542200",
						"executionCost": "infinite",
						"totalCost": "infinite"
					},
					"external": {
						"ethToWeth(uint256,address)": "infinite",
						"feeTo()": "1212",
						"feeToAdmin()": "1325",
						"fees()": "1129",
						"getAmountInAll(uint256[])": "infinite",
						"getWeth(address)": "infinite",
						"multiSwap((uint256[],uint256[],bytes[],address,uint256,address,address,uint256[],uint256[],(bytes32,uint256,uint256,uint256,bytes)[],(address,bool,address,bool),int256[],address[],uint8))": "infinite",
						"routerAddreAll(uint256)": "1584",
						"setFeeTo(address)": "22498",
						"setFeeToSetter(address)": "22454",
						"setFees(uint256)": "21585",
						"setRouterAddreAll(uint256,address)": "22771"
					},
					"internal": {
						"AmmSeriSwap(address,uint256,uint256,bytes memory,address,uint256,address,address)": "infinite",
						"balancerSwap(enum IVault.SwapKind,address,address,struct IVault.BatchSwapStep memory[] memory,struct IVault.FundManagement memory,contract IAsset[] memory,int256[] memory,uint256)": "infinite",
						"crvSwap(address,address,address,uint256,uint256[] memory)": "infinite"
					}
				},
				"methodIdentifiers": {
					"ethToWeth(uint256,address)": "ef3858ab",
					"feeTo()": "017e7e58",
					"feeToAdmin()": "8e7fa96a",
					"fees()": "9af1d35a",
					"getAmountInAll(uint256[])": "fd07291f",
					"getWeth(address)": "8ac051f2",
					"multiSwap((uint256[],uint256[],bytes[],address,uint256,address,address,uint256[],uint256[],(bytes32,uint256,uint256,uint256,bytes)[],(address,bool,address,bool),int256[],address[],uint8))": "239aad0a",
					"routerAddreAll(uint256)": "257b66b0",
					"setFeeTo(address)": "f46901ed",
					"setFeeToSetter(address)": "a2e74af6",
					"setFees(uint256)": "3d18678e",
					"setRouterAddreAll(uint256,address)": "f654df7a"
				}
			},
			"storageLayout": {
				"storage": [
					{
						"astId": 15,
						"contract": "BarterswapRouter.sol:BarterswapRouterV1",
						"label": "feeTo",
						"offset": 0,
						"slot": "0",
						"type": "t_address_payable"
					},
					{
						"astId": 17,
						"contract": "BarterswapRouter.sol:BarterswapRouterV1",
						"label": "feeToAdmin",
						"offset": 0,
						"slot": "1",
						"type": "t_address"
					},
					{
						"astId": 19,
						"contract": "BarterswapRouter.sol:BarterswapRouterV1",
						"label": "fees",
						"offset": 0,
						"slot": "2",
						"type": "t_uint256"
					},
					{
						"astId": 23,
						"contract": "BarterswapRouter.sol:BarterswapRouterV1",
						"label": "routerAddreAll",
						"offset": 0,
						"slot": "3",
						"type": "t_mapping(t_uint256,t_address)"
					}
				],
				"types": {
					"t_address": {
						"encoding": "inplace",
						"label": "address",
						"numberOfBytes": "20"
					},
					"t_address_payable": {
						"encoding": "inplace",
						"label": "address payable",
						"numberOfBytes": "20"
					},
					"t_mapping(t_uint256,t_address)": {
						"encoding": "mapping",
						"key": "t_uint256",
						"label": "mapping(uint256 => address)",
						"numberOfBytes": "32",
						"value": "t_address"
					},
					"t_uint256": {
						"encoding": "inplace",
						"label": "uint256",
						"numberOfBytes": "32"
					}
				}
			},
			"userdoc": {
				"kind": "user",
				"methods": {},
				"version": 1
			}
		}
	}
}