{
	"libs/TransferHelper.sol": {
		"TransferHelper": {
			"abi": [
				{
					"inputs": [
						{
							"internalType": "address",
							"name": "nftaddress",
							"type": "address"
						},
						{
							"internalType": "uint256",
							"name": "tokenId",
							"type": "uint256"
						},
						{
							"internalType": "uint256",
							"name": "_value",
							"type": "uint256"
						}
					],
					"name": "HelpRoyalties",
					"outputs": [
						{
							"internalType": "address",
							"name": "",
							"type": "address"
						},
						{
							"internalType": "uint256",
							"name": "",
							"type": "uint256"
						}
					],
					"stateMutability": "view",
					"type": "function"
				}
			],
			"devdoc": {
				"kind": "dev",
				"methods": {},
				"version": 1
			},
			"evm": {
				"assembly": "    /* \"libs/TransferHelper.sol\":87:2534  library TransferHelper {... */\n  dataSize(sub_0)\n  dataOffset(sub_0)\n  0x0b\n  dup3\n  dup3\n  dup3\n  codecopy\n  dup1\n  mload\n  0x00\n  byte\n  0x73\n  eq\n  tag_1\n  jumpi\n  mstore(0x00, 0x4e487b7100000000000000000000000000000000000000000000000000000000)\n  mstore(0x04, 0x00)\n  revert(0x00, 0x24)\ntag_1:\n  mstore(0x00, address)\n  0x73\n  dup2\n  mstore8\n  dup3\n  dup2\n  return\nstop\n\nsub_0: assembly {\n        /* \"libs/TransferHelper.sol\":87:2534  library TransferHelper {... */\n      eq(address, deployTimeAddress())\n      mstore(0x40, 0x80)\n      jumpi(tag_1, lt(calldatasize, 0x04))\n      shr(0xe0, calldataload(0x00))\n      dup1\n      0xf938761c\n      eq\n      tag_2\n      jumpi\n    tag_1:\n      0x00\n      dup1\n      revert\n        /* \"libs/TransferHelper.sol\":1758:2527  function HelpRoyalties(address nftaddress, uint256 tokenId,uint256 _value) external view returns(address,uint256){... */\n    tag_2:\n      tag_3\n      0x04\n      dup1\n      calldatasize\n      sub\n      dup2\n      add\n      swap1\n      tag_4\n      swap2\n      swap1\n      tag_5\n      jump\t// in\n    tag_4:\n      tag_6\n      jump\t// in\n    tag_3:\n      mload(0x40)\n      tag_7\n      swap3\n      swap2\n      swap1\n      tag_8\n      jump\t// in\n    tag_7:\n      mload(0x40)\n      dup1\n      swap2\n      sub\n      swap1\n      return\n    tag_6:\n        /* \"libs/TransferHelper.sol\":1855:1862  address */\n      0x00\n        /* \"libs/TransferHelper.sol\":1863:1870  uint256 */\n      dup1\n        /* \"libs/TransferHelper.sol\":1890:1902  bool success */\n      0x00\n        /* \"libs/TransferHelper.sol\":1904:1921  bytes memory data */\n      dup1\n        /* \"libs/TransferHelper.sol\":1926:1936  nftaddress */\n      dup7\n        /* \"libs/TransferHelper.sol\":1926:1947  nftaddress.staticcall */\n      0xffffffffffffffffffffffffffffffffffffffff\n      and\n        /* \"libs/TransferHelper.sol\":2003:2010  tokenId */\n      dup7\n        /* \"libs/TransferHelper.sol\":2011:2017  _value */\n      dup7\n        /* \"libs/TransferHelper.sol\":1948:2018  abi.encodeWithSignature(\"royaltyInfo(uint256,uint256)\",tokenId,_value) */\n      add(0x24, mload(0x40))\n      tag_10\n      swap3\n      swap2\n      swap1\n      tag_11\n      jump\t// in\n    tag_10:\n      mload(0x40)\n      0x20\n      dup2\n      dup4\n      sub\n      sub\n      dup2\n      mstore\n      swap1\n      0x40\n      mstore\n      and(not(0xffffffffffffffffffffffffffffffffffffffffffffffffffffffff), 0x2a55205a00000000000000000000000000000000000000000000000000000000)\n      0x20\n      dup3\n      add\n      dup1\n      mload\n      0xffffffffffffffffffffffffffffffffffffffffffffffffffffffff\n      dup4\n      dup2\n      dup4\n      and\n      or\n      dup4\n      mstore\n      pop\n      pop\n      pop\n      pop\n        /* \"libs/TransferHelper.sol\":1926:2019  nftaddress.staticcall(abi.encodeWithSignature(\"royaltyInfo(uint256,uint256)\",tokenId,_value)) */\n      mload(0x40)\n      tag_12\n      swap2\n      swap1\n      tag_13\n      jump\t// in\n    tag_12:\n      0x00\n      mload(0x40)\n      dup1\n      dup4\n      sub\n      dup2\n      dup6\n      gas\n      staticcall\n      swap2\n      pop\n      pop\n      returndatasize\n      dup1\n      0x00\n      dup2\n      eq\n      tag_16\n      jumpi\n      mload(0x40)\n      swap2\n      pop\n      and(add(returndatasize, 0x3f), not(0x1f))\n      dup3\n      add\n      0x40\n      mstore\n      returndatasize\n      dup3\n      mstore\n      returndatasize\n      0x00\n      0x20\n      dup5\n      add\n      returndatacopy\n      jump(tag_15)\n    tag_16:\n      0x60\n      swap2\n      pop\n    tag_15:\n      pop\n        /* \"libs/TransferHelper.sol\":1889:2019  (bool success, bytes memory data) =  nftaddress.staticcall(abi.encodeWithSignature(\"royaltyInfo(uint256,uint256)\",tokenId,_value)) */\n      swap2\n      pop\n      swap2\n      pop\n        /* \"libs/TransferHelper.sol\":2038:2045  success */\n      dup2\n        /* \"libs/TransferHelper.sol\":2038:2066  success && data.length == 64 */\n      dup1\n      iszero\n      tag_17\n      jumpi\n      pop\n        /* \"libs/TransferHelper.sol\":2064:2066  64 */\n      0x40\n        /* \"libs/TransferHelper.sol\":2049:2053  data */\n      dup2\n        /* \"libs/TransferHelper.sol\":2049:2060  data.length */\n      mload\n        /* \"libs/TransferHelper.sol\":2049:2066  data.length == 64 */\n      eq\n        /* \"libs/TransferHelper.sol\":2038:2066  success && data.length == 64 */\n    tag_17:\n        /* \"libs/TransferHelper.sol\":2035:2468  if(success && data.length == 64){... */\n      iszero\n      tag_18\n      jumpi\n        /* \"libs/TransferHelper.sol\":2091:2104  address addr1 */\n      0x00\n        /* \"libs/TransferHelper.sol\":2105:2119  uint256 value1 */\n      dup1\n        /* \"libs/TransferHelper.sol\":2132:2136  data */\n      dup3\n        /* \"libs/TransferHelper.sol\":2121:2156  abi.decode(data, (address,uint256)) */\n      dup1\n      0x20\n      add\n      swap1\n      mload\n      dup2\n      add\n      swap1\n      tag_19\n      swap2\n      swap1\n      tag_20\n      jump\t// in\n    tag_19:\n        /* \"libs/TransferHelper.sol\":2090:2156  (address addr1,uint256 value1)=abi.decode(data, (address,uint256)) */\n      swap2\n      pop\n      swap2\n      pop\n        /* \"libs/TransferHelper.sol\":2188:2189  0 */\n      0x00\n        /* \"libs/TransferHelper.sol\":2171:2190  addr1 != address(0) */\n      0xffffffffffffffffffffffffffffffffffffffff\n      and\n        /* \"libs/TransferHelper.sol\":2171:2176  addr1 */\n      dup3\n        /* \"libs/TransferHelper.sol\":2171:2190  addr1 != address(0) */\n      0xffffffffffffffffffffffffffffffffffffffff\n      and\n      eq\n      iszero\n        /* \"libs/TransferHelper.sol\":2171:2204  addr1 != address(0) && value1 > 0 */\n      dup1\n      iszero\n      tag_21\n      jumpi\n      pop\n        /* \"libs/TransferHelper.sol\":2203:2204  0 */\n      0x00\n        /* \"libs/TransferHelper.sol\":2194:2200  value1 */\n      dup2\n        /* \"libs/TransferHelper.sol\":2194:2204  value1 > 0 */\n      gt\n        /* \"libs/TransferHelper.sol\":2171:2204  addr1 != address(0) && value1 > 0 */\n    tag_21:\n        /* \"libs/TransferHelper.sol\":2171:2241  addr1 != address(0) && value1 > 0 && value1 <= _value.mul(50).div(100) */\n      dup1\n      iszero\n      tag_22\n      jumpi\n      pop\n        /* \"libs/TransferHelper.sol\":2218:2241  _value.mul(50).div(100) */\n      tag_23\n        /* \"libs/TransferHelper.sol\":2237:2240  100 */\n      0x64\n        /* \"libs/TransferHelper.sol\":2218:2232  _value.mul(50) */\n      tag_24\n        /* \"libs/TransferHelper.sol\":2229:2231  50 */\n      0x32\n        /* \"libs/TransferHelper.sol\":2218:2224  _value */\n      dup11\n        /* \"libs/TransferHelper.sol\":2218:2228  _value.mul */\n      tag_25\n      swap1\n        /* \"libs/TransferHelper.sol\":2218:2232  _value.mul(50) */\n      swap2\n      swap1\n      0xffffffff\n      and\n      jump\t// in\n    tag_24:\n        /* \"libs/TransferHelper.sol\":2218:2236  _value.mul(50).div */\n      tag_26\n      swap1\n        /* \"libs/TransferHelper.sol\":2218:2241  _value.mul(50).div(100) */\n      swap2\n      swap1\n      0xffffffff\n      and\n      jump\t// in\n    tag_23:\n        /* \"libs/TransferHelper.sol\":2208:2214  value1 */\n      dup2\n        /* \"libs/TransferHelper.sol\":2208:2241  value1 <= _value.mul(50).div(100) */\n      gt\n      iszero\n        /* \"libs/TransferHelper.sol\":2171:2241  addr1 != address(0) && value1 > 0 && value1 <= _value.mul(50).div(100) */\n    tag_22:\n        /* \"libs/TransferHelper.sol\":2168:2449  if(addr1 != address(0) && value1 > 0 && value1 <= _value.mul(50).div(100)) {... */\n      iszero\n      tag_27\n      jumpi\n        /* \"libs/TransferHelper.sol\":2285:2290  addr1 */\n      dup2\n        /* \"libs/TransferHelper.sol\":2291:2297  value1 */\n      dup2\n        /* \"libs/TransferHelper.sol\":2277:2298  return( addr1,value1) */\n      swap6\n      pop\n      swap6\n      pop\n      pop\n      pop\n      pop\n      pop\n      jump(tag_9)\n        /* \"libs/TransferHelper.sol\":2168:2449  if(addr1 != address(0) && value1 > 0 && value1 <= _value.mul(50).div(100)) {... */\n    tag_27:\n        /* \"libs/TransferHelper.sol\":2328:2351  _value.mul(50).div(100) */\n      tag_29\n        /* \"libs/TransferHelper.sol\":2347:2350  100 */\n      0x64\n        /* \"libs/TransferHelper.sol\":2328:2342  _value.mul(50) */\n      tag_30\n        /* \"libs/TransferHelper.sol\":2339:2341  50 */\n      0x32\n        /* \"libs/TransferHelper.sol\":2328:2334  _value */\n      dup11\n        /* \"libs/TransferHelper.sol\":2328:2338  _value.mul */\n      tag_25\n      swap1\n        /* \"libs/TransferHelper.sol\":2328:2342  _value.mul(50) */\n      swap2\n      swap1\n      0xffffffff\n      and\n      jump\t// in\n    tag_30:\n        /* \"libs/TransferHelper.sol\":2328:2346  _value.mul(50).div */\n      tag_26\n      swap1\n        /* \"libs/TransferHelper.sol\":2328:2351  _value.mul(50).div(100) */\n      swap2\n      swap1\n      0xffffffff\n      and\n      jump\t// in\n    tag_29:\n        /* \"libs/TransferHelper.sol\":2319:2325  value1 */\n      dup2\n        /* \"libs/TransferHelper.sol\":2319:2351  value1 > _value.mul(50).div(100) */\n      gt\n        /* \"libs/TransferHelper.sol\":2316:2449  if(value1 > _value.mul(50).div(100)){... */\n      iszero\n      tag_31\n      jumpi\n        /* \"libs/TransferHelper.sol\":2391:2396  addr1 */\n      dup2\n        /* \"libs/TransferHelper.sol\":2397:2420  _value.mul(50).div(100) */\n      tag_32\n        /* \"libs/TransferHelper.sol\":2416:2419  100 */\n      0x64\n        /* \"libs/TransferHelper.sol\":2397:2411  _value.mul(50) */\n      tag_33\n        /* \"libs/TransferHelper.sol\":2408:2410  50 */\n      0x32\n        /* \"libs/TransferHelper.sol\":2397:2403  _value */\n      dup12\n        /* \"libs/TransferHelper.sol\":2397:2407  _value.mul */\n      tag_25\n      swap1\n        /* \"libs/TransferHelper.sol\":2397:2411  _value.mul(50) */\n      swap2\n      swap1\n      0xffffffff\n      and\n      jump\t// in\n    tag_33:\n        /* \"libs/TransferHelper.sol\":2397:2415  _value.mul(50).div */\n      tag_26\n      swap1\n        /* \"libs/TransferHelper.sol\":2397:2420  _value.mul(50).div(100) */\n      swap2\n      swap1\n      0xffffffff\n      and\n      jump\t// in\n    tag_32:\n        /* \"libs/TransferHelper.sol\":2383:2421  return (addr1,_value.mul(50).div(100)) */\n      swap6\n      pop\n      swap6\n      pop\n      pop\n      pop\n      pop\n      pop\n      jump(tag_9)\n        /* \"libs/TransferHelper.sol\":2316:2449  if(value1 > _value.mul(50).div(100)){... */\n    tag_31:\n        /* \"libs/TransferHelper.sol\":2035:2468  if(success && data.length == 64){... */\n      pop\n      pop\n    tag_18:\n        /* \"libs/TransferHelper.sol\":2498:2499  0 */\n      0x00\n        /* \"libs/TransferHelper.sol\":2501:2502  0 */\n      dup1\n        /* \"libs/TransferHelper.sol\":2483:2503  return(address(0),0) */\n      swap4\n      pop\n      swap4\n      pop\n      pop\n      pop\n        /* \"libs/TransferHelper.sol\":1758:2527  function HelpRoyalties(address nftaddress, uint256 tokenId,uint256 _value) external view returns(address,uint256){... */\n    tag_9:\n      swap4\n      pop\n      swap4\n      swap2\n      pop\n      pop\n      jump\t// out\n        /* \"libs/SafeMath.sol\":1618:2077  function mul(uint256 a, uint256 b) internal pure returns (uint256) {... */\n    tag_25:\n        /* \"libs/SafeMath.sol\":1676:1683  uint256 */\n      0x00\n        /* \"libs/SafeMath.sol\":1922:1923  0 */\n      dup1\n        /* \"libs/SafeMath.sol\":1917:1918  a */\n      dup4\n        /* \"libs/SafeMath.sol\":1917:1923  a == 0 */\n      eq\n        /* \"libs/SafeMath.sol\":1913:1958  if (a == 0) {... */\n      iszero\n      tag_35\n      jumpi\n        /* \"libs/SafeMath.sol\":1946:1947  0 */\n      0x00\n        /* \"libs/SafeMath.sol\":1939:1947  return 0 */\n      swap1\n      pop\n      jump(tag_34)\n        /* \"libs/SafeMath.sol\":1913:1958  if (a == 0) {... */\n    tag_35:\n        /* \"libs/SafeMath.sol\":1968:1977  uint256 c */\n      0x00\n        /* \"libs/SafeMath.sol\":1984:1985  b */\n      dup3\n        /* \"libs/SafeMath.sol\":1980:1981  a */\n      dup5\n        /* \"libs/SafeMath.sol\":1980:1985  a * b */\n      tag_36\n      swap2\n      swap1\n      tag_37\n      jump\t// in\n    tag_36:\n        /* \"libs/SafeMath.sol\":1968:1985  uint256 c = a * b */\n      swap1\n      pop\n        /* \"libs/SafeMath.sol\":2012:2013  b */\n      dup3\n        /* \"libs/SafeMath.sol\":2007:2008  a */\n      dup5\n        /* \"libs/SafeMath.sol\":2003:2004  c */\n      dup3\n        /* \"libs/SafeMath.sol\":2003:2008  c / a */\n      tag_38\n      swap2\n      swap1\n      tag_39\n      jump\t// in\n    tag_38:\n        /* \"libs/SafeMath.sol\":2003:2013  c / a == b */\n      eq\n        /* \"libs/SafeMath.sol\":1995:2051  require(c / a == b, \"SafeMath: multiplication overflow\") */\n      tag_40\n      jumpi\n      mload(0x40)\n      0x08c379a000000000000000000000000000000000000000000000000000000000\n      dup2\n      mstore\n      0x04\n      add\n      tag_41\n      swap1\n      tag_42\n      jump\t// in\n    tag_41:\n      mload(0x40)\n      dup1\n      swap2\n      sub\n      swap1\n      revert\n    tag_40:\n        /* \"libs/SafeMath.sol\":2069:2070  c */\n      dup1\n        /* \"libs/SafeMath.sol\":2062:2070  return c */\n      swap2\n      pop\n      pop\n        /* \"libs/SafeMath.sol\":1618:2077  function mul(uint256 a, uint256 b) internal pure returns (uint256) {... */\n    tag_34:\n      swap3\n      swap2\n      pop\n      pop\n      jump\t// out\n        /* \"libs/SafeMath.sol\":2539:2669  function div(uint256 a, uint256 b) internal pure returns (uint256) {... */\n    tag_26:\n        /* \"libs/SafeMath.sol\":2597:2604  uint256 */\n      0x00\n        /* \"libs/SafeMath.sol\":2623:2662  div(a, b, \"SafeMath: division by zero\") */\n      tag_44\n        /* \"libs/SafeMath.sol\":2627:2628  a */\n      dup4\n        /* \"libs/SafeMath.sol\":2630:2631  b */\n      dup4\n        /* \"libs/SafeMath.sol\":2623:2662  div(a, b, \"SafeMath: division by zero\") */\n      mload(0x40)\n      dup1\n      0x40\n      add\n      0x40\n      mstore\n      dup1\n      0x1a\n      dup2\n      mstore\n      0x20\n      add\n      0x536166654d6174683a206469766973696f6e206279207a65726f000000000000\n      dup2\n      mstore\n      pop\n        /* \"libs/SafeMath.sol\":2623:2626  div */\n      tag_45\n        /* \"libs/SafeMath.sol\":2623:2662  div(a, b, \"SafeMath: division by zero\") */\n      jump\t// in\n    tag_44:\n        /* \"libs/SafeMath.sol\":2616:2662  return div(a, b, \"SafeMath: division by zero\") */\n      swap1\n      pop\n        /* \"libs/SafeMath.sol\":2539:2669  function div(uint256 a, uint256 b) internal pure returns (uint256) {... */\n      swap3\n      swap2\n      pop\n      pop\n      jump\t// out\n        /* \"libs/SafeMath.sol\":3151:3423  function div(uint256 a, uint256 b, string memory errorMessage) internal pure returns (uint256) {... */\n    tag_45:\n        /* \"libs/SafeMath.sol\":3237:3244  uint256 */\n      0x00\n        /* \"libs/SafeMath.sol\":3268:3269  0 */\n      dup1\n        /* \"libs/SafeMath.sol\":3264:3265  b */\n      dup4\n        /* \"libs/SafeMath.sol\":3264:3269  b > 0 */\n      gt\n        /* \"libs/SafeMath.sol\":3271:3283  errorMessage */\n      dup3\n        /* \"libs/SafeMath.sol\":3256:3284  require(b > 0, errorMessage) */\n      swap1\n      tag_47\n      jumpi\n      mload(0x40)\n      0x08c379a000000000000000000000000000000000000000000000000000000000\n      dup2\n      mstore\n      0x04\n      add\n      tag_48\n      swap2\n      swap1\n      tag_49\n      jump\t// in\n    tag_48:\n      mload(0x40)\n      dup1\n      swap2\n      sub\n      swap1\n      revert\n    tag_47:\n      pop\n        /* \"libs/SafeMath.sol\":3294:3303  uint256 c */\n      0x00\n        /* \"libs/SafeMath.sol\":3310:3311  b */\n      dup4\n        /* \"libs/SafeMath.sol\":3306:3307  a */\n      dup6\n        /* \"libs/SafeMath.sol\":3306:3311  a / b */\n      tag_50\n      swap2\n      swap1\n      tag_39\n      jump\t// in\n    tag_50:\n        /* \"libs/SafeMath.sol\":3294:3311  uint256 c = a / b */\n      swap1\n      pop\n        /* \"libs/SafeMath.sol\":3415:3416  c */\n      dup1\n        /* \"libs/SafeMath.sol\":3408:3416  return c */\n      swap2\n      pop\n      pop\n        /* \"libs/SafeMath.sol\":3151:3423  function div(uint256 a, uint256 b, string memory errorMessage) internal pure returns (uint256) {... */\n      swap4\n      swap3\n      pop\n      pop\n      pop\n      jump\t// out\n        /* \"#utility.yul\":7:146   */\n    tag_52:\n      0x00\n        /* \"#utility.yul\":91:97   */\n      dup2\n        /* \"#utility.yul\":78:98   */\n      calldataload\n        /* \"#utility.yul\":69:98   */\n      swap1\n      pop\n        /* \"#utility.yul\":107:140   */\n      tag_54\n        /* \"#utility.yul\":134:139   */\n      dup2\n        /* \"#utility.yul\":107:140   */\n      tag_55\n      jump\t// in\n    tag_54:\n        /* \"#utility.yul\":59:146   */\n      swap3\n      swap2\n      pop\n      pop\n      jump\t// out\n        /* \"#utility.yul\":152:311   */\n    tag_56:\n      0x00\n        /* \"#utility.yul\":248:254   */\n      dup2\n        /* \"#utility.yul\":242:255   */\n      mload\n        /* \"#utility.yul\":233:255   */\n      swap1\n      pop\n        /* \"#utility.yul\":264:305   */\n      tag_58\n        /* \"#utility.yul\":299:304   */\n      dup2\n        /* \"#utility.yul\":264:305   */\n      tag_59\n      jump\t// in\n    tag_58:\n        /* \"#utility.yul\":223:311   */\n      swap3\n      swap2\n      pop\n      pop\n      jump\t// out\n        /* \"#utility.yul\":317:456   */\n    tag_60:\n      0x00\n        /* \"#utility.yul\":401:407   */\n      dup2\n        /* \"#utility.yul\":388:408   */\n      calldataload\n        /* \"#utility.yul\":379:408   */\n      swap1\n      pop\n        /* \"#utility.yul\":417:450   */\n      tag_62\n        /* \"#utility.yul\":444:449   */\n      dup2\n        /* \"#utility.yul\":417:450   */\n      tag_63\n      jump\t// in\n    tag_62:\n        /* \"#utility.yul\":369:456   */\n      swap3\n      swap2\n      pop\n      pop\n      jump\t// out\n        /* \"#utility.yul\":462:605   */\n    tag_64:\n      0x00\n        /* \"#utility.yul\":550:556   */\n      dup2\n        /* \"#utility.yul\":544:557   */\n      mload\n        /* \"#utility.yul\":535:557   */\n      swap1\n      pop\n        /* \"#utility.yul\":566:599   */\n      tag_66\n        /* \"#utility.yul\":593:598   */\n      dup2\n        /* \"#utility.yul\":566:599   */\n      tag_63\n      jump\t// in\n    tag_66:\n        /* \"#utility.yul\":525:605   */\n      swap3\n      swap2\n      pop\n      pop\n      jump\t// out\n        /* \"#utility.yul\":611:1067   */\n    tag_20:\n      0x00\n      dup1\n        /* \"#utility.yul\":755:757   */\n      0x40\n        /* \"#utility.yul\":743:752   */\n      dup4\n        /* \"#utility.yul\":734:741   */\n      dup6\n        /* \"#utility.yul\":730:753   */\n      sub\n        /* \"#utility.yul\":726:758   */\n      slt\n        /* \"#utility.yul\":723:725   */\n      iszero\n      tag_68\n      jumpi\n        /* \"#utility.yul\":771:772   */\n      0x00\n        /* \"#utility.yul\":768:769   */\n      dup1\n        /* \"#utility.yul\":761:773   */\n      revert\n        /* \"#utility.yul\":723:725   */\n    tag_68:\n        /* \"#utility.yul\":814:815   */\n      0x00\n        /* \"#utility.yul\":839:911   */\n      tag_69\n        /* \"#utility.yul\":903:910   */\n      dup6\n        /* \"#utility.yul\":894:900   */\n      dup3\n        /* \"#utility.yul\":883:892   */\n      dup7\n        /* \"#utility.yul\":879:901   */\n      add\n        /* \"#utility.yul\":839:911   */\n      tag_56\n      jump\t// in\n    tag_69:\n        /* \"#utility.yul\":829:911   */\n      swap3\n      pop\n        /* \"#utility.yul\":785:921   */\n      pop\n        /* \"#utility.yul\":960:962   */\n      0x20\n        /* \"#utility.yul\":986:1050   */\n      tag_70\n        /* \"#utility.yul\":1042:1049   */\n      dup6\n        /* \"#utility.yul\":1033:1039   */\n      dup3\n        /* \"#utility.yul\":1022:1031   */\n      dup7\n        /* \"#utility.yul\":1018:1040   */\n      add\n        /* \"#utility.yul\":986:1050   */\n      tag_64\n      jump\t// in\n    tag_70:\n        /* \"#utility.yul\":976:1050   */\n      swap2\n      pop\n        /* \"#utility.yul\":931:1060   */\n      pop\n        /* \"#utility.yul\":713:1067   */\n      swap3\n      pop\n      swap3\n      swap1\n      pop\n      jump\t// out\n        /* \"#utility.yul\":1073:1625   */\n    tag_5:\n      0x00\n      dup1\n      0x00\n        /* \"#utility.yul\":1215:1217   */\n      0x60\n        /* \"#utility.yul\":1203:1212   */\n      dup5\n        /* \"#utility.yul\":1194:1201   */\n      dup7\n        /* \"#utility.yul\":1190:1213   */\n      sub\n        /* \"#utility.yul\":1186:1218   */\n      slt\n        /* \"#utility.yul\":1183:1185   */\n      iszero\n      tag_72\n      jumpi\n        /* \"#utility.yul\":1231:1232   */\n      0x00\n        /* \"#utility.yul\":1228:1229   */\n      dup1\n        /* \"#utility.yul\":1221:1233   */\n      revert\n        /* \"#utility.yul\":1183:1185   */\n    tag_72:\n        /* \"#utility.yul\":1274:1275   */\n      0x00\n        /* \"#utility.yul\":1299:1352   */\n      tag_73\n        /* \"#utility.yul\":1344:1351   */\n      dup7\n        /* \"#utility.yul\":1335:1341   */\n      dup3\n        /* \"#utility.yul\":1324:1333   */\n      dup8\n        /* \"#utility.yul\":1320:1342   */\n      add\n        /* \"#utility.yul\":1299:1352   */\n      tag_52\n      jump\t// in\n    tag_73:\n        /* \"#utility.yul\":1289:1352   */\n      swap4\n      pop\n        /* \"#utility.yul\":1245:1362   */\n      pop\n        /* \"#utility.yul\":1401:1403   */\n      0x20\n        /* \"#utility.yul\":1427:1480   */\n      tag_74\n        /* \"#utility.yul\":1472:1479   */\n      dup7\n        /* \"#utility.yul\":1463:1469   */\n      dup3\n        /* \"#utility.yul\":1452:1461   */\n      dup8\n        /* \"#utility.yul\":1448:1470   */\n      add\n        /* \"#utility.yul\":1427:1480   */\n      tag_60\n      jump\t// in\n    tag_74:\n        /* \"#utility.yul\":1417:1480   */\n      swap3\n      pop\n        /* \"#utility.yul\":1372:1490   */\n      pop\n        /* \"#utility.yul\":1529:1531   */\n      0x40\n        /* \"#utility.yul\":1555:1608   */\n      tag_75\n        /* \"#utility.yul\":1600:1607   */\n      dup7\n        /* \"#utility.yul\":1591:1597   */\n      dup3\n        /* \"#utility.yul\":1580:1589   */\n      dup8\n        /* \"#utility.yul\":1576:1598   */\n      add\n        /* \"#utility.yul\":1555:1608   */\n      tag_60\n      jump\t// in\n    tag_75:\n        /* \"#utility.yul\":1545:1608   */\n      swap2\n      pop\n        /* \"#utility.yul\":1500:1618   */\n      pop\n        /* \"#utility.yul\":1173:1625   */\n      swap3\n      pop\n      swap3\n      pop\n      swap3\n      jump\t// out\n        /* \"#utility.yul\":1631:1757   */\n    tag_76:\n        /* \"#utility.yul\":1726:1750   */\n      tag_78\n        /* \"#utility.yul\":1744:1749   */\n      dup2\n        /* \"#utility.yul\":1726:1750   */\n      tag_79\n      jump\t// in\n    tag_78:\n        /* \"#utility.yul\":1721:1724   */\n      dup3\n        /* \"#utility.yul\":1714:1751   */\n      mstore\n        /* \"#utility.yul\":1704:1757   */\n      pop\n      pop\n      jump\t// out\n        /* \"#utility.yul\":1763:2136   */\n    tag_80:\n      0x00\n        /* \"#utility.yul\":1895:1933   */\n      tag_82\n        /* \"#utility.yul\":1927:1932   */\n      dup3\n        /* \"#utility.yul\":1895:1933   */\n      tag_83\n      jump\t// in\n    tag_82:\n        /* \"#utility.yul\":1949:2037   */\n      tag_84\n        /* \"#utility.yul\":2030:2036   */\n      dup2\n        /* \"#utility.yul\":2025:2028   */\n      dup6\n        /* \"#utility.yul\":1949:2037   */\n      tag_85\n      jump\t// in\n    tag_84:\n        /* \"#utility.yul\":1942:2037   */\n      swap4\n      pop\n        /* \"#utility.yul\":2046:2098   */\n      tag_86\n        /* \"#utility.yul\":2091:2097   */\n      dup2\n        /* \"#utility.yul\":2086:2089   */\n      dup6\n        /* \"#utility.yul\":2079:2083   */\n      0x20\n        /* \"#utility.yul\":2072:2077   */\n      dup7\n        /* \"#utility.yul\":2068:2084   */\n      add\n        /* \"#utility.yul\":2046:2098   */\n      tag_87\n      jump\t// in\n    tag_86:\n        /* \"#utility.yul\":2123:2129   */\n      dup1\n        /* \"#utility.yul\":2118:2121   */\n      dup5\n        /* \"#utility.yul\":2114:2130   */\n      add\n        /* \"#utility.yul\":2107:2130   */\n      swap2\n      pop\n        /* \"#utility.yul\":1871:2136   */\n      pop\n      swap3\n      swap2\n      pop\n      pop\n      jump\t// out\n        /* \"#utility.yul\":2142:2506   */\n    tag_88:\n      0x00\n        /* \"#utility.yul\":2258:2297   */\n      tag_90\n        /* \"#utility.yul\":2291:2296   */\n      dup3\n        /* \"#utility.yul\":2258:2297   */\n      tag_91\n      jump\t// in\n    tag_90:\n        /* \"#utility.yul\":2313:2384   */\n      tag_92\n        /* \"#utility.yul\":2377:2383   */\n      dup2\n        /* \"#utility.yul\":2372:2375   */\n      dup6\n        /* \"#utility.yul\":2313:2384   */\n      tag_93\n      jump\t// in\n    tag_92:\n        /* \"#utility.yul\":2306:2384   */\n      swap4\n      pop\n        /* \"#utility.yul\":2393:2445   */\n      tag_94\n        /* \"#utility.yul\":2438:2444   */\n      dup2\n        /* \"#utility.yul\":2433:2436   */\n      dup6\n        /* \"#utility.yul\":2426:2430   */\n      0x20\n        /* \"#utility.yul\":2419:2424   */\n      dup7\n        /* \"#utility.yul\":2415:2431   */\n      add\n        /* \"#utility.yul\":2393:2445   */\n      tag_87\n      jump\t// in\n    tag_94:\n        /* \"#utility.yul\":2470:2499   */\n      tag_95\n        /* \"#utility.yul\":2492:2498   */\n      dup2\n        /* \"#utility.yul\":2470:2499   */\n      tag_96\n      jump\t// in\n    tag_95:\n        /* \"#utility.yul\":2465:2468   */\n      dup5\n        /* \"#utility.yul\":2461:2500   */\n      add\n        /* \"#utility.yul\":2454:2500   */\n      swap2\n      pop\n        /* \"#utility.yul\":2234:2506   */\n      pop\n      swap3\n      swap2\n      pop\n      pop\n      jump\t// out\n        /* \"#utility.yul\":2512:2877   */\n    tag_97:\n      0x00\n        /* \"#utility.yul\":2675:2742   */\n      tag_99\n        /* \"#utility.yul\":2739:2741   */\n      0x21\n        /* \"#utility.yul\":2734:2737   */\n      dup4\n        /* \"#utility.yul\":2675:2742   */\n      tag_93\n      jump\t// in\n    tag_99:\n        /* \"#utility.yul\":2668:2742   */\n      swap2\n      pop\n        /* \"#utility.yul\":2772:2806   */\n      0x536166654d6174683a206d756c7469706c69636174696f6e206f766572666c6f\n        /* \"#utility.yul\":2768:2769   */\n      0x00\n        /* \"#utility.yul\":2763:2766   */\n      dup4\n        /* \"#utility.yul\":2759:2770   */\n      add\n        /* \"#utility.yul\":2752:2807   */\n      mstore\n        /* \"#utility.yul\":2838:2841   */\n      0x7700000000000000000000000000000000000000000000000000000000000000\n        /* \"#utility.yul\":2833:2835   */\n      0x20\n        /* \"#utility.yul\":2828:2831   */\n      dup4\n        /* \"#utility.yul\":2824:2836   */\n      add\n        /* \"#utility.yul\":2817:2842   */\n      mstore\n        /* \"#utility.yul\":2868:2870   */\n      0x40\n        /* \"#utility.yul\":2863:2866   */\n      dup3\n        /* \"#utility.yul\":2859:2871   */\n      add\n        /* \"#utility.yul\":2852:2871   */\n      swap1\n      pop\n        /* \"#utility.yul\":2658:2877   */\n      swap2\n      swap1\n      pop\n      jump\t// out\n        /* \"#utility.yul\":2883:3001   */\n    tag_100:\n        /* \"#utility.yul\":2970:2994   */\n      tag_102\n        /* \"#utility.yul\":2988:2993   */\n      dup2\n        /* \"#utility.yul\":2970:2994   */\n      tag_103\n      jump\t// in\n    tag_102:\n        /* \"#utility.yul\":2965:2968   */\n      dup3\n        /* \"#utility.yul\":2958:2995   */\n      mstore\n        /* \"#utility.yul\":2948:3001   */\n      pop\n      pop\n      jump\t// out\n        /* \"#utility.yul\":3007:3133   */\n    tag_104:\n        /* \"#utility.yul\":3102:3126   */\n      tag_106\n        /* \"#utility.yul\":3120:3125   */\n      dup2\n        /* \"#utility.yul\":3102:3126   */\n      tag_103\n      jump\t// in\n    tag_106:\n        /* \"#utility.yul\":3097:3100   */\n      dup3\n        /* \"#utility.yul\":3090:3127   */\n      mstore\n        /* \"#utility.yul\":3080:3133   */\n      pop\n      pop\n      jump\t// out\n        /* \"#utility.yul\":3139:3410   */\n    tag_13:\n      0x00\n        /* \"#utility.yul\":3291:3384   */\n      tag_108\n        /* \"#utility.yul\":3380:3383   */\n      dup3\n        /* \"#utility.yul\":3371:3377   */\n      dup5\n        /* \"#utility.yul\":3291:3384   */\n      tag_80\n      jump\t// in\n    tag_108:\n        /* \"#utility.yul\":3284:3384   */\n      swap2\n      pop\n        /* \"#utility.yul\":3401:3404   */\n      dup2\n        /* \"#utility.yul\":3394:3404   */\n      swap1\n      pop\n        /* \"#utility.yul\":3273:3410   */\n      swap3\n      swap2\n      pop\n      pop\n      jump\t// out\n        /* \"#utility.yul\":3416:3772   */\n    tag_8:\n      0x00\n        /* \"#utility.yul\":3583:3585   */\n      0x40\n        /* \"#utility.yul\":3572:3581   */\n      dup3\n        /* \"#utility.yul\":3568:3586   */\n      add\n        /* \"#utility.yul\":3560:3586   */\n      swap1\n      pop\n        /* \"#utility.yul\":3596:3675   */\n      tag_110\n        /* \"#utility.yul\":3672:3673   */\n      0x00\n        /* \"#utility.yul\":3661:3670   */\n      dup4\n        /* \"#utility.yul\":3657:3674   */\n      add\n        /* \"#utility.yul\":3648:3654   */\n      dup6\n        /* \"#utility.yul\":3596:3675   */\n      tag_76\n      jump\t// in\n    tag_110:\n        /* \"#utility.yul\":3685:3765   */\n      tag_111\n        /* \"#utility.yul\":3761:3763   */\n      0x20\n        /* \"#utility.yul\":3750:3759   */\n      dup4\n        /* \"#utility.yul\":3746:3764   */\n      add\n        /* \"#utility.yul\":3737:3743   */\n      dup5\n        /* \"#utility.yul\":3685:3765   */\n      tag_104\n      jump\t// in\n    tag_111:\n        /* \"#utility.yul\":3550:3772   */\n      swap4\n      swap3\n      pop\n      pop\n      pop\n      jump\t// out\n        /* \"#utility.yul\":3778:4091   */\n    tag_49:\n      0x00\n        /* \"#utility.yul\":3929:3931   */\n      0x20\n        /* \"#utility.yul\":3918:3927   */\n      dup3\n        /* \"#utility.yul\":3914:3932   */\n      add\n        /* \"#utility.yul\":3906:3932   */\n      swap1\n      pop\n        /* \"#utility.yul\":3978:3987   */\n      dup2\n        /* \"#utility.yul\":3972:3976   */\n      dup2\n        /* \"#utility.yul\":3968:3988   */\n      sub\n        /* \"#utility.yul\":3964:3965   */\n      0x00\n        /* \"#utility.yul\":3953:3962   */\n      dup4\n        /* \"#utility.yul\":3949:3966   */\n      add\n        /* \"#utility.yul\":3942:3989   */\n      mstore\n        /* \"#utility.yul\":4006:4084   */\n      tag_113\n        /* \"#utility.yul\":4079:4083   */\n      dup2\n        /* \"#utility.yul\":4070:4076   */\n      dup5\n        /* \"#utility.yul\":4006:4084   */\n      tag_88\n      jump\t// in\n    tag_113:\n        /* \"#utility.yul\":3998:4084   */\n      swap1\n      pop\n        /* \"#utility.yul\":3896:4091   */\n      swap3\n      swap2\n      pop\n      pop\n      jump\t// out\n        /* \"#utility.yul\":4097:4516   */\n    tag_42:\n      0x00\n        /* \"#utility.yul\":4301:4303   */\n      0x20\n        /* \"#utility.yul\":4290:4299   */\n      dup3\n        /* \"#utility.yul\":4286:4304   */\n      add\n        /* \"#utility.yul\":4278:4304   */\n      swap1\n      pop\n        /* \"#utility.yul\":4350:4359   */\n      dup2\n        /* \"#utility.yul\":4344:4348   */\n      dup2\n        /* \"#utility.yul\":4340:4360   */\n      sub\n        /* \"#utility.yul\":4336:4337   */\n      0x00\n        /* \"#utility.yul\":4325:4334   */\n      dup4\n        /* \"#utility.yul\":4321:4338   */\n      add\n        /* \"#utility.yul\":4314:4361   */\n      mstore\n        /* \"#utility.yul\":4378:4509   */\n      tag_115\n        /* \"#utility.yul\":4504:4508   */\n      dup2\n        /* \"#utility.yul\":4378:4509   */\n      tag_97\n      jump\t// in\n    tag_115:\n        /* \"#utility.yul\":4370:4509   */\n      swap1\n      pop\n        /* \"#utility.yul\":4268:4516   */\n      swap2\n      swap1\n      pop\n      jump\t// out\n        /* \"#utility.yul\":4522:4854   */\n    tag_11:\n      0x00\n        /* \"#utility.yul\":4681:4683   */\n      0x40\n        /* \"#utility.yul\":4670:4679   */\n      dup3\n        /* \"#utility.yul\":4666:4684   */\n      add\n        /* \"#utility.yul\":4658:4684   */\n      swap1\n      pop\n        /* \"#utility.yul\":4694:4765   */\n      tag_117\n        /* \"#utility.yul\":4762:4763   */\n      0x00\n        /* \"#utility.yul\":4751:4760   */\n      dup4\n        /* \"#utility.yul\":4747:4764   */\n      add\n        /* \"#utility.yul\":4738:4744   */\n      dup6\n        /* \"#utility.yul\":4694:4765   */\n      tag_100\n      jump\t// in\n    tag_117:\n        /* \"#utility.yul\":4775:4847   */\n      tag_118\n        /* \"#utility.yul\":4843:4845   */\n      0x20\n        /* \"#utility.yul\":4832:4841   */\n      dup4\n        /* \"#utility.yul\":4828:4846   */\n      add\n        /* \"#utility.yul\":4819:4825   */\n      dup5\n        /* \"#utility.yul\":4775:4847   */\n      tag_100\n      jump\t// in\n    tag_118:\n        /* \"#utility.yul\":4648:4854   */\n      swap4\n      swap3\n      pop\n      pop\n      pop\n      jump\t// out\n        /* \"#utility.yul\":4860:4958   */\n    tag_83:\n      0x00\n        /* \"#utility.yul\":4945:4950   */\n      dup2\n        /* \"#utility.yul\":4939:4951   */\n      mload\n        /* \"#utility.yul\":4929:4951   */\n      swap1\n      pop\n        /* \"#utility.yul\":4918:4958   */\n      swap2\n      swap1\n      pop\n      jump\t// out\n        /* \"#utility.yul\":4964:5063   */\n    tag_91:\n      0x00\n        /* \"#utility.yul\":5050:5055   */\n      dup2\n        /* \"#utility.yul\":5044:5056   */\n      mload\n        /* \"#utility.yul\":5034:5056   */\n      swap1\n      pop\n        /* \"#utility.yul\":5023:5063   */\n      swap2\n      swap1\n      pop\n      jump\t// out\n        /* \"#utility.yul\":5069:5216   */\n    tag_85:\n      0x00\n        /* \"#utility.yul\":5207:5210   */\n      dup2\n        /* \"#utility.yul\":5192:5210   */\n      swap1\n      pop\n        /* \"#utility.yul\":5182:5216   */\n      swap3\n      swap2\n      pop\n      pop\n      jump\t// out\n        /* \"#utility.yul\":5222:5391   */\n    tag_93:\n      0x00\n        /* \"#utility.yul\":5340:5346   */\n      dup3\n        /* \"#utility.yul\":5335:5338   */\n      dup3\n        /* \"#utility.yul\":5328:5347   */\n      mstore\n        /* \"#utility.yul\":5380:5384   */\n      0x20\n        /* \"#utility.yul\":5375:5378   */\n      dup3\n        /* \"#utility.yul\":5371:5385   */\n      add\n        /* \"#utility.yul\":5356:5385   */\n      swap1\n      pop\n        /* \"#utility.yul\":5318:5391   */\n      swap3\n      swap2\n      pop\n      pop\n      jump\t// out\n        /* \"#utility.yul\":5397:5582   */\n    tag_39:\n      0x00\n        /* \"#utility.yul\":5454:5474   */\n      tag_124\n        /* \"#utility.yul\":5472:5473   */\n      dup3\n        /* \"#utility.yul\":5454:5474   */\n      tag_103\n      jump\t// in\n    tag_124:\n        /* \"#utility.yul\":5449:5474   */\n      swap2\n      pop\n        /* \"#utility.yul\":5488:5508   */\n      tag_125\n        /* \"#utility.yul\":5506:5507   */\n      dup4\n        /* \"#utility.yul\":5488:5508   */\n      tag_103\n      jump\t// in\n    tag_125:\n        /* \"#utility.yul\":5483:5508   */\n      swap3\n      pop\n        /* \"#utility.yul\":5527:5528   */\n      dup3\n        /* \"#utility.yul\":5517:5519   */\n      tag_126\n      jumpi\n        /* \"#utility.yul\":5532:5550   */\n      tag_127\n      tag_128\n      jump\t// in\n    tag_127:\n        /* \"#utility.yul\":5517:5519   */\n    tag_126:\n        /* \"#utility.yul\":5574:5575   */\n      dup3\n        /* \"#utility.yul\":5571:5572   */\n      dup3\n        /* \"#utility.yul\":5567:5576   */\n      div\n        /* \"#utility.yul\":5562:5576   */\n      swap1\n      pop\n        /* \"#utility.yul\":5439:5582   */\n      swap3\n      swap2\n      pop\n      pop\n      jump\t// out\n        /* \"#utility.yul\":5588:5936   */\n    tag_37:\n      0x00\n        /* \"#utility.yul\":5651:5671   */\n      tag_130\n        /* \"#utility.yul\":5669:5670   */\n      dup3\n        /* \"#utility.yul\":5651:5671   */\n      tag_103\n      jump\t// in\n    tag_130:\n        /* \"#utility.yul\":5646:5671   */\n      swap2\n      pop\n        /* \"#utility.yul\":5685:5705   */\n      tag_131\n        /* \"#utility.yul\":5703:5704   */\n      dup4\n        /* \"#utility.yul\":5685:5705   */\n      tag_103\n      jump\t// in\n    tag_131:\n        /* \"#utility.yul\":5680:5705   */\n      swap3\n      pop\n        /* \"#utility.yul\":5873:5874   */\n      dup2\n        /* \"#utility.yul\":5805:5871   */\n      0xffffffffffffffffffffffffffffffffffffffffffffffffffffffffffffffff\n        /* \"#utility.yul\":5801:5875   */\n      div\n        /* \"#utility.yul\":5798:5799   */\n      dup4\n        /* \"#utility.yul\":5795:5876   */\n      gt\n        /* \"#utility.yul\":5790:5791   */\n      dup3\n        /* \"#utility.yul\":5783:5792   */\n      iszero\n        /* \"#utility.yul\":5776:5793   */\n      iszero\n        /* \"#utility.yul\":5772:5877   */\n      and\n        /* \"#utility.yul\":5769:5771   */\n      iszero\n      tag_132\n      jumpi\n        /* \"#utility.yul\":5880:5898   */\n      tag_133\n      tag_134\n      jump\t// in\n    tag_133:\n        /* \"#utility.yul\":5769:5771   */\n    tag_132:\n        /* \"#utility.yul\":5928:5929   */\n      dup3\n        /* \"#utility.yul\":5925:5926   */\n      dup3\n        /* \"#utility.yul\":5921:5930   */\n      mul\n        /* \"#utility.yul\":5910:5930   */\n      swap1\n      pop\n        /* \"#utility.yul\":5636:5936   */\n      swap3\n      swap2\n      pop\n      pop\n      jump\t// out\n        /* \"#utility.yul\":5942:6038   */\n    tag_79:\n      0x00\n        /* \"#utility.yul\":6008:6032   */\n      tag_136\n        /* \"#utility.yul\":6026:6031   */\n      dup3\n        /* \"#utility.yul\":6008:6032   */\n      tag_137\n      jump\t// in\n    tag_136:\n        /* \"#utility.yul\":5997:6032   */\n      swap1\n      pop\n        /* \"#utility.yul\":5987:6038   */\n      swap2\n      swap1\n      pop\n      jump\t// out\n        /* \"#utility.yul\":6044:6148   */\n    tag_138:\n      0x00\n        /* \"#utility.yul\":6118:6142   */\n      tag_140\n        /* \"#utility.yul\":6136:6141   */\n      dup3\n        /* \"#utility.yul\":6118:6142   */\n      tag_137\n      jump\t// in\n    tag_140:\n        /* \"#utility.yul\":6107:6142   */\n      swap1\n      pop\n        /* \"#utility.yul\":6097:6148   */\n      swap2\n      swap1\n      pop\n      jump\t// out\n        /* \"#utility.yul\":6154:6280   */\n    tag_137:\n      0x00\n        /* \"#utility.yul\":6231:6273   */\n      0xffffffffffffffffffffffffffffffffffffffff\n        /* \"#utility.yul\":6224:6229   */\n      dup3\n        /* \"#utility.yul\":6220:6274   */\n      and\n        /* \"#utility.yul\":6209:6274   */\n      swap1\n      pop\n        /* \"#utility.yul\":6199:6280   */\n      swap2\n      swap1\n      pop\n      jump\t// out\n        /* \"#utility.yul\":6286:6363   */\n    tag_103:\n      0x00\n        /* \"#utility.yul\":6352:6357   */\n      dup2\n        /* \"#utility.yul\":6341:6357   */\n      swap1\n      pop\n        /* \"#utility.yul\":6331:6363   */\n      swap2\n      swap1\n      pop\n      jump\t// out\n        /* \"#utility.yul\":6369:6676   */\n    tag_87:\n        /* \"#utility.yul\":6437:6438   */\n      0x00\n        /* \"#utility.yul\":6447:6560   */\n    tag_144:\n        /* \"#utility.yul\":6461:6467   */\n      dup4\n        /* \"#utility.yul\":6458:6459   */\n      dup2\n        /* \"#utility.yul\":6455:6468   */\n      lt\n        /* \"#utility.yul\":6447:6560   */\n      iszero\n      tag_146\n      jumpi\n        /* \"#utility.yul\":6546:6547   */\n      dup1\n        /* \"#utility.yul\":6541:6544   */\n      dup3\n        /* \"#utility.yul\":6537:6548   */\n      add\n        /* \"#utility.yul\":6531:6549   */\n      mload\n        /* \"#utility.yul\":6527:6528   */\n      dup2\n        /* \"#utility.yul\":6522:6525   */\n      dup5\n        /* \"#utility.yul\":6518:6529   */\n      add\n        /* \"#utility.yul\":6511:6550   */\n      mstore\n        /* \"#utility.yul\":6483:6485   */\n      0x20\n        /* \"#utility.yul\":6480:6481   */\n      dup2\n        /* \"#utility.yul\":6476:6486   */\n      add\n        /* \"#utility.yul\":6471:6486   */\n      swap1\n      pop\n        /* \"#utility.yul\":6447:6560   */\n      jump(tag_144)\n    tag_146:\n        /* \"#utility.yul\":6578:6584   */\n      dup4\n        /* \"#utility.yul\":6575:6576   */\n      dup2\n        /* \"#utility.yul\":6572:6585   */\n      gt\n        /* \"#utility.yul\":6569:6571   */\n      iszero\n      tag_147\n      jumpi\n        /* \"#utility.yul\":6658:6659   */\n      0x00\n        /* \"#utility.yul\":6649:6655   */\n      dup5\n        /* \"#utility.yul\":6644:6647   */\n      dup5\n        /* \"#utility.yul\":6640:6656   */\n      add\n        /* \"#utility.yul\":6633:6660   */\n      mstore\n        /* \"#utility.yul\":6569:6571   */\n    tag_147:\n        /* \"#utility.yul\":6418:6676   */\n      pop\n      pop\n      pop\n      pop\n      jump\t// out\n        /* \"#utility.yul\":6682:6862   */\n    tag_134:\n        /* \"#utility.yul\":6730:6807   */\n      0x4e487b7100000000000000000000000000000000000000000000000000000000\n        /* \"#utility.yul\":6727:6728   */\n      0x00\n        /* \"#utility.yul\":6720:6808   */\n      mstore\n        /* \"#utility.yul\":6827:6831   */\n      0x11\n        /* \"#utility.yul\":6824:6825   */\n      0x04\n        /* \"#utility.yul\":6817:6832   */\n      mstore\n        /* \"#utility.yul\":6851:6855   */\n      0x24\n        /* \"#utility.yul\":6848:6849   */\n      0x00\n        /* \"#utility.yul\":6841:6856   */\n      revert\n        /* \"#utility.yul\":6868:7048   */\n    tag_128:\n        /* \"#utility.yul\":6916:6993   */\n      0x4e487b7100000000000000000000000000000000000000000000000000000000\n        /* \"#utility.yul\":6913:6914   */\n      0x00\n        /* \"#utility.yul\":6906:6994   */\n      mstore\n        /* \"#utility.yul\":7013:7017   */\n      0x12\n        /* \"#utility.yul\":7010:7011   */\n      0x04\n        /* \"#utility.yul\":7003:7018   */\n      mstore\n        /* \"#utility.yul\":7037:7041   */\n      0x24\n        /* \"#utility.yul\":7034:7035   */\n      0x00\n        /* \"#utility.yul\":7027:7042   */\n      revert\n        /* \"#utility.yul\":7054:7156   */\n    tag_96:\n      0x00\n        /* \"#utility.yul\":7146:7148   */\n      0x1f\n        /* \"#utility.yul\":7142:7149   */\n      not\n        /* \"#utility.yul\":7137:7139   */\n      0x1f\n        /* \"#utility.yul\":7130:7135   */\n      dup4\n        /* \"#utility.yul\":7126:7140   */\n      add\n        /* \"#utility.yul\":7122:7150   */\n      and\n        /* \"#utility.yul\":7112:7150   */\n      swap1\n      pop\n        /* \"#utility.yul\":7102:7156   */\n      swap2\n      swap1\n      pop\n      jump\t// out\n        /* \"#utility.yul\":7162:7284   */\n    tag_55:\n        /* \"#utility.yul\":7235:7259   */\n      tag_152\n        /* \"#utility.yul\":7253:7258   */\n      dup2\n        /* \"#utility.yul\":7235:7259   */\n      tag_79\n      jump\t// in\n    tag_152:\n        /* \"#utility.yul\":7228:7233   */\n      dup2\n        /* \"#utility.yul\":7225:7260   */\n      eq\n        /* \"#utility.yul\":7215:7217   */\n      tag_153\n      jumpi\n        /* \"#utility.yul\":7274:7275   */\n      0x00\n        /* \"#utility.yul\":7271:7272   */\n      dup1\n        /* \"#utility.yul\":7264:7276   */\n      revert\n        /* \"#utility.yul\":7215:7217   */\n    tag_153:\n        /* \"#utility.yul\":7205:7284   */\n      pop\n      jump\t// out\n        /* \"#utility.yul\":7290:7428   */\n    tag_59:\n        /* \"#utility.yul\":7371:7403   */\n      tag_155\n        /* \"#utility.yul\":7397:7402   */\n      dup2\n        /* \"#utility.yul\":7371:7403   */\n      tag_138\n      jump\t// in\n    tag_155:\n        /* \"#utility.yul\":7364:7369   */\n      dup2\n        /* \"#utility.yul\":7361:7404   */\n      eq\n        /* \"#utility.yul\":7351:7353   */\n      tag_156\n      jumpi\n        /* \"#utility.yul\":7418:7419   */\n      0x00\n        /* \"#utility.yul\":7415:7416   */\n      dup1\n        /* \"#utility.yul\":7408:7420   */\n      revert\n        /* \"#utility.yul\":7351:7353   */\n    tag_156:\n        /* \"#utility.yul\":7341:7428   */\n      pop\n      jump\t// out\n        /* \"#utility.yul\":7434:7556   */\n    tag_63:\n        /* \"#utility.yul\":7507:7531   */\n      tag_158\n        /* \"#utility.yul\":7525:7530   */\n      dup2\n        /* \"#utility.yul\":7507:7531   */\n      tag_103\n      jump\t// in\n    tag_158:\n        /* \"#utility.yul\":7500:7505   */\n      dup2\n        /* \"#utility.yul\":7497:7532   */\n      eq\n        /* \"#utility.yul\":7487:7489   */\n      tag_159\n      jumpi\n        /* \"#utility.yul\":7546:7547   */\n      0x00\n        /* \"#utility.yul\":7543:7544   */\n      dup1\n        /* \"#utility.yul\":7536:7548   */\n      revert\n        /* \"#utility.yul\":7487:7489   */\n    tag_159:\n        /* \"#utility.yul\":7477:7556   */\n      pop\n      jump\t// out\n\n    auxdata: 0xa26469706673582212203bc510043dbab8844dde10b72375b68ea24cb3d46cbbe02cbecfeb77b586110464736f6c63430008000033\n}\n",
				"bytecode": {
					"linkReferences": {},
					"object": "61086a610053600b82828239805160001a607314610046577f4e487b7100000000000000000000000000000000000000000000000000000000600052600060045260246000fd5b30600052607381538281f3fe73000000000000000000000000000000000000000030146080604052600436106100355760003560e01c8063f938761c1461003a575b600080fd5b610054600480360381019061004f919061044b565b61006b565b6040516100629291906105ae565b60405180910390f35b6000806000808673ffffffffffffffffffffffffffffffffffffffff16868660405160240161009b929190610619565b6040516020818303038152906040527f2a55205a000000000000000000000000000000000000000000000000000000007bffffffffffffffffffffffffffffffffffffffffffffffffffffffff19166020820180517bffffffffffffffffffffffffffffffffffffffffffffffffffffffff83818316178352505050506040516101259190610597565b600060405180830381855afa9150503d8060008114610160576040519150601f19603f3d011682016040523d82523d6000602084013e610165565b606091505b5091509150818015610178575060408151145b156102815760008082806020019051810190610194919061040f565b91509150600073ffffffffffffffffffffffffffffffffffffffff168273ffffffffffffffffffffffffffffffffffffffff16141580156101d55750600081115b8015610207575061020360646101f560328a61029390919063ffffffff16565b61030e90919063ffffffff16565b8111155b1561021b578181955095505050505061028b565b610242606461023460328a61029390919063ffffffff16565b61030e90919063ffffffff16565b81111561027e5781610271606461026360328b61029390919063ffffffff16565b61030e90919063ffffffff16565b955095505050505061028b565b50505b6000809350935050505b935093915050565b6000808314156102a65760009050610308565b600082846102b491906106a5565b90508284826102c39190610674565b14610303576040517f08c379a00000000000000000000000000000000000000000000000000000000081526004016102fa906105f9565b60405180910390fd5b809150505b92915050565b600061035083836040518060400160405280601a81526020017f536166654d6174683a206469766973696f6e206279207a65726f000000000000815250610358565b905092915050565b6000808311829061039f576040517f08c379a000000000000000000000000000000000000000000000000000000000815260040161039691906105d7565b60405180910390fd5b50600083856103ae9190610674565b9050809150509392505050565b6000813590506103ca816107ef565b92915050565b6000815190506103df81610806565b92915050565b6000813590506103f48161081d565b92915050565b6000815190506104098161081d565b92915050565b6000806040838503121561042257600080fd5b6000610430858286016103d0565b9250506020610441858286016103fa565b9150509250929050565b60008060006060848603121561046057600080fd5b600061046e868287016103bb565b935050602061047f868287016103e5565b9250506040610490868287016103e5565b9150509250925092565b6104a3816106ff565b82525050565b60006104b482610642565b6104be8185610658565b93506104ce81856020860161074d565b80840191505092915050565b60006104e58261064d565b6104ef8185610663565b93506104ff81856020860161074d565b610508816107de565b840191505092915050565b6000610520602183610663565b91507f536166654d6174683a206d756c7469706c69636174696f6e206f766572666c6f60008301527f77000000000000000000000000000000000000000000000000000000000000006020830152604082019050919050565b61058281610743565b82525050565b61059181610743565b82525050565b60006105a382846104a9565b915081905092915050565b60006040820190506105c3600083018561049a565b6105d06020830184610588565b9392505050565b600060208201905081810360008301526105f181846104da565b905092915050565b6000602082019050818103600083015261061281610513565b9050919050565b600060408201905061062e6000830185610579565b61063b6020830184610579565b9392505050565b600081519050919050565b600081519050919050565b600081905092915050565b600082825260208201905092915050565b600061067f82610743565b915061068a83610743565b92508261069a576106996107af565b5b828204905092915050565b60006106b082610743565b91506106bb83610743565b9250817fffffffffffffffffffffffffffffffffffffffffffffffffffffffffffffffff04831182151516156106f4576106f3610780565b5b828202905092915050565b600061070a82610723565b9050919050565b600061071c82610723565b9050919050565b600073ffffffffffffffffffffffffffffffffffffffff82169050919050565b6000819050919050565b60005b8381101561076b578082015181840152602081019050610750565b8381111561077a576000848401525b50505050565b7f4e487b7100000000000000000000000000000000000000000000000000000000600052601160045260246000fd5b7f4e487b7100000000000000000000000000000000000000000000000000000000600052601260045260246000fd5b6000601f19601f8301169050919050565b6107f8816106ff565b811461080357600080fd5b50565b61080f81610711565b811461081a57600080fd5b50565b61082681610743565b811461083157600080fd5b5056fea26469706673582212203bc510043dbab8844dde10b72375b68ea24cb3d46cbbe02cbecfeb77b586110464736f6c63430008000033",
					"opcodes": "PUSH2 0x86A PUSH2 0x53 PUSH1 0xB DUP3 DUP3 DUP3 CODECOPY DUP1 MLOAD PUSH1 0x0 BYTE PUSH1 0x73 EQ PUSH2 0x46 JUMPI PUSH32 0x4E487B7100000000000000000000000000000000000000000000000000000000 PUSH1 0x0 MSTORE PUSH1 0x0 PUSH1 0x4 MSTORE PUSH1 0x24 PUSH1 0x0 REVERT JUMPDEST ADDRESS PUSH1 0x0 MSTORE PUSH1 0x73 DUP2 MSTORE8 DUP3 DUP2 RETURN INVALID PUSH20 0x0 ADDRESS EQ PUSH1 0x80 PUSH1 0x40 MSTORE PUSH1 0x4 CALLDATASIZE LT PUSH2 0x35 JUMPI PUSH1 0x0 CALLDATALOAD PUSH1 0xE0 SHR DUP1 PUSH4 0xF938761C EQ PUSH2 0x3A JUMPI JUMPDEST PUSH1 0x0 DUP1 REVERT JUMPDEST PUSH2 0x54 PUSH1 0x4 DUP1 CALLDATASIZE SUB DUP2 ADD SWAP1 PUSH2 0x4F SWAP2 SWAP1 PUSH2 0x44B JUMP JUMPDEST PUSH2 0x6B JUMP JUMPDEST PUSH1 0x40 MLOAD PUSH2 0x62 SWAP3 SWAP2 SWAP1 PUSH2 0x5AE JUMP JUMPDEST PUSH1 0x40 MLOAD DUP1 SWAP2 SUB SWAP1 RETURN JUMPDEST PUSH1 0x0 DUP1 PUSH1 0x0 DUP1 DUP7 PUSH20 0xFFFFFFFFFFFFFFFFFFFFFFFFFFFFFFFFFFFFFFFF AND DUP7 DUP7 PUSH1 0x40 MLOAD PUSH1 0x24 ADD PUSH2 0x9B SWAP3 SWAP2 SWAP1 PUSH2 0x619 JUMP JUMPDEST PUSH1 0x40 MLOAD PUSH1 0x20 DUP2 DUP4 SUB SUB DUP2 MSTORE SWAP1 PUSH1 0x40 MSTORE PUSH32 0x2A55205A00000000000000000000000000000000000000000000000000000000 PUSH28 0xFFFFFFFFFFFFFFFFFFFFFFFFFFFFFFFFFFFFFFFFFFFFFFFFFFFFFFFF NOT AND PUSH1 0x20 DUP3 ADD DUP1 MLOAD PUSH28 0xFFFFFFFFFFFFFFFFFFFFFFFFFFFFFFFFFFFFFFFFFFFFFFFFFFFFFFFF DUP4 DUP2 DUP4 AND OR DUP4 MSTORE POP POP POP POP PUSH1 0x40 MLOAD PUSH2 0x125 SWAP2 SWAP1 PUSH2 0x597 JUMP JUMPDEST PUSH1 0x0 PUSH1 0x40 MLOAD DUP1 DUP4 SUB DUP2 DUP6 GAS STATICCALL SWAP2 POP POP RETURNDATASIZE DUP1 PUSH1 0x0 DUP2 EQ PUSH2 0x160 JUMPI PUSH1 0x40 MLOAD SWAP2 POP PUSH1 0x1F NOT PUSH1 0x3F RETURNDATASIZE ADD AND DUP3 ADD PUSH1 0x40 MSTORE RETURNDATASIZE DUP3 MSTORE RETURNDATASIZE PUSH1 0x0 PUSH1 0x20 DUP5 ADD RETURNDATACOPY PUSH2 0x165 JUMP JUMPDEST PUSH1 0x60 SWAP2 POP JUMPDEST POP SWAP2 POP SWAP2 POP DUP2 DUP1 ISZERO PUSH2 0x178 JUMPI POP PUSH1 0x40 DUP2 MLOAD EQ JUMPDEST ISZERO PUSH2 0x281 JUMPI PUSH1 0x0 DUP1 DUP3 DUP1 PUSH1 0x20 ADD SWAP1 MLOAD DUP2 ADD SWAP1 PUSH2 0x194 SWAP2 SWAP1 PUSH2 0x40F JUMP JUMPDEST SWAP2 POP SWAP2 POP PUSH1 0x0 PUSH20 0xFFFFFFFFFFFFFFFFFFFFFFFFFFFFFFFFFFFFFFFF AND DUP3 PUSH20 0xFFFFFFFFFFFFFFFFFFFFFFFFFFFFFFFFFFFFFFFF AND EQ ISZERO DUP1 ISZERO PUSH2 0x1D5 JUMPI POP PUSH1 0x0 DUP2 GT JUMPDEST DUP1 ISZERO PUSH2 0x207 JUMPI POP PUSH2 0x203 PUSH1 0x64 PUSH2 0x1F5 PUSH1 0x32 DUP11 PUSH2 0x293 SWAP1 SWAP2 SWAP1 PUSH4 0xFFFFFFFF AND JUMP JUMPDEST PUSH2 0x30E SWAP1 SWAP2 SWAP1 PUSH4 0xFFFFFFFF AND JUMP JUMPDEST DUP2 GT ISZERO JUMPDEST ISZERO PUSH2 0x21B JUMPI DUP2 DUP2 SWAP6 POP SWAP6 POP POP POP POP POP PUSH2 0x28B JUMP JUMPDEST PUSH2 0x242 PUSH1 0x64 PUSH2 0x234 PUSH1 0x32 DUP11 PUSH2 0x293 SWAP1 SWAP2 SWAP1 PUSH4 0xFFFFFFFF AND JUMP JUMPDEST PUSH2 0x30E SWAP1 SWAP2 SWAP1 PUSH4 0xFFFFFFFF AND JUMP JUMPDEST DUP2 GT ISZERO PUSH2 0x27E JUMPI DUP2 PUSH2 0x271 PUSH1 0x64 PUSH2 0x263 PUSH1 0x32 DUP12 PUSH2 0x293 SWAP1 SWAP2 SWAP1 PUSH4 0xFFFFFFFF AND JUMP JUMPDEST PUSH2 0x30E SWAP1 SWAP2 SWAP1 PUSH4 0xFFFFFFFF AND JUMP JUMPDEST SWAP6 POP SWAP6 POP POP POP POP POP PUSH2 0x28B JUMP JUMPDEST POP POP JUMPDEST PUSH1 0x0 DUP1 SWAP4 POP SWAP4 POP POP POP JUMPDEST SWAP4 POP SWAP4 SWAP2 POP POP JUMP JUMPDEST PUSH1 0x0 DUP1 DUP4 EQ ISZERO PUSH2 0x2A6 JUMPI PUSH1 0x0 SWAP1 POP PUSH2 0x308 JUMP JUMPDEST PUSH1 0x0 DUP3 DUP5 PUSH2 0x2B4 SWAP2 SWAP1 PUSH2 0x6A5 JUMP JUMPDEST SWAP1 POP DUP3 DUP5 DUP3 PUSH2 0x2C3 SWAP2 SWAP1 PUSH2 0x674 JUMP JUMPDEST EQ PUSH2 0x303 JUMPI PUSH1 0x40 MLOAD PUSH32 0x8C379A000000000000000000000000000000000000000000000000000000000 DUP2 MSTORE PUSH1 0x4 ADD PUSH2 0x2FA SWAP1 PUSH2 0x5F9 JUMP JUMPDEST PUSH1 0x40 MLOAD DUP1 SWAP2 SUB SWAP1 REVERT JUMPDEST DUP1 SWAP2 POP POP JUMPDEST SWAP3 SWAP2 POP POP JUMP JUMPDEST PUSH1 0x0 PUSH2 0x350 DUP4 DUP4 PUSH1 0x40 MLOAD DUP1 PUSH1 0x40 ADD PUSH1 0x40 MSTORE DUP1 PUSH1 0x1A DUP2 MSTORE PUSH1 0x20 ADD PUSH32 0x536166654D6174683A206469766973696F6E206279207A65726F000000000000 DUP2 MSTORE POP PUSH2 0x358 JUMP JUMPDEST SWAP1 POP SWAP3 SWAP2 POP POP JUMP JUMPDEST PUSH1 0x0 DUP1 DUP4 GT DUP3 SWAP1 PUSH2 0x39F JUMPI PUSH1 0x40 MLOAD PUSH32 0x8C379A000000000000000000000000000000000000000000000000000000000 DUP2 MSTORE PUSH1 0x4 ADD PUSH2 0x396 SWAP2 SWAP1 PUSH2 0x5D7 JUMP JUMPDEST PUSH1 0x40 MLOAD DUP1 SWAP2 SUB SWAP1 REVERT JUMPDEST POP PUSH1 0x0 DUP4 DUP6 PUSH2 0x3AE SWAP2 SWAP1 PUSH2 0x674 JUMP JUMPDEST SWAP1 POP DUP1 SWAP2 POP POP SWAP4 SWAP3 POP POP POP JUMP JUMPDEST PUSH1 0x0 DUP2 CALLDATALOAD SWAP1 POP PUSH2 0x3CA DUP2 PUSH2 0x7EF JUMP JUMPDEST SWAP3 SWAP2 POP POP JUMP JUMPDEST PUSH1 0x0 DUP2 MLOAD SWAP1 POP PUSH2 0x3DF DUP2 PUSH2 0x806 JUMP JUMPDEST SWAP3 SWAP2 POP POP JUMP JUMPDEST PUSH1 0x0 DUP2 CALLDATALOAD SWAP1 POP PUSH2 0x3F4 DUP2 PUSH2 0x81D JUMP JUMPDEST SWAP3 SWAP2 POP POP JUMP JUMPDEST PUSH1 0x0 DUP2 MLOAD SWAP1 POP PUSH2 0x409 DUP2 PUSH2 0x81D JUMP JUMPDEST SWAP3 SWAP2 POP POP JUMP JUMPDEST PUSH1 0x0 DUP1 PUSH1 0x40 DUP4 DUP6 SUB SLT ISZERO PUSH2 0x422 JUMPI PUSH1 0x0 DUP1 REVERT JUMPDEST PUSH1 0x0 PUSH2 0x430 DUP6 DUP3 DUP7 ADD PUSH2 0x3D0 JUMP JUMPDEST SWAP3 POP POP PUSH1 0x20 PUSH2 0x441 DUP6 DUP3 DUP7 ADD PUSH2 0x3FA JUMP JUMPDEST SWAP2 POP POP SWAP3 POP SWAP3 SWAP1 POP JUMP JUMPDEST PUSH1 0x0 DUP1 PUSH1 0x0 PUSH1 0x60 DUP5 DUP7 SUB SLT ISZERO PUSH2 0x460 JUMPI PUSH1 0x0 DUP1 REVERT JUMPDEST PUSH1 0x0 PUSH2 0x46E DUP7 DUP3 DUP8 ADD PUSH2 0x3BB JUMP JUMPDEST SWAP4 POP POP PUSH1 0x20 PUSH2 0x47F DUP7 DUP3 DUP8 ADD PUSH2 0x3E5 JUMP JUMPDEST SWAP3 POP POP PUSH1 0x40 PUSH2 0x490 DUP7 DUP3 DUP8 ADD PUSH2 0x3E5 JUMP JUMPDEST SWAP2 POP POP SWAP3 POP SWAP3 POP SWAP3 JUMP JUMPDEST PUSH2 0x4A3 DUP2 PUSH2 0x6FF JUMP JUMPDEST DUP3 MSTORE POP POP JUMP JUMPDEST PUSH1 0x0 PUSH2 0x4B4 DUP3 PUSH2 0x642 JUMP JUMPDEST PUSH2 0x4BE DUP2 DUP6 PUSH2 0x658 JUMP JUMPDEST SWAP4 POP PUSH2 0x4CE DUP2 DUP6 PUSH1 0x20 DUP7 ADD PUSH2 0x74D JUMP JUMPDEST DUP1 DUP5 ADD SWAP2 POP POP SWAP3 SWAP2 POP POP JUMP JUMPDEST PUSH1 0x0 PUSH2 0x4E5 DUP3 PUSH2 0x64D JUMP JUMPDEST PUSH2 0x4EF DUP2 DUP6 PUSH2 0x663 JUMP JUMPDEST SWAP4 POP PUSH2 0x4FF DUP2 DUP6 PUSH1 0x20 DUP7 ADD PUSH2 0x74D JUMP JUMPDEST PUSH2 0x508 DUP2 PUSH2 0x7DE JUMP JUMPDEST DUP5 ADD SWAP2 POP POP SWAP3 SWAP2 POP POP JUMP JUMPDEST PUSH1 0x0 PUSH2 0x520 PUSH1 0x21 DUP4 PUSH2 0x663 JUMP JUMPDEST SWAP2 POP PUSH32 0x536166654D6174683A206D756C7469706C69636174696F6E206F766572666C6F PUSH1 0x0 DUP4 ADD MSTORE PUSH32 0x7700000000000000000000000000000000000000000000000000000000000000 PUSH1 0x20 DUP4 ADD MSTORE PUSH1 0x40 DUP3 ADD SWAP1 POP SWAP2 SWAP1 POP JUMP JUMPDEST PUSH2 0x582 DUP2 PUSH2 0x743 JUMP JUMPDEST DUP3 MSTORE POP POP JUMP JUMPDEST PUSH2 0x591 DUP2 PUSH2 0x743 JUMP JUMPDEST DUP3 MSTORE POP POP JUMP JUMPDEST PUSH1 0x0 PUSH2 0x5A3 DUP3 DUP5 PUSH2 0x4A9 JUMP JUMPDEST SWAP2 POP DUP2 SWAP1 POP SWAP3 SWAP2 POP POP JUMP JUMPDEST PUSH1 0x0 PUSH1 0x40 DUP3 ADD SWAP1 POP PUSH2 0x5C3 PUSH1 0x0 DUP4 ADD DUP6 PUSH2 0x49A JUMP JUMPDEST PUSH2 0x5D0 PUSH1 0x20 DUP4 ADD DUP5 PUSH2 0x588 JUMP JUMPDEST SWAP4 SWAP3 POP POP POP JUMP JUMPDEST PUSH1 0x0 PUSH1 0x20 DUP3 ADD SWAP1 POP DUP2 DUP2 SUB PUSH1 0x0 DUP4 ADD MSTORE PUSH2 0x5F1 DUP2 DUP5 PUSH2 0x4DA JUMP JUMPDEST SWAP1 POP SWAP3 SWAP2 POP POP JUMP JUMPDEST PUSH1 0x0 PUSH1 0x20 DUP3 ADD SWAP1 POP DUP2 DUP2 SUB PUSH1 0x0 DUP4 ADD MSTORE PUSH2 0x612 DUP2 PUSH2 0x513 JUMP JUMPDEST SWAP1 POP SWAP2 SWAP1 POP JUMP JUMPDEST PUSH1 0x0 PUSH1 0x40 DUP3 ADD SWAP1 POP PUSH2 0x62E PUSH1 0x0 DUP4 ADD DUP6 PUSH2 0x579 JUMP JUMPDEST PUSH2 0x63B PUSH1 0x20 DUP4 ADD DUP5 PUSH2 0x579 JUMP JUMPDEST SWAP4 SWAP3 POP POP POP JUMP JUMPDEST PUSH1 0x0 DUP2 MLOAD SWAP1 POP SWAP2 SWAP1 POP JUMP JUMPDEST PUSH1 0x0 DUP2 MLOAD SWAP1 POP SWAP2 SWAP1 POP JUMP JUMPDEST PUSH1 0x0 DUP2 SWAP1 POP SWAP3 SWAP2 POP POP JUMP JUMPDEST PUSH1 0x0 DUP3 DUP3 MSTORE PUSH1 0x20 DUP3 ADD SWAP1 POP SWAP3 SWAP2 POP POP JUMP JUMPDEST PUSH1 0x0 PUSH2 0x67F DUP3 PUSH2 0x743 JUMP JUMPDEST SWAP2 POP PUSH2 0x68A DUP4 PUSH2 0x743 JUMP JUMPDEST SWAP3 POP DUP3 PUSH2 0x69A JUMPI PUSH2 0x699 PUSH2 0x7AF JUMP JUMPDEST JUMPDEST DUP3 DUP3 DIV SWAP1 POP SWAP3 SWAP2 POP POP JUMP JUMPDEST PUSH1 0x0 PUSH2 0x6B0 DUP3 PUSH2 0x743 JUMP JUMPDEST SWAP2 POP PUSH2 0x6BB DUP4 PUSH2 0x743 JUMP JUMPDEST SWAP3 POP DUP2 PUSH32 0xFFFFFFFFFFFFFFFFFFFFFFFFFFFFFFFFFFFFFFFFFFFFFFFFFFFFFFFFFFFFFFFF DIV DUP4 GT DUP3 ISZERO ISZERO AND ISZERO PUSH2 0x6F4 JUMPI PUSH2 0x6F3 PUSH2 0x780 JUMP JUMPDEST JUMPDEST DUP3 DUP3 MUL SWAP1 POP SWAP3 SWAP2 POP POP JUMP JUMPDEST PUSH1 0x0 PUSH2 0x70A DUP3 PUSH2 0x723 JUMP JUMPDEST SWAP1 POP SWAP2 SWAP1 POP JUMP JUMPDEST PUSH1 0x0 PUSH2 0x71C DUP3 PUSH2 0x723 JUMP JUMPDEST SWAP1 POP SWAP2 SWAP1 POP JUMP JUMPDEST PUSH1 0x0 PUSH20 0xFFFFFFFFFFFFFFFFFFFFFFFFFFFFFFFFFFFFFFFF DUP3 AND SWAP1 POP SWAP2 SWAP1 POP JUMP JUMPDEST PUSH1 0x0 DUP2 SWAP1 POP SWAP2 SWAP1 POP JUMP JUMPDEST PUSH1 0x0 JUMPDEST DUP4 DUP2 LT ISZERO PUSH2 0x76B JUMPI DUP1 DUP3 ADD MLOAD DUP2 DUP5 ADD MSTORE PUSH1 0x20 DUP2 ADD SWAP1 POP PUSH2 0x750 JUMP JUMPDEST DUP4 DUP2 GT ISZERO PUSH2 0x77A JUMPI PUSH1 0x0 DUP5 DUP5 ADD MSTORE JUMPDEST POP POP POP POP JUMP JUMPDEST PUSH32 0x4E487B7100000000000000000000000000000000000000000000000000000000 PUSH1 0x0 MSTORE PUSH1 0x11 PUSH1 0x4 MSTORE PUSH1 0x24 PUSH1 0x0 REVERT JUMPDEST PUSH32 0x4E487B7100000000000000000000000000000000000000000000000000000000 PUSH1 0x0 MSTORE PUSH1 0x12 PUSH1 0x4 MSTORE PUSH1 0x24 PUSH1 0x0 REVERT JUMPDEST PUSH1 0x0 PUSH1 0x1F NOT PUSH1 0x1F DUP4 ADD AND SWAP1 POP SWAP2 SWAP1 POP JUMP JUMPDEST PUSH2 0x7F8 DUP2 PUSH2 0x6FF JUMP JUMPDEST DUP2 EQ PUSH2 0x803 JUMPI PUSH1 0x0 DUP1 REVERT JUMPDEST POP JUMP JUMPDEST PUSH2 0x80F DUP2 PUSH2 0x711 JUMP JUMPDEST DUP2 EQ PUSH2 0x81A JUMPI PUSH1 0x0 DUP1 REVERT JUMPDEST POP JUMP JUMPDEST PUSH2 0x826 DUP2 PUSH2 0x743 JUMP JUMPDEST DUP2 EQ PUSH2 0x831 JUMPI PUSH1 0x0 DUP1 REVERT JUMPDEST POP JUMP INVALID LOG2 PUSH5 0x6970667358 0x22 SLT KECCAK256 EXTCODESIZE 0xC5 LT DIV RETURNDATASIZE 0xBA 0xB8 DUP5 0x4D 0xDE LT 0xB7 0x23 PUSH22 0xB68EA24CB3D46CBBE02CBECFEB77B586110464736F6C PUSH4 0x43000800 STOP CALLER "
				},
				"gasEstimates": {
					"creation": {
						"codeDepositCost": "430800",
						"executionCost": "493",
						"totalCost": "431293"
					},
					"external": {
						"HelpRoyalties(address,uint256,uint256)": "infinite"
					},
					"internal": {
						"safeApprove(address,address,uint256)": "infinite",
						"safeTransfer(address,address,uint256)": "infinite",
						"safeTransferETH(address,uint256)": "infinite",
						"safeTransferFrom(address,address,address,uint256)": "infinite"
					}
				},
				"methodIdentifiers": {
					"HelpRoyalties(address,uint256,uint256)": "f938761c"
				}
			},
			"storageLayout": {
				"storage": [],
				"types": null
			},
			"userdoc": {
				"kind": "user",
				"methods": {},
				"version": 1
			}
		}
	}
}