{
  "_format": "hh-sol-artifact-1",
  "contractName": "kernelUniSwapV3",
  "sourceName": "contracts/KernelUniSwapV3.sol",
  "abi": [
    {
      "inputs": [],
      "name": "Uni_SWAP",
      "outputs": [
        {
          "internalType": "address",
          "name": "",
          "type": "address"
        }
      ],
      "stateMutability": "view",
      "type": "function"
    },
    {
      "inputs": [
        {
          "internalType": "uint256",
          "name": "amountInArr",
          "type": "uint256"
        },
        {
          "internalType": "uint256",
          "name": "amountOutMinArr",
          "type": "uint256"
        },
        {
          "internalType": "bytes",
          "name": "pathArr",
          "type": "bytes"
        },
        {
          "internalType": "address",
          "name": "to",
          "type": "address"
        },
        {
          "internalType": "address",
          "name": "inputAddre",
          "type": "address"
        },
        {
          "internalType": "address",
          "name": "outAddre",
          "type": "address"
        }
      ],
      "name": "filterSwap",
      "outputs": [],
      "stateMutability": "payable",
      "type": "function"
    },
    {
      "inputs": [
        {
          "internalType": "address",
          "name": "_routerArr",
          "type": "address"
        }
      ],
      "name": "getWeth",
      "outputs": [
        {
          "internalType": "address",
          "name": "WETH",
          "type": "address"
        }
      ],
      "stateMutability": "pure",
      "type": "function"
    },
    {
      "stateMutability": "payable",
      "type": "receive"
    }
  ],
  "bytecode": "0x608060405234801561001057600080fd5b50610bd5806100206000396000f3fe6080604052600436106100385760003560e01c80634b6c90e8146100445780638ac051f2146100605780639849dce21461009d5761003f565b3661003f57005b600080fd5b61005e60048036038101906100599190610766565b6100c8565b005b34801561006c57600080fd5b50610087600480360381019061008291906106c2565b6100de565b604051610094919061098d565b60405180910390f35b3480156100a957600080fd5b506100b2610165565b6040516100bf919061098d565b60405180910390f35b6100d684848888868661017d565b505050505050565b60008173ffffffffffffffffffffffffffffffffffffffff1663ad5c46486040518163ffffffff1660e01b815260040160206040518083038186803b15801561012657600080fd5b505afa15801561013a573d6000803e3d6000fd5b505050506040513d601f19601f8201168201806040525081019061015e91906106eb565b9050919050565b7368b3465833fb72a70ecdf485e0e4c7bd8665fc4581565b60008073ffffffffffffffffffffffffffffffffffffffff168273ffffffffffffffffffffffffffffffffffffffff161415610258576101c08730878787610271565b90506101df7368b3465833fb72a70ecdf485e0e4c7bd8665fc456100de565b73ffffffffffffffffffffffffffffffffffffffff16632e1a7d4d826040518263ffffffff1660e01b81526004016102179190610a13565b600060405180830381600087803b15801561023157600080fd5b505af1158015610245573d6000803e3d6000fd5b505050506102538682610507565b610268565b6102658787878787610271565b90505b50505050505050565b60008073ffffffffffffffffffffffffffffffffffffffff168273ffffffffffffffffffffffffffffffffffffffff161415610384577368b3465833fb72a70ecdf485e0e4c7bd8665fc4573ffffffffffffffffffffffffffffffffffffffff1663b858183f8560405180608001604052808a81526020018973ffffffffffffffffffffffffffffffffffffffff168152602001888152602001878152506040518363ffffffff1660e01b815260040161032b91906109f1565b6020604051808303818588803b15801561034457600080fd5b505af1158015610358573d6000803e3d6000fd5b50505050506040513d601f19601f8201168201806040525081019061037d919061073d565b90506104fe565b8173ffffffffffffffffffffffffffffffffffffffff1663095ea7b37368b3465833fb72a70ecdf485e0e4c7bd8665fc45866040518363ffffffff1660e01b81526004016103d39291906109a8565b602060405180830381600087803b1580156103ed57600080fd5b505af1158015610401573d6000803e3d6000fd5b505050506040513d601f19601f820116820180604052508101906104259190610714565b507368b3465833fb72a70ecdf485e0e4c7bd8665fc4573ffffffffffffffffffffffffffffffffffffffff1663b858183f60405180608001604052808981526020018873ffffffffffffffffffffffffffffffffffffffff168152602001878152602001868152506040518263ffffffff1660e01b81526004016104a991906109f1565b602060405180830381600087803b1580156104c357600080fd5b505af11580156104d7573d6000803e3d6000fd5b505050506040513d601f19601f820116820180604052508101906104fb919061073d565b90505b95945050505050565b60008273ffffffffffffffffffffffffffffffffffffffff1682600067ffffffffffffffff8111801561053957600080fd5b506040519080825280601f01601f19166020018201604052801561056c5781602001600182028036833780820191505090505b5060405161057a9190610976565b60006040518083038185875af1925050503d80600081146105b7576040519150601f19603f3d011682016040523d82523d6000602084013e6105bc565b606091505b5050905080610600576040517f08c379a00000000000000000000000000000000000000000000000000000000081526004016105f7906109d1565b60405180910390fd5b505050565b60008135905061061481610b5a565b92915050565b60008151905061062981610b5a565b92915050565b60008151905061063e81610b71565b92915050565b600082601f83011261065557600080fd5b813561066861066382610a5b565b610a2e565b9150808252602083016020830185838301111561068457600080fd5b61068f838284610b07565b50505092915050565b6000813590506106a781610b88565b92915050565b6000815190506106bc81610b88565b92915050565b6000602082840312156106d457600080fd5b60006106e284828501610605565b91505092915050565b6000602082840312156106fd57600080fd5b600061070b8482850161061a565b91505092915050565b60006020828403121561072657600080fd5b60006107348482850161062f565b91505092915050565b60006020828403121561074f57600080fd5b600061075d848285016106ad565b91505092915050565b60008060008060008060c0878903121561077f57600080fd5b600061078d89828a01610698565b965050602061079e89828a01610698565b955050604087013567ffffffffffffffff8111156107bb57600080fd5b6107c789828a01610644565b94505060606107d889828a01610605565b93505060806107e989828a01610605565b92505060a06107fa89828a01610605565b9150509295509295509295565b61081081610abf565b82525050565b61081f81610abf565b82525050565b600061083082610a87565b61083a8185610a92565b935061084a818560208601610b16565b61085381610b49565b840191505092915050565b600061086982610a87565b6108738185610aa3565b9350610883818560208601610b16565b80840191505092915050565b600061089c603483610aae565b91507f5472616e7366657248656c7065723a3a736166655472616e736665724554483a60008301527f20455448207472616e73666572206661696c65640000000000000000000000006020830152604082019050919050565b600060808301600083015184820360008601526109128282610825565b91505060208301516109276020860182610807565b50604083015161093a6040860182610958565b50606083015161094d6060860182610958565b508091505092915050565b61096181610afd565b82525050565b61097081610afd565b82525050565b6000610982828461085e565b915081905092915050565b60006020820190506109a26000830184610816565b92915050565b60006040820190506109bd6000830185610816565b6109ca6020830184610967565b9392505050565b600060208201905081810360008301526109ea8161088f565b9050919050565b60006020820190508181036000830152610a0b81846108f5565b905092915050565b6000602082019050610a286000830184610967565b92915050565b6000604051905081810181811067ffffffffffffffff82111715610a5157600080fd5b8060405250919050565b600067ffffffffffffffff821115610a7257600080fd5b601f19601f8301169050602081019050919050565b600081519050919050565b600082825260208201905092915050565b600081905092915050565b600082825260208201905092915050565b6000610aca82610add565b9050919050565b60008115159050919050565b600073ffffffffffffffffffffffffffffffffffffffff82169050919050565b6000819050919050565b82818337600083830152505050565b60005b83811015610b34578082015181840152602081019050610b19565b83811115610b43576000848401525b50505050565b6000601f19601f8301169050919050565b610b6381610abf565b8114610b6e57600080fd5b50565b610b7a81610ad1565b8114610b8557600080fd5b50565b610b9181610afd565b8114610b9c57600080fd5b5056fea26469706673582212205d4fa42a2813ed1891923d40738ff35724561f0b9ca71a7c54d6fc9a5e81727364736f6c634300060c0033",
  "linkReferences": {},
  "deployedLinkReferences": {}
}