{
  "_format": "hh-sol-artifact-1",
  "contractName": "BarterswapRouterV1",
  "sourceName": "contracts/BarterswapRouter.sol",
  "abi": [
    {
      "inputs": [
        {
          "internalType": "address",
          "name": "_feeToAdmin",
          "type": "address"
        }
      ],
      "stateMutability": "nonpayable",
      "type": "constructor"
    },
    {
      "inputs": [],
      "name": "feeTo",
      "outputs": [
        {
          "internalType": "address payable",
          "name": "",
          "type": "address"
        }
      ],
      "stateMutability": "view",
      "type": "function"
    },
    {
      "inputs": [],
      "name": "feeToAdmin",
      "outputs": [
        {
          "internalType": "address",
          "name": "",
          "type": "address"
        }
      ],
      "stateMutability": "view",
      "type": "function"
    },
    {
      "inputs": [],
      "name": "fees",
      "outputs": [
        {
          "internalType": "uint256",
          "name": "",
          "type": "uint256"
        }
      ],
      "stateMutability": "view",
      "type": "function"
    },
    {
      "inputs": [
        {
          "internalType": "uint256[]",
          "name": "amountInArr",
          "type": "uint256[]"
        }
      ],
      "name": "getAmountInAll",
      "outputs": [
        {
          "internalType": "uint256",
          "name": "",
          "type": "uint256"
        }
      ],
      "stateMutability": "pure",
      "type": "function"
    },
    {
      "inputs": [
        {
          "components": [
            {
              "internalType": "uint256[]",
              "name": "amountInArr",
              "type": "uint256[]"
            },
            {
              "internalType": "uint256[]",
              "name": "amountOutMinArr",
              "type": "uint256[]"
            },
            {
              "internalType": "bytes[]",
              "name": "pathArr",
              "type": "bytes[]"
            },
            {
              "internalType": "address",
              "name": "to",
              "type": "address"
            },
            {
              "internalType": "uint256",
              "name": "deadLine",
              "type": "uint256"
            },
            {
              "internalType": "address",
              "name": "inputAddre",
              "type": "address"
            },
            {
              "internalType": "address",
              "name": "outAddre",
              "type": "address"
            },
            {
              "internalType": "uint256[]",
              "name": "routerIndex",
              "type": "uint256[]"
            }
          ],
          "internalType": "struct BarterswapRouterV1.AccessParams",
          "name": "params",
          "type": "tuple"
        }
      ],
      "name": "multiSwap",
      "outputs": [],
      "stateMutability": "payable",
      "type": "function"
    },
    {
      "inputs": [
        {
          "internalType": "uint256",
          "name": "",
          "type": "uint256"
        }
      ],
      "name": "routerAddreAll",
      "outputs": [
        {
          "internalType": "address",
          "name": "",
          "type": "address"
        }
      ],
      "stateMutability": "view",
      "type": "function"
    },
    {
      "inputs": [
        {
          "internalType": "address payable",
          "name": "_feeTo",
          "type": "address"
        }
      ],
      "name": "setFeeTo",
      "outputs": [
        {
          "internalType": "bool",
          "name": "",
          "type": "bool"
        }
      ],
      "stateMutability": "nonpayable",
      "type": "function"
    },
    {
      "inputs": [
        {
          "internalType": "address",
          "name": "_feetoAdmin",
          "type": "address"
        }
      ],
      "name": "setFeeToSetter",
      "outputs": [
        {
          "internalType": "bool",
          "name": "",
          "type": "bool"
        }
      ],
      "stateMutability": "nonpayable",
      "type": "function"
    },
    {
      "inputs": [
        {
          "internalType": "uint256",
          "name": "_fees",
          "type": "uint256"
        }
      ],
      "name": "setFees",
      "outputs": [
        {
          "internalType": "bool",
          "name": "",
          "type": "bool"
        }
      ],
      "stateMutability": "nonpayable",
      "type": "function"
    },
    {
      "inputs": [
        {
          "internalType": "uint256",
          "name": "index",
          "type": "uint256"
        },
        {
          "internalType": "address",
          "name": "_routeraddre",
          "type": "address"
        }
      ],
      "name": "setRouterAddreAll",
      "outputs": [
        {
          "internalType": "bool",
          "name": "",
          "type": "bool"
        }
      ],
      "stateMutability": "nonpayable",
      "type": "function"
    },
    {
      "stateMutability": "payable",
      "type": "receive"
    }
  ],
  "bytecode": "0x60806040523480156200001157600080fd5b5060405162001e6738038062001e67833981810160405281019062000037919062000096565b80600160006101000a81548173ffffffffffffffffffffffffffffffffffffffff021916908373ffffffffffffffffffffffffffffffffffffffff1602179055505062000110565b6000815190506200009081620000f6565b92915050565b600060208284031215620000a957600080fd5b6000620000b9848285016200007f565b91505092915050565b6000620000cf82620000d6565b9050919050565b600073ffffffffffffffffffffffffffffffffffffffff82169050919050565b6200010181620000c2565b81146200010d57600080fd5b50565b611d4780620001206000396000f3fe6080604052600436106100955760003560e01c80639af1d35a116100595780639af1d35a1461018d578063a2e74af6146101b8578063f46901ed146101f5578063f654df7a14610232578063fd07291f1461026f5761009c565b8063017e7e58146100a1578063257b66b0146100cc5780632c38c208146101095780633d18678e146101255780638e7fa96a146101625761009c565b3661009c57005b600080fd5b3480156100ad57600080fd5b506100b66102ac565b6040516100c39190611840565b60405180910390f35b3480156100d857600080fd5b506100f360048036038101906100ee919061147e565b6102d0565b6040516101009190611825565b60405180910390f35b610123600480360381019061011e919061143d565b610303565b005b34801561013157600080fd5b5061014c6004803603810190610147919061147e565b6108bf565b60405161015991906118bb565b60405180910390f35b34801561016e57600080fd5b506101776109a5565b6040516101849190611825565b60405180910390f35b34801561019957600080fd5b506101a26109cb565b6040516101af91906119d8565b60405180910390f35b3480156101c457600080fd5b506101df60048036038101906101da9190611381565b6109d1565b6040516101ec91906118bb565b60405180910390f35b34801561020157600080fd5b5061021c600480360381019061021791906113aa565b610b1d565b60405161022991906118bb565b60405180910390f35b34801561023e57600080fd5b50610259600480360381019061025491906114a7565b610c68565b60405161026691906118bb565b60405180910390f35b34801561027b57600080fd5b50610296600480360381019061029191906113d3565b610dc6565b6040516102a391906119d8565b60405180910390f35b60008054906101000a900473ffffffffffffffffffffffffffffffffffffffff1681565b60036020528060005260406000206000915054906101000a900473ffffffffffffffffffffffffffffffffffffffff1681565b600061035d8280600001906103189190611ac2565b80806020026020016040519081016040528093929190818152602001838360200280828437600081840152601f19601f82011690508083019250505050505050610dc6565b90506000610390670de0b6b3a764000061038260025485610e0490919063ffffffff16565b610e7490919063ffffffff16565b9050600073ffffffffffffffffffffffffffffffffffffffff168360a00160208101906103bd9190611381565b73ffffffffffffffffffffffffffffffffffffffff16141561044c57808201341461041d576040517f08c379a0000000000000000000000000000000000000000000000000000000008152600401610414906119b8565b60405180910390fd5b61044760008054906101000a900473ffffffffffffffffffffffffffffffffffffffff1682610ebe565b6104a9565b61046a8360a00160208101906104629190611381565b333085610fbc565b6104a88360a00160208101906104809190611381565b3360008054906101000a900473ffffffffffffffffffffffffffffffffffffffff1684610fbc565b5b60005b8380600001906104bc9190611ac2565b90508110156108b957600060036000868060e001906104db9190611ac2565b858181106104e557fe5b90506020020135815260200190815260200160002060009054906101000a900473ffffffffffffffffffffffffffffffffffffffff169050600073ffffffffffffffffffffffffffffffffffffffff168560a00160208101906105489190611381565b73ffffffffffffffffffffffffffffffffffffffff1614156106b05761058e818680600001906105789190611ac2565b8581811061058257fe5b90506020020135610ebe565b8073ffffffffffffffffffffffffffffffffffffffff1663b1a271d48680600001906105ba9190611ac2565b858181106105c457fe5b905060200201358780602001906105db9190611ac2565b868181106105e557fe5b905060200201358880604001906105fc9190611a6b565b8781811061060657fe5b90506020028101906106189190611b19565b8a606001602081019061062b9190611381565b8b608001358c60a00160208101906106439190611381565b8d60c00160208101906106569190611381565b6040518963ffffffff1660e01b81526004016106799897969594939291906119f3565b600060405180830381600087803b15801561069357600080fd5b505af11580156106a7573d6000803e3d6000fd5b505050506108ab565b8460a00160208101906106c39190611381565b73ffffffffffffffffffffffffffffffffffffffff1663095ea7b3828780600001906106ef9190611ac2565b868181106106f957fe5b905060200201356040518363ffffffff1660e01b815260040161071d929190611892565b602060405180830381600087803b15801561073757600080fd5b505af115801561074b573d6000803e3d6000fd5b505050506040513d601f19601f8201168201806040525081019061076f9190611414565b5061078d8560a00160208101906107869190611381565b82866110f6565b8073ffffffffffffffffffffffffffffffffffffffff1663b1a271d48680600001906107b99190611ac2565b858181106107c357fe5b905060200201358780602001906107da9190611ac2565b868181106107e457fe5b905060200201358880604001906107fb9190611a6b565b8781811061080557fe5b90506020028101906108179190611b19565b8a606001602081019061082a9190611381565b8b608001358c60a00160208101906108429190611381565b8d60c00160208101906108559190611381565b6040518963ffffffff1660e01b81526004016108789897969594939291906119f3565b600060405180830381600087803b15801561089257600080fd5b505af11580156108a6573d6000803e3d6000fd5b505050505b5080806001019150506104ac565b50505050565b6000600160009054906101000a900473ffffffffffffffffffffffffffffffffffffffff1673ffffffffffffffffffffffffffffffffffffffff163373ffffffffffffffffffffffffffffffffffffffff1614610951576040517f08c379a000000000000000000000000000000000000000000000000000000000815260040161094890611958565b60405180910390fd5b6000821415610995576040517f08c379a000000000000000000000000000000000000000000000000000000000815260040161098c90611998565b60405180910390fd5b8160028190555060019050919050565b600160009054906101000a900473ffffffffffffffffffffffffffffffffffffffff1681565b60025481565b6000600160009054906101000a900473ffffffffffffffffffffffffffffffffffffffff1673ffffffffffffffffffffffffffffffffffffffff163373ffffffffffffffffffffffffffffffffffffffff1614610a63576040517f08c379a0000000000000000000000000000000000000000000000000000000008152600401610a5a90611958565b60405180910390fd5b600073ffffffffffffffffffffffffffffffffffffffff168273ffffffffffffffffffffffffffffffffffffffff161415610ad3576040517f08c379a0000000000000000000000000000000000000000000000000000000008152600401610aca90611998565b60405180910390fd5b81600160006101000a81548173ffffffffffffffffffffffffffffffffffffffff021916908373ffffffffffffffffffffffffffffffffffffffff16021790555060019050919050565b6000600160009054906101000a900473ffffffffffffffffffffffffffffffffffffffff1673ffffffffffffffffffffffffffffffffffffffff163373ffffffffffffffffffffffffffffffffffffffff1614610baf576040517f08c379a0000000000000000000000000000000000000000000000000000000008152600401610ba690611958565b60405180910390fd5b600073ffffffffffffffffffffffffffffffffffffffff168273ffffffffffffffffffffffffffffffffffffffff161415610c1f576040517f08c379a0000000000000000000000000000000000000000000000000000000008152600401610c1690611998565b60405180910390fd5b816000806101000a81548173ffffffffffffffffffffffffffffffffffffffff021916908373ffffffffffffffffffffffffffffffffffffffff16021790555060019050919050565b6000600160009054906101000a900473ffffffffffffffffffffffffffffffffffffffff1673ffffffffffffffffffffffffffffffffffffffff163373ffffffffffffffffffffffffffffffffffffffff1614610cfa576040517f08c379a0000000000000000000000000000000000000000000000000000000008152600401610cf190611958565b60405180910390fd5b600073ffffffffffffffffffffffffffffffffffffffff168273ffffffffffffffffffffffffffffffffffffffff161415610d6a576040517f08c379a0000000000000000000000000000000000000000000000000000000008152600401610d6190611998565b60405180910390fd5b816003600085815260200190815260200160002060006101000a81548173ffffffffffffffffffffffffffffffffffffffff021916908373ffffffffffffffffffffffffffffffffffffffff1602179055506001905092915050565b60008060005b8351811015610dfa57838181518110610de157fe5b6020026020010151820191508080600101915050610dcc565b5080915050919050565b600080831415610e175760009050610e6e565b6000828402905082848281610e2857fe5b0414610e69576040517f08c379a0000000000000000000000000000000000000000000000000000000008152600401610e6090611938565b60405180910390fd5b809150505b92915050565b6000610eb683836040518060400160405280601a81526020017f536166654d6174683a206469766973696f6e206279207a65726f00000000000081525061122d565b905092915050565b60008273ffffffffffffffffffffffffffffffffffffffff1682600067ffffffffffffffff81118015610ef057600080fd5b506040519080825280601f01601f191660200182016040528015610f235781602001600182028036833780820191505090505b50604051610f31919061180e565b60006040518083038185875af1925050503d8060008114610f6e576040519150601f19603f3d011682016040523d82523d6000602084013e610f73565b606091505b5050905080610fb7576040517f08c379a0000000000000000000000000000000000000000000000000000000008152600401610fae90611918565b60405180910390fd5b505050565b600060608573ffffffffffffffffffffffffffffffffffffffff166323b872dd868686604051602401610ff19392919061185b565b6040516020818303038152906040529060e01b6020820180517bffffffffffffffffffffffffffffffffffffffffffffffffffffffff838183161783525050505060405161103f919061180e565b6000604051808303816000865af19150503d806000811461107c576040519150601f19603f3d011682016040523d82523d6000602084013e611081565b606091505b50915091508180156110af57506000815114806110ae5750808060200190518101906110ad9190611414565b5b5b6110ee576040517f08c379a00000000000000000000000000000000000000000000000000000000081526004016110e5906118f8565b60405180910390fd5b505050505050565b600060608473ffffffffffffffffffffffffffffffffffffffff1663a9059cbb8585604051602401611129929190611892565b6040516020818303038152906040529060e01b6020820180517bffffffffffffffffffffffffffffffffffffffffffffffffffffffff8381831617835250505050604051611177919061180e565b6000604051808303816000865af19150503d80600081146111b4576040519150601f19603f3d011682016040523d82523d6000602084013e6111b9565b606091505b50915091508180156111e757506000815114806111e65750808060200190518101906111e59190611414565b5b5b611226576040517f08c379a000000000000000000000000000000000000000000000000000000000815260040161121d90611978565b60405180910390fd5b5050505050565b60008083118290611274576040517f08c379a000000000000000000000000000000000000000000000000000000000815260040161126b91906118d6565b60405180910390fd5b50600083858161128057fe5b049050809150509392505050565b60008135905061129d81611cb5565b92915050565b6000813590506112b281611ccc565b92915050565b600082601f8301126112c957600080fd5b81356112dc6112d782611b9d565b611b70565b9150818183526020840193506020810190508385602084028201111561130157600080fd5b60005b838110156113315781611317888261136c565b845260208401935060208301925050600181019050611304565b5050505092915050565b60008151905061134a81611ce3565b92915050565b6000610100828403121561136357600080fd5b81905092915050565b60008135905061137b81611cfa565b92915050565b60006020828403121561139357600080fd5b60006113a18482850161128e565b91505092915050565b6000602082840312156113bc57600080fd5b60006113ca848285016112a3565b91505092915050565b6000602082840312156113e557600080fd5b600082013567ffffffffffffffff8111156113ff57600080fd5b61140b848285016112b8565b91505092915050565b60006020828403121561142657600080fd5b60006114348482850161133b565b91505092915050565b60006020828403121561144f57600080fd5b600082013567ffffffffffffffff81111561146957600080fd5b61147584828501611350565b91505092915050565b60006020828403121561149057600080fd5b600061149e8482850161136c565b91505092915050565b600080604083850312156114ba57600080fd5b60006114c88582860161136c565b92505060206114d98582860161128e565b9150509250929050565b6114ec81611c1a565b82525050565b6114fb81611c08565b82525050565b61150a81611c2c565b82525050565b600061151c8385611bdb565b9350611529838584611c62565b61153283611ca4565b840190509392505050565b600061154882611bc5565b6115528185611bec565b9350611562818560208601611c71565b80840191505092915050565b600061157982611bd0565b6115838185611bf7565b9350611593818560208601611c71565b61159c81611ca4565b840191505092915050565b60006115b4603183611bf7565b91507f5472616e7366657248656c7065723a3a7472616e7366657246726f6d3a20747260008301527f616e7366657246726f6d206661696c65640000000000000000000000000000006020830152604082019050919050565b600061161a603483611bf7565b91507f5472616e7366657248656c7065723a3a736166655472616e736665724554483a60008301527f20455448207472616e73666572206661696c65640000000000000000000000006020830152604082019050919050565b6000611680602183611bf7565b91507f536166654d6174683a206d756c7469706c69636174696f6e206f766572666c6f60008301527f77000000000000000000000000000000000000000000000000000000000000006020830152604082019050919050565b60006116e6601b83611bf7565b91507f426172746572737761705632526f757465723a204558504952454400000000006000830152602082019050919050565b6000611726602d83611bf7565b91507f5472616e7366657248656c7065723a3a736166655472616e736665723a20747260008301527f616e73666572206661696c6564000000000000000000000000000000000000006020830152604082019050919050565b600061178c601583611bf7565b91507f426172746572737761703a20464f5242494444454e00000000000000000000006000830152602082019050919050565b60006117cc600e83611bf7565b91507f50726963652069732077726f6e670000000000000000000000000000000000006000830152602082019050919050565b61180881611c58565b82525050565b600061181a828461153d565b915081905092915050565b600060208201905061183a60008301846114f2565b92915050565b600060208201905061185560008301846114e3565b92915050565b600060608201905061187060008301866114f2565b61187d60208301856114f2565b61188a60408301846117ff565b949350505050565b60006040820190506118a760008301856114f2565b6118b460208301846117ff565b9392505050565b60006020820190506118d06000830184611501565b92915050565b600060208201905081810360008301526118f0818461156e565b905092915050565b60006020820190508181036000830152611911816115a7565b9050919050565b600060208201905081810360008301526119318161160d565b9050919050565b6000602082019050818103600083015261195181611673565b9050919050565b60006020820190508181036000830152611971816116d9565b9050919050565b6000602082019050818103600083015261199181611719565b9050919050565b600060208201905081810360008301526119b18161177f565b9050919050565b600060208201905081810360008301526119d1816117bf565b9050919050565b60006020820190506119ed60008301846117ff565b92915050565b600060e082019050611a08600083018b6117ff565b611a15602083018a6117ff565b8181036040830152611a2881888a611510565b9050611a3760608301876114f2565b611a4460808301866117ff565b611a5160a08301856114f2565b611a5e60c08301846114f2565b9998505050505050505050565b60008083356001602003843603038112611a8457600080fd5b80840192508235915067ffffffffffffffff821115611aa257600080fd5b602083019250602082023603831315611aba57600080fd5b509250929050565b60008083356001602003843603038112611adb57600080fd5b80840192508235915067ffffffffffffffff821115611af957600080fd5b602083019250602082023603831315611b1157600080fd5b509250929050565b60008083356001602003843603038112611b3257600080fd5b80840192508235915067ffffffffffffffff821115611b5057600080fd5b602083019250600182023603831315611b6857600080fd5b509250929050565b6000604051905081810181811067ffffffffffffffff82111715611b9357600080fd5b8060405250919050565b600067ffffffffffffffff821115611bb457600080fd5b602082029050602081019050919050565b600081519050919050565b600081519050919050565b600082825260208201905092915050565b600081905092915050565b600082825260208201905092915050565b6000611c1382611c38565b9050919050565b6000611c2582611c38565b9050919050565b60008115159050919050565b600073ffffffffffffffffffffffffffffffffffffffff82169050919050565b6000819050919050565b82818337600083830152505050565b60005b83811015611c8f578082015181840152602081019050611c74565b83811115611c9e576000848401525b50505050565b6000601f19601f8301169050919050565b611cbe81611c08565b8114611cc957600080fd5b50565b611cd581611c1a565b8114611ce057600080fd5b50565b611cec81611c2c565b8114611cf757600080fd5b50565b611d0381611c58565b8114611d0e57600080fd5b5056fea2646970667358221220fa05ea2aaed7cdf7f64d8d90fc3edecd9dc984634b8ca8bc71a9948d953bd8f064736f6c634300060c0033",
  "linkReferences": {},
  "deployedLinkReferences": {}
}