{
  "_format": "hh-sol-artifact-1",
  "contractName": "kernelQuickSwapV2",
  "sourceName": "contracts/KernelQuickswapv2.sol",
  "abi": [
    {
      "inputs": [],
      "name": "QUICK_SWAP",
      "outputs": [
        {
          "internalType": "address",
          "name": "",
          "type": "address"
        }
      ],
      "stateMutability": "view",
      "type": "function"
    },
    {
      "inputs": [
        {
          "internalType": "uint256",
          "name": "amountInArr",
          "type": "uint256"
        },
        {
          "internalType": "uint256",
          "name": "amountOutMinArr",
          "type": "uint256"
        },
        {
          "internalType": "bytes",
          "name": "pathArr",
          "type": "bytes"
        },
        {
          "internalType": "address",
          "name": "to",
          "type": "address"
        },
        {
          "internalType": "uint256",
          "name": "_deadLine",
          "type": "uint256"
        },
        {
          "internalType": "address",
          "name": "inputAddre",
          "type": "address"
        },
        {
          "internalType": "address",
          "name": "outAddre",
          "type": "address"
        }
      ],
      "name": "filterSwap",
      "outputs": [],
      "stateMutability": "payable",
      "type": "function"
    }
  ],
  "bytecode": "0x608060405234801561001057600080fd5b50610af1806100206000396000f3fe6080604052600436106100295760003560e01c80630ecb8d4f1461002e578063b1a271d414610059575b600080fd5b34801561003a57600080fd5b50610043610075565b6040516100509190610853565b60405180910390f35b610073600480360381019061006e91906106fa565b61008d565b005b73a5e0829caced8ffdd4de3c43696c57f7d7a678ff81565b61009c878787878787876100a5565b50505050505050565b606080868060200190518101906100bc919061064f565b9050600073ffffffffffffffffffffffffffffffffffffffff168473ffffffffffffffffffffffffffffffffffffffff1614156101a55773a5e0829caced8ffdd4de3c43696c57f7d7a678ff73ffffffffffffffffffffffffffffffffffffffff16637ff36ab58a8a848a8a6040518663ffffffff1660e01b81526004016101479493929190610897565b6000604051808303818588803b15801561016057600080fd5b505af1158015610174573d6000803e3d6000fd5b50505050506040513d6000823e3d601f19601f8201168201806040525081019061019e9190610690565b9150610481565b600073ffffffffffffffffffffffffffffffffffffffff168373ffffffffffffffffffffffffffffffffffffffff16141561032f578373ffffffffffffffffffffffffffffffffffffffff1663095ea7b373a5e0829caced8ffdd4de3c43696c57f7d7a678ff8b6040518363ffffffff1660e01b815260040161022992919061086e565b602060405180830381600087803b15801561024357600080fd5b505af1158015610257573d6000803e3d6000fd5b505050506040513d601f19601f8201168201806040525081019061027b91906106d1565b5073a5e0829caced8ffdd4de3c43696c57f7d7a678ff73ffffffffffffffffffffffffffffffffffffffff166318cbafe58a8a848a8a6040518663ffffffff1660e01b81526004016102d19594939291906108e3565b600060405180830381600087803b1580156102eb57600080fd5b505af11580156102ff573d6000803e3d6000fd5b505050506040513d6000823e3d601f19601f820116820180604052508101906103289190610690565b9150610480565b8373ffffffffffffffffffffffffffffffffffffffff1663095ea7b373a5e0829caced8ffdd4de3c43696c57f7d7a678ff8b6040518363ffffffff1660e01b815260040161037e92919061086e565b602060405180830381600087803b15801561039857600080fd5b505af11580156103ac573d6000803e3d6000fd5b505050506040513d601f19601f820116820180604052508101906103d091906106d1565b5073a5e0829caced8ffdd4de3c43696c57f7d7a678ff73ffffffffffffffffffffffffffffffffffffffff166338ed17398a8a848a8a6040518663ffffffff1660e01b81526004016104269594939291906108e3565b600060405180830381600087803b15801561044057600080fd5b505af1158015610454573d6000803e3d6000fd5b505050506040513d6000823e3d601f19601f8201168201806040525081019061047d9190610690565b91505b5b505050505050505050565b60008135905061049b81610a76565b92915050565b6000815190506104b081610a76565b92915050565b600082601f8301126104c757600080fd5b81516104da6104d58261096a565b61093d565b915081818352602084019350602081019050838560208402820111156104ff57600080fd5b60005b8381101561052f578161051588826104a1565b845260208401935060208301925050600181019050610502565b5050505092915050565b600082601f83011261054a57600080fd5b815161055d61055882610992565b61093d565b9150818183526020840193506020810190508385602084028201111561058257600080fd5b60005b838110156105b25781610598888261063a565b845260208401935060208301925050600181019050610585565b5050505092915050565b6000815190506105cb81610a8d565b92915050565b600082601f8301126105e257600080fd5b81356105f56105f0826109ba565b61093d565b9150808252602083016020830185838301111561061157600080fd5b61061c838284610a67565b50505092915050565b60008135905061063481610aa4565b92915050565b60008151905061064981610aa4565b92915050565b60006020828403121561066157600080fd5b600082015167ffffffffffffffff81111561067b57600080fd5b610687848285016104b6565b91505092915050565b6000602082840312156106a257600080fd5b600082015167ffffffffffffffff8111156106bc57600080fd5b6106c884828501610539565b91505092915050565b6000602082840312156106e357600080fd5b60006106f1848285016105bc565b91505092915050565b600080600080600080600060e0888a03121561071557600080fd5b60006107238a828b01610625565b97505060206107348a828b01610625565b965050604088013567ffffffffffffffff81111561075157600080fd5b61075d8a828b016105d1565b955050606061076e8a828b0161048c565b945050608061077f8a828b01610625565b93505060a06107908a828b0161048c565b92505060c06107a18a828b0161048c565b91505092959891949750929550565b60006107bc83836107c8565b60208301905092915050565b6107d181610a1f565b82525050565b6107e081610a1f565b82525050565b60006107f1826109f6565b6107fb8185610a0e565b9350610806836109e6565b8060005b8381101561083757815161081e88826107b0565b975061082983610a01565b92505060018101905061080a565b5085935050505092915050565b61084d81610a5d565b82525050565b600060208201905061086860008301846107d7565b92915050565b600060408201905061088360008301856107d7565b6108906020830184610844565b9392505050565b60006080820190506108ac6000830187610844565b81810360208301526108be81866107e6565b90506108cd60408301856107d7565b6108da6060830184610844565b95945050505050565b600060a0820190506108f86000830188610844565b6109056020830187610844565b818103604083015261091781866107e6565b905061092660608301856107d7565b6109336080830184610844565b9695505050505050565b6000604051905081810181811067ffffffffffffffff8211171561096057600080fd5b8060405250919050565b600067ffffffffffffffff82111561098157600080fd5b602082029050602081019050919050565b600067ffffffffffffffff8211156109a957600080fd5b602082029050602081019050919050565b600067ffffffffffffffff8211156109d157600080fd5b601f19601f8301169050602081019050919050565b6000819050602082019050919050565b600081519050919050565b6000602082019050919050565b600082825260208201905092915050565b6000610a2a82610a3d565b9050919050565b60008115159050919050565b600073ffffffffffffffffffffffffffffffffffffffff82169050919050565b6000819050919050565b82818337600083830152505050565b610a7f81610a1f565b8114610a8a57600080fd5b50565b610a9681610a31565b8114610aa157600080fd5b50565b610aad81610a5d565b8114610ab857600080fd5b5056fea2646970667358221220f1a5fa3fde3fc8549dbb445f32d3970cd5264f64c261a035a5deca8a7014104664736f6c634300060c0033",
  "linkReferences": {},
  "deployedLinkReferences": {}
}